{"contracts/core/EscrowFactory.sol":{"EscrowFactory":{"abi":[{"inputs":[{"internalType":"address","name":"_platformWallet","type":"address"},{"internalType":"uint256","name":"_platformFee","type":"uint256"},{"internalType":"address","name":"_defaultAgent","type":"address"},{"internalType":"address","name":"_defaultArbiter","type":"address"}],"stateMutability":"nonpayable","type":"constructor"},{"anonymous":false,"inputs":[{"indexed":true,"internalType":"address","name":"agent","type":"address"}],"name":"DefaultAgentSet","type":"event"},{"anonymous":false,"inputs":[{"indexed":true,"internalType":"address","name":"arbiter","type":"address"}],"name":"DefaultArbiterSet","type":"event"},{"anonymous":false,"inputs":[{"indexed":true,"internalType":"address","name":"escrowContract","type":"address"},{"indexed":true,"internalType":"address","name":"creator","type":"address"},{"indexed":true,"internalType":"uint256","name":"escrowId","type":"uint256"}],"name":"EscrowContractDeployed","type":"event"},{"anonymous":false,"inputs":[{"indexed":true,"internalType":"address","name":"previousOwner","type":"address"},{"indexed":true,"internalType":"address","name":"newOwner","type":"address"}],"name":"OwnershipTransferred","type":"event"},{"anonymous":false,"inputs":[{"indexed":false,"internalType":"uint256","name":"newFee","type":"uint256"}],"name":"PlatformFeeUpdated","type":"event"},{"anonymous":false,"inputs":[{"indexed":true,"internalType":"address","name":"token","type":"address"},{"indexed":false,"internalType":"bool","name":"whitelisted","type":"bool"}],"name":"TokenWhitelisted","type":"event"},{"inputs":[],"name":"MAX_PLATFORM_FEE","outputs":[{"internalType":"uint256","name":"","type":"uint256"}],"stateMutability":"view","type":"function"},{"inputs":[{"internalType":"string","name":"propertyId","type":"string"},{"internalType":"address","name":"buyer","type":"address"},{"internalType":"address","name":"seller","type":"address"},{"internalType":"address","name":"agent","type":"address"},{"internalType":"address","name":"arbiter","type":"address"},{"internalType":"address","name":"tokenAddress","type":"address"},{"internalType":"uint256","name":"amount","type":"uint256"},{"internalType":"uint256","name":"deadline","type":"uint256"},{"internalType":"string","name":"description","type":"string"}],"name":"createEscrow","outputs":[{"internalType":"address","name":"escrowContract","type":"address"},{"internalType":"uint256","name":"escrowId","type":"uint256"}],"stateMutability":"nonpayable","type":"function"},{"inputs":[{"components":[{"internalType":"address","name":"buyer","type":"address"},{"internalType":"address","name":"seller","type":"address"},{"internalType":"address","name":"agent","type":"address"},{"internalType":"address","name":"arbiter","type":"address"},{"internalType":"address","name":"tokenAddress","type":"address"},{"internalType":"uint256","name":"depositAmount","type":"uint256"},{"internalType":"uint256","name":"agentFee","type":"uint256"},{"internalType":"uint256","name":"platformFee","type":"uint256"},{"components":[{"internalType":"string","name":"propertyId","type":"string"},{"internalType":"string","name":"description","type":"string"},{"internalType":"uint256","name":"salePrice","type":"uint256"},{"internalType":"string","name":"documentHash","type":"string"},{"internalType":"bool","name":"verified","type":"bool"}],"internalType":"struct EscrowStructs.Property","name":"property","type":"tuple"},{"internalType":"uint256","name":"depositDeadline","type":"uint256"},{"internalType":"uint256","name":"verificationDeadline","type":"uint256"}],"internalType":"struct EscrowStructs.CreateEscrowParams","name":"params","type":"tuple"}],"name":"createEscrowWithStruct","outputs":[{"internalType":"address","name":"escrowContract","type":"address"},{"internalType":"uint256","name":"escrowId","type":"uint256"}],"stateMutability":"nonpayable","type":"function"},{"inputs":[],"name":"getDefaultAgent","outputs":[{"internalType":"address","name":"","type":"address"}],"stateMutability":"view","type":"function"},{"inputs":[],"name":"getDefaultArbiter","outputs":[{"internalType":"address","name":"","type":"address"}],"stateMutability":"view","type":"function"},{"inputs":[{"internalType":"uint256","name":"escrowId","type":"uint256"}],"name":"getEscrowContract","outputs":[{"internalType":"address","name":"","type":"address"}],"stateMutability":"view","type":"function"},{"inputs":[],"name":"getEscrowCount","outputs":[{"internalType":"uint256","name":"","type":"uint256"}],"stateMutability":"view","type":"function"},{"inputs":[],"name":"getPlatformFee","outputs":[{"internalType":"uint256","name":"","type":"uint256"}],"stateMutability":"view","type":"function"},{"inputs":[{"internalType":"address","name":"token","type":"address"}],"name":"isTokenWhitelisted","outputs":[{"internalType":"bool","name":"","type":"bool"}],"stateMutability":"view","type":"function"},{"inputs":[],"name":"owner","outputs":[{"internalType":"address","name":"","type":"address"}],"stateMutability":"view","type":"function"},{"inputs":[],"name":"platformWallet","outputs":[{"internalType":"address","name":"","type":"address"}],"stateMutability":"view","type":"function"},{"inputs":[{"internalType":"address","name":"token","type":"address"}],"name":"removeTokenFromWhitelist","outputs":[],"stateMutability":"nonpayable","type":"function"},{"inputs":[],"name":"renounceOwnership","outputs":[],"stateMutability":"nonpayable","type":"function"},{"inputs":[{"internalType":"address","name":"agent","type":"address"}],"name":"setDefaultAgent","outputs":[],"stateMutability":"nonpayable","type":"function"},{"inputs":[{"internalType":"address","name":"arbiter","type":"address"}],"name":"setDefaultArbiter","outputs":[],"stateMutability":"nonpayable","type":"function"},{"inputs":[{"internalType":"uint256","name":"fee","type":"uint256"}],"name":"setPlatformFee","outputs":[],"stateMutability":"nonpayable","type":"function"},{"inputs":[{"internalType":"address","name":"token","type":"address"},{"internalType":"bool","name":"whitelisted","type":"bool"}],"name":"setTokenWhitelist","outputs":[],"stateMutability":"nonpayable","type":"function"},{"inputs":[{"internalType":"address","name":"newOwner","type":"address"}],"name":"transferOwnership","outputs":[],"stateMutability":"nonpayable","type":"function"},{"inputs":[{"internalType":"address","name":"token","type":"address"},{"internalType":"bool","name":"whitelisted","type":"bool"}],"name":"whitelistToken","outputs":[],"stateMutability":"nonpayable","type":"function"},{"inputs":[{"internalType":"address","name":"","type":"address"}],"name":"whitelistedTokens","outputs":[{"internalType":"bool","name":"","type":"bool"}],"stateMutability":"view","type":"function"}],"evm":{"bytecode":{"linkReferences":{},"object":"60a06040523480156200001157600080fd5b506040516200618738038062006187833981016040819052620000349162000175565b6200003f33620000d7565b600180556001600160a01b038416620000755760405162461bcd60e51b81526004016200006c906200020e565b60405180910390fd5b6101f48311156200009a5760405162461bcd60e51b81526004016200006c9062000253565b6001600160a01b03938416608052600692909255600480549184166001600160a01b03199283161790556005805492909316911617905562000265565b600080546001600160a01b038381166001600160a01b0319831681178455604051919092169283917f8be0079c531659141344cd1fd0a4f28419497f9722a3daafe3b4186f6b6457e09190a35050565b60006001600160a01b0382165b92915050565b620001458162000127565b81146200015157600080fd5b50565b805162000134816200013a565b8062000145565b8051620001348162000161565b60008060008060808587031215620001905762000190600080fd5b6200019c868662000154565b9350620001ad866020870162000168565b9250620001be866040870162000154565b9150620001cf866060870162000154565b905092959194509250565b60178152602081017f496e76616c696420706c6174666f726d2077616c6c6574000000000000000000815290505b60200190565b602080825281016200013481620001da565b60158152602081017f506c6174666f726d2066656520746f6f206869676800000000000000000000008152905062000208565b60208082528101620001348162000220565b608051615eff62000288600039600081816102d8015261081a0152615eff6000f3fe60806040523480156200001157600080fd5b5060043610620001125760003560e01c80630ffb1d8b146200011757806312e8e2c3146200013057806316b1513514620001475780632eb73a881462000163578063306275be146200017a5780633998a68114620001915780634bad78db146200019b5780634f9b369f14620001c1578063603c50d514620001e85780636ea8bc1014620001fa578063715018a614620002035780637953eec9146200020d57806387b30266146200021f5780638da5cb5b1462000236578063b5af090f1462000240578063bbdf7243146200027e578063c9bcc97e1462000117578063daf9c2101462000295578063f2fde38b14620002bb578063fa2af9da14620002d2575b600080fd5b6200012e6200012836600462000c45565b620002fa565b005b6200012e6200014136600462000c97565b62000387565b6007545b6040516200015a919062000cc9565b60405180910390f35b6200012e6200017436600462000cd9565b620003f8565b6200012e6200018b36600462000cd9565b6200044c565b6200014b6101f481565b620001b2620001ac36600462000c97565b620004c8565b6040516200015a919062000d07565b620001d8620001d236600462000e2b565b6200050a565b6040516200015a92919062000f2f565b6004546001600160a01b0316620001b2565b6006546200014b565b6200012e62000622565b6005546001600160a01b0316620001b2565b620001d86200023036600462000f6c565b6200063a565b620001b26200066f565b6200026f6200025136600462000cd9565b6001600160a01b031660009081526003602052604090205460ff1690565b6040516200015a919062000fbd565b6200012e6200028f36600462000cd9565b6200067e565b6200026f620002a636600462000cd9565b60036020526000908152604090205460ff1681565b6200012e620002cc36600462000cd9565b620006d2565b620001b27f000000000000000000000000000000000000000000000000000000000000000081565b6200030462000713565b6001600160a01b038216620003365760405162461bcd60e51b81526004016200032d9062000ff9565b60405180910390fd5b6001600160a01b03821660008181526003602052604090819020805460ff19168415151790555160008051602062005eaa833981519152906200037b90849062000fbd565b60405180910390a25050565b6200039162000713565b6101f4811115620003b65760405162461bcd60e51b81526004016200032d906200102d565b60068190556040517f45610d581145924dd7090a5017e5f2b1d6f42213bb2e95707ff86846bbfcb1ca90620003ed90839062000cc9565b60405180910390a150565b6200040262000713565b600480546001600160a01b0319166001600160a01b0383169081179091556040517f9f0c49ac6da1b1d3f7b753b41ba9cdc631d714821b72e79e413399440f87181390600090a250565b6200045662000713565b6001600160a01b0381166200047f5760405162461bcd60e51b81526004016200032d9062000ff9565b6001600160a01b038116600081815260036020526040808220805460ff191690555160008051602062005eaa83398151915291620004bd9162000fbd565b60405180910390a250565b60006007548210620004ee5760405162461bcd60e51b81526004016200032d9062001066565b506000908152600260205260409020546001600160a01b031690565b6000806200051762000747565b60006040518061016001604052808c6001600160a01b031681526020018b6001600160a01b031681526020018a6001600160a01b03168152602001896001600160a01b03168152602001886001600160a01b031681526020018781526020016127108860646200058891906200108e565b620005949190620010be565b815260200160065481526020016040518060a001604052808f81526020018781526020018981526020016040518060200160405280600081525081526020016000151581525081526020018681526020018662093a80620005f69190620010d5565b90529050620006058162000773565b92509250506200061460018055565b995099975050505050505050565b6200062c62000713565b62000638600062000b9a565b565b6000806200064762000747565b6200065c6200065684620012f3565b62000773565b915091506200066a60018055565b915091565b6000546001600160a01b031690565b6200068862000713565b600580546001600160a01b0319166001600160a01b0383169081179091556040517f2151be18e1a9ef97fad5998c8aa002234f4140b219f553eabf2dbdd21c23a39690600090a250565b620006dc62000713565b6001600160a01b038116620007055760405162461bcd60e51b81526004016200032d9062001301565b620007108162000b9a565b50565b336200071e6200066f565b6001600160a01b031614620006385760405162461bcd60e51b81526004016200032d906200137d565b6002600154036200076c5760405162461bcd60e51b81526004016200032d90620013c2565b6002600155565b60808101516001600160a01b0316600090815260036020526040812054819060ff16620007b45760405162461bcd60e51b81526004016200032d90620013ff565b604083015183906001600160a01b0316620007db576004546001600160a01b031660408201525b60608101516001600160a01b031662000800576005546001600160a01b031660608201525b8060e00151600003620008165760065460e08201525b60007f00000000000000000000000000000000000000000000000000000000000000008260e001516040516200084c9062000bea565b6200085992919062000f2f565b604051809103906000f08015801562000876573d6000803e3d6000fd5b506080830151604051630ffb1d8b60e01b81529195508592506001600160a01b03831691630ffb1d8b91620008b19160019060040162001411565b600060405180830381600087803b158015620008cc57600080fd5b505af1158015620008e1573d6000803e3d6000fd5b5050505060408201516001600160a01b031615620009c657806001600160a01b0316632f2ff15d826001600160a01b03166322459e186040518163ffffffff1660e01b8152600401602060405180830381865afa15801562000947573d6000803e3d6000fd5b505050506040513d601f19601f820116820180604052508101906200096d91906200143d565b84604001516040518363ffffffff1660e01b81526004016200099192919062001460565b600060405180830381600087803b158015620009ac57600080fd5b505af1158015620009c1573d6000803e3d6000fd5b505050505b60608201516001600160a01b03161562000aa757806001600160a01b0316632f2ff15d826001600160a01b0316634d104adf6040518163ffffffff1660e01b8152600401602060405180830381865afa15801562000a28573d6000803e3d6000fd5b505050506040513d601f19601f8201168201806040525081019062000a4e91906200143d565b84606001516040518363ffffffff1660e01b815260040162000a7292919062001460565b600060405180830381600087803b15801562000a8d57600080fd5b505af115801562000aa2573d6000803e3d6000fd5b505050505b604051639d5e055160e01b81526001600160a01b03821690639d5e05519062000ad59085906004016200165a565b6020604051808303816000875af115801562000af5573d6000803e3d6000fd5b505050506040513d601f19601f8201168201806040525081019062000b1b91906200143d565b60078054600090815260026020526040812080546001600160a01b0319166001600160a01b038916179055815492955062000b56836200166d565b9091555050604051839033906001600160a01b038716907ff04881845615a90c5228ceb3942839403fea454de5e4b34dc7266a641c5839e790600090a45050915091565b600080546001600160a01b038381166001600160a01b0319831681178455604051919092169283917f8be0079c531659141344cd1fd0a4f28419497f9722a3daafe3b4186f6b6457e09190a35050565b614820806200168a83390190565b60006001600160a01b0382165b92915050565b62000c168162000bf8565b81146200071057600080fd5b803562000c058162000c0b565b80151562000c16565b803562000c058162000c2f565b6000806040838503121562000c5d5762000c5d600080fd5b62000c69848462000c22565b915062000c7a846020850162000c38565b90509250929050565b8062000c16565b803562000c058162000c83565b60006020828403121562000cae5762000cae600080fd5b62000cba838362000c8a565b9392505050565b805b82525050565b6020810162000c05828462000cc1565b60006020828403121562000cf05762000cf0600080fd5b62000cba838362000c22565b62000cc38162000bf8565b6020810162000c05828462000cfc565b601f01601f191690565b634e487b7160e01b600052604160045260246000fd5b62000d428262000d17565b81016001600160401b038111828210171562000d625762000d6262000d21565b6040525050565b600062000d7560405190565b905062000d83828262000d37565b919050565b60006001600160401b0382111562000da45762000da462000d21565b62000daf8262000d17565b60200192915050565b82818337506000910152565b600062000ddb62000dd58462000d88565b62000d69565b905082815283838301111562000df45762000df4600080fd5b62000cba83602083018462000db8565b600082601f83011262000e1a5762000e1a600080fd5b62000cba8383356020850162000dc4565b60008060008060008060008060006101208a8c03121562000e4f5762000e4f600080fd5b89356001600160401b0381111562000e6a5762000e6a600080fd5b62000e788c828d0162000e04565b99505062000e8a8b60208c0162000c22565b975062000e9b8b60408c0162000c22565b965062000eac8b60608c0162000c22565b955062000ebd8b60808c0162000c22565b945062000ece8b60a08c0162000c22565b935062000edf8b60c08c0162000c8a565b925062000ef08b60e08c0162000c8a565b91506101008a01356001600160401b0381111562000f115762000f11600080fd5b62000f1f8c828d0162000e04565b9150509295985092959850929598565b6040810162000f3f828562000cfc565b62000cba602083018462000cc1565b6000610160828403121562000f665762000f66600080fd5b50919050565b60006020828403121562000f835762000f83600080fd5b81356001600160401b0381111562000f9e5762000f9e600080fd5b62000fac8482850162000f4e565b949350505050565b80151562000cc3565b6020810162000c05828462000fb4565b601581526020810174496e76616c696420746f6b656e206164647265737360581b815290505b60200190565b6020808252810162000c058162000fcd565b600c8152602081016b08ccaca40e8dede40d0d2ced60a31b8152905062000ff3565b6020808252810162000c05816200100b565b601181526020810170125b9d985b1a5908195cd8dc9bddc81251607a1b8152905062000ff3565b6020808252810162000c05816200103f565b634e487b7160e01b600052601160045260246000fd5b818102811582820484141762000c055762000c0562001078565b634e487b7160e01b600052601260045260246000fd5b600082620010d057620010d0620010a8565b500490565b8082018082111562000c055762000c0562001078565b600060a08284031215620011025762001102600080fd5b6200110e60a062000d69565b905081356001600160401b038111156200112b576200112b600080fd5b620011398482850162000e04565b82525060208201356001600160401b038111156200115a576200115a600080fd5b620011688482850162000e04565b6020830152506200117d836040840162000c8a565b604082015260608201356001600160401b03811115620011a057620011a0600080fd5b620011ae8482850162000e04565b606083015250620011c3836080840162000c38565b608082015292915050565b60006101608284031215620011e657620011e6600080fd5b620011f361016062000d69565b905062001201838362000c22565b815262001212836020840162000c22565b602082015262001226836040840162000c22565b60408201526200123a836060840162000c22565b60608201526200124e836080840162000c22565b6080820152620012628360a0840162000c8a565b60a0820152620012768360c0840162000c8a565b60c08201526200128a8360e0840162000c8a565b60e08201526101008201356001600160401b03811115620012ae57620012ae600080fd5b620012bc84828501620010eb565b61010083015250610120620012d48482850162000c8a565b90820152610140620012e98484830162000c8a565b9082015292915050565b600062000c053683620011ce565b6020808252810162000c0581602681527f4f776e61626c653a206e6577206f776e657220697320746865207a65726f206160208201526564647265737360d01b604082015260600190565b60208082527f4f776e61626c653a2063616c6c6572206973206e6f7420746865206f776e6572910190815262000ff3565b6020808252810162000c05816200134c565b601f8152602081017f5265656e7472616e637947756172643a207265656e7472616e742063616c6c008152905062000ff3565b6020808252810162000c05816200138f565b601581526020810174151bdad95b881b9bdd081dda1a5d195b1a5cdd1959605a1b8152905062000ff3565b6020808252810162000c0581620013d4565b6040810162001421828562000cfc565b62000cba602083018462000fb4565b805162000c058162000c83565b600060208284031215620014545762001454600080fd5b62000cba838362001430565b6040810162001470828562000cc1565b62000cba602083018462000cfc565b60005b838110156200149c57818101518382015260200162001482565b50506000910152565b6000620014b0825190565b808452602084019350620014c98185602086016200147f565b620014d48162000d17565b9093019392505050565b805160a080845260009190840190620014f88282620014a5565b91505060208301518482036020860152620015148282620014a5565b91505060408301516200152b604086018262000cc1565b5060608301518482036060860152620015458282620014a5565b91505060808301516200155c608086018262000fb4565b509392505050565b80516000906101608401906200157b858262000cfc565b50602083015162001590602086018262000cfc565b506040830151620015a5604086018262000cfc565b506060830151620015ba606086018262000cfc565b506080830151620015cf608086018262000cfc565b5060a0830151620015e460a086018262000cc1565b5060c0830151620015f960c086018262000cc1565b5060e08301516200160e60e086018262000cc1565b506101008301518482036101008601526200162a8282620014de565b9150506101208301516200164361012086018262000cc1565b506101408301516200155c61014086018262000cc1565b6020808252810162000cba818462001564565b60006001820162001682576200168262001078565b506001019056fe60806040523480156200001157600080fd5b506040516200482038038062004820833981016040819052620000349162000208565b60016000819055805460ff191690556001600160a01b0382166200007657604051630b0f5aa160e11b81526004016200006d9062000246565b60405180910390fd5b6101f4811115620000a257806101f46040516373ab893560e11b81526004016200006d92919062000273565b600880546001600160a01b0319166001600160a01b0384161790556007819055620000cf60003362000103565b620000fb7fa49807205ce4d355092ef5a8a18f56e8913cf4a201fbe287825b095693c217753362000103565b50506200028e565b6200010f82826200018e565b6200018a5760008281526002602090815260408083206001600160a01b03851684529091529020805460ff19166001179055620001493390565b6001600160a01b0316816001600160a01b0316837f2f8788117e7eff1d82e926ec794901d17c78024a50270940304540a733656f0d60405160405180910390a45b5050565b60008281526002602090815260408083206001600160a01b038516845290915290205460ff165b92915050565b60006001600160a01b038216620001b5565b620001d881620001bb565b8114620001e457600080fd5b50565b8051620001b581620001cd565b80620001d8565b8051620001b581620001f4565b60008060408385031215620002205762000220600080fd5b6200022c8484620001e7565b91506200023d8460208501620001fb565b90509250929050565b60208082528101620001b581600e81526d1c1b185d199bdc9b55d85b1b195d60921b602082015260400190565b828152604081016200028760208301849052565b9392505050565b614582806200029e6000396000f3fe608060405234801561001057600080fd5b50600436106101a15760003560e01c806301ffc9a7146101a657806308b88af1146101cf5780630ffb1d8b146101e257806312e8e2c3146101f75780631e31a6dd1461020a57806322459e1814610212578063248a9ca3146102465780632840662d146102595780632f2ff15d1461026c57806336568abe1461027f57806339292763146102925780633998a681146102a55780633a49995b146102ae5780633b76594d146102ce5780633f4ba83a146102e15780633f4dbda2146102e957806346b6cfd3146102f15780634d104adf146103045780634d68282f1461032b5780635aef573c1461033e5780635c975abb1461035157806375b238fc1461035c5780637d19e596146103715780638456cb591461039157806391d14854146103995780639d5e0551146103ac578063a217fddf146103bf578063b138821e146103c7578063b49b0cb3146103da578063cdd78cfc146103ed578063d547741f146103f6578063daf9c21014610409578063e01824361461042c578063e1f1c4a71461043f578063fa2af9da14610448575b600080fd5b6101b96101b43660046130c0565b610468565b6040516101c691906130e9565b60405180910390f35b6101b96101dd366004613108565b61049f565b6101f56101f036600461315f565b6108db565b005b6101f5610205366004613108565b61091f565b6101f561095f565b6102397fcab5a0bfe0b79d2c4b1c2e02599fa044d115b7511f9659307cb427695096770981565b6040516101c6919061319d565b610239610254366004613108565b610af7565b6101f56102673660046131fc565b610b0c565b6101f561027a366004613264565b610ccd565b6101f561028d366004613264565b610cee565b6101f56102a0366004613108565b610d24565b6102396101f481565b6102c16102bc366004613108565b610da4565b6040516101c691906132d7565b6101f56102dc366004613108565b610de5565b6101f5610f5c565b600654610239565b6101f56102ff366004613108565b610f7c565b6102397fbb08418a67729a078f87bbc8d02a770929bb68f5bfdf134ae2ead6ed38e2f4ae81565b6101f5610339366004613108565b6110ef565b6101f561034c3660046132e5565b6112fe565b60015460ff166101b9565b61023960008051602061450d83398151915281565b61038461037f366004613108565b611981565b6040516101c691906135a5565b6101f5611d36565b6101b96103a7366004613264565b611d56565b6102396103ba3660046135cc565b611d81565b610239600081565b6101f56103d5366004613108565b61217e565b6101f56103e8366004613606565b612365565b61023960075481565b6101f5610404366004613264565b612391565b6101b9610417366004613635565b60056020526000908152604090205460ff1681565b6101f561043a366004613108565b6123ad565b61023961271081565b60085461045b906001600160a01b031681565b6040516101c69190613654565b60006001600160e01b03198216637965db0b60e01b148061049957506301ffc9a760e01b6001600160e01b03198316145b92915050565b60008160065481106104cf5780604051630f6ceba360e21b81526004016104c6919061319d565b60405180910390fd5b60008381526003602081815260408084208151610240810183528154815260018201546001600160a01b039081169482019490945260028201548416928101929092529283015482166060820152600483015482166080820152600583015490911660a082015260068083015460c0830152600783015460e08301526008830154610100830152600983015491929161012084019160ff9091169081111561057957610579613293565b600681111561058a5761058a613293565b8152602001600a82016040518060a00160405290816000820180546105ae90613678565b80601f01602080910402602001604051908101604052809291908181526020018280546105da90613678565b80156106275780601f106105fc57610100808354040283529160200191610627565b820191906000526020600020905b81548152906001019060200180831161060a57829003601f168201915b5050505050815260200160018201805461064090613678565b80601f016020809104026020016040519081016040528092919081815260200182805461066c90613678565b80156106b95780601f1061068e576101008083540402835291602001916106b9565b820191906000526020600020905b81548152906001019060200180831161069c57829003601f168201915b50505050508152602001600282015481526020016003820180546106dc90613678565b80601f016020809104026020016040519081016040528092919081815260200182805461070890613678565b80156107555780601f1061072a57610100808354040283529160200191610755565b820191906000526020600020905b81548152906001019060200180831161073857829003601f168201915b50505091835250506004919091015460ff9081161515602092830152918352600f84015490830152601083015460408301526011830154606083015260128301548082161515608084015261010081048216151560a084015262010000900416151560c082015260138201805460e0909201916107d190613678565b80601f01602080910402602001604051908101604052809291908181526020018280546107fd90613678565b801561084a5780601f1061081f5761010080835404028352916020019161084a565b820191906000526020600020905b81548152906001019060200180831161082d57829003601f168201915b50505050508152505090506002600681111561086857610868613293565b816101200151600681111561087f5761087f613293565b1480156108925750806101400151608001515b80156108a05750806101c001515b80156108ae5750806101e001515b80156108d1575060608101516001600160a01b031615806108d157508061020001515b9250505b50919050565b60008051602061450d8339815191526108f3816128d7565b506001600160a01b03919091166000908152600560205260409020805460ff1916911515919091179055565b60008051602061450d833981519152610937816128d7565b6101f48211156109595760405162461bcd60e51b81526004016104c6906136c1565b50600755565b600080805260036020527f3617319a054d772f909f7c479a2cebe5066e836a939412e32403c99029b92f00547f3617319a054d772f909f7c479a2cebe5066e836a939412e32403c99029b92eff91906001600160a01b031633036109f957601282015460ff16156109e25760405162461bcd60e51b81526004016104c6906136fc565b5060128101805460ff191660011790556000610ac2565b60028201546001600160a01b03163303610a50576012820154610100900460ff1615610a375760405162461bcd60e51b81526004016104c690613738565b5060128101805461ff0019166101001790556001610ac2565b60038201546001600160a01b03163303610aaa57601282015462010000900460ff1615610a8f5760405162461bcd60e51b81526004016104c690613773565b5060128101805462ff00001916620100001790556002610ac2565b60405162461bcd60e51b81526004016104c6906137b1565b336001600160a01b0316600060008051602061452d83398151915283604051610aeb91906137ef565b60405180910390a35050565b60009081526002602052604090206001015490565b610b146128e1565b610b1c61290a565b836006548110610b415780604051630f6ceba360e21b81526004016104c6919061319d565b8460048060008381526003602052604090206009015460ff166006811115610b6b57610b6b613293565b14610ba6576000828152600360205260409081902060090154905163350b7a7f60e21b81526104c691849160ff9091169084906004016137fd565b600087815260036020526040902060048101546001600160a01b0316331480610be25750610be260008051602061450d83398151915233611d56565b610bfe5760405162461bcd60e51b81526004016104c690613863565b600088815260046020819052604090912060038101805433610100026001600160a81b0319909116176001179055908101610c3a87898361394d565b508715610c4f57610c4a8961292f565b610c74565b60098201805460ff191660021790556012820180546201010162ffffff199091161790555b336001600160a01b0316897f7b71d2e00379bd165b2750d54298da2414376699827edca2bce2a096c491d2e98989604051610cb0929190613a3f565b60405180910390a35050505050610cc76001600055565b50505050565b610cd682610af7565b610cdf816128d7565b610ce98383612a3c565b505050565b6001600160a01b0381163314610d165760405162461bcd60e51b81526004016104c690613a9b565b610d208282612ac2565b5050565b610d2c6128e1565b610d3461290a565b806006548110610d595780604051630f6ceba360e21b81526004016104c6919061319d565b610d7160008051602061450d83398151915233611d56565b610d8d5760405162461bcd60e51b81526004016104c690613ad5565b610d968261292f565b50610da16001600055565b50565b6000816006548110610dcb5780604051630f6ceba360e21b81526004016104c6919061319d565b505060009081526003602052604090206009015460ff1690565b610ded6128e1565b610df561290a565b806006548110610e1a5780604051630f6ceba360e21b81526004016104c6919061319d565b8160008060008381526003602052604090206009015460ff166006811115610e4457610e44613293565b14610e7f576000828152600360205260409081902060090154905163350b7a7f60e21b81526104c691849160ff9091169084906004016137fd565b600084815260036020526040902060018101546001600160a01b03163314610eb95760405162461bcd60e51b81526004016104c690613b10565b8060100154421115610edd5760405162461bcd60e51b81526004016104c690613b4c565b60068101546005820154610f00916001600160a01b039091169033903090612b29565b60098101805460ff191660011790556006810154604051339187917fe030e47e27825a2ad1b19e4cf2e70bfbfb3124af275c7727a82b114ba7b29a8591610f469161319d565b60405180910390a350505050610da16001600055565b60008051602061450d833981519152610f74816128d7565b610da1612b81565b610f846128e1565b610f8c61290a565b806006548110610fb15780604051630f6ceba360e21b81526004016104c6919061319d565b8160018060008381526003602052604090206009015460ff166006811115610fdb57610fdb613293565b14611016576000828152600360205260409081902060090154905163350b7a7f60e21b81526104c691849160ff9091169084906004016137fd565b6000848152600360208190526040909120908101546001600160a01b0316331480611054575061105460008051602061450d83398151915233611d56565b6110705760405162461bcd60e51b81526004016104c690613b8e565b80601101544211156110945760405162461bcd60e51b81526004016104c690613bcf565b60098101805460ff19908116600217909155600e820180549091166001179055604051339086907f0229702661bd522f80cf22e71a80e376c2ac20ea2ecd8e680f1a8e8285738a1c90600090a350505050610da16001600055565b6110f76128e1565b6110ff61290a565b8060065481106111245780604051630f6ceba360e21b81526004016104c6919061319d565b8160028060008381526003602052604090206009015460ff16600681111561114e5761114e613293565b14611189576000828152600360205260409081902060090154905163350b7a7f60e21b81526104c691849160ff9091169084906004016137fd565b6111928461049f565b6111ae5760405162461bcd60e51b81526004016104c690613c0e565b600084815260036020526040812060088101546006820154919291612710916111d691613c34565b6111e09190613c61565b90506000826007015490506000818385600601546111fe9190613c75565b6112089190613c75565b60098501805460ff1916600317905560058501549091506001600160a01b0316831561124857600854611248906001600160a01b03838116911686612bcd565b600083118015611264575060038501546001600160a01b031615155b15611285576003850154611285906001600160a01b03838116911685612bcd565b60028501546112a1906001600160a01b03838116911684612bcd565b60028501546040516001600160a01b03909116908a907f6e3c6096795c8298a218b2cfb8bde42726ff7c9a3d27b4d3ba41ab7f74feb5fb906112e490869061319d565b60405180910390a35050505050505050610da16001600055565b6113066128e1565b61130e61290a565b8260065481106113335780604051630f6ceba360e21b81526004016104c6919061319d565b60008481526003602081815260408084208151610240810183528154815260018201546001600160a01b039081169482019490945260028201548416928101929092529283015482166060820152600483015482166080820152600583015490911660a082015260068083015460c0830152600783015460e0830152600883015461010083015260098301548894939161012084019160ff16908111156113dc576113dc613293565b60068111156113ed576113ed613293565b8152602001600a82016040518060a001604052908160008201805461141190613678565b80601f016020809104026020016040519081016040528092919081815260200182805461143d90613678565b801561148a5780601f1061145f5761010080835404028352916020019161148a565b820191906000526020600020905b81548152906001019060200180831161146d57829003601f168201915b505050505081526020016001820180546114a390613678565b80601f01602080910402602001604051908101604052809291908181526020018280546114cf90613678565b801561151c5780601f106114f15761010080835404028352916020019161151c565b820191906000526020600020905b8154815290600101906020018083116114ff57829003601f168201915b505050505081526020016002820154815260200160038201805461153f90613678565b80601f016020809104026020016040519081016040528092919081815260200182805461156b90613678565b80156115b85780601f1061158d576101008083540402835291602001916115b8565b820191906000526020600020905b81548152906001019060200180831161159b57829003601f168201915b50505091835250506004919091015460ff9081161515602092830152918352600f84015490830152601083015460408301526011830154606083015260128301548082161515608084015261010081048216151560a084015262010000900416151560c082015260138201805460e09092019161163490613678565b80601f016020809104026020016040519081016040528092919081815260200182805461166090613678565b80156116ad5780601f10611682576101008083540402835291602001916116ad565b820191906000526020600020905b81548152906001019060200180831161169057829003601f168201915b505050505081525050905080602001516001600160a01b0316336001600160a01b031614806116f1575080604001516001600160a01b0316336001600160a01b0316145b80611711575080606001516001600160a01b0316336001600160a01b0316145b80611731575080608001516001600160a01b0316336001600160a01b0316145b8061174f575061174f60008051602061450d83398151915233611d56565b61176e57336040516337b13c2960e01b81526004016104c69190613caf565b60008681526003602052604090206001600982015460ff16600681111561179757611797613293565b14806117bb57506002600982015460ff1660068111156117b9576117b9613293565b145b6117d75760405162461bcd60e51b81526004016104c690613d00565b846117f45760405162461bcd60e51b81526004016104c690613d3c565b60098101805460ff191660041790556013810161181286888361394d565b506040518060c00160405280336001600160a01b0316815260200187878080601f0160208091040260200160405190810160405280939291908181526020018383808284376000920182905250938552505042602080850191909152604080850184905260608501849052805180830182528481526080909501949094528b83526004815292909120835181546001600160a01b0319166001600160a01b03909116178155918301516001830191506118cb9082613d4c565b5060408201516002820155606082015160038201805460808501516001600160a01b031661010002610100600160a81b0319931515939093166001600160a81b03199091161791909117905560a0820151600482019061192b9082613d4c565b50905050336001600160a01b0316877f1b84372106d77c6daea0dda35bbc0229d10a83f58ec899092884925193682341888860405161196b929190613a3f565b60405180910390a350505050610ce96001600055565b611989612fd9565b8160065481106119ae5780604051630f6ceba360e21b81526004016104c6919061319d565b6000838152600360208181526040928390208351610240810185528154815260018201546001600160a01b03908116938201939093526002820154831694810194909452918201548116606084015260048201548116608084015260058201541660a083015260068082015460c0840152600782015460e08401526008820154610100840152600982015461012084019160ff90911690811115611a5457611a54613293565b6006811115611a6557611a65613293565b8152602001600a82016040518060a0016040529081600082018054611a8990613678565b80601f0160208091040260200160405190810160405280929190818152602001828054611ab590613678565b8015611b025780601f10611ad757610100808354040283529160200191611b02565b820191906000526020600020905b815481529060010190602001808311611ae557829003601f168201915b50505050508152602001600182018054611b1b90613678565b80601f0160208091040260200160405190810160405280929190818152602001828054611b4790613678565b8015611b945780601f10611b6957610100808354040283529160200191611b94565b820191906000526020600020905b815481529060010190602001808311611b7757829003601f168201915b5050505050815260200160028201548152602001600382018054611bb790613678565b80601f0160208091040260200160405190810160405280929190818152602001828054611be390613678565b8015611c305780601f10611c0557610100808354040283529160200191611c30565b820191906000526020600020905b815481529060010190602001808311611c1357829003601f168201915b50505091835250506004919091015460ff9081161515602092830152918352600f84015490830152601083015460408301526011830154606083015260128301548082161515608084015261010081048216151560a084015262010000900416151560c082015260138201805460e090920191611cac90613678565b80601f0160208091040260200160405190810160405280929190818152602001828054611cd890613678565b8015611d255780601f10611cfa57610100808354040283529160200191611d25565b820191906000526020600020905b815481529060010190602001808311611d0857829003601f168201915b505050505081525050915050919050565b60008051602061450d833981519152611d4e816128d7565b610da1612bec565b60009182526002602090815260408084206001600160a01b0393909316845291905290205460ff1690565b6000611d8b6128e1565b611d9361290a565b6000611da26020840184613635565b6001600160a01b031603611dc85760405162461bcd60e51b81526004016104c690613e30565b6000611dda6040840160208501613635565b6001600160a01b031603611e005760405162461bcd60e51b81526004016104c690613e6b565b611e106040830160208401613635565b6001600160a01b0316611e266020840184613635565b6001600160a01b031603611e4c5760405162461bcd60e51b81526004016104c690613eb8565b6000611e5e60a0840160808501613635565b6001600160a01b031603611e845760405162461bcd60e51b81526004016104c690613ef2565b60056000611e9860a0850160808601613635565b6001600160a01b0316815260208101919091526040016000205460ff16611ed15760405162461bcd60e51b81526004016104c690613f2c565b60008260a0013511611ef55760405162461bcd60e51b81526004016104c690613f6e565b4282610120013511611f195760405162461bcd60e51b81526004016104c690613fab565b81610120013582610140013511611f425760405162461bcd60e51b81526004016104c690613fed565b6000611f52610100840184613ffd565b611f5c9080614021565b905011611f7b5760405162461bcd60e51b81526004016104c69061409e565b6006805460009182611f8c836140ae565b909155506000818152600360209081526040909120828155919250611fb390850185613635565b6001820180546001600160a01b0319166001600160a01b0392909216919091179055611fe56040850160208601613635565b6002820180546001600160a01b0319166001600160a01b03929092169190911790556120176060850160408601613635565b6003820180546001600160a01b0319166001600160a01b03929092169190911790556120496080850160608601613635565b6004820180546001600160a01b0319166001600160a01b039290921691909117905561207b60a0850160808601613635565b6005820180546001600160a01b0319166001600160a01b039290921691909117905560a0840135600682015560c0840135600782015560e0840135600882015560098101805460ff191690556120d5610100850185613ffd565b600a82016120e382826141ae565b505042600f820155610120840135601082015561014084013560118201556121116040850160208601613635565b6001600160a01b03166121276020860186613635565b6001600160a01b0316837f9405ad0a6208539879349284d71265479b1623846f70303da1f9890d6e8c10a78760a00135604051612164919061319d565b60405180910390a45090506121796001600055565b919050565b6121866128e1565b61218e61290a565b8060065481106121b35780604051630f6ceba360e21b81526004016104c6919061319d565b8160028060008381526003602052604090206009015460ff1660068111156121dd576121dd613293565b14612218576000828152600360205260409081902060090154905163350b7a7f60e21b81526104c691849160ff9091169084906004016137fd565b600084815260036020526040812060018101549091906001600160a01b0316330361227957601282015460ff16156122625760405162461bcd60e51b81526004016104c6906136fc565b5060128101805460ff191660011790556000612326565b60028201546001600160a01b031633036122d0576012820154610100900460ff16156122b75760405162461bcd60e51b81526004016104c690613738565b5060128101805461ff0019166101001790556001612326565b60038201546001600160a01b03163303610aaa57601282015462010000900460ff161561230f5760405162461bcd60e51b81526004016104c690613773565b5060128101805462ff000019166201000017905560025b336001600160a01b03168660008051602061452d8339815191528360405161234e91906137ef565b60405180910390a35050505050610da16001600055565b60008051602061450d83398151915261237d816128d7565b610ce96001600160a01b0384163384612bcd565b61239a82610af7565b6123a3816128d7565b610ce98383612ac2565b6123b56128e1565b6123bd61290a565b8060065481106123e25780604051630f6ceba360e21b81526004016104c6919061319d565b8160008060008381526003602052604090206009015460ff16600681111561240c5761240c613293565b14612447576000828152600360205260409081902060090154905163350b7a7f60e21b81526104c691849160ff9091169084906004016137fd565b60008481526003602081815260408084208151610240810183528154815260018201546001600160a01b039081169482019490945260028201548416928101929092529283015482166060820152600483015482166080820152600583015490911660a082015260068083015460c0830152600783015460e0830152600883015461010083015260098301548894939161012084019160ff16908111156124f0576124f0613293565b600681111561250157612501613293565b8152602001600a82016040518060a001604052908160008201805461252590613678565b80601f016020809104026020016040519081016040528092919081815260200182805461255190613678565b801561259e5780601f106125735761010080835404028352916020019161259e565b820191906000526020600020905b81548152906001019060200180831161258157829003601f168201915b505050505081526020016001820180546125b790613678565b80601f01602080910402602001604051908101604052809291908181526020018280546125e390613678565b80156126305780601f1061260557610100808354040283529160200191612630565b820191906000526020600020905b81548152906001019060200180831161261357829003601f168201915b505050505081526020016002820154815260200160038201805461265390613678565b80601f016020809104026020016040519081016040528092919081815260200182805461267f90613678565b80156126cc5780601f106126a1576101008083540402835291602001916126cc565b820191906000526020600020905b8154815290600101906020018083116126af57829003601f168201915b50505091835250506004919091015460ff9081161515602092830152918352600f84015490830152601083015460408301526011830154606083015260128301548082161515608084015261010081048216151560a084015262010000900416151560c082015260138201805460e09092019161274890613678565b80601f016020809104026020016040519081016040528092919081815260200182805461277490613678565b80156127c15780601f10612796576101008083540402835291602001916127c1565b820191906000526020600020905b8154815290600101906020018083116127a457829003601f168201915b505050505081525050905080602001516001600160a01b0316336001600160a01b03161480612805575080604001516001600160a01b0316336001600160a01b0316145b80612825575080606001516001600160a01b0316336001600160a01b0316145b80612845575080608001516001600160a01b0316336001600160a01b0316145b80612863575061286360008051602061450d83398151915233611d56565b61288257336040516337b13c2960e01b81526004016104c69190613caf565b600086815260036020526040808220600901805460ff1916600617905551339188917f6f44c80719cb2f74bdbd68b7af10147acb9b52e2675ad02f9c87f098599599389190a35050505050610da16001600055565b610da18133612c27565b6002600054036129035760405162461bcd60e51b81526004016104c6906141ea565b6002600055565b60015460ff161561292d5760405162461bcd60e51b81526004016104c69061421f565b565b60008181526003602052604090206001600982015460ff16600681111561295857612958613293565b148061297c57506004600982015460ff16600681111561297a5761297a613293565b145b8061299f57506002600982015460ff16600681111561299d5761299d613293565b145b6129bb5760405162461bcd60e51b81526004016104c690614261565b60098101805460ff1916600590811790915560018201546006830154918301546129f5926001600160a01b03918216929190911690612bcd565b600181015460068201546040516001600160a01b039092169184917f80b577b4fc190ab86d963549e29f496afd079c5d81a2480d61217d4b5060a28c91610aeb919061319d565b612a468282611d56565b610d205760008281526002602090815260408083206001600160a01b03851684529091529020805460ff19166001179055612a7e3390565b6001600160a01b0316816001600160a01b0316837f2f8788117e7eff1d82e926ec794901d17c78024a50270940304540a733656f0d60405160405180910390a45050565b612acc8282611d56565b15610d205760008281526002602090815260408083206001600160a01b0385168085529252808320805460ff1916905551339285917ff6391f5c32d9c69d2a47ea670b442974b53935d1edc7fd64eb21e047a839171b9190a45050565b610cc7846323b872dd60e01b858585604051602401612b4a93929190614271565b60408051601f198184030181529190526020810180516001600160e01b03166001600160e01b031990931692909217909152612c80565b612b89612d12565b6001805460ff191690557f5db9ee0a495bf2e6ff9c91a7834c1ba4fdd244a5e8aa4e537bd38aeae4b073aa335b604051612bc39190613654565b60405180910390a1565b610ce98363a9059cbb60e01b8484604051602401612b4a929190614299565b612bf461290a565b6001805460ff1916811790557f62e78cea01bee320cd4e420270b5ea74000d11b0c9f74754ebdbfc544b05a25833612bb6565b612c318282611d56565b610d2057612c3e81612d34565b612c49836020612d46565b604051602001612c5a9291906142d6565b60408051601f198184030181529082905262461bcd60e51b82526104c691600401614326565b6000612cd5826040518060400160405280602081526020017f5361666545524332303a206c6f772d6c6576656c2063616c6c206661696c6564815250856001600160a01b0316612eb89092919063ffffffff16565b9050805160001480612cf6575080806020019051810190612cf69190614342565b610ce95760405162461bcd60e51b81526004016104c6906143a6565b60015460ff1661292d5760405162461bcd60e51b81526004016104c6906143df565b60606104996001600160a01b03831660145b60606000612d55836002613c34565b612d609060026143ef565b6001600160401b03811115612d7757612d77613873565b6040519080825280601f01601f191660200182016040528015612da1576020820181803683370190505b509050600360fc1b81600081518110612dbc57612dbc614402565b60200101906001600160f81b031916908160001a905350600f60fb1b81600181518110612deb57612deb614402565b60200101906001600160f81b031916908160001a9053506000612e0f846002613c34565b612e1a9060016143ef565b90505b6001811115612e92576f181899199a1a9b1b9c1cb0b131b232b360811b85600f1660108110612e4e57612e4e614402565b1a60f81b828281518110612e6457612e64614402565b60200101906001600160f81b031916908160001a90535060049490941c93612e8b81614418565b9050612e1d565b508315612eb15760405162461bcd60e51b81526004016104c69061445f565b9392505050565b6060612ec78484600085612ecf565b949350505050565b606082471015612ef15760405162461bcd60e51b81526004016104c6906144b0565b600080866001600160a01b03168587604051612f0d91906144c0565b60006040518083038185875af1925050503d8060008114612f4a576040519150601f19603f3d011682016040523d82523d6000602084013e612f4f565b606091505b5091509150612f6087838387612f6b565b979650505050505050565b60608315612faa578251600003612fa3576001600160a01b0385163b612fa35760405162461bcd60e51b81526004016104c6906144fc565b5081612ec7565b612ec78383815115612fbf5781518083602001fd5b8060405162461bcd60e51b81526004016104c69190614326565b6040805161024081018252600080825260208201819052918101829052606081018290526080810182905260a0810182905260c0810182905260e0810182905261010081018290529061012082019081526020016130616040518060a00160405280606081526020016060815260200160008152602001606081526020016000151581525090565b8152602001600081526020016000815260200160008152602001600015158152602001600015158152602001600015158152602001606081525090565b6001600160e01b031981165b8114610da157600080fd5b80356104998161309e565b6000602082840312156130d5576130d5600080fd5b612eb183836130b5565b8015155b82525050565b6020810161049982846130df565b806130aa565b8035610499816130f7565b60006020828403121561311d5761311d600080fd5b612eb183836130fd565b60006001600160a01b038216610499565b6130aa81613127565b803561049981613138565b8015156130aa565b80356104998161314c565b6000806040838503121561317557613175600080fd5b61317f8484613141565b915061318e8460208501613154565b90509250929050565b806130e3565b602081016104998284613197565b60008083601f8401126131c0576131c0600080fd5b5081356001600160401b038111156131da576131da600080fd5b6020830191508360018202830111156131f5576131f5600080fd5b9250929050565b6000806000806060858703121561321557613215600080fd5b61321f86866130fd565b935061322e8660208701613154565b925060408501356001600160401b0381111561324c5761324c600080fd5b613258878288016131ab565b95989497509550505050565b6000806040838503121561327a5761327a600080fd5b61328484846130fd565b915061318e8460208501613141565b634e487b7160e01b600052602160045260246000fd5b60078110610da157610da1613293565b80612179816132a9565b6000610499826132b9565b6130e3816132c3565b6020810161049982846132ce565b6000806000604084860312156132fd576132fd600080fd5b61330785856130fd565b925060208401356001600160401b0381111561332557613325600080fd5b613331868287016131ab565b92509250509250925092565b6130e381613127565b60005b83811015613361578181015183820152602001613349565b50506000910152565b601f01601f191690565b600061337e825190565b808452602084019350613395818560208601613346565b61339e8161336a565b9093019392505050565b805160a0808452600091908401906133c08282613374565b915050602083015184820360208601526133da8282613374565b91505060408301516133ef6040860182613197565b50606083015184820360608601526134078282613374565b915050608083015161341c60808601826130df565b509392505050565b80516000906102408401906134398582613197565b50602083015161344c602086018261333d565b50604083015161345f604086018261333d565b506060830151613472606086018261333d565b506080830151613485608086018261333d565b5060a083015161349860a086018261333d565b5060c08301516134ab60c0860182613197565b5060e08301516134be60e0860182613197565b506101008301516134d3610100860182613197565b506101208301516134e86101208601826132ce565b5061014083015184820361014086015261350282826133a8565b915050610160830151613519610160860182613197565b5061018083015161352e610180860182613197565b506101a08301516135436101a0860182613197565b506101c08301516135586101c08601826130df565b506101e083015161356d6101e08601826130df565b506102008301516135826102008601826130df565b5061022083015184820361022086015261359c8282613374565b95945050505050565b60208082528101612eb18184613424565b600061016082840312156108d5576108d5600080fd5b6000602082840312156135e1576135e1600080fd5b81356001600160401b038111156135fa576135fa600080fd5b612ec7848285016135b6565b6000806040838503121561361c5761361c600080fd5b6136268484613141565b915061318e84602085016130fd565b60006020828403121561364a5761364a600080fd5b612eb18383613141565b60208101610499828461333d565b634e487b7160e01b600052602260045260246000fd5b60028104600182168061368c57607f821691505b6020821081036108d5576108d5613662565b600c8152602081016b08ccaca40e8dede40d0d2ced60a31b815290505b60200190565b602080825281016104998161369e565b601681526020810175109d5e595c88185b1c9958591e48185c1c1c9bdd995960521b815290506136bb565b60208082528101610499816136d1565b60178152602081017614d95b1b195c88185b1c9958591e48185c1c1c9bdd9959604a1b815290506136bb565b602080825281016104998161370c565b6016815260208101751059d95b9d08185b1c9958591e48185c1c1c9bdd995960521b815290506136bb565b6020808252810161049981613748565b6019815260208101784e6f7420617574686f72697a656420746f20617070726f766560381b815290506136bb565b6020808252810161049981613783565b60058110610da157610da1613293565b80612179816137c1565b6000610499826137d1565b6130e3816137db565b6020810161049982846137e6565b6060810161380b8286613197565b61381860208301856132ce565b612ec760408301846132ce565b60218152602081017f4f6e6c792061726269746572206f722061646d696e2063616e207265736f6c768152606560f81b602082015290505b60400190565b6020808252810161049981613825565b634e487b7160e01b600052604160045260246000fd5b60006104996138958381565b90565b6138a183613889565b815460001960089490940293841b1916921b91909117905550565b6000610ce9818484613898565b81811015610d20576138dc6000826138bc565b6001016138c9565b601f821115610ce9576000818152602090206020601f8501048101602085101561390b5750805b61391d6020601f8601048301826138c9565b5050505050565b6000196008929092029190911c191690565b6139408282613924565b6002909202909117919050565b826001600160401b0381111561396557613965613873565b61396f8254613678565b61397a8282856138e4565b506000601f8211600181146139a957600083156139975750848201355b6139a18482613936565b855550613a02565b600084815260209020601f19841690835b828110156139da57878501358255602094850194600190920191016139ba565b50848210156139f6576139f3601f861685890135613924565b81555b50506001600284020184555b505050505050565b82818337506000910152565b818352602083019250613a2a828483613a0a565b506000613a368261336a565b90920192915050565b60208082528101612ec7818486613a16565b602f8152602081017f416363657373436f6e74726f6c3a2063616e206f6e6c792072656e6f756e636581526e103937b632b9903337b91039b2b63360891b6020820152905061385d565b6020808252810161049981613a51565b60158152602081017413db9b1e4818591b5a5b8818d85b881c99599d5b99605a1b815290506136bb565b6020808252810161049981613aab565b60168152602081017513db9b1e48189d5e595c8818d85b8819195c1bdcda5d60521b815290506136bb565b6020808252810161049981613ae5565b60178152602081017611195c1bdcda5d08191958591b1a5b99481c185cdcd959604a1b815290506136bb565b6020808252810161049981613b20565b601e8152602081017f4f6e6c79206167656e74206f722061646d696e2063616e207665726966790000815290506136bb565b6020808252810161049981613b5c565b601c8152602081017b15995c9a599a58d85d1a5bdb88191958591b1a5b99481c185cdcd95960221b815290506136bb565b6020808252810161049981613b9e565b601a8152602081017914995b19585cd94818dbdb991a5d1a5bdb9cc81b9bdd081b595d60321b815290506136bb565b6020808252810161049981613bdf565b634e487b7160e01b600052601160045260246000fd5b818102811582820484141761049957610499613c1e565b634e487b7160e01b600052601260045260246000fd5b600082613c7057613c70613c4b565b500490565b8181038181111561049957610499613c1e565b601281526020810171195cd8dc9bddc81c185c9d1a58da5c185b9d60721b815290506136bb565b60408101613cbd828461333d565b8181036020830152612eb181613c88565b601f8152602081017f43616e6e6f74206469737075746520696e2063757272656e7420737461746500815290506136bb565b6020808252810161049981613cce565b601781526020810176111a5cdc1d5d19481c99585cdbdb881c995c5d5a5c9959604a1b815290506136bb565b6020808252810161049981613d10565b81516001600160401b03811115613d6557613d65613873565b613d6f8254613678565b613d7a8282856138e4565b506020601f821160018114613da95760008315613d975750848201515b613da18482613936565b85555061391d565b600084815260208120601f198516915b82811015613dd95787850151825560209485019460019092019101613db9565b5084821015613df75783870151613df3601f871682613924565b8255505b50505050600202600101905550565b601581526020810174496e76616c6964206275796572206164647265737360581b815290506136bb565b6020808252810161049981613e06565b601681526020810175496e76616c69642073656c6c6572206164647265737360501b815290506136bb565b6020808252810161049981613e40565b60228152602081017f427579657220616e642073656c6c6572206d75737420626520646966666572658152611b9d60f21b6020820152905061385d565b6020808252810161049981613e7b565b601581526020810174496e76616c696420746f6b656e206164647265737360581b815290506136bb565b6020808252810161049981613ec8565b601581526020810174151bdad95b881b9bdd081dda1a5d195b1a5cdd1959605a1b815290506136bb565b6020808252810161049981613f02565b601f8152602081017f4465706f73697420616d6f756e74206d75737420626520706f73697469766500815290506136bb565b6020808252810161049981613f3c565b601881526020810177496e76616c6964206465706f73697420646561646c696e6560401b815290506136bb565b6020808252810161049981613f7e565b601d8152602081017f496e76616c696420766572696669636174696f6e20646561646c696e65000000815290506136bb565b6020808252810161049981613fbb565b60008235609e193684900301811261401757614017600080fd5b9190910192915050565b6000808335601e193685900301811261403c5761403c600080fd5b830191505080356001600160401b0381111561405a5761405a600080fd5b6020820191506001810236038213156131f5576131f5600080fd5b601481526020810173141c9bdc195c9d1e481251081c995c5d5a5c995960621b815290506136bb565b6020808252810161049981614075565b6000600182016140c0576140c0613c1e565b5060010190565b610ce983838361394d565b60008135610499816130f7565b6140e882613889565b805b8255505050565b600081356104998161314c565b6000811515610499565b614111826140fe565b815460ff191660ff8216176140ea565b61412b8280614021565b6141368183856140c7565b50506141456020830183614021565b6141538183600186016140c7565b50506040820180614163826140d2565b905061417281600285016140df565b50506141816060830183614021565b61418f8183600386016140c7565b5050608082018061419f826140f1565b9050610cc78160048501614108565b610d208282614121565b601f8152602081017f5265656e7472616e637947756172643a207265656e7472616e742063616c6c00815290506136bb565b60208082528101610499816141b8565b60108152602081016f14185d5cd8589b194e881c185d5cd95960821b815290506136bb565b60208082528101610499816141fa565b601e8152602081017f43616e6e6f7420726566756e6420696e2063757272656e742073746174650000815290506136bb565b602080825281016104998161422f565b6060810161427f828661333d565b61428c602083018561333d565b612ec76040830184613197565b604081016142a7828561333d565b612eb16020830184613197565b60006142be825190565b6142cc818560208601613346565b9290920192915050565b76020b1b1b2b9b9a1b7b73a3937b61d1030b1b1b7bab73a1604d1b815260170161430081846142b4565b7001034b99036b4b9b9b4b733903937b6329607d1b81526011019050612eb181836142b4565b60208082528101612eb18184613374565b80516104998161314c565b60006020828403121561435757614357600080fd5b612eb18383614337565b602a8152602081017f5361666545524332303a204552433230206f7065726174696f6e20646964206e8152691bdd081cdd58d8d9595960b21b6020820152905061385d565b6020808252810161049981614361565b60148152602081017314185d5cd8589b194e881b9bdd081c185d5cd95960621b815290506136bb565b60208082528101610499816143b6565b8082018082111561049957610499613c1e565b634e487b7160e01b600052603260045260246000fd5b60008161442757614427613c1e565b506000190190565b60208082527f537472696e67733a20686578206c656e67746820696e73756666696369656e7491019081526136bb565b602080825281016104998161442f565b60268152602081017f416464726573733a20696e73756666696369656e742062616c616e636520666f8152651c8818d85b1b60d21b6020820152905061385d565b602080825281016104998161446f565b61049981836142b4565b601d8152602081017f416464726573733a2063616c6c20746f206e6f6e2d636f6e7472616374000000815290506136bb565b60208082528101610499816144ca56fea49807205ce4d355092ef5a8a18f56e8913cf4a201fbe287825b095693c217758c76bb4d0d0276699b16a2e9464b50cad045b0200b9bc632ae3a5d57077fa264a2646970667358221220221023dd9ed9887b097c33d625c1c60b0b1e4f598538af899c9d02863622941964736f6c63430008160033ef81a9943b96c8df4ef243401c9bf5159146166211356898b52d382086168d92a2646970667358221220abed6e4c5429d224e27f7bd4580c3b540628bb6efb473355b7354fde5cd5ea5164736f6c63430008160033","opcodes":"PUSH1 0xA0 PUSH1 0x40 MSTORE CALLVALUE DUP1 ISZERO PUSH3 0x11 JUMPI PUSH1 0x0 DUP1 REVERT JUMPDEST POP PUSH1 0x40 MLOAD PUSH3 0x6187 CODESIZE SUB DUP1 PUSH3 0x6187 DUP4 CODECOPY DUP2 ADD PUSH1 0x40 DUP2 SWAP1 MSTORE PUSH3 0x34 SWAP2 PUSH3 0x175 JUMP JUMPDEST PUSH3 0x3F CALLER PUSH3 0xD7 JUMP JUMPDEST PUSH1 0x1 DUP1 SSTORE PUSH1 0x1 PUSH1 0x1 PUSH1 0xA0 SHL SUB DUP5 AND PUSH3 0x75 JUMPI PUSH1 0x40 MLOAD PUSH3 0x461BCD PUSH1 0xE5 SHL DUP2 MSTORE PUSH1 0x4 ADD PUSH3 0x6C SWAP1 PUSH3 0x20E JUMP JUMPDEST PUSH1 0x40 MLOAD DUP1 SWAP2 SUB SWAP1 REVERT JUMPDEST PUSH2 0x1F4 DUP4 GT ISZERO PUSH3 0x9A JUMPI PUSH1 0x40 MLOAD PUSH3 0x461BCD PUSH1 0xE5 SHL DUP2 MSTORE PUSH1 0x4 ADD PUSH3 0x6C SWAP1 PUSH3 0x253 JUMP JUMPDEST PUSH1 0x1 PUSH1 0x1 PUSH1 0xA0 SHL SUB SWAP4 DUP5 AND PUSH1 0x80 MSTORE PUSH1 0x6 SWAP3 SWAP1 SWAP3 SSTORE PUSH1 0x4 DUP1 SLOAD SWAP2 DUP5 AND PUSH1 0x1 PUSH1 0x1 PUSH1 0xA0 SHL SUB NOT SWAP3 DUP4 AND OR SWAP1 SSTORE PUSH1 0x5 DUP1 SLOAD SWAP3 SWAP1 SWAP4 AND SWAP2 AND OR SWAP1 SSTORE PUSH3 0x265 JUMP JUMPDEST PUSH1 0x0 DUP1 SLOAD PUSH1 0x1 PUSH1 0x1 PUSH1 0xA0 SHL SUB DUP4 DUP2 AND PUSH1 0x1 PUSH1 0x1 PUSH1 0xA0 SHL SUB NOT DUP4 AND DUP2 OR DUP5 SSTORE PUSH1 0x40 MLOAD SWAP2 SWAP1 SWAP3 AND SWAP3 DUP4 SWAP2 PUSH32 0x8BE0079C531659141344CD1FD0A4F28419497F9722A3DAAFE3B4186F6B6457E0 SWAP2 SWAP1 LOG3 POP POP JUMP JUMPDEST PUSH1 0x0 PUSH1 0x1 PUSH1 0x1 PUSH1 0xA0 SHL SUB DUP3 AND JUMPDEST SWAP3 SWAP2 POP POP JUMP JUMPDEST PUSH3 0x145 DUP2 PUSH3 0x127 JUMP JUMPDEST DUP2 EQ PUSH3 0x151 JUMPI PUSH1 0x0 DUP1 REVERT JUMPDEST POP JUMP JUMPDEST DUP1 MLOAD PUSH3 0x134 DUP2 PUSH3 0x13A JUMP JUMPDEST DUP1 PUSH3 0x145 JUMP JUMPDEST DUP1 MLOAD PUSH3 0x134 DUP2 PUSH3 0x161 JUMP JUMPDEST PUSH1 0x0 DUP1 PUSH1 0x0 DUP1 PUSH1 0x80 DUP6 DUP8 SUB SLT ISZERO PUSH3 0x190 JUMPI PUSH3 0x190 PUSH1 0x0 DUP1 REVERT JUMPDEST PUSH3 0x19C DUP7 DUP7 PUSH3 0x154 JUMP JUMPDEST SWAP4 POP PUSH3 0x1AD DUP7 PUSH1 0x20 DUP8 ADD PUSH3 0x168 JUMP JUMPDEST SWAP3 POP PUSH3 0x1BE DUP7 PUSH1 0x40 DUP8 ADD PUSH3 0x154 JUMP JUMPDEST SWAP2 POP PUSH3 0x1CF DUP7 PUSH1 0x60 DUP8 ADD PUSH3 0x154 JUMP JUMPDEST SWAP1 POP SWAP3 SWAP6 SWAP2 SWAP5 POP SWAP3 POP JUMP JUMPDEST PUSH1 0x17 DUP2 MSTORE PUSH1 0x20 DUP2 ADD PUSH32 0x496E76616C696420706C6174666F726D2077616C6C6574000000000000000000 DUP2 MSTORE SWAP1 POP JUMPDEST PUSH1 0x20 ADD SWAP1 JUMP JUMPDEST PUSH1 0x20 DUP1 DUP3 MSTORE DUP2 ADD PUSH3 0x134 DUP2 PUSH3 0x1DA JUMP JUMPDEST PUSH1 0x15 DUP2 MSTORE PUSH1 0x20 DUP2 ADD PUSH32 0x506C6174666F726D2066656520746F6F20686967680000000000000000000000 DUP2 MSTORE SWAP1 POP PUSH3 0x208 JUMP JUMPDEST PUSH1 0x20 DUP1 DUP3 MSTORE DUP2 ADD PUSH3 0x134 DUP2 PUSH3 0x220 JUMP JUMPDEST PUSH1 0x80 MLOAD PUSH2 0x5EFF PUSH3 0x288 PUSH1 0x0 CODECOPY PUSH1 0x0 DUP2 DUP2 PUSH2 0x2D8 ADD MSTORE PUSH2 0x81A ADD MSTORE PUSH2 0x5EFF PUSH1 0x0 RETURN INVALID PUSH1 0x80 PUSH1 0x40 MSTORE CALLVALUE DUP1 ISZERO PUSH3 0x11 JUMPI PUSH1 0x0 DUP1 REVERT JUMPDEST POP PUSH1 0x4 CALLDATASIZE LT PUSH3 0x112 JUMPI PUSH1 0x0 CALLDATALOAD PUSH1 0xE0 SHR DUP1 PUSH4 0xFFB1D8B EQ PUSH3 0x117 JUMPI DUP1 PUSH4 0x12E8E2C3 EQ PUSH3 0x130 JUMPI DUP1 PUSH4 0x16B15135 EQ PUSH3 0x147 JUMPI DUP1 PUSH4 0x2EB73A88 EQ PUSH3 0x163 JUMPI DUP1 PUSH4 0x306275BE EQ PUSH3 0x17A JUMPI DUP1 PUSH4 0x3998A681 EQ PUSH3 0x191 JUMPI DUP1 PUSH4 0x4BAD78DB EQ PUSH3 0x19B JUMPI DUP1 PUSH4 0x4F9B369F EQ PUSH3 0x1C1 JUMPI DUP1 PUSH4 0x603C50D5 EQ PUSH3 0x1E8 JUMPI DUP1 PUSH4 0x6EA8BC10 EQ PUSH3 0x1FA JUMPI DUP1 PUSH4 0x715018A6 EQ PUSH3 0x203 JUMPI DUP1 PUSH4 0x7953EEC9 EQ PUSH3 0x20D JUMPI DUP1 PUSH4 0x87B30266 EQ PUSH3 0x21F JUMPI DUP1 PUSH4 0x8DA5CB5B EQ PUSH3 0x236 JUMPI DUP1 PUSH4 0xB5AF090F EQ PUSH3 0x240 JUMPI DUP1 PUSH4 0xBBDF7243 EQ PUSH3 0x27E JUMPI DUP1 PUSH4 0xC9BCC97E EQ PUSH3 0x117 JUMPI DUP1 PUSH4 0xDAF9C210 EQ PUSH3 0x295 JUMPI DUP1 PUSH4 0xF2FDE38B EQ PUSH3 0x2BB JUMPI DUP1 PUSH4 0xFA2AF9DA EQ PUSH3 0x2D2 JUMPI JUMPDEST PUSH1 0x0 DUP1 REVERT JUMPDEST PUSH3 0x12E PUSH3 0x128 CALLDATASIZE PUSH1 0x4 PUSH3 0xC45 JUMP JUMPDEST PUSH3 0x2FA JUMP JUMPDEST STOP JUMPDEST PUSH3 0x12E PUSH3 0x141 CALLDATASIZE PUSH1 0x4 PUSH3 0xC97 JUMP JUMPDEST PUSH3 0x387 JUMP JUMPDEST PUSH1 0x7 SLOAD JUMPDEST PUSH1 0x40 MLOAD PUSH3 0x15A SWAP2 SWAP1 PUSH3 0xCC9 JUMP JUMPDEST PUSH1 0x40 MLOAD DUP1 SWAP2 SUB SWAP1 RETURN JUMPDEST PUSH3 0x12E PUSH3 0x174 CALLDATASIZE PUSH1 0x4 PUSH3 0xCD9 JUMP JUMPDEST PUSH3 0x3F8 JUMP JUMPDEST PUSH3 0x12E PUSH3 0x18B CALLDATASIZE PUSH1 0x4 PUSH3 0xCD9 JUMP JUMPDEST PUSH3 0x44C JUMP JUMPDEST PUSH3 0x14B PUSH2 0x1F4 DUP2 JUMP JUMPDEST PUSH3 0x1B2 PUSH3 0x1AC CALLDATASIZE PUSH1 0x4 PUSH3 0xC97 JUMP JUMPDEST PUSH3 0x4C8 JUMP JUMPDEST PUSH1 0x40 MLOAD PUSH3 0x15A SWAP2 SWAP1 PUSH3 0xD07 JUMP JUMPDEST PUSH3 0x1D8 PUSH3 0x1D2 CALLDATASIZE PUSH1 0x4 PUSH3 0xE2B JUMP JUMPDEST PUSH3 0x50A JUMP JUMPDEST PUSH1 0x40 MLOAD PUSH3 0x15A SWAP3 SWAP2 SWAP1 PUSH3 0xF2F JUMP JUMPDEST PUSH1 0x4 SLOAD PUSH1 0x1 PUSH1 0x1 PUSH1 0xA0 SHL SUB AND PUSH3 0x1B2 JUMP JUMPDEST PUSH1 0x6 SLOAD PUSH3 0x14B JUMP JUMPDEST PUSH3 0x12E PUSH3 0x622 JUMP JUMPDEST PUSH1 0x5 SLOAD PUSH1 0x1 PUSH1 0x1 PUSH1 0xA0 SHL SUB AND PUSH3 0x1B2 JUMP JUMPDEST PUSH3 0x1D8 PUSH3 0x230 CALLDATASIZE PUSH1 0x4 PUSH3 0xF6C JUMP JUMPDEST PUSH3 0x63A JUMP JUMPDEST PUSH3 0x1B2 PUSH3 0x66F JUMP JUMPDEST PUSH3 0x26F PUSH3 0x251 CALLDATASIZE PUSH1 0x4 PUSH3 0xCD9 JUMP JUMPDEST PUSH1 0x1 PUSH1 0x1 PUSH1 0xA0 SHL SUB AND PUSH1 0x0 SWAP1 DUP2 MSTORE PUSH1 0x3 PUSH1 0x20 MSTORE PUSH1 0x40 SWAP1 KECCAK256 SLOAD PUSH1 0xFF AND SWAP1 JUMP JUMPDEST PUSH1 0x40 MLOAD PUSH3 0x15A SWAP2 SWAP1 PUSH3 0xFBD JUMP JUMPDEST PUSH3 0x12E PUSH3 0x28F CALLDATASIZE PUSH1 0x4 PUSH3 0xCD9 JUMP JUMPDEST PUSH3 0x67E JUMP JUMPDEST PUSH3 0x26F PUSH3 0x2A6 CALLDATASIZE PUSH1 0x4 PUSH3 0xCD9 JUMP JUMPDEST PUSH1 0x3 PUSH1 0x20 MSTORE PUSH1 0x0 SWAP1 DUP2 MSTORE PUSH1 0x40 SWAP1 KECCAK256 SLOAD PUSH1 0xFF AND DUP2 JUMP JUMPDEST PUSH3 0x12E PUSH3 0x2CC CALLDATASIZE PUSH1 0x4 PUSH3 0xCD9 JUMP JUMPDEST PUSH3 0x6D2 JUMP JUMPDEST PUSH3 0x1B2 PUSH32 0x0 DUP2 JUMP JUMPDEST PUSH3 0x304 PUSH3 0x713 JUMP JUMPDEST PUSH1 0x1 PUSH1 0x1 PUSH1 0xA0 SHL SUB DUP3 AND PUSH3 0x336 JUMPI PUSH1 0x40 MLOAD PUSH3 0x461BCD PUSH1 0xE5 SHL DUP2 MSTORE PUSH1 0x4 ADD PUSH3 0x32D SWAP1 PUSH3 0xFF9 JUMP JUMPDEST PUSH1 0x40 MLOAD DUP1 SWAP2 SUB SWAP1 REVERT JUMPDEST PUSH1 0x1 PUSH1 0x1 PUSH1 0xA0 SHL SUB DUP3 AND PUSH1 0x0 DUP2 DUP2 MSTORE PUSH1 0x3 PUSH1 0x20 MSTORE PUSH1 0x40 SWAP1 DUP2 SWAP1 KECCAK256 DUP1 SLOAD PUSH1 0xFF NOT AND DUP5 ISZERO ISZERO OR SWAP1 SSTORE MLOAD PUSH1 0x0 DUP1 MLOAD PUSH1 0x20 PUSH3 0x5EAA DUP4 CODECOPY DUP2 MLOAD SWAP2 MSTORE SWAP1 PUSH3 0x37B SWAP1 DUP5 SWAP1 PUSH3 0xFBD JUMP JUMPDEST PUSH1 0x40 MLOAD DUP1 SWAP2 SUB SWAP1 LOG2 POP POP JUMP JUMPDEST PUSH3 0x391 PUSH3 0x713 JUMP JUMPDEST PUSH2 0x1F4 DUP2 GT ISZERO PUSH3 0x3B6 JUMPI PUSH1 0x40 MLOAD PUSH3 0x461BCD PUSH1 0xE5 SHL DUP2 MSTORE PUSH1 0x4 ADD PUSH3 0x32D SWAP1 PUSH3 0x102D JUMP JUMPDEST PUSH1 0x6 DUP2 SWAP1 SSTORE PUSH1 0x40 MLOAD PUSH32 0x45610D581145924DD7090A5017E5F2B1D6F42213BB2E95707FF86846BBFCB1CA SWAP1 PUSH3 0x3ED SWAP1 DUP4 SWAP1 PUSH3 0xCC9 JUMP JUMPDEST PUSH1 0x40 MLOAD DUP1 SWAP2 SUB SWAP1 LOG1 POP JUMP JUMPDEST PUSH3 0x402 PUSH3 0x713 JUMP JUMPDEST PUSH1 0x4 DUP1 SLOAD PUSH1 0x1 PUSH1 0x1 PUSH1 0xA0 SHL SUB NOT AND PUSH1 0x1 PUSH1 0x1 PUSH1 0xA0 SHL SUB DUP4 AND SWAP1 DUP2 OR SWAP1 SWAP2 SSTORE PUSH1 0x40 MLOAD PUSH32 0x9F0C49AC6DA1B1D3F7B753B41BA9CDC631D714821B72E79E413399440F871813 SWAP1 PUSH1 0x0 SWAP1 LOG2 POP JUMP JUMPDEST PUSH3 0x456 PUSH3 0x713 JUMP JUMPDEST PUSH1 0x1 PUSH1 0x1 PUSH1 0xA0 SHL SUB DUP2 AND PUSH3 0x47F JUMPI PUSH1 0x40 MLOAD PUSH3 0x461BCD PUSH1 0xE5 SHL DUP2 MSTORE PUSH1 0x4 ADD PUSH3 0x32D SWAP1 PUSH3 0xFF9 JUMP JUMPDEST PUSH1 0x1 PUSH1 0x1 PUSH1 0xA0 SHL SUB DUP2 AND PUSH1 0x0 DUP2 DUP2 MSTORE PUSH1 0x3 PUSH1 0x20 MSTORE PUSH1 0x40 DUP1 DUP3 KECCAK256 DUP1 SLOAD PUSH1 0xFF NOT AND SWAP1 SSTORE MLOAD PUSH1 0x0 DUP1 MLOAD PUSH1 0x20 PUSH3 0x5EAA DUP4 CODECOPY DUP2 MLOAD SWAP2 MSTORE SWAP2 PUSH3 0x4BD SWAP2 PUSH3 0xFBD JUMP JUMPDEST PUSH1 0x40 MLOAD DUP1 SWAP2 SUB SWAP1 LOG2 POP JUMP JUMPDEST PUSH1 0x0 PUSH1 0x7 SLOAD DUP3 LT PUSH3 0x4EE JUMPI PUSH1 0x40 MLOAD PUSH3 0x461BCD PUSH1 0xE5 SHL DUP2 MSTORE PUSH1 0x4 ADD PUSH3 0x32D SWAP1 PUSH3 0x1066 JUMP JUMPDEST POP PUSH1 0x0 SWAP1 DUP2 MSTORE PUSH1 0x2 PUSH1 0x20 MSTORE PUSH1 0x40 SWAP1 KECCAK256 SLOAD PUSH1 0x1 PUSH1 0x1 PUSH1 0xA0 SHL SUB AND SWAP1 JUMP JUMPDEST PUSH1 0x0 DUP1 PUSH3 0x517 PUSH3 0x747 JUMP JUMPDEST PUSH1 0x0 PUSH1 0x40 MLOAD DUP1 PUSH2 0x160 ADD PUSH1 0x40 MSTORE DUP1 DUP13 PUSH1 0x1 PUSH1 0x1 PUSH1 0xA0 SHL SUB AND DUP2 MSTORE PUSH1 0x20 ADD DUP12 PUSH1 0x1 PUSH1 0x1 PUSH1 0xA0 SHL SUB AND DUP2 MSTORE PUSH1 0x20 ADD DUP11 PUSH1 0x1 PUSH1 0x1 PUSH1 0xA0 SHL SUB AND DUP2 MSTORE PUSH1 0x20 ADD DUP10 PUSH1 0x1 PUSH1 0x1 PUSH1 0xA0 SHL SUB AND DUP2 MSTORE PUSH1 0x20 ADD DUP9 PUSH1 0x1 PUSH1 0x1 PUSH1 0xA0 SHL SUB AND DUP2 MSTORE PUSH1 0x20 ADD DUP8 DUP2 MSTORE PUSH1 0x20 ADD PUSH2 0x2710 DUP9 PUSH1 0x64 PUSH3 0x588 SWAP2 SWAP1 PUSH3 0x108E JUMP JUMPDEST PUSH3 0x594 SWAP2 SWAP1 PUSH3 0x10BE JUMP JUMPDEST DUP2 MSTORE PUSH1 0x20 ADD PUSH1 0x6 SLOAD DUP2 MSTORE PUSH1 0x20 ADD PUSH1 0x40 MLOAD DUP1 PUSH1 0xA0 ADD PUSH1 0x40 MSTORE DUP1 DUP16 DUP2 MSTORE PUSH1 0x20 ADD DUP8 DUP2 MSTORE PUSH1 0x20 ADD DUP10 DUP2 MSTORE PUSH1 0x20 ADD PUSH1 0x40 MLOAD DUP1 PUSH1 0x20 ADD PUSH1 0x40 MSTORE DUP1 PUSH1 0x0 DUP2 MSTORE POP DUP2 MSTORE PUSH1 0x20 ADD PUSH1 0x0 ISZERO ISZERO DUP2 MSTORE POP DUP2 MSTORE PUSH1 0x20 ADD DUP7 DUP2 MSTORE PUSH1 0x20 ADD DUP7 PUSH3 0x93A80 PUSH3 0x5F6 SWAP2 SWAP1 PUSH3 0x10D5 JUMP JUMPDEST SWAP1 MSTORE SWAP1 POP PUSH3 0x605 DUP2 PUSH3 0x773 JUMP JUMPDEST SWAP3 POP SWAP3 POP POP PUSH3 0x614 PUSH1 0x1 DUP1 SSTORE JUMP JUMPDEST SWAP10 POP SWAP10 SWAP8 POP POP POP POP POP POP POP POP JUMP JUMPDEST PUSH3 0x62C PUSH3 0x713 JUMP JUMPDEST PUSH3 0x638 PUSH1 0x0 PUSH3 0xB9A JUMP JUMPDEST JUMP JUMPDEST PUSH1 0x0 DUP1 PUSH3 0x647 PUSH3 0x747 JUMP JUMPDEST PUSH3 0x65C PUSH3 0x656 DUP5 PUSH3 0x12F3 JUMP JUMPDEST PUSH3 0x773 JUMP JUMPDEST SWAP2 POP SWAP2 POP PUSH3 0x66A PUSH1 0x1 DUP1 SSTORE JUMP JUMPDEST SWAP2 POP SWAP2 JUMP JUMPDEST PUSH1 0x0 SLOAD PUSH1 0x1 PUSH1 0x1 PUSH1 0xA0 SHL SUB AND SWAP1 JUMP JUMPDEST PUSH3 0x688 PUSH3 0x713 JUMP JUMPDEST PUSH1 0x5 DUP1 SLOAD PUSH1 0x1 PUSH1 0x1 PUSH1 0xA0 SHL SUB NOT AND PUSH1 0x1 PUSH1 0x1 PUSH1 0xA0 SHL SUB DUP4 AND SWAP1 DUP2 OR SWAP1 SWAP2 SSTORE PUSH1 0x40 MLOAD PUSH32 0x2151BE18E1A9EF97FAD5998C8AA002234F4140B219F553EABF2DBDD21C23A396 SWAP1 PUSH1 0x0 SWAP1 LOG2 POP JUMP JUMPDEST PUSH3 0x6DC PUSH3 0x713 JUMP JUMPDEST PUSH1 0x1 PUSH1 0x1 PUSH1 0xA0 SHL SUB DUP2 AND PUSH3 0x705 JUMPI PUSH1 0x40 MLOAD PUSH3 0x461BCD PUSH1 0xE5 SHL DUP2 MSTORE PUSH1 0x4 ADD PUSH3 0x32D SWAP1 PUSH3 0x1301 JUMP JUMPDEST PUSH3 0x710 DUP2 PUSH3 0xB9A JUMP JUMPDEST POP JUMP JUMPDEST CALLER PUSH3 0x71E PUSH3 0x66F JUMP JUMPDEST PUSH1 0x1 PUSH1 0x1 PUSH1 0xA0 SHL SUB AND EQ PUSH3 0x638 JUMPI PUSH1 0x40 MLOAD PUSH3 0x461BCD PUSH1 0xE5 SHL DUP2 MSTORE PUSH1 0x4 ADD PUSH3 0x32D SWAP1 PUSH3 0x137D JUMP JUMPDEST PUSH1 0x2 PUSH1 0x1 SLOAD SUB PUSH3 0x76C JUMPI PUSH1 0x40 MLOAD PUSH3 0x461BCD PUSH1 0xE5 SHL DUP2 MSTORE PUSH1 0x4 ADD PUSH3 0x32D SWAP1 PUSH3 0x13C2 JUMP JUMPDEST PUSH1 0x2 PUSH1 0x1 SSTORE JUMP JUMPDEST PUSH1 0x80 DUP2 ADD MLOAD PUSH1 0x1 PUSH1 0x1 PUSH1 0xA0 SHL SUB AND PUSH1 0x0 SWAP1 DUP2 MSTORE PUSH1 0x3 PUSH1 0x20 MSTORE PUSH1 0x40 DUP2 KECCAK256 SLOAD DUP2 SWAP1 PUSH1 0xFF AND PUSH3 0x7B4 JUMPI PUSH1 0x40 MLOAD PUSH3 0x461BCD PUSH1 0xE5 SHL DUP2 MSTORE PUSH1 0x4 ADD PUSH3 0x32D SWAP1 PUSH3 0x13FF JUMP JUMPDEST PUSH1 0x40 DUP4 ADD MLOAD DUP4 SWAP1 PUSH1 0x1 PUSH1 0x1 PUSH1 0xA0 SHL SUB AND PUSH3 0x7DB JUMPI PUSH1 0x4 SLOAD PUSH1 0x1 PUSH1 0x1 PUSH1 0xA0 SHL SUB AND PUSH1 0x40 DUP3 ADD MSTORE JUMPDEST PUSH1 0x60 DUP2 ADD MLOAD PUSH1 0x1 PUSH1 0x1 PUSH1 0xA0 SHL SUB AND PUSH3 0x800 JUMPI PUSH1 0x5 SLOAD PUSH1 0x1 PUSH1 0x1 PUSH1 0xA0 SHL SUB AND PUSH1 0x60 DUP3 ADD MSTORE JUMPDEST DUP1 PUSH1 0xE0 ADD MLOAD PUSH1 0x0 SUB PUSH3 0x816 JUMPI PUSH1 0x6 SLOAD PUSH1 0xE0 DUP3 ADD MSTORE JUMPDEST PUSH1 0x0 PUSH32 0x0 DUP3 PUSH1 0xE0 ADD MLOAD PUSH1 0x40 MLOAD PUSH3 0x84C SWAP1 PUSH3 0xBEA JUMP JUMPDEST PUSH3 0x859 SWAP3 SWAP2 SWAP1 PUSH3 0xF2F JUMP JUMPDEST PUSH1 0x40 MLOAD DUP1 SWAP2 SUB SWAP1 PUSH1 0x0 CREATE DUP1 ISZERO DUP1 ISZERO PUSH3 0x876 JUMPI RETURNDATASIZE PUSH1 0x0 DUP1 RETURNDATACOPY RETURNDATASIZE PUSH1 0x0 REVERT JUMPDEST POP PUSH1 0x80 DUP4 ADD MLOAD PUSH1 0x40 MLOAD PUSH4 0xFFB1D8B PUSH1 0xE0 SHL DUP2 MSTORE SWAP2 SWAP6 POP DUP6 SWAP3 POP PUSH1 0x1 PUSH1 0x1 PUSH1 0xA0 SHL SUB DUP4 AND SWAP2 PUSH4 0xFFB1D8B SWAP2 PUSH3 0x8B1 SWAP2 PUSH1 0x1 SWAP1 PUSH1 0x4 ADD PUSH3 0x1411 JUMP JUMPDEST PUSH1 0x0 PUSH1 0x40 MLOAD DUP1 DUP4 SUB DUP2 PUSH1 0x0 DUP8 DUP1 EXTCODESIZE ISZERO DUP1 ISZERO PUSH3 0x8CC JUMPI PUSH1 0x0 DUP1 REVERT JUMPDEST POP GAS CALL ISZERO DUP1 ISZERO PUSH3 0x8E1 JUMPI RETURNDATASIZE PUSH1 0x0 DUP1 RETURNDATACOPY RETURNDATASIZE PUSH1 0x0 REVERT JUMPDEST POP POP POP POP PUSH1 0x40 DUP3 ADD MLOAD PUSH1 0x1 PUSH1 0x1 PUSH1 0xA0 SHL SUB AND ISZERO PUSH3 0x9C6 JUMPI DUP1 PUSH1 0x1 PUSH1 0x1 PUSH1 0xA0 SHL SUB AND PUSH4 0x2F2FF15D DUP3 PUSH1 0x1 PUSH1 0x1 PUSH1 0xA0 SHL SUB AND PUSH4 0x22459E18 PUSH1 0x40 MLOAD DUP2 PUSH4 0xFFFFFFFF AND PUSH1 0xE0 SHL DUP2 MSTORE PUSH1 0x4 ADD PUSH1 0x20 PUSH1 0x40 MLOAD DUP1 DUP4 SUB DUP2 DUP7 GAS STATICCALL ISZERO DUP1 ISZERO PUSH3 0x947 JUMPI RETURNDATASIZE PUSH1 0x0 DUP1 RETURNDATACOPY RETURNDATASIZE PUSH1 0x0 REVERT JUMPDEST POP POP POP POP PUSH1 0x40 MLOAD RETURNDATASIZE PUSH1 0x1F NOT PUSH1 0x1F DUP3 ADD AND DUP3 ADD DUP1 PUSH1 0x40 MSTORE POP DUP2 ADD SWAP1 PUSH3 0x96D SWAP2 SWAP1 PUSH3 0x143D JUMP JUMPDEST DUP5 PUSH1 0x40 ADD MLOAD PUSH1 0x40 MLOAD DUP4 PUSH4 0xFFFFFFFF AND PUSH1 0xE0 SHL DUP2 MSTORE PUSH1 0x4 ADD PUSH3 0x991 SWAP3 SWAP2 SWAP1 PUSH3 0x1460 JUMP JUMPDEST PUSH1 0x0 PUSH1 0x40 MLOAD DUP1 DUP4 SUB DUP2 PUSH1 0x0 DUP8 DUP1 EXTCODESIZE ISZERO DUP1 ISZERO PUSH3 0x9AC JUMPI PUSH1 0x0 DUP1 REVERT JUMPDEST POP GAS CALL ISZERO DUP1 ISZERO PUSH3 0x9C1 JUMPI RETURNDATASIZE PUSH1 0x0 DUP1 RETURNDATACOPY RETURNDATASIZE PUSH1 0x0 REVERT JUMPDEST POP POP POP POP JUMPDEST PUSH1 0x60 DUP3 ADD MLOAD PUSH1 0x1 PUSH1 0x1 PUSH1 0xA0 SHL SUB AND ISZERO PUSH3 0xAA7 JUMPI DUP1 PUSH1 0x1 PUSH1 0x1 PUSH1 0xA0 SHL SUB AND PUSH4 0x2F2FF15D DUP3 PUSH1 0x1 PUSH1 0x1 PUSH1 0xA0 SHL SUB AND PUSH4 0x4D104ADF PUSH1 0x40 MLOAD DUP2 PUSH4 0xFFFFFFFF AND PUSH1 0xE0 SHL DUP2 MSTORE PUSH1 0x4 ADD PUSH1 0x20 PUSH1 0x40 MLOAD DUP1 DUP4 SUB DUP2 DUP7 GAS STATICCALL ISZERO DUP1 ISZERO PUSH3 0xA28 JUMPI RETURNDATASIZE PUSH1 0x0 DUP1 RETURNDATACOPY RETURNDATASIZE PUSH1 0x0 REVERT JUMPDEST POP POP POP POP PUSH1 0x40 MLOAD RETURNDATASIZE PUSH1 0x1F NOT PUSH1 0x1F DUP3 ADD AND DUP3 ADD DUP1 PUSH1 0x40 MSTORE POP DUP2 ADD SWAP1 PUSH3 0xA4E SWAP2 SWAP1 PUSH3 0x143D JUMP JUMPDEST DUP5 PUSH1 0x60 ADD MLOAD PUSH1 0x40 MLOAD DUP4 PUSH4 0xFFFFFFFF AND PUSH1 0xE0 SHL DUP2 MSTORE PUSH1 0x4 ADD PUSH3 0xA72 SWAP3 SWAP2 SWAP1 PUSH3 0x1460 JUMP JUMPDEST PUSH1 0x0 PUSH1 0x40 MLOAD DUP1 DUP4 SUB DUP2 PUSH1 0x0 DUP8 DUP1 EXTCODESIZE ISZERO DUP1 ISZERO PUSH3 0xA8D JUMPI PUSH1 0x0 DUP1 REVERT JUMPDEST POP GAS CALL ISZERO DUP1 ISZERO PUSH3 0xAA2 JUMPI RETURNDATASIZE PUSH1 0x0 DUP1 RETURNDATACOPY RETURNDATASIZE PUSH1 0x0 REVERT JUMPDEST POP POP POP POP JUMPDEST PUSH1 0x40 MLOAD PUSH4 0x9D5E0551 PUSH1 0xE0 SHL DUP2 MSTORE PUSH1 0x1 PUSH1 0x1 PUSH1 0xA0 SHL SUB DUP3 AND SWAP1 PUSH4 0x9D5E0551 SWAP1 PUSH3 0xAD5 SWAP1 DUP6 SWAP1 PUSH1 0x4 ADD PUSH3 0x165A JUMP JUMPDEST PUSH1 0x20 PUSH1 0x40 MLOAD DUP1 DUP4 SUB DUP2 PUSH1 0x0 DUP8 GAS CALL ISZERO DUP1 ISZERO PUSH3 0xAF5 JUMPI RETURNDATASIZE PUSH1 0x0 DUP1 RETURNDATACOPY RETURNDATASIZE PUSH1 0x0 REVERT JUMPDEST POP POP POP POP PUSH1 0x40 MLOAD RETURNDATASIZE PUSH1 0x1F NOT PUSH1 0x1F DUP3 ADD AND DUP3 ADD DUP1 PUSH1 0x40 MSTORE POP DUP2 ADD SWAP1 PUSH3 0xB1B SWAP2 SWAP1 PUSH3 0x143D JUMP JUMPDEST PUSH1 0x7 DUP1 SLOAD PUSH1 0x0 SWAP1 DUP2 MSTORE PUSH1 0x2 PUSH1 0x20 MSTORE PUSH1 0x40 DUP2 KECCAK256 DUP1 SLOAD PUSH1 0x1 PUSH1 0x1 PUSH1 0xA0 SHL SUB NOT AND PUSH1 0x1 PUSH1 0x1 PUSH1 0xA0 SHL SUB DUP10 AND OR SWAP1 SSTORE DUP2 SLOAD SWAP3 SWAP6 POP PUSH3 0xB56 DUP4 PUSH3 0x166D JUMP JUMPDEST SWAP1 SWAP2 SSTORE POP POP PUSH1 0x40 MLOAD DUP4 SWAP1 CALLER SWAP1 PUSH1 0x1 PUSH1 0x1 PUSH1 0xA0 SHL SUB DUP8 AND SWAP1 PUSH32 0xF04881845615A90C5228CEB3942839403FEA454DE5E4B34DC7266A641C5839E7 SWAP1 PUSH1 0x0 SWAP1 LOG4 POP POP SWAP2 POP SWAP2 JUMP JUMPDEST PUSH1 0x0 DUP1 SLOAD PUSH1 0x1 PUSH1 0x1 PUSH1 0xA0 SHL SUB DUP4 DUP2 AND PUSH1 0x1 PUSH1 0x1 PUSH1 0xA0 SHL SUB NOT DUP4 AND DUP2 OR DUP5 SSTORE PUSH1 0x40 MLOAD SWAP2 SWAP1 SWAP3 AND SWAP3 DUP4 SWAP2 PUSH32 0x8BE0079C531659141344CD1FD0A4F28419497F9722A3DAAFE3B4186F6B6457E0 SWAP2 SWAP1 LOG3 POP POP JUMP JUMPDEST PUSH2 0x4820 DUP1 PUSH3 0x168A DUP4 CODECOPY ADD SWAP1 JUMP JUMPDEST PUSH1 0x0 PUSH1 0x1 PUSH1 0x1 PUSH1 0xA0 SHL SUB DUP3 AND JUMPDEST SWAP3 SWAP2 POP POP JUMP JUMPDEST PUSH3 0xC16 DUP2 PUSH3 0xBF8 JUMP JUMPDEST DUP2 EQ PUSH3 0x710 JUMPI PUSH1 0x0 DUP1 REVERT JUMPDEST DUP1 CALLDATALOAD PUSH3 0xC05 DUP2 PUSH3 0xC0B JUMP JUMPDEST DUP1 ISZERO ISZERO PUSH3 0xC16 JUMP JUMPDEST DUP1 CALLDATALOAD PUSH3 0xC05 DUP2 PUSH3 0xC2F JUMP JUMPDEST PUSH1 0x0 DUP1 PUSH1 0x40 DUP4 DUP6 SUB SLT ISZERO PUSH3 0xC5D JUMPI PUSH3 0xC5D PUSH1 0x0 DUP1 REVERT JUMPDEST PUSH3 0xC69 DUP5 DUP5 PUSH3 0xC22 JUMP JUMPDEST SWAP2 POP PUSH3 0xC7A DUP5 PUSH1 0x20 DUP6 ADD PUSH3 0xC38 JUMP JUMPDEST SWAP1 POP SWAP3 POP SWAP3 SWAP1 POP JUMP JUMPDEST DUP1 PUSH3 0xC16 JUMP JUMPDEST DUP1 CALLDATALOAD PUSH3 0xC05 DUP2 PUSH3 0xC83 JUMP JUMPDEST PUSH1 0x0 PUSH1 0x20 DUP3 DUP5 SUB SLT ISZERO PUSH3 0xCAE JUMPI PUSH3 0xCAE PUSH1 0x0 DUP1 REVERT JUMPDEST PUSH3 0xCBA DUP4 DUP4 PUSH3 0xC8A JUMP JUMPDEST SWAP4 SWAP3 POP POP POP JUMP JUMPDEST DUP1 JUMPDEST DUP3 MSTORE POP POP JUMP JUMPDEST PUSH1 0x20 DUP2 ADD PUSH3 0xC05 DUP3 DUP5 PUSH3 0xCC1 JUMP JUMPDEST PUSH1 0x0 PUSH1 0x20 DUP3 DUP5 SUB SLT ISZERO PUSH3 0xCF0 JUMPI PUSH3 0xCF0 PUSH1 0x0 DUP1 REVERT JUMPDEST PUSH3 0xCBA DUP4 DUP4 PUSH3 0xC22 JUMP JUMPDEST PUSH3 0xCC3 DUP2 PUSH3 0xBF8 JUMP JUMPDEST PUSH1 0x20 DUP2 ADD PUSH3 0xC05 DUP3 DUP5 PUSH3 0xCFC JUMP JUMPDEST PUSH1 0x1F ADD PUSH1 0x1F NOT AND SWAP1 JUMP JUMPDEST PUSH4 0x4E487B71 PUSH1 0xE0 SHL PUSH1 0x0 MSTORE PUSH1 0x41 PUSH1 0x4 MSTORE PUSH1 0x24 PUSH1 0x0 REVERT JUMPDEST PUSH3 0xD42 DUP3 PUSH3 0xD17 JUMP JUMPDEST DUP2 ADD PUSH1 0x1 PUSH1 0x1 PUSH1 0x40 SHL SUB DUP2 GT DUP3 DUP3 LT OR ISZERO PUSH3 0xD62 JUMPI PUSH3 0xD62 PUSH3 0xD21 JUMP JUMPDEST PUSH1 0x40 MSTORE POP POP JUMP JUMPDEST PUSH1 0x0 PUSH3 0xD75 PUSH1 0x40 MLOAD SWAP1 JUMP JUMPDEST SWAP1 POP PUSH3 0xD83 DUP3 DUP3 PUSH3 0xD37 JUMP JUMPDEST SWAP2 SWAP1 POP JUMP JUMPDEST PUSH1 0x0 PUSH1 0x1 PUSH1 0x1 PUSH1 0x40 SHL SUB DUP3 GT ISZERO PUSH3 0xDA4 JUMPI PUSH3 0xDA4 PUSH3 0xD21 JUMP JUMPDEST PUSH3 0xDAF DUP3 PUSH3 0xD17 JUMP JUMPDEST PUSH1 0x20 ADD SWAP3 SWAP2 POP POP JUMP JUMPDEST DUP3 DUP2 DUP4 CALLDATACOPY POP PUSH1 0x0 SWAP2 ADD MSTORE JUMP JUMPDEST PUSH1 0x0 PUSH3 0xDDB PUSH3 0xDD5 DUP5 PUSH3 0xD88 JUMP JUMPDEST PUSH3 0xD69 JUMP JUMPDEST SWAP1 POP DUP3 DUP2 MSTORE DUP4 DUP4 DUP4 ADD GT ISZERO PUSH3 0xDF4 JUMPI PUSH3 0xDF4 PUSH1 0x0 DUP1 REVERT JUMPDEST PUSH3 0xCBA DUP4 PUSH1 0x20 DUP4 ADD DUP5 PUSH3 0xDB8 JUMP JUMPDEST PUSH1 0x0 DUP3 PUSH1 0x1F DUP4 ADD SLT PUSH3 0xE1A JUMPI PUSH3 0xE1A PUSH1 0x0 DUP1 REVERT JUMPDEST PUSH3 0xCBA DUP4 DUP4 CALLDATALOAD PUSH1 0x20 DUP6 ADD PUSH3 0xDC4 JUMP JUMPDEST PUSH1 0x0 DUP1 PUSH1 0x0 DUP1 PUSH1 0x0 DUP1 PUSH1 0x0 DUP1 PUSH1 0x0 PUSH2 0x120 DUP11 DUP13 SUB SLT ISZERO PUSH3 0xE4F JUMPI PUSH3 0xE4F PUSH1 0x0 DUP1 REVERT JUMPDEST DUP10 CALLDATALOAD PUSH1 0x1 PUSH1 0x1 PUSH1 0x40 SHL SUB DUP2 GT ISZERO PUSH3 0xE6A JUMPI PUSH3 0xE6A PUSH1 0x0 DUP1 REVERT JUMPDEST PUSH3 0xE78 DUP13 DUP3 DUP14 ADD PUSH3 0xE04 JUMP JUMPDEST SWAP10 POP POP PUSH3 0xE8A DUP12 PUSH1 0x20 DUP13 ADD PUSH3 0xC22 JUMP JUMPDEST SWAP8 POP PUSH3 0xE9B DUP12 PUSH1 0x40 DUP13 ADD PUSH3 0xC22 JUMP JUMPDEST SWAP7 POP PUSH3 0xEAC DUP12 PUSH1 0x60 DUP13 ADD PUSH3 0xC22 JUMP JUMPDEST SWAP6 POP PUSH3 0xEBD DUP12 PUSH1 0x80 DUP13 ADD PUSH3 0xC22 JUMP JUMPDEST SWAP5 POP PUSH3 0xECE DUP12 PUSH1 0xA0 DUP13 ADD PUSH3 0xC22 JUMP JUMPDEST SWAP4 POP PUSH3 0xEDF DUP12 PUSH1 0xC0 DUP13 ADD PUSH3 0xC8A JUMP JUMPDEST SWAP3 POP PUSH3 0xEF0 DUP12 PUSH1 0xE0 DUP13 ADD PUSH3 0xC8A JUMP JUMPDEST SWAP2 POP PUSH2 0x100 DUP11 ADD CALLDATALOAD PUSH1 0x1 PUSH1 0x1 PUSH1 0x40 SHL SUB DUP2 GT ISZERO PUSH3 0xF11 JUMPI PUSH3 0xF11 PUSH1 0x0 DUP1 REVERT JUMPDEST PUSH3 0xF1F DUP13 DUP3 DUP14 ADD PUSH3 0xE04 JUMP JUMPDEST SWAP2 POP POP SWAP3 SWAP6 SWAP9 POP SWAP3 SWAP6 SWAP9 POP SWAP3 SWAP6 SWAP9 JUMP JUMPDEST PUSH1 0x40 DUP2 ADD PUSH3 0xF3F DUP3 DUP6 PUSH3 0xCFC JUMP JUMPDEST PUSH3 0xCBA PUSH1 0x20 DUP4 ADD DUP5 PUSH3 0xCC1 JUMP JUMPDEST PUSH1 0x0 PUSH2 0x160 DUP3 DUP5 SUB SLT ISZERO PUSH3 0xF66 JUMPI PUSH3 0xF66 PUSH1 0x0 DUP1 REVERT JUMPDEST POP SWAP2 SWAP1 POP JUMP JUMPDEST PUSH1 0x0 PUSH1 0x20 DUP3 DUP5 SUB SLT ISZERO PUSH3 0xF83 JUMPI PUSH3 0xF83 PUSH1 0x0 DUP1 REVERT JUMPDEST DUP2 CALLDATALOAD PUSH1 0x1 PUSH1 0x1 PUSH1 0x40 SHL SUB DUP2 GT ISZERO PUSH3 0xF9E JUMPI PUSH3 0xF9E PUSH1 0x0 DUP1 REVERT JUMPDEST PUSH3 0xFAC DUP5 DUP3 DUP6 ADD PUSH3 0xF4E JUMP JUMPDEST SWAP5 SWAP4 POP POP POP POP JUMP JUMPDEST DUP1 ISZERO ISZERO PUSH3 0xCC3 JUMP JUMPDEST PUSH1 0x20 DUP2 ADD PUSH3 0xC05 DUP3 DUP5 PUSH3 0xFB4 JUMP JUMPDEST PUSH1 0x15 DUP2 MSTORE PUSH1 0x20 DUP2 ADD PUSH21 0x496E76616C696420746F6B656E2061646472657373 PUSH1 0x58 SHL DUP2 MSTORE SWAP1 POP JUMPDEST PUSH1 0x20 ADD SWAP1 JUMP JUMPDEST PUSH1 0x20 DUP1 DUP3 MSTORE DUP2 ADD PUSH3 0xC05 DUP2 PUSH3 0xFCD JUMP JUMPDEST PUSH1 0xC DUP2 MSTORE PUSH1 0x20 DUP2 ADD PUSH12 0x8CCACA40E8DEDE40D0D2CED PUSH1 0xA3 SHL DUP2 MSTORE SWAP1 POP PUSH3 0xFF3 JUMP JUMPDEST PUSH1 0x20 DUP1 DUP3 MSTORE DUP2 ADD PUSH3 0xC05 DUP2 PUSH3 0x100B JUMP JUMPDEST PUSH1 0x11 DUP2 MSTORE PUSH1 0x20 DUP2 ADD PUSH17 0x125B9D985B1A5908195CD8DC9BDDC81251 PUSH1 0x7A SHL DUP2 MSTORE SWAP1 POP PUSH3 0xFF3 JUMP JUMPDEST PUSH1 0x20 DUP1 DUP3 MSTORE DUP2 ADD PUSH3 0xC05 DUP2 PUSH3 0x103F JUMP JUMPDEST PUSH4 0x4E487B71 PUSH1 0xE0 SHL PUSH1 0x0 MSTORE PUSH1 0x11 PUSH1 0x4 MSTORE PUSH1 0x24 PUSH1 0x0 REVERT JUMPDEST DUP2 DUP2 MUL DUP2 ISZERO DUP3 DUP3 DIV DUP5 EQ OR PUSH3 0xC05 JUMPI PUSH3 0xC05 PUSH3 0x1078 JUMP JUMPDEST PUSH4 0x4E487B71 PUSH1 0xE0 SHL PUSH1 0x0 MSTORE PUSH1 0x12 PUSH1 0x4 MSTORE PUSH1 0x24 PUSH1 0x0 REVERT JUMPDEST PUSH1 0x0 DUP3 PUSH3 0x10D0 JUMPI PUSH3 0x10D0 PUSH3 0x10A8 JUMP JUMPDEST POP DIV SWAP1 JUMP JUMPDEST DUP1 DUP3 ADD DUP1 DUP3 GT ISZERO PUSH3 0xC05 JUMPI PUSH3 0xC05 PUSH3 0x1078 JUMP JUMPDEST PUSH1 0x0 PUSH1 0xA0 DUP3 DUP5 SUB SLT ISZERO PUSH3 0x1102 JUMPI PUSH3 0x1102 PUSH1 0x0 DUP1 REVERT JUMPDEST PUSH3 0x110E PUSH1 0xA0 PUSH3 0xD69 JUMP JUMPDEST SWAP1 POP DUP2 CALLDATALOAD PUSH1 0x1 PUSH1 0x1 PUSH1 0x40 SHL SUB DUP2 GT ISZERO PUSH3 0x112B JUMPI PUSH3 0x112B PUSH1 0x0 DUP1 REVERT JUMPDEST PUSH3 0x1139 DUP5 DUP3 DUP6 ADD PUSH3 0xE04 JUMP JUMPDEST DUP3 MSTORE POP PUSH1 0x20 DUP3 ADD CALLDATALOAD PUSH1 0x1 PUSH1 0x1 PUSH1 0x40 SHL SUB DUP2 GT ISZERO PUSH3 0x115A JUMPI PUSH3 0x115A PUSH1 0x0 DUP1 REVERT JUMPDEST PUSH3 0x1168 DUP5 DUP3 DUP6 ADD PUSH3 0xE04 JUMP JUMPDEST PUSH1 0x20 DUP4 ADD MSTORE POP PUSH3 0x117D DUP4 PUSH1 0x40 DUP5 ADD PUSH3 0xC8A JUMP JUMPDEST PUSH1 0x40 DUP3 ADD MSTORE PUSH1 0x60 DUP3 ADD CALLDATALOAD PUSH1 0x1 PUSH1 0x1 PUSH1 0x40 SHL SUB DUP2 GT ISZERO PUSH3 0x11A0 JUMPI PUSH3 0x11A0 PUSH1 0x0 DUP1 REVERT JUMPDEST PUSH3 0x11AE DUP5 DUP3 DUP6 ADD PUSH3 0xE04 JUMP JUMPDEST PUSH1 0x60 DUP4 ADD MSTORE POP PUSH3 0x11C3 DUP4 PUSH1 0x80 DUP5 ADD PUSH3 0xC38 JUMP JUMPDEST PUSH1 0x80 DUP3 ADD MSTORE SWAP3 SWAP2 POP POP JUMP JUMPDEST PUSH1 0x0 PUSH2 0x160 DUP3 DUP5 SUB SLT ISZERO PUSH3 0x11E6 JUMPI PUSH3 0x11E6 PUSH1 0x0 DUP1 REVERT JUMPDEST PUSH3 0x11F3 PUSH2 0x160 PUSH3 0xD69 JUMP JUMPDEST SWAP1 POP PUSH3 0x1201 DUP4 DUP4 PUSH3 0xC22 JUMP JUMPDEST DUP2 MSTORE PUSH3 0x1212 DUP4 PUSH1 0x20 DUP5 ADD PUSH3 0xC22 JUMP JUMPDEST PUSH1 0x20 DUP3 ADD MSTORE PUSH3 0x1226 DUP4 PUSH1 0x40 DUP5 ADD PUSH3 0xC22 JUMP JUMPDEST PUSH1 0x40 DUP3 ADD MSTORE PUSH3 0x123A DUP4 PUSH1 0x60 DUP5 ADD PUSH3 0xC22 JUMP JUMPDEST PUSH1 0x60 DUP3 ADD MSTORE PUSH3 0x124E DUP4 PUSH1 0x80 DUP5 ADD PUSH3 0xC22 JUMP JUMPDEST PUSH1 0x80 DUP3 ADD MSTORE PUSH3 0x1262 DUP4 PUSH1 0xA0 DUP5 ADD PUSH3 0xC8A JUMP JUMPDEST PUSH1 0xA0 DUP3 ADD MSTORE PUSH3 0x1276 DUP4 PUSH1 0xC0 DUP5 ADD PUSH3 0xC8A JUMP JUMPDEST PUSH1 0xC0 DUP3 ADD MSTORE PUSH3 0x128A DUP4 PUSH1 0xE0 DUP5 ADD PUSH3 0xC8A JUMP JUMPDEST PUSH1 0xE0 DUP3 ADD MSTORE PUSH2 0x100 DUP3 ADD CALLDATALOAD PUSH1 0x1 PUSH1 0x1 PUSH1 0x40 SHL SUB DUP2 GT ISZERO PUSH3 0x12AE JUMPI PUSH3 0x12AE PUSH1 0x0 DUP1 REVERT JUMPDEST PUSH3 0x12BC DUP5 DUP3 DUP6 ADD PUSH3 0x10EB JUMP JUMPDEST PUSH2 0x100 DUP4 ADD MSTORE POP PUSH2 0x120 PUSH3 0x12D4 DUP5 DUP3 DUP6 ADD PUSH3 0xC8A JUMP JUMPDEST SWAP1 DUP3 ADD MSTORE PUSH2 0x140 PUSH3 0x12E9 DUP5 DUP5 DUP4 ADD PUSH3 0xC8A JUMP JUMPDEST SWAP1 DUP3 ADD MSTORE SWAP3 SWAP2 POP POP JUMP JUMPDEST PUSH1 0x0 PUSH3 0xC05 CALLDATASIZE DUP4 PUSH3 0x11CE JUMP JUMPDEST PUSH1 0x20 DUP1 DUP3 MSTORE DUP2 ADD PUSH3 0xC05 DUP2 PUSH1 0x26 DUP2 MSTORE PUSH32 0x4F776E61626C653A206E6577206F776E657220697320746865207A65726F2061 PUSH1 0x20 DUP3 ADD MSTORE PUSH6 0x646472657373 PUSH1 0xD0 SHL PUSH1 0x40 DUP3 ADD MSTORE PUSH1 0x60 ADD SWAP1 JUMP JUMPDEST PUSH1 0x20 DUP1 DUP3 MSTORE PUSH32 0x4F776E61626C653A2063616C6C6572206973206E6F7420746865206F776E6572 SWAP2 ADD SWAP1 DUP2 MSTORE PUSH3 0xFF3 JUMP JUMPDEST PUSH1 0x20 DUP1 DUP3 MSTORE DUP2 ADD PUSH3 0xC05 DUP2 PUSH3 0x134C JUMP JUMPDEST PUSH1 0x1F DUP2 MSTORE PUSH1 0x20 DUP2 ADD PUSH32 0x5265656E7472616E637947756172643A207265656E7472616E742063616C6C00 DUP2 MSTORE SWAP1 POP PUSH3 0xFF3 JUMP JUMPDEST PUSH1 0x20 DUP1 DUP3 MSTORE DUP2 ADD PUSH3 0xC05 DUP2 PUSH3 0x138F JUMP JUMPDEST PUSH1 0x15 DUP2 MSTORE PUSH1 0x20 DUP2 ADD PUSH21 0x151BDAD95B881B9BDD081DDA1A5D195B1A5CDD1959 PUSH1 0x5A SHL DUP2 MSTORE SWAP1 POP PUSH3 0xFF3 JUMP JUMPDEST PUSH1 0x20 DUP1 DUP3 MSTORE DUP2 ADD PUSH3 0xC05 DUP2 PUSH3 0x13D4 JUMP JUMPDEST PUSH1 0x40 DUP2 ADD PUSH3 0x1421 DUP3 DUP6 PUSH3 0xCFC JUMP JUMPDEST PUSH3 0xCBA PUSH1 0x20 DUP4 ADD DUP5 PUSH3 0xFB4 JUMP JUMPDEST DUP1 MLOAD PUSH3 0xC05 DUP2 PUSH3 0xC83 JUMP JUMPDEST PUSH1 0x0 PUSH1 0x20 DUP3 DUP5 SUB SLT ISZERO PUSH3 0x1454 JUMPI PUSH3 0x1454 PUSH1 0x0 DUP1 REVERT JUMPDEST PUSH3 0xCBA DUP4 DUP4 PUSH3 0x1430 JUMP JUMPDEST PUSH1 0x40 DUP2 ADD PUSH3 0x1470 DUP3 DUP6 PUSH3 0xCC1 JUMP JUMPDEST PUSH3 0xCBA PUSH1 0x20 DUP4 ADD DUP5 PUSH3 0xCFC JUMP JUMPDEST PUSH1 0x0 JUMPDEST DUP4 DUP2 LT ISZERO PUSH3 0x149C JUMPI DUP2 DUP2 ADD MLOAD DUP4 DUP3 ADD MSTORE PUSH1 0x20 ADD PUSH3 0x1482 JUMP JUMPDEST POP POP PUSH1 0x0 SWAP2 ADD MSTORE JUMP JUMPDEST PUSH1 0x0 PUSH3 0x14B0 DUP3 MLOAD SWAP1 JUMP JUMPDEST DUP1 DUP5 MSTORE PUSH1 0x20 DUP5 ADD SWAP4 POP PUSH3 0x14C9 DUP2 DUP6 PUSH1 0x20 DUP7 ADD PUSH3 0x147F JUMP JUMPDEST PUSH3 0x14D4 DUP2 PUSH3 0xD17 JUMP JUMPDEST SWAP1 SWAP4 ADD SWAP4 SWAP3 POP POP POP JUMP JUMPDEST DUP1 MLOAD PUSH1 0xA0 DUP1 DUP5 MSTORE PUSH1 0x0 SWAP2 SWAP1 DUP5 ADD SWAP1 PUSH3 0x14F8 DUP3 DUP3 PUSH3 0x14A5 JUMP JUMPDEST SWAP2 POP POP PUSH1 0x20 DUP4 ADD MLOAD DUP5 DUP3 SUB PUSH1 0x20 DUP7 ADD MSTORE PUSH3 0x1514 DUP3 DUP3 PUSH3 0x14A5 JUMP JUMPDEST SWAP2 POP POP PUSH1 0x40 DUP4 ADD MLOAD PUSH3 0x152B PUSH1 0x40 DUP7 ADD DUP3 PUSH3 0xCC1 JUMP JUMPDEST POP PUSH1 0x60 DUP4 ADD MLOAD DUP5 DUP3 SUB PUSH1 0x60 DUP7 ADD MSTORE PUSH3 0x1545 DUP3 DUP3 PUSH3 0x14A5 JUMP JUMPDEST SWAP2 POP POP PUSH1 0x80 DUP4 ADD MLOAD PUSH3 0x155C PUSH1 0x80 DUP7 ADD DUP3 PUSH3 0xFB4 JUMP JUMPDEST POP SWAP4 SWAP3 POP POP POP JUMP JUMPDEST DUP1 MLOAD PUSH1 0x0 SWAP1 PUSH2 0x160 DUP5 ADD SWAP1 PUSH3 0x157B DUP6 DUP3 PUSH3 0xCFC JUMP JUMPDEST POP PUSH1 0x20 DUP4 ADD MLOAD PUSH3 0x1590 PUSH1 0x20 DUP7 ADD DUP3 PUSH3 0xCFC JUMP JUMPDEST POP PUSH1 0x40 DUP4 ADD MLOAD PUSH3 0x15A5 PUSH1 0x40 DUP7 ADD DUP3 PUSH3 0xCFC JUMP JUMPDEST POP PUSH1 0x60 DUP4 ADD MLOAD PUSH3 0x15BA PUSH1 0x60 DUP7 ADD DUP3 PUSH3 0xCFC JUMP JUMPDEST POP PUSH1 0x80 DUP4 ADD MLOAD PUSH3 0x15CF PUSH1 0x80 DUP7 ADD DUP3 PUSH3 0xCFC JUMP JUMPDEST POP PUSH1 0xA0 DUP4 ADD MLOAD PUSH3 0x15E4 PUSH1 0xA0 DUP7 ADD DUP3 PUSH3 0xCC1 JUMP JUMPDEST POP PUSH1 0xC0 DUP4 ADD MLOAD PUSH3 0x15F9 PUSH1 0xC0 DUP7 ADD DUP3 PUSH3 0xCC1 JUMP JUMPDEST POP PUSH1 0xE0 DUP4 ADD MLOAD PUSH3 0x160E PUSH1 0xE0 DUP7 ADD DUP3 PUSH3 0xCC1 JUMP JUMPDEST POP PUSH2 0x100 DUP4 ADD MLOAD DUP5 DUP3 SUB PUSH2 0x100 DUP7 ADD MSTORE PUSH3 0x162A DUP3 DUP3 PUSH3 0x14DE JUMP JUMPDEST SWAP2 POP POP PUSH2 0x120 DUP4 ADD MLOAD PUSH3 0x1643 PUSH2 0x120 DUP7 ADD DUP3 PUSH3 0xCC1 JUMP JUMPDEST POP PUSH2 0x140 DUP4 ADD MLOAD PUSH3 0x155C PUSH2 0x140 DUP7 ADD DUP3 PUSH3 0xCC1 JUMP JUMPDEST PUSH1 0x20 DUP1 DUP3 MSTORE DUP2 ADD PUSH3 0xCBA DUP2 DUP5 PUSH3 0x1564 JUMP JUMPDEST PUSH1 0x0 PUSH1 0x1 DUP3 ADD PUSH3 0x1682 JUMPI PUSH3 0x1682 PUSH3 0x1078 JUMP JUMPDEST POP PUSH1 0x1 ADD SWAP1 JUMP INVALID PUSH1 0x80 PUSH1 0x40 MSTORE CALLVALUE DUP1 ISZERO PUSH3 0x11 JUMPI PUSH1 0x0 DUP1 REVERT JUMPDEST POP PUSH1 0x40 MLOAD PUSH3 0x4820 CODESIZE SUB DUP1 PUSH3 0x4820 DUP4 CODECOPY DUP2 ADD PUSH1 0x40 DUP2 SWAP1 MSTORE PUSH3 0x34 SWAP2 PUSH3 0x208 JUMP JUMPDEST PUSH1 0x1 PUSH1 0x0 DUP2 SWAP1 SSTORE DUP1 SLOAD PUSH1 0xFF NOT AND SWAP1 SSTORE PUSH1 0x1 PUSH1 0x1 PUSH1 0xA0 SHL SUB DUP3 AND PUSH3 0x76 JUMPI PUSH1 0x40 MLOAD PUSH4 0xB0F5AA1 PUSH1 0xE1 SHL DUP2 MSTORE PUSH1 0x4 ADD PUSH3 0x6D SWAP1 PUSH3 0x246 JUMP JUMPDEST PUSH1 0x40 MLOAD DUP1 SWAP2 SUB SWAP1 REVERT JUMPDEST PUSH2 0x1F4 DUP2 GT ISZERO PUSH3 0xA2 JUMPI DUP1 PUSH2 0x1F4 PUSH1 0x40 MLOAD PUSH4 0x73AB8935 PUSH1 0xE1 SHL DUP2 MSTORE PUSH1 0x4 ADD PUSH3 0x6D SWAP3 SWAP2 SWAP1 PUSH3 0x273 JUMP JUMPDEST PUSH1 0x8 DUP1 SLOAD PUSH1 0x1 PUSH1 0x1 PUSH1 0xA0 SHL SUB NOT AND PUSH1 0x1 PUSH1 0x1 PUSH1 0xA0 SHL SUB DUP5 AND OR SWAP1 SSTORE PUSH1 0x7 DUP2 SWAP1 SSTORE PUSH3 0xCF PUSH1 0x0 CALLER PUSH3 0x103 JUMP JUMPDEST PUSH3 0xFB PUSH32 0xA49807205CE4D355092EF5A8A18F56E8913CF4A201FBE287825B095693C21775 CALLER PUSH3 0x103 JUMP JUMPDEST POP POP PUSH3 0x28E JUMP JUMPDEST PUSH3 0x10F DUP3 DUP3 PUSH3 0x18E JUMP JUMPDEST PUSH3 0x18A JUMPI PUSH1 0x0 DUP3 DUP2 MSTORE PUSH1 0x2 PUSH1 0x20 SWAP1 DUP2 MSTORE PUSH1 0x40 DUP1 DUP4 KECCAK256 PUSH1 0x1 PUSH1 0x1 PUSH1 0xA0 SHL SUB DUP6 AND DUP5 MSTORE SWAP1 SWAP2 MSTORE SWAP1 KECCAK256 DUP1 SLOAD PUSH1 0xFF NOT AND PUSH1 0x1 OR SWAP1 SSTORE PUSH3 0x149 CALLER SWAP1 JUMP JUMPDEST PUSH1 0x1 PUSH1 0x1 PUSH1 0xA0 SHL SUB AND DUP2 PUSH1 0x1 PUSH1 0x1 PUSH1 0xA0 SHL SUB AND DUP4 PUSH32 0x2F8788117E7EFF1D82E926EC794901D17C78024A50270940304540A733656F0D PUSH1 0x40 MLOAD PUSH1 0x40 MLOAD DUP1 SWAP2 SUB SWAP1 LOG4 JUMPDEST POP POP JUMP JUMPDEST PUSH1 0x0 DUP3 DUP2 MSTORE PUSH1 0x2 PUSH1 0x20 SWAP1 DUP2 MSTORE PUSH1 0x40 DUP1 DUP4 KECCAK256 PUSH1 0x1 PUSH1 0x1 PUSH1 0xA0 SHL SUB DUP6 AND DUP5 MSTORE SWAP1 SWAP2 MSTORE SWAP1 KECCAK256 SLOAD PUSH1 0xFF AND JUMPDEST SWAP3 SWAP2 POP POP JUMP JUMPDEST PUSH1 0x0 PUSH1 0x1 PUSH1 0x1 PUSH1 0xA0 SHL SUB DUP3 AND PUSH3 0x1B5 JUMP JUMPDEST PUSH3 0x1D8 DUP2 PUSH3 0x1BB JUMP JUMPDEST DUP2 EQ PUSH3 0x1E4 JUMPI PUSH1 0x0 DUP1 REVERT JUMPDEST POP JUMP JUMPDEST DUP1 MLOAD PUSH3 0x1B5 DUP2 PUSH3 0x1CD JUMP JUMPDEST DUP1 PUSH3 0x1D8 JUMP JUMPDEST DUP1 MLOAD PUSH3 0x1B5 DUP2 PUSH3 0x1F4 JUMP JUMPDEST PUSH1 0x0 DUP1 PUSH1 0x40 DUP4 DUP6 SUB SLT ISZERO PUSH3 0x220 JUMPI PUSH3 0x220 PUSH1 0x0 DUP1 REVERT JUMPDEST PUSH3 0x22C DUP5 DUP5 PUSH3 0x1E7 JUMP JUMPDEST SWAP2 POP PUSH3 0x23D DUP5 PUSH1 0x20 DUP6 ADD PUSH3 0x1FB JUMP JUMPDEST SWAP1 POP SWAP3 POP SWAP3 SWAP1 POP JUMP JUMPDEST PUSH1 0x20 DUP1 DUP3 MSTORE DUP2 ADD PUSH3 0x1B5 DUP2 PUSH1 0xE DUP2 MSTORE PUSH14 0x1C1B185D199BDC9B55D85B1B195D PUSH1 0x92 SHL PUSH1 0x20 DUP3 ADD MSTORE PUSH1 0x40 ADD SWAP1 JUMP JUMPDEST DUP3 DUP2 MSTORE PUSH1 0x40 DUP2 ADD PUSH3 0x287 PUSH1 0x20 DUP4 ADD DUP5 SWAP1 MSTORE JUMP JUMPDEST SWAP4 SWAP3 POP POP POP JUMP JUMPDEST PUSH2 0x4582 DUP1 PUSH3 0x29E PUSH1 0x0 CODECOPY PUSH1 0x0 RETURN INVALID PUSH1 0x80 PUSH1 0x40 MSTORE CALLVALUE DUP1 ISZERO PUSH2 0x10 JUMPI PUSH1 0x0 DUP1 REVERT JUMPDEST POP PUSH1 0x4 CALLDATASIZE LT PUSH2 0x1A1 JUMPI PUSH1 0x0 CALLDATALOAD PUSH1 0xE0 SHR DUP1 PUSH4 0x1FFC9A7 EQ PUSH2 0x1A6 JUMPI DUP1 PUSH4 0x8B88AF1 EQ PUSH2 0x1CF JUMPI DUP1 PUSH4 0xFFB1D8B EQ PUSH2 0x1E2 JUMPI DUP1 PUSH4 0x12E8E2C3 EQ PUSH2 0x1F7 JUMPI DUP1 PUSH4 0x1E31A6DD EQ PUSH2 0x20A JUMPI DUP1 PUSH4 0x22459E18 EQ PUSH2 0x212 JUMPI DUP1 PUSH4 0x248A9CA3 EQ PUSH2 0x246 JUMPI DUP1 PUSH4 0x2840662D EQ PUSH2 0x259 JUMPI DUP1 PUSH4 0x2F2FF15D EQ PUSH2 0x26C JUMPI DUP1 PUSH4 0x36568ABE EQ PUSH2 0x27F JUMPI DUP1 PUSH4 0x39292763 EQ PUSH2 0x292 JUMPI DUP1 PUSH4 0x3998A681 EQ PUSH2 0x2A5 JUMPI DUP1 PUSH4 0x3A49995B EQ PUSH2 0x2AE JUMPI DUP1 PUSH4 0x3B76594D EQ PUSH2 0x2CE JUMPI DUP1 PUSH4 0x3F4BA83A EQ PUSH2 0x2E1 JUMPI DUP1 PUSH4 0x3F4DBDA2 EQ PUSH2 0x2E9 JUMPI DUP1 PUSH4 0x46B6CFD3 EQ PUSH2 0x2F1 JUMPI DUP1 PUSH4 0x4D104ADF EQ PUSH2 0x304 JUMPI DUP1 PUSH4 0x4D68282F EQ PUSH2 0x32B JUMPI DUP1 PUSH4 0x5AEF573C EQ PUSH2 0x33E JUMPI DUP1 PUSH4 0x5C975ABB EQ PUSH2 0x351 JUMPI DUP1 PUSH4 0x75B238FC EQ PUSH2 0x35C JUMPI DUP1 PUSH4 0x7D19E596 EQ PUSH2 0x371 JUMPI DUP1 PUSH4 0x8456CB59 EQ PUSH2 0x391 JUMPI DUP1 PUSH4 0x91D14854 EQ PUSH2 0x399 JUMPI DUP1 PUSH4 0x9D5E0551 EQ PUSH2 0x3AC JUMPI DUP1 PUSH4 0xA217FDDF EQ PUSH2 0x3BF JUMPI DUP1 PUSH4 0xB138821E EQ PUSH2 0x3C7 JUMPI DUP1 PUSH4 0xB49B0CB3 EQ PUSH2 0x3DA JUMPI DUP1 PUSH4 0xCDD78CFC EQ PUSH2 0x3ED JUMPI DUP1 PUSH4 0xD547741F EQ PUSH2 0x3F6 JUMPI DUP1 PUSH4 0xDAF9C210 EQ PUSH2 0x409 JUMPI DUP1 PUSH4 0xE0182436 EQ PUSH2 0x42C JUMPI DUP1 PUSH4 0xE1F1C4A7 EQ PUSH2 0x43F JUMPI DUP1 PUSH4 0xFA2AF9DA EQ PUSH2 0x448 JUMPI JUMPDEST PUSH1 0x0 DUP1 REVERT JUMPDEST PUSH2 0x1B9 PUSH2 0x1B4 CALLDATASIZE PUSH1 0x4 PUSH2 0x30C0 JUMP JUMPDEST PUSH2 0x468 JUMP JUMPDEST PUSH1 0x40 MLOAD PUSH2 0x1C6 SWAP2 SWAP1 PUSH2 0x30E9 JUMP JUMPDEST PUSH1 0x40 MLOAD DUP1 SWAP2 SUB SWAP1 RETURN JUMPDEST PUSH2 0x1B9 PUSH2 0x1DD CALLDATASIZE PUSH1 0x4 PUSH2 0x3108 JUMP JUMPDEST PUSH2 0x49F JUMP JUMPDEST PUSH2 0x1F5 PUSH2 0x1F0 CALLDATASIZE PUSH1 0x4 PUSH2 0x315F JUMP JUMPDEST PUSH2 0x8DB JUMP JUMPDEST STOP JUMPDEST PUSH2 0x1F5 PUSH2 0x205 CALLDATASIZE PUSH1 0x4 PUSH2 0x3108 JUMP JUMPDEST PUSH2 0x91F JUMP JUMPDEST PUSH2 0x1F5 PUSH2 0x95F JUMP JUMPDEST PUSH2 0x239 PUSH32 0xCAB5A0BFE0B79D2C4B1C2E02599FA044D115B7511F9659307CB4276950967709 DUP2 JUMP JUMPDEST PUSH1 0x40 MLOAD PUSH2 0x1C6 SWAP2 SWAP1 PUSH2 0x319D JUMP JUMPDEST PUSH2 0x239 PUSH2 0x254 CALLDATASIZE PUSH1 0x4 PUSH2 0x3108 JUMP JUMPDEST PUSH2 0xAF7 JUMP JUMPDEST PUSH2 0x1F5 PUSH2 0x267 CALLDATASIZE PUSH1 0x4 PUSH2 0x31FC JUMP JUMPDEST PUSH2 0xB0C JUMP JUMPDEST PUSH2 0x1F5 PUSH2 0x27A CALLDATASIZE PUSH1 0x4 PUSH2 0x3264 JUMP JUMPDEST PUSH2 0xCCD JUMP JUMPDEST PUSH2 0x1F5 PUSH2 0x28D CALLDATASIZE PUSH1 0x4 PUSH2 0x3264 JUMP JUMPDEST PUSH2 0xCEE JUMP JUMPDEST PUSH2 0x1F5 PUSH2 0x2A0 CALLDATASIZE PUSH1 0x4 PUSH2 0x3108 JUMP JUMPDEST PUSH2 0xD24 JUMP JUMPDEST PUSH2 0x239 PUSH2 0x1F4 DUP2 JUMP JUMPDEST PUSH2 0x2C1 PUSH2 0x2BC CALLDATASIZE PUSH1 0x4 PUSH2 0x3108 JUMP JUMPDEST PUSH2 0xDA4 JUMP JUMPDEST PUSH1 0x40 MLOAD PUSH2 0x1C6 SWAP2 SWAP1 PUSH2 0x32D7 JUMP JUMPDEST PUSH2 0x1F5 PUSH2 0x2DC CALLDATASIZE PUSH1 0x4 PUSH2 0x3108 JUMP JUMPDEST PUSH2 0xDE5 JUMP JUMPDEST PUSH2 0x1F5 PUSH2 0xF5C JUMP JUMPDEST PUSH1 0x6 SLOAD PUSH2 0x239 JUMP JUMPDEST PUSH2 0x1F5 PUSH2 0x2FF CALLDATASIZE PUSH1 0x4 PUSH2 0x3108 JUMP JUMPDEST PUSH2 0xF7C JUMP JUMPDEST PUSH2 0x239 PUSH32 0xBB08418A67729A078F87BBC8D02A770929BB68F5BFDF134AE2EAD6ED38E2F4AE DUP2 JUMP JUMPDEST PUSH2 0x1F5 PUSH2 0x339 CALLDATASIZE PUSH1 0x4 PUSH2 0x3108 JUMP JUMPDEST PUSH2 0x10EF JUMP JUMPDEST PUSH2 0x1F5 PUSH2 0x34C CALLDATASIZE PUSH1 0x4 PUSH2 0x32E5 JUMP JUMPDEST PUSH2 0x12FE JUMP JUMPDEST PUSH1 0x1 SLOAD PUSH1 0xFF AND PUSH2 0x1B9 JUMP JUMPDEST PUSH2 0x239 PUSH1 0x0 DUP1 MLOAD PUSH1 0x20 PUSH2 0x450D DUP4 CODECOPY DUP2 MLOAD SWAP2 MSTORE DUP2 JUMP JUMPDEST PUSH2 0x384 PUSH2 0x37F CALLDATASIZE PUSH1 0x4 PUSH2 0x3108 JUMP JUMPDEST PUSH2 0x1981 JUMP JUMPDEST PUSH1 0x40 MLOAD PUSH2 0x1C6 SWAP2 SWAP1 PUSH2 0x35A5 JUMP JUMPDEST PUSH2 0x1F5 PUSH2 0x1D36 JUMP JUMPDEST PUSH2 0x1B9 PUSH2 0x3A7 CALLDATASIZE PUSH1 0x4 PUSH2 0x3264 JUMP JUMPDEST PUSH2 0x1D56 JUMP JUMPDEST PUSH2 0x239 PUSH2 0x3BA CALLDATASIZE PUSH1 0x4 PUSH2 0x35CC JUMP JUMPDEST PUSH2 0x1D81 JUMP JUMPDEST PUSH2 0x239 PUSH1 0x0 DUP2 JUMP JUMPDEST PUSH2 0x1F5 PUSH2 0x3D5 CALLDATASIZE PUSH1 0x4 PUSH2 0x3108 JUMP JUMPDEST PUSH2 0x217E JUMP JUMPDEST PUSH2 0x1F5 PUSH2 0x3E8 CALLDATASIZE PUSH1 0x4 PUSH2 0x3606 JUMP JUMPDEST PUSH2 0x2365 JUMP JUMPDEST PUSH2 0x239 PUSH1 0x7 SLOAD DUP2 JUMP JUMPDEST PUSH2 0x1F5 PUSH2 0x404 CALLDATASIZE PUSH1 0x4 PUSH2 0x3264 JUMP JUMPDEST PUSH2 0x2391 JUMP JUMPDEST PUSH2 0x1B9 PUSH2 0x417 CALLDATASIZE PUSH1 0x4 PUSH2 0x3635 JUMP JUMPDEST PUSH1 0x5 PUSH1 0x20 MSTORE PUSH1 0x0 SWAP1 DUP2 MSTORE PUSH1 0x40 SWAP1 KECCAK256 SLOAD PUSH1 0xFF AND DUP2 JUMP JUMPDEST PUSH2 0x1F5 PUSH2 0x43A CALLDATASIZE PUSH1 0x4 PUSH2 0x3108 JUMP JUMPDEST PUSH2 0x23AD JUMP JUMPDEST PUSH2 0x239 PUSH2 0x2710 DUP2 JUMP JUMPDEST PUSH1 0x8 SLOAD PUSH2 0x45B SWAP1 PUSH1 0x1 PUSH1 0x1 PUSH1 0xA0 SHL SUB AND DUP2 JUMP JUMPDEST PUSH1 0x40 MLOAD PUSH2 0x1C6 SWAP2 SWAP1 PUSH2 0x3654 JUMP JUMPDEST PUSH1 0x0 PUSH1 0x1 PUSH1 0x1 PUSH1 0xE0 SHL SUB NOT DUP3 AND PUSH4 0x7965DB0B PUSH1 0xE0 SHL EQ DUP1 PUSH2 0x499 JUMPI POP PUSH4 0x1FFC9A7 PUSH1 0xE0 SHL PUSH1 0x1 PUSH1 0x1 PUSH1 0xE0 SHL SUB NOT DUP4 AND EQ JUMPDEST SWAP3 SWAP2 POP POP JUMP JUMPDEST PUSH1 0x0 DUP2 PUSH1 0x6 SLOAD DUP2 LT PUSH2 0x4CF JUMPI DUP1 PUSH1 0x40 MLOAD PUSH4 0xF6CEBA3 PUSH1 0xE2 SHL DUP2 MSTORE PUSH1 0x4 ADD PUSH2 0x4C6 SWAP2 SWAP1 PUSH2 0x319D JUMP JUMPDEST PUSH1 0x40 MLOAD DUP1 SWAP2 SUB SWAP1 REVERT JUMPDEST PUSH1 0x0 DUP4 DUP2 MSTORE PUSH1 0x3 PUSH1 0x20 DUP2 DUP2 MSTORE PUSH1 0x40 DUP1 DUP5 KECCAK256 DUP2 MLOAD PUSH2 0x240 DUP2 ADD DUP4 MSTORE DUP2 SLOAD DUP2 MSTORE PUSH1 0x1 DUP3 ADD SLOAD PUSH1 0x1 PUSH1 0x1 PUSH1 0xA0 SHL SUB SWAP1 DUP2 AND SWAP5 DUP3 ADD SWAP5 SWAP1 SWAP5 MSTORE PUSH1 0x2 DUP3 ADD SLOAD DUP5 AND SWAP3 DUP2 ADD SWAP3 SWAP1 SWAP3 MSTORE SWAP3 DUP4 ADD SLOAD DUP3 AND PUSH1 0x60 DUP3 ADD MSTORE PUSH1 0x4 DUP4 ADD SLOAD DUP3 AND PUSH1 0x80 DUP3 ADD MSTORE PUSH1 0x5 DUP4 ADD SLOAD SWAP1 SWAP2 AND PUSH1 0xA0 DUP3 ADD MSTORE PUSH1 0x6 DUP1 DUP4 ADD SLOAD PUSH1 0xC0 DUP4 ADD MSTORE PUSH1 0x7 DUP4 ADD SLOAD PUSH1 0xE0 DUP4 ADD MSTORE PUSH1 0x8 DUP4 ADD SLOAD PUSH2 0x100 DUP4 ADD MSTORE PUSH1 0x9 DUP4 ADD SLOAD SWAP2 SWAP3 SWAP2 PUSH2 0x120 DUP5 ADD SWAP2 PUSH1 0xFF SWAP1 SWAP2 AND SWAP1 DUP2 GT ISZERO PUSH2 0x579 JUMPI PUSH2 0x579 PUSH2 0x3293 JUMP JUMPDEST PUSH1 0x6 DUP2 GT ISZERO PUSH2 0x58A JUMPI PUSH2 0x58A PUSH2 0x3293 JUMP JUMPDEST DUP2 MSTORE PUSH1 0x20 ADD PUSH1 0xA DUP3 ADD PUSH1 0x40 MLOAD DUP1 PUSH1 0xA0 ADD PUSH1 0x40 MSTORE SWAP1 DUP2 PUSH1 0x0 DUP3 ADD DUP1 SLOAD PUSH2 0x5AE SWAP1 PUSH2 0x3678 JUMP JUMPDEST DUP1 PUSH1 0x1F ADD PUSH1 0x20 DUP1 SWAP2 DIV MUL PUSH1 0x20 ADD PUSH1 0x40 MLOAD SWAP1 DUP2 ADD PUSH1 0x40 MSTORE DUP1 SWAP3 SWAP2 SWAP1 DUP2 DUP2 MSTORE PUSH1 0x20 ADD DUP3 DUP1 SLOAD PUSH2 0x5DA SWAP1 PUSH2 0x3678 JUMP JUMPDEST DUP1 ISZERO PUSH2 0x627 JUMPI DUP1 PUSH1 0x1F LT PUSH2 0x5FC JUMPI PUSH2 0x100 DUP1 DUP4 SLOAD DIV MUL DUP4 MSTORE SWAP2 PUSH1 0x20 ADD SWAP2 PUSH2 0x627 JUMP JUMPDEST DUP3 ADD SWAP2 SWAP1 PUSH1 0x0 MSTORE PUSH1 0x20 PUSH1 0x0 KECCAK256 SWAP1 JUMPDEST DUP2 SLOAD DUP2 MSTORE SWAP1 PUSH1 0x1 ADD SWAP1 PUSH1 0x20 ADD DUP1 DUP4 GT PUSH2 0x60A JUMPI DUP3 SWAP1 SUB PUSH1 0x1F AND DUP3 ADD SWAP2 JUMPDEST POP POP POP POP POP DUP2 MSTORE PUSH1 0x20 ADD PUSH1 0x1 DUP3 ADD DUP1 SLOAD PUSH2 0x640 SWAP1 PUSH2 0x3678 JUMP JUMPDEST DUP1 PUSH1 0x1F ADD PUSH1 0x20 DUP1 SWAP2 DIV MUL PUSH1 0x20 ADD PUSH1 0x40 MLOAD SWAP1 DUP2 ADD PUSH1 0x40 MSTORE DUP1 SWAP3 SWAP2 SWAP1 DUP2 DUP2 MSTORE PUSH1 0x20 ADD DUP3 DUP1 SLOAD PUSH2 0x66C SWAP1 PUSH2 0x3678 JUMP JUMPDEST DUP1 ISZERO PUSH2 0x6B9 JUMPI DUP1 PUSH1 0x1F LT PUSH2 0x68E JUMPI PUSH2 0x100 DUP1 DUP4 SLOAD DIV MUL DUP4 MSTORE SWAP2 PUSH1 0x20 ADD SWAP2 PUSH2 0x6B9 JUMP JUMPDEST DUP3 ADD SWAP2 SWAP1 PUSH1 0x0 MSTORE PUSH1 0x20 PUSH1 0x0 KECCAK256 SWAP1 JUMPDEST DUP2 SLOAD DUP2 MSTORE SWAP1 PUSH1 0x1 ADD SWAP1 PUSH1 0x20 ADD DUP1 DUP4 GT PUSH2 0x69C JUMPI DUP3 SWAP1 SUB PUSH1 0x1F AND DUP3 ADD SWAP2 JUMPDEST POP POP POP POP POP DUP2 MSTORE PUSH1 0x20 ADD PUSH1 0x2 DUP3 ADD SLOAD DUP2 MSTORE PUSH1 0x20 ADD PUSH1 0x3 DUP3 ADD DUP1 SLOAD PUSH2 0x6DC SWAP1 PUSH2 0x3678 JUMP JUMPDEST DUP1 PUSH1 0x1F ADD PUSH1 0x20 DUP1 SWAP2 DIV MUL PUSH1 0x20 ADD PUSH1 0x40 MLOAD SWAP1 DUP2 ADD PUSH1 0x40 MSTORE DUP1 SWAP3 SWAP2 SWAP1 DUP2 DUP2 MSTORE PUSH1 0x20 ADD DUP3 DUP1 SLOAD PUSH2 0x708 SWAP1 PUSH2 0x3678 JUMP JUMPDEST DUP1 ISZERO PUSH2 0x755 JUMPI DUP1 PUSH1 0x1F LT PUSH2 0x72A JUMPI PUSH2 0x100 DUP1 DUP4 SLOAD DIV MUL DUP4 MSTORE SWAP2 PUSH1 0x20 ADD SWAP2 PUSH2 0x755 JUMP JUMPDEST DUP3 ADD SWAP2 SWAP1 PUSH1 0x0 MSTORE PUSH1 0x20 PUSH1 0x0 KECCAK256 SWAP1 JUMPDEST DUP2 SLOAD DUP2 MSTORE SWAP1 PUSH1 0x1 ADD SWAP1 PUSH1 0x20 ADD DUP1 DUP4 GT PUSH2 0x738 JUMPI DUP3 SWAP1 SUB PUSH1 0x1F AND DUP3 ADD SWAP2 JUMPDEST POP POP POP SWAP2 DUP4 MSTORE POP POP PUSH1 0x4 SWAP2 SWAP1 SWAP2 ADD SLOAD PUSH1 0xFF SWAP1 DUP2 AND ISZERO ISZERO PUSH1 0x20 SWAP3 DUP4 ADD MSTORE SWAP2 DUP4 MSTORE PUSH1 0xF DUP5 ADD SLOAD SWAP1 DUP4 ADD MSTORE PUSH1 0x10 DUP4 ADD SLOAD PUSH1 0x40 DUP4 ADD MSTORE PUSH1 0x11 DUP4 ADD SLOAD PUSH1 0x60 DUP4 ADD MSTORE PUSH1 0x12 DUP4 ADD SLOAD DUP1 DUP3 AND ISZERO ISZERO PUSH1 0x80 DUP5 ADD MSTORE PUSH2 0x100 DUP2 DIV DUP3 AND ISZERO ISZERO PUSH1 0xA0 DUP5 ADD MSTORE PUSH3 0x10000 SWAP1 DIV AND ISZERO ISZERO PUSH1 0xC0 DUP3 ADD MSTORE PUSH1 0x13 DUP3 ADD DUP1 SLOAD PUSH1 0xE0 SWAP1 SWAP3 ADD SWAP2 PUSH2 0x7D1 SWAP1 PUSH2 0x3678 JUMP JUMPDEST DUP1 PUSH1 0x1F ADD PUSH1 0x20 DUP1 SWAP2 DIV MUL PUSH1 0x20 ADD PUSH1 0x40 MLOAD SWAP1 DUP2 ADD PUSH1 0x40 MSTORE DUP1 SWAP3 SWAP2 SWAP1 DUP2 DUP2 MSTORE PUSH1 0x20 ADD DUP3 DUP1 SLOAD PUSH2 0x7FD SWAP1 PUSH2 0x3678 JUMP JUMPDEST DUP1 ISZERO PUSH2 0x84A JUMPI DUP1 PUSH1 0x1F LT PUSH2 0x81F JUMPI PUSH2 0x100 DUP1 DUP4 SLOAD DIV MUL DUP4 MSTORE SWAP2 PUSH1 0x20 ADD SWAP2 PUSH2 0x84A JUMP JUMPDEST DUP3 ADD SWAP2 SWAP1 PUSH1 0x0 MSTORE PUSH1 0x20 PUSH1 0x0 KECCAK256 SWAP1 JUMPDEST DUP2 SLOAD DUP2 MSTORE SWAP1 PUSH1 0x1 ADD SWAP1 PUSH1 0x20 ADD DUP1 DUP4 GT PUSH2 0x82D JUMPI DUP3 SWAP1 SUB PUSH1 0x1F AND DUP3 ADD SWAP2 JUMPDEST POP POP POP POP POP DUP2 MSTORE POP POP SWAP1 POP PUSH1 0x2 PUSH1 0x6 DUP2 GT ISZERO PUSH2 0x868 JUMPI PUSH2 0x868 PUSH2 0x3293 JUMP JUMPDEST DUP2 PUSH2 0x120 ADD MLOAD PUSH1 0x6 DUP2 GT ISZERO PUSH2 0x87F JUMPI PUSH2 0x87F PUSH2 0x3293 JUMP JUMPDEST EQ DUP1 ISZERO PUSH2 0x892 JUMPI POP DUP1 PUSH2 0x140 ADD MLOAD PUSH1 0x80 ADD MLOAD JUMPDEST DUP1 ISZERO PUSH2 0x8A0 JUMPI POP DUP1 PUSH2 0x1C0 ADD MLOAD JUMPDEST DUP1 ISZERO PUSH2 0x8AE JUMPI POP DUP1 PUSH2 0x1E0 ADD MLOAD JUMPDEST DUP1 ISZERO PUSH2 0x8D1 JUMPI POP PUSH1 0x60 DUP2 ADD MLOAD PUSH1 0x1 PUSH1 0x1 PUSH1 0xA0 SHL SUB AND ISZERO DUP1 PUSH2 0x8D1 JUMPI POP DUP1 PUSH2 0x200 ADD MLOAD JUMPDEST SWAP3 POP POP JUMPDEST POP SWAP2 SWAP1 POP JUMP JUMPDEST PUSH1 0x0 DUP1 MLOAD PUSH1 0x20 PUSH2 0x450D DUP4 CODECOPY DUP2 MLOAD SWAP2 MSTORE PUSH2 0x8F3 DUP2 PUSH2 0x28D7 JUMP JUMPDEST POP PUSH1 0x1 PUSH1 0x1 PUSH1 0xA0 SHL SUB SWAP2 SWAP1 SWAP2 AND PUSH1 0x0 SWAP1 DUP2 MSTORE PUSH1 0x5 PUSH1 0x20 MSTORE PUSH1 0x40 SWAP1 KECCAK256 DUP1 SLOAD PUSH1 0xFF NOT AND SWAP2 ISZERO ISZERO SWAP2 SWAP1 SWAP2 OR SWAP1 SSTORE JUMP JUMPDEST PUSH1 0x0 DUP1 MLOAD PUSH1 0x20 PUSH2 0x450D DUP4 CODECOPY DUP2 MLOAD SWAP2 MSTORE PUSH2 0x937 DUP2 PUSH2 0x28D7 JUMP JUMPDEST PUSH2 0x1F4 DUP3 GT ISZERO PUSH2 0x959 JUMPI PUSH1 0x40 MLOAD PUSH3 0x461BCD PUSH1 0xE5 SHL DUP2 MSTORE PUSH1 0x4 ADD PUSH2 0x4C6 SWAP1 PUSH2 0x36C1 JUMP JUMPDEST POP PUSH1 0x7 SSTORE JUMP JUMPDEST PUSH1 0x0 DUP1 DUP1 MSTORE PUSH1 0x3 PUSH1 0x20 MSTORE PUSH32 0x3617319A054D772F909F7C479A2CEBE5066E836A939412E32403C99029B92F00 SLOAD PUSH32 0x3617319A054D772F909F7C479A2CEBE5066E836A939412E32403C99029B92EFF SWAP2 SWAP1 PUSH1 0x1 PUSH1 0x1 PUSH1 0xA0 SHL SUB AND CALLER SUB PUSH2 0x9F9 JUMPI PUSH1 0x12 DUP3 ADD SLOAD PUSH1 0xFF AND ISZERO PUSH2 0x9E2 JUMPI PUSH1 0x40 MLOAD PUSH3 0x461BCD PUSH1 0xE5 SHL DUP2 MSTORE PUSH1 0x4 ADD PUSH2 0x4C6 SWAP1 PUSH2 0x36FC JUMP JUMPDEST POP PUSH1 0x12 DUP2 ADD DUP1 SLOAD PUSH1 0xFF NOT AND PUSH1 0x1 OR SWAP1 SSTORE PUSH1 0x0 PUSH2 0xAC2 JUMP JUMPDEST PUSH1 0x2 DUP3 ADD SLOAD PUSH1 0x1 PUSH1 0x1 PUSH1 0xA0 SHL SUB AND CALLER SUB PUSH2 0xA50 JUMPI PUSH1 0x12 DUP3 ADD SLOAD PUSH2 0x100 SWAP1 DIV PUSH1 0xFF AND ISZERO PUSH2 0xA37 JUMPI PUSH1 0x40 MLOAD PUSH3 0x461BCD PUSH1 0xE5 SHL DUP2 MSTORE PUSH1 0x4 ADD PUSH2 0x4C6 SWAP1 PUSH2 0x3738 JUMP JUMPDEST POP PUSH1 0x12 DUP2 ADD DUP1 SLOAD PUSH2 0xFF00 NOT AND PUSH2 0x100 OR SWAP1 SSTORE PUSH1 0x1 PUSH2 0xAC2 JUMP JUMPDEST PUSH1 0x3 DUP3 ADD SLOAD PUSH1 0x1 PUSH1 0x1 PUSH1 0xA0 SHL SUB AND CALLER SUB PUSH2 0xAAA JUMPI PUSH1 0x12 DUP3 ADD SLOAD PUSH3 0x10000 SWAP1 DIV PUSH1 0xFF AND ISZERO PUSH2 0xA8F JUMPI PUSH1 0x40 MLOAD PUSH3 0x461BCD PUSH1 0xE5 SHL DUP2 MSTORE PUSH1 0x4 ADD PUSH2 0x4C6 SWAP1 PUSH2 0x3773 JUMP JUMPDEST POP PUSH1 0x12 DUP2 ADD DUP1 SLOAD PUSH3 0xFF0000 NOT AND PUSH3 0x10000 OR SWAP1 SSTORE PUSH1 0x2 PUSH2 0xAC2 JUMP JUMPDEST PUSH1 0x40 MLOAD PUSH3 0x461BCD PUSH1 0xE5 SHL DUP2 MSTORE PUSH1 0x4 ADD PUSH2 0x4C6 SWAP1 PUSH2 0x37B1 JUMP JUMPDEST CALLER PUSH1 0x1 PUSH1 0x1 PUSH1 0xA0 SHL SUB AND PUSH1 0x0 PUSH1 0x0 DUP1 MLOAD PUSH1 0x20 PUSH2 0x452D DUP4 CODECOPY DUP2 MLOAD SWAP2 MSTORE DUP4 PUSH1 0x40 MLOAD PUSH2 0xAEB SWAP2 SWAP1 PUSH2 0x37EF JUMP JUMPDEST PUSH1 0x40 MLOAD DUP1 SWAP2 SUB SWAP1 LOG3 POP POP JUMP JUMPDEST PUSH1 0x0 SWAP1 DUP2 MSTORE PUSH1 0x2 PUSH1 0x20 MSTORE PUSH1 0x40 SWAP1 KECCAK256 PUSH1 0x1 ADD SLOAD SWAP1 JUMP JUMPDEST PUSH2 0xB14 PUSH2 0x28E1 JUMP JUMPDEST PUSH2 0xB1C PUSH2 0x290A JUMP JUMPDEST DUP4 PUSH1 0x6 SLOAD DUP2 LT PUSH2 0xB41 JUMPI DUP1 PUSH1 0x40 MLOAD PUSH4 0xF6CEBA3 PUSH1 0xE2 SHL DUP2 MSTORE PUSH1 0x4 ADD PUSH2 0x4C6 SWAP2 SWAP1 PUSH2 0x319D JUMP JUMPDEST DUP5 PUSH1 0x4 DUP1 PUSH1 0x0 DUP4 DUP2 MSTORE PUSH1 0x3 PUSH1 0x20 MSTORE PUSH1 0x40 SWAP1 KECCAK256 PUSH1 0x9 ADD SLOAD PUSH1 0xFF AND PUSH1 0x6 DUP2 GT ISZERO PUSH2 0xB6B JUMPI PUSH2 0xB6B PUSH2 0x3293 JUMP JUMPDEST EQ PUSH2 0xBA6 JUMPI PUSH1 0x0 DUP3 DUP2 MSTORE PUSH1 0x3 PUSH1 0x20 MSTORE PUSH1 0x40 SWAP1 DUP2 SWAP1 KECCAK256 PUSH1 0x9 ADD SLOAD SWAP1 MLOAD PUSH4 0x350B7A7F PUSH1 0xE2 SHL DUP2 MSTORE PUSH2 0x4C6 SWAP2 DUP5 SWAP2 PUSH1 0xFF SWAP1 SWAP2 AND SWAP1 DUP5 SWAP1 PUSH1 0x4 ADD PUSH2 0x37FD JUMP JUMPDEST PUSH1 0x0 DUP8 DUP2 MSTORE PUSH1 0x3 PUSH1 0x20 MSTORE PUSH1 0x40 SWAP1 KECCAK256 PUSH1 0x4 DUP2 ADD SLOAD PUSH1 0x1 PUSH1 0x1 PUSH1 0xA0 SHL SUB AND CALLER EQ DUP1 PUSH2 0xBE2 JUMPI POP PUSH2 0xBE2 PUSH1 0x0 DUP1 MLOAD PUSH1 0x20 PUSH2 0x450D DUP4 CODECOPY DUP2 MLOAD SWAP2 MSTORE CALLER PUSH2 0x1D56 JUMP JUMPDEST PUSH2 0xBFE JUMPI PUSH1 0x40 MLOAD PUSH3 0x461BCD PUSH1 0xE5 SHL DUP2 MSTORE PUSH1 0x4 ADD PUSH2 0x4C6 SWAP1 PUSH2 0x3863 JUMP JUMPDEST PUSH1 0x0 DUP9 DUP2 MSTORE PUSH1 0x4 PUSH1 0x20 DUP2 SWAP1 MSTORE PUSH1 0x40 SWAP1 SWAP2 KECCAK256 PUSH1 0x3 DUP2 ADD DUP1 SLOAD CALLER PUSH2 0x100 MUL PUSH1 0x1 PUSH1 0x1 PUSH1 0xA8 SHL SUB NOT SWAP1 SWAP2 AND OR PUSH1 0x1 OR SWAP1 SSTORE SWAP1 DUP2 ADD PUSH2 0xC3A DUP8 DUP10 DUP4 PUSH2 0x394D JUMP JUMPDEST POP DUP8 ISZERO PUSH2 0xC4F JUMPI PUSH2 0xC4A DUP10 PUSH2 0x292F JUMP JUMPDEST PUSH2 0xC74 JUMP JUMPDEST PUSH1 0x9 DUP3 ADD DUP1 SLOAD PUSH1 0xFF NOT AND PUSH1 0x2 OR SWAP1 SSTORE PUSH1 0x12 DUP3 ADD DUP1 SLOAD PUSH3 0x10101 PUSH3 0xFFFFFF NOT SWAP1 SWAP2 AND OR SWAP1 SSTORE JUMPDEST CALLER PUSH1 0x1 PUSH1 0x1 PUSH1 0xA0 SHL SUB AND DUP10 PUSH32 0x7B71D2E00379BD165B2750D54298DA2414376699827EDCA2BCE2A096C491D2E9 DUP10 DUP10 PUSH1 0x40 MLOAD PUSH2 0xCB0 SWAP3 SWAP2 SWAP1 PUSH2 0x3A3F JUMP JUMPDEST PUSH1 0x40 MLOAD DUP1 SWAP2 SUB SWAP1 LOG3 POP POP POP POP POP PUSH2 0xCC7 PUSH1 0x1 PUSH1 0x0 SSTORE JUMP JUMPDEST POP POP POP POP JUMP JUMPDEST PUSH2 0xCD6 DUP3 PUSH2 0xAF7 JUMP JUMPDEST PUSH2 0xCDF DUP2 PUSH2 0x28D7 JUMP JUMPDEST PUSH2 0xCE9 DUP4 DUP4 PUSH2 0x2A3C JUMP JUMPDEST POP POP POP JUMP JUMPDEST PUSH1 0x1 PUSH1 0x1 PUSH1 0xA0 SHL SUB DUP2 AND CALLER EQ PUSH2 0xD16 JUMPI PUSH1 0x40 MLOAD PUSH3 0x461BCD PUSH1 0xE5 SHL DUP2 MSTORE PUSH1 0x4 ADD PUSH2 0x4C6 SWAP1 PUSH2 0x3A9B JUMP JUMPDEST PUSH2 0xD20 DUP3 DUP3 PUSH2 0x2AC2 JUMP JUMPDEST POP POP JUMP JUMPDEST PUSH2 0xD2C PUSH2 0x28E1 JUMP JUMPDEST PUSH2 0xD34 PUSH2 0x290A JUMP JUMPDEST DUP1 PUSH1 0x6 SLOAD DUP2 LT PUSH2 0xD59 JUMPI DUP1 PUSH1 0x40 MLOAD PUSH4 0xF6CEBA3 PUSH1 0xE2 SHL DUP2 MSTORE PUSH1 0x4 ADD PUSH2 0x4C6 SWAP2 SWAP1 PUSH2 0x319D JUMP JUMPDEST PUSH2 0xD71 PUSH1 0x0 DUP1 MLOAD PUSH1 0x20 PUSH2 0x450D DUP4 CODECOPY DUP2 MLOAD SWAP2 MSTORE CALLER PUSH2 0x1D56 JUMP JUMPDEST PUSH2 0xD8D JUMPI PUSH1 0x40 MLOAD PUSH3 0x461BCD PUSH1 0xE5 SHL DUP2 MSTORE PUSH1 0x4 ADD PUSH2 0x4C6 SWAP1 PUSH2 0x3AD5 JUMP JUMPDEST PUSH2 0xD96 DUP3 PUSH2 0x292F JUMP JUMPDEST POP PUSH2 0xDA1 PUSH1 0x1 PUSH1 0x0 SSTORE JUMP JUMPDEST POP JUMP JUMPDEST PUSH1 0x0 DUP2 PUSH1 0x6 SLOAD DUP2 LT PUSH2 0xDCB JUMPI DUP1 PUSH1 0x40 MLOAD PUSH4 0xF6CEBA3 PUSH1 0xE2 SHL DUP2 MSTORE PUSH1 0x4 ADD PUSH2 0x4C6 SWAP2 SWAP1 PUSH2 0x319D JUMP JUMPDEST POP POP PUSH1 0x0 SWAP1 DUP2 MSTORE PUSH1 0x3 PUSH1 0x20 MSTORE PUSH1 0x40 SWAP1 KECCAK256 PUSH1 0x9 ADD SLOAD PUSH1 0xFF AND SWAP1 JUMP JUMPDEST PUSH2 0xDED PUSH2 0x28E1 JUMP JUMPDEST PUSH2 0xDF5 PUSH2 0x290A JUMP JUMPDEST DUP1 PUSH1 0x6 SLOAD DUP2 LT PUSH2 0xE1A JUMPI DUP1 PUSH1 0x40 MLOAD PUSH4 0xF6CEBA3 PUSH1 0xE2 SHL DUP2 MSTORE PUSH1 0x4 ADD PUSH2 0x4C6 SWAP2 SWAP1 PUSH2 0x319D JUMP JUMPDEST DUP2 PUSH1 0x0 DUP1 PUSH1 0x0 DUP4 DUP2 MSTORE PUSH1 0x3 PUSH1 0x20 MSTORE PUSH1 0x40 SWAP1 KECCAK256 PUSH1 0x9 ADD SLOAD PUSH1 0xFF AND PUSH1 0x6 DUP2 GT ISZERO PUSH2 0xE44 JUMPI PUSH2 0xE44 PUSH2 0x3293 JUMP JUMPDEST EQ PUSH2 0xE7F JUMPI PUSH1 0x0 DUP3 DUP2 MSTORE PUSH1 0x3 PUSH1 0x20 MSTORE PUSH1 0x40 SWAP1 DUP2 SWAP1 KECCAK256 PUSH1 0x9 ADD SLOAD SWAP1 MLOAD PUSH4 0x350B7A7F PUSH1 0xE2 SHL DUP2 MSTORE PUSH2 0x4C6 SWAP2 DUP5 SWAP2 PUSH1 0xFF SWAP1 SWAP2 AND SWAP1 DUP5 SWAP1 PUSH1 0x4 ADD PUSH2 0x37FD JUMP JUMPDEST PUSH1 0x0 DUP5 DUP2 MSTORE PUSH1 0x3 PUSH1 0x20 MSTORE PUSH1 0x40 SWAP1 KECCAK256 PUSH1 0x1 DUP2 ADD SLOAD PUSH1 0x1 PUSH1 0x1 PUSH1 0xA0 SHL SUB AND CALLER EQ PUSH2 0xEB9 JUMPI PUSH1 0x40 MLOAD PUSH3 0x461BCD PUSH1 0xE5 SHL DUP2 MSTORE PUSH1 0x4 ADD PUSH2 0x4C6 SWAP1 PUSH2 0x3B10 JUMP JUMPDEST DUP1 PUSH1 0x10 ADD SLOAD TIMESTAMP GT ISZERO PUSH2 0xEDD JUMPI PUSH1 0x40 MLOAD PUSH3 0x461BCD PUSH1 0xE5 SHL DUP2 MSTORE PUSH1 0x4 ADD PUSH2 0x4C6 SWAP1 PUSH2 0x3B4C JUMP JUMPDEST PUSH1 0x6 DUP2 ADD SLOAD PUSH1 0x5 DUP3 ADD SLOAD PUSH2 0xF00 SWAP2 PUSH1 0x1 PUSH1 0x1 PUSH1 0xA0 SHL SUB SWAP1 SWAP2 AND SWAP1 CALLER SWAP1 ADDRESS SWAP1 PUSH2 0x2B29 JUMP JUMPDEST PUSH1 0x9 DUP2 ADD DUP1 SLOAD PUSH1 0xFF NOT AND PUSH1 0x1 OR SWAP1 SSTORE PUSH1 0x6 DUP2 ADD SLOAD PUSH1 0x40 MLOAD CALLER SWAP2 DUP8 SWAP2 PUSH32 0xE030E47E27825A2AD1B19E4CF2E70BFBFB3124AF275C7727A82B114BA7B29A85 SWAP2 PUSH2 0xF46 SWAP2 PUSH2 0x319D JUMP JUMPDEST PUSH1 0x40 MLOAD DUP1 SWAP2 SUB SWAP1 LOG3 POP POP POP POP PUSH2 0xDA1 PUSH1 0x1 PUSH1 0x0 SSTORE JUMP JUMPDEST PUSH1 0x0 DUP1 MLOAD PUSH1 0x20 PUSH2 0x450D DUP4 CODECOPY DUP2 MLOAD SWAP2 MSTORE PUSH2 0xF74 DUP2 PUSH2 0x28D7 JUMP JUMPDEST PUSH2 0xDA1 PUSH2 0x2B81 JUMP JUMPDEST PUSH2 0xF84 PUSH2 0x28E1 JUMP JUMPDEST PUSH2 0xF8C PUSH2 0x290A JUMP JUMPDEST DUP1 PUSH1 0x6 SLOAD DUP2 LT PUSH2 0xFB1 JUMPI DUP1 PUSH1 0x40 MLOAD PUSH4 0xF6CEBA3 PUSH1 0xE2 SHL DUP2 MSTORE PUSH1 0x4 ADD PUSH2 0x4C6 SWAP2 SWAP1 PUSH2 0x319D JUMP JUMPDEST DUP2 PUSH1 0x1 DUP1 PUSH1 0x0 DUP4 DUP2 MSTORE PUSH1 0x3 PUSH1 0x20 MSTORE PUSH1 0x40 SWAP1 KECCAK256 PUSH1 0x9 ADD SLOAD PUSH1 0xFF AND PUSH1 0x6 DUP2 GT ISZERO PUSH2 0xFDB JUMPI PUSH2 0xFDB PUSH2 0x3293 JUMP JUMPDEST EQ PUSH2 0x1016 JUMPI PUSH1 0x0 DUP3 DUP2 MSTORE PUSH1 0x3 PUSH1 0x20 MSTORE PUSH1 0x40 SWAP1 DUP2 SWAP1 KECCAK256 PUSH1 0x9 ADD SLOAD SWAP1 MLOAD PUSH4 0x350B7A7F PUSH1 0xE2 SHL DUP2 MSTORE PUSH2 0x4C6 SWAP2 DUP5 SWAP2 PUSH1 0xFF SWAP1 SWAP2 AND SWAP1 DUP5 SWAP1 PUSH1 0x4 ADD PUSH2 0x37FD JUMP JUMPDEST PUSH1 0x0 DUP5 DUP2 MSTORE PUSH1 0x3 PUSH1 0x20 DUP2 SWAP1 MSTORE PUSH1 0x40 SWAP1 SWAP2 KECCAK256 SWAP1 DUP2 ADD SLOAD PUSH1 0x1 PUSH1 0x1 PUSH1 0xA0 SHL SUB AND CALLER EQ DUP1 PUSH2 0x1054 JUMPI POP PUSH2 0x1054 PUSH1 0x0 DUP1 MLOAD PUSH1 0x20 PUSH2 0x450D DUP4 CODECOPY DUP2 MLOAD SWAP2 MSTORE CALLER PUSH2 0x1D56 JUMP JUMPDEST PUSH2 0x1070 JUMPI PUSH1 0x40 MLOAD PUSH3 0x461BCD PUSH1 0xE5 SHL DUP2 MSTORE PUSH1 0x4 ADD PUSH2 0x4C6 SWAP1 PUSH2 0x3B8E JUMP JUMPDEST DUP1 PUSH1 0x11 ADD SLOAD TIMESTAMP GT ISZERO PUSH2 0x1094 JUMPI PUSH1 0x40 MLOAD PUSH3 0x461BCD PUSH1 0xE5 SHL DUP2 MSTORE PUSH1 0x4 ADD PUSH2 0x4C6 SWAP1 PUSH2 0x3BCF JUMP JUMPDEST PUSH1 0x9 DUP2 ADD DUP1 SLOAD PUSH1 0xFF NOT SWAP1 DUP2 AND PUSH1 0x2 OR SWAP1 SWAP2 SSTORE PUSH1 0xE DUP3 ADD DUP1 SLOAD SWAP1 SWAP2 AND PUSH1 0x1 OR SWAP1 SSTORE PUSH1 0x40 MLOAD CALLER SWAP1 DUP7 SWAP1 PUSH32 0x229702661BD522F80CF22E71A80E376C2AC20EA2ECD8E680F1A8E8285738A1C SWAP1 PUSH1 0x0 SWAP1 LOG3 POP POP POP POP PUSH2 0xDA1 PUSH1 0x1 PUSH1 0x0 SSTORE JUMP JUMPDEST PUSH2 0x10F7 PUSH2 0x28E1 JUMP JUMPDEST PUSH2 0x10FF PUSH2 0x290A JUMP JUMPDEST DUP1 PUSH1 0x6 SLOAD DUP2 LT PUSH2 0x1124 JUMPI DUP1 PUSH1 0x40 MLOAD PUSH4 0xF6CEBA3 PUSH1 0xE2 SHL DUP2 MSTORE PUSH1 0x4 ADD PUSH2 0x4C6 SWAP2 SWAP1 PUSH2 0x319D JUMP JUMPDEST DUP2 PUSH1 0x2 DUP1 PUSH1 0x0 DUP4 DUP2 MSTORE PUSH1 0x3 PUSH1 0x20 MSTORE PUSH1 0x40 SWAP1 KECCAK256 PUSH1 0x9 ADD SLOAD PUSH1 0xFF AND PUSH1 0x6 DUP2 GT ISZERO PUSH2 0x114E JUMPI PUSH2 0x114E PUSH2 0x3293 JUMP JUMPDEST EQ PUSH2 0x1189 JUMPI PUSH1 0x0 DUP3 DUP2 MSTORE PUSH1 0x3 PUSH1 0x20 MSTORE PUSH1 0x40 SWAP1 DUP2 SWAP1 KECCAK256 PUSH1 0x9 ADD SLOAD SWAP1 MLOAD PUSH4 0x350B7A7F PUSH1 0xE2 SHL DUP2 MSTORE PUSH2 0x4C6 SWAP2 DUP5 SWAP2 PUSH1 0xFF SWAP1 SWAP2 AND SWAP1 DUP5 SWAP1 PUSH1 0x4 ADD PUSH2 0x37FD JUMP JUMPDEST PUSH2 0x1192 DUP5 PUSH2 0x49F JUMP JUMPDEST PUSH2 0x11AE JUMPI PUSH1 0x40 MLOAD PUSH3 0x461BCD PUSH1 0xE5 SHL DUP2 MSTORE PUSH1 0x4 ADD PUSH2 0x4C6 SWAP1 PUSH2 0x3C0E JUMP JUMPDEST PUSH1 0x0 DUP5 DUP2 MSTORE PUSH1 0x3 PUSH1 0x20 MSTORE PUSH1 0x40 DUP2 KECCAK256 PUSH1 0x8 DUP2 ADD SLOAD PUSH1 0x6 DUP3 ADD SLOAD SWAP2 SWAP3 SWAP2 PUSH2 0x2710 SWAP2 PUSH2 0x11D6 SWAP2 PUSH2 0x3C34 JUMP JUMPDEST PUSH2 0x11E0 SWAP2 SWAP1 PUSH2 0x3C61 JUMP JUMPDEST SWAP1 POP PUSH1 0x0 DUP3 PUSH1 0x7 ADD SLOAD SWAP1 POP PUSH1 0x0 DUP2 DUP4 DUP6 PUSH1 0x6 ADD SLOAD PUSH2 0x11FE SWAP2 SWAP1 PUSH2 0x3C75 JUMP JUMPDEST PUSH2 0x1208 SWAP2 SWAP1 PUSH2 0x3C75 JUMP JUMPDEST PUSH1 0x9 DUP6 ADD DUP1 SLOAD PUSH1 0xFF NOT AND PUSH1 0x3 OR SWAP1 SSTORE PUSH1 0x5 DUP6 ADD SLOAD SWAP1 SWAP2 POP PUSH1 0x1 PUSH1 0x1 PUSH1 0xA0 SHL SUB AND DUP4 ISZERO PUSH2 0x1248 JUMPI PUSH1 0x8 SLOAD PUSH2 0x1248 SWAP1 PUSH1 0x1 PUSH1 0x1 PUSH1 0xA0 SHL SUB DUP4 DUP2 AND SWAP2 AND DUP7 PUSH2 0x2BCD JUMP JUMPDEST PUSH1 0x0 DUP4 GT DUP1 ISZERO PUSH2 0x1264 JUMPI POP PUSH1 0x3 DUP6 ADD SLOAD PUSH1 0x1 PUSH1 0x1 PUSH1 0xA0 SHL SUB AND ISZERO ISZERO JUMPDEST ISZERO PUSH2 0x1285 JUMPI PUSH1 0x3 DUP6 ADD SLOAD PUSH2 0x1285 SWAP1 PUSH1 0x1 PUSH1 0x1 PUSH1 0xA0 SHL SUB DUP4 DUP2 AND SWAP2 AND DUP6 PUSH2 0x2BCD JUMP JUMPDEST PUSH1 0x2 DUP6 ADD SLOAD PUSH2 0x12A1 SWAP1 PUSH1 0x1 PUSH1 0x1 PUSH1 0xA0 SHL SUB DUP4 DUP2 AND SWAP2 AND DUP5 PUSH2 0x2BCD JUMP JUMPDEST PUSH1 0x2 DUP6 ADD SLOAD PUSH1 0x40 MLOAD PUSH1 0x1 PUSH1 0x1 PUSH1 0xA0 SHL SUB SWAP1 SWAP2 AND SWAP1 DUP11 SWAP1 PUSH32 0x6E3C6096795C8298A218B2CFB8BDE42726FF7C9A3D27B4D3BA41AB7F74FEB5FB SWAP1 PUSH2 0x12E4 SWAP1 DUP7 SWAP1 PUSH2 0x319D JUMP JUMPDEST PUSH1 0x40 MLOAD DUP1 SWAP2 SUB SWAP1 LOG3 POP POP POP POP POP POP POP POP PUSH2 0xDA1 PUSH1 0x1 PUSH1 0x0 SSTORE JUMP JUMPDEST PUSH2 0x1306 PUSH2 0x28E1 JUMP JUMPDEST PUSH2 0x130E PUSH2 0x290A JUMP JUMPDEST DUP3 PUSH1 0x6 SLOAD DUP2 LT PUSH2 0x1333 JUMPI DUP1 PUSH1 0x40 MLOAD PUSH4 0xF6CEBA3 PUSH1 0xE2 SHL DUP2 MSTORE PUSH1 0x4 ADD PUSH2 0x4C6 SWAP2 SWAP1 PUSH2 0x319D JUMP JUMPDEST PUSH1 0x0 DUP5 DUP2 MSTORE PUSH1 0x3 PUSH1 0x20 DUP2 DUP2 MSTORE PUSH1 0x40 DUP1 DUP5 KECCAK256 DUP2 MLOAD PUSH2 0x240 DUP2 ADD DUP4 MSTORE DUP2 SLOAD DUP2 MSTORE PUSH1 0x1 DUP3 ADD SLOAD PUSH1 0x1 PUSH1 0x1 PUSH1 0xA0 SHL SUB SWAP1 DUP2 AND SWAP5 DUP3 ADD SWAP5 SWAP1 SWAP5 MSTORE PUSH1 0x2 DUP3 ADD SLOAD DUP5 AND SWAP3 DUP2 ADD SWAP3 SWAP1 SWAP3 MSTORE SWAP3 DUP4 ADD SLOAD DUP3 AND PUSH1 0x60 DUP3 ADD MSTORE PUSH1 0x4 DUP4 ADD SLOAD DUP3 AND PUSH1 0x80 DUP3 ADD MSTORE PUSH1 0x5 DUP4 ADD SLOAD SWAP1 SWAP2 AND PUSH1 0xA0 DUP3 ADD MSTORE PUSH1 0x6 DUP1 DUP4 ADD SLOAD PUSH1 0xC0 DUP4 ADD MSTORE PUSH1 0x7 DUP4 ADD SLOAD PUSH1 0xE0 DUP4 ADD MSTORE PUSH1 0x8 DUP4 ADD SLOAD PUSH2 0x100 DUP4 ADD MSTORE PUSH1 0x9 DUP4 ADD SLOAD DUP9 SWAP5 SWAP4 SWAP2 PUSH2 0x120 DUP5 ADD SWAP2 PUSH1 0xFF AND SWAP1 DUP2 GT ISZERO PUSH2 0x13DC JUMPI PUSH2 0x13DC PUSH2 0x3293 JUMP JUMPDEST PUSH1 0x6 DUP2 GT ISZERO PUSH2 0x13ED JUMPI PUSH2 0x13ED PUSH2 0x3293 JUMP JUMPDEST DUP2 MSTORE PUSH1 0x20 ADD PUSH1 0xA DUP3 ADD PUSH1 0x40 MLOAD DUP1 PUSH1 0xA0 ADD PUSH1 0x40 MSTORE SWAP1 DUP2 PUSH1 0x0 DUP3 ADD DUP1 SLOAD PUSH2 0x1411 SWAP1 PUSH2 0x3678 JUMP JUMPDEST DUP1 PUSH1 0x1F ADD PUSH1 0x20 DUP1 SWAP2 DIV MUL PUSH1 0x20 ADD PUSH1 0x40 MLOAD SWAP1 DUP2 ADD PUSH1 0x40 MSTORE DUP1 SWAP3 SWAP2 SWAP1 DUP2 DUP2 MSTORE PUSH1 0x20 ADD DUP3 DUP1 SLOAD PUSH2 0x143D SWAP1 PUSH2 0x3678 JUMP JUMPDEST DUP1 ISZERO PUSH2 0x148A JUMPI DUP1 PUSH1 0x1F LT PUSH2 0x145F JUMPI PUSH2 0x100 DUP1 DUP4 SLOAD DIV MUL DUP4 MSTORE SWAP2 PUSH1 0x20 ADD SWAP2 PUSH2 0x148A JUMP JUMPDEST DUP3 ADD SWAP2 SWAP1 PUSH1 0x0 MSTORE PUSH1 0x20 PUSH1 0x0 KECCAK256 SWAP1 JUMPDEST DUP2 SLOAD DUP2 MSTORE SWAP1 PUSH1 0x1 ADD SWAP1 PUSH1 0x20 ADD DUP1 DUP4 GT PUSH2 0x146D JUMPI DUP3 SWAP1 SUB PUSH1 0x1F AND DUP3 ADD SWAP2 JUMPDEST POP POP POP POP POP DUP2 MSTORE PUSH1 0x20 ADD PUSH1 0x1 DUP3 ADD DUP1 SLOAD PUSH2 0x14A3 SWAP1 PUSH2 0x3678 JUMP JUMPDEST DUP1 PUSH1 0x1F ADD PUSH1 0x20 DUP1 SWAP2 DIV MUL PUSH1 0x20 ADD PUSH1 0x40 MLOAD SWAP1 DUP2 ADD PUSH1 0x40 MSTORE DUP1 SWAP3 SWAP2 SWAP1 DUP2 DUP2 MSTORE PUSH1 0x20 ADD DUP3 DUP1 SLOAD PUSH2 0x14CF SWAP1 PUSH2 0x3678 JUMP JUMPDEST DUP1 ISZERO PUSH2 0x151C JUMPI DUP1 PUSH1 0x1F LT PUSH2 0x14F1 JUMPI PUSH2 0x100 DUP1 DUP4 SLOAD DIV MUL DUP4 MSTORE SWAP2 PUSH1 0x20 ADD SWAP2 PUSH2 0x151C JUMP JUMPDEST DUP3 ADD SWAP2 SWAP1 PUSH1 0x0 MSTORE PUSH1 0x20 PUSH1 0x0 KECCAK256 SWAP1 JUMPDEST DUP2 SLOAD DUP2 MSTORE SWAP1 PUSH1 0x1 ADD SWAP1 PUSH1 0x20 ADD DUP1 DUP4 GT PUSH2 0x14FF JUMPI DUP3 SWAP1 SUB PUSH1 0x1F AND DUP3 ADD SWAP2 JUMPDEST POP POP POP POP POP DUP2 MSTORE PUSH1 0x20 ADD PUSH1 0x2 DUP3 ADD SLOAD DUP2 MSTORE PUSH1 0x20 ADD PUSH1 0x3 DUP3 ADD DUP1 SLOAD PUSH2 0x153F SWAP1 PUSH2 0x3678 JUMP JUMPDEST DUP1 PUSH1 0x1F ADD PUSH1 0x20 DUP1 SWAP2 DIV MUL PUSH1 0x20 ADD PUSH1 0x40 MLOAD SWAP1 DUP2 ADD PUSH1 0x40 MSTORE DUP1 SWAP3 SWAP2 SWAP1 DUP2 DUP2 MSTORE PUSH1 0x20 ADD DUP3 DUP1 SLOAD PUSH2 0x156B SWAP1 PUSH2 0x3678 JUMP JUMPDEST DUP1 ISZERO PUSH2 0x15B8 JUMPI DUP1 PUSH1 0x1F LT PUSH2 0x158D JUMPI PUSH2 0x100 DUP1 DUP4 SLOAD DIV MUL DUP4 MSTORE SWAP2 PUSH1 0x20 ADD SWAP2 PUSH2 0x15B8 JUMP JUMPDEST DUP3 ADD SWAP2 SWAP1 PUSH1 0x0 MSTORE PUSH1 0x20 PUSH1 0x0 KECCAK256 SWAP1 JUMPDEST DUP2 SLOAD DUP2 MSTORE SWAP1 PUSH1 0x1 ADD SWAP1 PUSH1 0x20 ADD DUP1 DUP4 GT PUSH2 0x159B JUMPI DUP3 SWAP1 SUB PUSH1 0x1F AND DUP3 ADD SWAP2 JUMPDEST POP POP POP SWAP2 DUP4 MSTORE POP POP PUSH1 0x4 SWAP2 SWAP1 SWAP2 ADD SLOAD PUSH1 0xFF SWAP1 DUP2 AND ISZERO ISZERO PUSH1 0x20 SWAP3 DUP4 ADD MSTORE SWAP2 DUP4 MSTORE PUSH1 0xF DUP5 ADD SLOAD SWAP1 DUP4 ADD MSTORE PUSH1 0x10 DUP4 ADD SLOAD PUSH1 0x40 DUP4 ADD MSTORE PUSH1 0x11 DUP4 ADD SLOAD PUSH1 0x60 DUP4 ADD MSTORE PUSH1 0x12 DUP4 ADD SLOAD DUP1 DUP3 AND ISZERO ISZERO PUSH1 0x80 DUP5 ADD MSTORE PUSH2 0x100 DUP2 DIV DUP3 AND ISZERO ISZERO PUSH1 0xA0 DUP5 ADD MSTORE PUSH3 0x10000 SWAP1 DIV AND ISZERO ISZERO PUSH1 0xC0 DUP3 ADD MSTORE PUSH1 0x13 DUP3 ADD DUP1 SLOAD PUSH1 0xE0 SWAP1 SWAP3 ADD SWAP2 PUSH2 0x1634 SWAP1 PUSH2 0x3678 JUMP JUMPDEST DUP1 PUSH1 0x1F ADD PUSH1 0x20 DUP1 SWAP2 DIV MUL PUSH1 0x20 ADD PUSH1 0x40 MLOAD SWAP1 DUP2 ADD PUSH1 0x40 MSTORE DUP1 SWAP3 SWAP2 SWAP1 DUP2 DUP2 MSTORE PUSH1 0x20 ADD DUP3 DUP1 SLOAD PUSH2 0x1660 SWAP1 PUSH2 0x3678 JUMP JUMPDEST DUP1 ISZERO PUSH2 0x16AD JUMPI DUP1 PUSH1 0x1F LT PUSH2 0x1682 JUMPI PUSH2 0x100 DUP1 DUP4 SLOAD DIV MUL DUP4 MSTORE SWAP2 PUSH1 0x20 ADD SWAP2 PUSH2 0x16AD JUMP JUMPDEST DUP3 ADD SWAP2 SWAP1 PUSH1 0x0 MSTORE PUSH1 0x20 PUSH1 0x0 KECCAK256 SWAP1 JUMPDEST DUP2 SLOAD DUP2 MSTORE SWAP1 PUSH1 0x1 ADD SWAP1 PUSH1 0x20 ADD DUP1 DUP4 GT PUSH2 0x1690 JUMPI DUP3 SWAP1 SUB PUSH1 0x1F AND DUP3 ADD SWAP2 JUMPDEST POP POP POP POP POP DUP2 MSTORE POP POP SWAP1 POP DUP1 PUSH1 0x20 ADD MLOAD PUSH1 0x1 PUSH1 0x1 PUSH1 0xA0 SHL SUB AND CALLER PUSH1 0x1 PUSH1 0x1 PUSH1 0xA0 SHL SUB AND EQ DUP1 PUSH2 0x16F1 JUMPI POP DUP1 PUSH1 0x40 ADD MLOAD PUSH1 0x1 PUSH1 0x1 PUSH1 0xA0 SHL SUB AND CALLER PUSH1 0x1 PUSH1 0x1 PUSH1 0xA0 SHL SUB AND EQ JUMPDEST DUP1 PUSH2 0x1711 JUMPI POP DUP1 PUSH1 0x60 ADD MLOAD PUSH1 0x1 PUSH1 0x1 PUSH1 0xA0 SHL SUB AND CALLER PUSH1 0x1 PUSH1 0x1 PUSH1 0xA0 SHL SUB AND EQ JUMPDEST DUP1 PUSH2 0x1731 JUMPI POP DUP1 PUSH1 0x80 ADD MLOAD PUSH1 0x1 PUSH1 0x1 PUSH1 0xA0 SHL SUB AND CALLER PUSH1 0x1 PUSH1 0x1 PUSH1 0xA0 SHL SUB AND EQ JUMPDEST DUP1 PUSH2 0x174F JUMPI POP PUSH2 0x174F PUSH1 0x0 DUP1 MLOAD PUSH1 0x20 PUSH2 0x450D DUP4 CODECOPY DUP2 MLOAD SWAP2 MSTORE CALLER PUSH2 0x1D56 JUMP JUMPDEST PUSH2 0x176E JUMPI CALLER PUSH1 0x40 MLOAD PUSH4 0x37B13C29 PUSH1 0xE0 SHL DUP2 MSTORE PUSH1 0x4 ADD PUSH2 0x4C6 SWAP2 SWAP1 PUSH2 0x3CAF JUMP JUMPDEST PUSH1 0x0 DUP7 DUP2 MSTORE PUSH1 0x3 PUSH1 0x20 MSTORE PUSH1 0x40 SWAP1 KECCAK256 PUSH1 0x1 PUSH1 0x9 DUP3 ADD SLOAD PUSH1 0xFF AND PUSH1 0x6 DUP2 GT ISZERO PUSH2 0x1797 JUMPI PUSH2 0x1797 PUSH2 0x3293 JUMP JUMPDEST EQ DUP1 PUSH2 0x17BB JUMPI POP PUSH1 0x2 PUSH1 0x9 DUP3 ADD SLOAD PUSH1 0xFF AND PUSH1 0x6 DUP2 GT ISZERO PUSH2 0x17B9 JUMPI PUSH2 0x17B9 PUSH2 0x3293 JUMP JUMPDEST EQ JUMPDEST PUSH2 0x17D7 JUMPI PUSH1 0x40 MLOAD PUSH3 0x461BCD PUSH1 0xE5 SHL DUP2 MSTORE PUSH1 0x4 ADD PUSH2 0x4C6 SWAP1 PUSH2 0x3D00 JUMP JUMPDEST DUP5 PUSH2 0x17F4 JUMPI PUSH1 0x40 MLOAD PUSH3 0x461BCD PUSH1 0xE5 SHL DUP2 MSTORE PUSH1 0x4 ADD PUSH2 0x4C6 SWAP1 PUSH2 0x3D3C JUMP JUMPDEST PUSH1 0x9 DUP2 ADD DUP1 SLOAD PUSH1 0xFF NOT AND PUSH1 0x4 OR SWAP1 SSTORE PUSH1 0x13 DUP2 ADD PUSH2 0x1812 DUP7 DUP9 DUP4 PUSH2 0x394D JUMP JUMPDEST POP PUSH1 0x40 MLOAD DUP1 PUSH1 0xC0 ADD PUSH1 0x40 MSTORE DUP1 CALLER PUSH1 0x1 PUSH1 0x1 PUSH1 0xA0 SHL SUB AND DUP2 MSTORE PUSH1 0x20 ADD DUP8 DUP8 DUP1 DUP1 PUSH1 0x1F ADD PUSH1 0x20 DUP1 SWAP2 DIV MUL PUSH1 0x20 ADD PUSH1 0x40 MLOAD SWAP1 DUP2 ADD PUSH1 0x40 MSTORE DUP1 SWAP4 SWAP3 SWAP2 SWAP1 DUP2 DUP2 MSTORE PUSH1 0x20 ADD DUP4 DUP4 DUP1 DUP3 DUP5 CALLDATACOPY PUSH1 0x0 SWAP3 ADD DUP3 SWAP1 MSTORE POP SWAP4 DUP6 MSTORE POP POP TIMESTAMP PUSH1 0x20 DUP1 DUP6 ADD SWAP2 SWAP1 SWAP2 MSTORE PUSH1 0x40 DUP1 DUP6 ADD DUP5 SWAP1 MSTORE PUSH1 0x60 DUP6 ADD DUP5 SWAP1 MSTORE DUP1 MLOAD DUP1 DUP4 ADD DUP3 MSTORE DUP5 DUP2 MSTORE PUSH1 0x80 SWAP1 SWAP6 ADD SWAP5 SWAP1 SWAP5 MSTORE DUP12 DUP4 MSTORE PUSH1 0x4 DUP2 MSTORE SWAP3 SWAP1 SWAP2 KECCAK256 DUP4 MLOAD DUP2 SLOAD PUSH1 0x1 PUSH1 0x1 PUSH1 0xA0 SHL SUB NOT AND PUSH1 0x1 PUSH1 0x1 PUSH1 0xA0 SHL SUB SWAP1 SWAP2 AND OR DUP2 SSTORE SWAP2 DUP4 ADD MLOAD PUSH1 0x1 DUP4 ADD SWAP2 POP PUSH2 0x18CB SWAP1 DUP3 PUSH2 0x3D4C JUMP JUMPDEST POP PUSH1 0x40 DUP3 ADD MLOAD PUSH1 0x2 DUP3 ADD SSTORE PUSH1 0x60 DUP3 ADD MLOAD PUSH1 0x3 DUP3 ADD DUP1 SLOAD PUSH1 0x80 DUP6 ADD MLOAD PUSH1 0x1 PUSH1 0x1 PUSH1 0xA0 SHL SUB AND PUSH2 0x100 MUL PUSH2 0x100 PUSH1 0x1 PUSH1 0xA8 SHL SUB NOT SWAP4 ISZERO ISZERO SWAP4 SWAP1 SWAP4 AND PUSH1 0x1 PUSH1 0x1 PUSH1 0xA8 SHL SUB NOT SWAP1 SWAP2 AND OR SWAP2 SWAP1 SWAP2 OR SWAP1 SSTORE PUSH1 0xA0 DUP3 ADD MLOAD PUSH1 0x4 DUP3 ADD SWAP1 PUSH2 0x192B SWAP1 DUP3 PUSH2 0x3D4C JUMP JUMPDEST POP SWAP1 POP POP CALLER PUSH1 0x1 PUSH1 0x1 PUSH1 0xA0 SHL SUB AND DUP8 PUSH32 0x1B84372106D77C6DAEA0DDA35BBC0229D10A83F58EC899092884925193682341 DUP9 DUP9 PUSH1 0x40 MLOAD PUSH2 0x196B SWAP3 SWAP2 SWAP1 PUSH2 0x3A3F JUMP JUMPDEST PUSH1 0x40 MLOAD DUP1 SWAP2 SUB SWAP1 LOG3 POP POP POP POP PUSH2 0xCE9 PUSH1 0x1 PUSH1 0x0 SSTORE JUMP JUMPDEST PUSH2 0x1989 PUSH2 0x2FD9 JUMP JUMPDEST DUP2 PUSH1 0x6 SLOAD DUP2 LT PUSH2 0x19AE JUMPI DUP1 PUSH1 0x40 MLOAD PUSH4 0xF6CEBA3 PUSH1 0xE2 SHL DUP2 MSTORE PUSH1 0x4 ADD PUSH2 0x4C6 SWAP2 SWAP1 PUSH2 0x319D JUMP JUMPDEST PUSH1 0x0 DUP4 DUP2 MSTORE PUSH1 0x3 PUSH1 0x20 DUP2 DUP2 MSTORE PUSH1 0x40 SWAP3 DUP4 SWAP1 KECCAK256 DUP4 MLOAD PUSH2 0x240 DUP2 ADD DUP6 MSTORE DUP2 SLOAD DUP2 MSTORE PUSH1 0x1 DUP3 ADD SLOAD PUSH1 0x1 PUSH1 0x1 PUSH1 0xA0 SHL SUB SWAP1 DUP2 AND SWAP4 DUP3 ADD SWAP4 SWAP1 SWAP4 MSTORE PUSH1 0x2 DUP3 ADD SLOAD DUP4 AND SWAP5 DUP2 ADD SWAP5 SWAP1 SWAP5 MSTORE SWAP2 DUP3 ADD SLOAD DUP2 AND PUSH1 0x60 DUP5 ADD MSTORE PUSH1 0x4 DUP3 ADD SLOAD DUP2 AND PUSH1 0x80 DUP5 ADD MSTORE PUSH1 0x5 DUP3 ADD SLOAD AND PUSH1 0xA0 DUP4 ADD MSTORE PUSH1 0x6 DUP1 DUP3 ADD SLOAD PUSH1 0xC0 DUP5 ADD MSTORE PUSH1 0x7 DUP3 ADD SLOAD PUSH1 0xE0 DUP5 ADD MSTORE PUSH1 0x8 DUP3 ADD SLOAD PUSH2 0x100 DUP5 ADD MSTORE PUSH1 0x9 DUP3 ADD SLOAD PUSH2 0x120 DUP5 ADD SWAP2 PUSH1 0xFF SWAP1 SWAP2 AND SWAP1 DUP2 GT ISZERO PUSH2 0x1A54 JUMPI PUSH2 0x1A54 PUSH2 0x3293 JUMP JUMPDEST PUSH1 0x6 DUP2 GT ISZERO PUSH2 0x1A65 JUMPI PUSH2 0x1A65 PUSH2 0x3293 JUMP JUMPDEST DUP2 MSTORE PUSH1 0x20 ADD PUSH1 0xA DUP3 ADD PUSH1 0x40 MLOAD DUP1 PUSH1 0xA0 ADD PUSH1 0x40 MSTORE SWAP1 DUP2 PUSH1 0x0 DUP3 ADD DUP1 SLOAD PUSH2 0x1A89 SWAP1 PUSH2 0x3678 JUMP JUMPDEST DUP1 PUSH1 0x1F ADD PUSH1 0x20 DUP1 SWAP2 DIV MUL PUSH1 0x20 ADD PUSH1 0x40 MLOAD SWAP1 DUP2 ADD PUSH1 0x40 MSTORE DUP1 SWAP3 SWAP2 SWAP1 DUP2 DUP2 MSTORE PUSH1 0x20 ADD DUP3 DUP1 SLOAD PUSH2 0x1AB5 SWAP1 PUSH2 0x3678 JUMP JUMPDEST DUP1 ISZERO PUSH2 0x1B02 JUMPI DUP1 PUSH1 0x1F LT PUSH2 0x1AD7 JUMPI PUSH2 0x100 DUP1 DUP4 SLOAD DIV MUL DUP4 MSTORE SWAP2 PUSH1 0x20 ADD SWAP2 PUSH2 0x1B02 JUMP JUMPDEST DUP3 ADD SWAP2 SWAP1 PUSH1 0x0 MSTORE PUSH1 0x20 PUSH1 0x0 KECCAK256 SWAP1 JUMPDEST DUP2 SLOAD DUP2 MSTORE SWAP1 PUSH1 0x1 ADD SWAP1 PUSH1 0x20 ADD DUP1 DUP4 GT PUSH2 0x1AE5 JUMPI DUP3 SWAP1 SUB PUSH1 0x1F AND DUP3 ADD SWAP2 JUMPDEST POP POP POP POP POP DUP2 MSTORE PUSH1 0x20 ADD PUSH1 0x1 DUP3 ADD DUP1 SLOAD PUSH2 0x1B1B SWAP1 PUSH2 0x3678 JUMP JUMPDEST DUP1 PUSH1 0x1F ADD PUSH1 0x20 DUP1 SWAP2 DIV MUL PUSH1 0x20 ADD PUSH1 0x40 MLOAD SWAP1 DUP2 ADD PUSH1 0x40 MSTORE DUP1 SWAP3 SWAP2 SWAP1 DUP2 DUP2 MSTORE PUSH1 0x20 ADD DUP3 DUP1 SLOAD PUSH2 0x1B47 SWAP1 PUSH2 0x3678 JUMP JUMPDEST DUP1 ISZERO PUSH2 0x1B94 JUMPI DUP1 PUSH1 0x1F LT PUSH2 0x1B69 JUMPI PUSH2 0x100 DUP1 DUP4 SLOAD DIV MUL DUP4 MSTORE SWAP2 PUSH1 0x20 ADD SWAP2 PUSH2 0x1B94 JUMP JUMPDEST DUP3 ADD SWAP2 SWAP1 PUSH1 0x0 MSTORE PUSH1 0x20 PUSH1 0x0 KECCAK256 SWAP1 JUMPDEST DUP2 SLOAD DUP2 MSTORE SWAP1 PUSH1 0x1 ADD SWAP1 PUSH1 0x20 ADD DUP1 DUP4 GT PUSH2 0x1B77 JUMPI DUP3 SWAP1 SUB PUSH1 0x1F AND DUP3 ADD SWAP2 JUMPDEST POP POP POP POP POP DUP2 MSTORE PUSH1 0x20 ADD PUSH1 0x2 DUP3 ADD SLOAD DUP2 MSTORE PUSH1 0x20 ADD PUSH1 0x3 DUP3 ADD DUP1 SLOAD PUSH2 0x1BB7 SWAP1 PUSH2 0x3678 JUMP JUMPDEST DUP1 PUSH1 0x1F ADD PUSH1 0x20 DUP1 SWAP2 DIV MUL PUSH1 0x20 ADD PUSH1 0x40 MLOAD SWAP1 DUP2 ADD PUSH1 0x40 MSTORE DUP1 SWAP3 SWAP2 SWAP1 DUP2 DUP2 MSTORE PUSH1 0x20 ADD DUP3 DUP1 SLOAD PUSH2 0x1BE3 SWAP1 PUSH2 0x3678 JUMP JUMPDEST DUP1 ISZERO PUSH2 0x1C30 JUMPI DUP1 PUSH1 0x1F LT PUSH2 0x1C05 JUMPI PUSH2 0x100 DUP1 DUP4 SLOAD DIV MUL DUP4 MSTORE SWAP2 PUSH1 0x20 ADD SWAP2 PUSH2 0x1C30 JUMP JUMPDEST DUP3 ADD SWAP2 SWAP1 PUSH1 0x0 MSTORE PUSH1 0x20 PUSH1 0x0 KECCAK256 SWAP1 JUMPDEST DUP2 SLOAD DUP2 MSTORE SWAP1 PUSH1 0x1 ADD SWAP1 PUSH1 0x20 ADD DUP1 DUP4 GT PUSH2 0x1C13 JUMPI DUP3 SWAP1 SUB PUSH1 0x1F AND DUP3 ADD SWAP2 JUMPDEST POP POP POP SWAP2 DUP4 MSTORE POP POP PUSH1 0x4 SWAP2 SWAP1 SWAP2 ADD SLOAD PUSH1 0xFF SWAP1 DUP2 AND ISZERO ISZERO PUSH1 0x20 SWAP3 DUP4 ADD MSTORE SWAP2 DUP4 MSTORE PUSH1 0xF DUP5 ADD SLOAD SWAP1 DUP4 ADD MSTORE PUSH1 0x10 DUP4 ADD SLOAD PUSH1 0x40 DUP4 ADD MSTORE PUSH1 0x11 DUP4 ADD SLOAD PUSH1 0x60 DUP4 ADD MSTORE PUSH1 0x12 DUP4 ADD SLOAD DUP1 DUP3 AND ISZERO ISZERO PUSH1 0x80 DUP5 ADD MSTORE PUSH2 0x100 DUP2 DIV DUP3 AND ISZERO ISZERO PUSH1 0xA0 DUP5 ADD MSTORE PUSH3 0x10000 SWAP1 DIV AND ISZERO ISZERO PUSH1 0xC0 DUP3 ADD MSTORE PUSH1 0x13 DUP3 ADD DUP1 SLOAD PUSH1 0xE0 SWAP1 SWAP3 ADD SWAP2 PUSH2 0x1CAC SWAP1 PUSH2 0x3678 JUMP JUMPDEST DUP1 PUSH1 0x1F ADD PUSH1 0x20 DUP1 SWAP2 DIV MUL PUSH1 0x20 ADD PUSH1 0x40 MLOAD SWAP1 DUP2 ADD PUSH1 0x40 MSTORE DUP1 SWAP3 SWAP2 SWAP1 DUP2 DUP2 MSTORE PUSH1 0x20 ADD DUP3 DUP1 SLOAD PUSH2 0x1CD8 SWAP1 PUSH2 0x3678 JUMP JUMPDEST DUP1 ISZERO PUSH2 0x1D25 JUMPI DUP1 PUSH1 0x1F LT PUSH2 0x1CFA JUMPI PUSH2 0x100 DUP1 DUP4 SLOAD DIV MUL DUP4 MSTORE SWAP2 PUSH1 0x20 ADD SWAP2 PUSH2 0x1D25 JUMP JUMPDEST DUP3 ADD SWAP2 SWAP1 PUSH1 0x0 MSTORE PUSH1 0x20 PUSH1 0x0 KECCAK256 SWAP1 JUMPDEST DUP2 SLOAD DUP2 MSTORE SWAP1 PUSH1 0x1 ADD SWAP1 PUSH1 0x20 ADD DUP1 DUP4 GT PUSH2 0x1D08 JUMPI DUP3 SWAP1 SUB PUSH1 0x1F AND DUP3 ADD SWAP2 JUMPDEST POP POP POP POP POP DUP2 MSTORE POP POP SWAP2 POP POP SWAP2 SWAP1 POP JUMP JUMPDEST PUSH1 0x0 DUP1 MLOAD PUSH1 0x20 PUSH2 0x450D DUP4 CODECOPY DUP2 MLOAD SWAP2 MSTORE PUSH2 0x1D4E DUP2 PUSH2 0x28D7 JUMP JUMPDEST PUSH2 0xDA1 PUSH2 0x2BEC JUMP JUMPDEST PUSH1 0x0 SWAP2 DUP3 MSTORE PUSH1 0x2 PUSH1 0x20 SWAP1 DUP2 MSTORE PUSH1 0x40 DUP1 DUP5 KECCAK256 PUSH1 0x1 PUSH1 0x1 PUSH1 0xA0 SHL SUB SWAP4 SWAP1 SWAP4 AND DUP5 MSTORE SWAP2 SWAP1 MSTORE SWAP1 KECCAK256 SLOAD PUSH1 0xFF AND SWAP1 JUMP JUMPDEST PUSH1 0x0 PUSH2 0x1D8B PUSH2 0x28E1 JUMP JUMPDEST PUSH2 0x1D93 PUSH2 0x290A JUMP JUMPDEST PUSH1 0x0 PUSH2 0x1DA2 PUSH1 0x20 DUP5 ADD DUP5 PUSH2 0x3635 JUMP JUMPDEST PUSH1 0x1 PUSH1 0x1 PUSH1 0xA0 SHL SUB AND SUB PUSH2 0x1DC8 JUMPI PUSH1 0x40 MLOAD PUSH3 0x461BCD PUSH1 0xE5 SHL DUP2 MSTORE PUSH1 0x4 ADD PUSH2 0x4C6 SWAP1 PUSH2 0x3E30 JUMP JUMPDEST PUSH1 0x0 PUSH2 0x1DDA PUSH1 0x40 DUP5 ADD PUSH1 0x20 DUP6 ADD PUSH2 0x3635 JUMP JUMPDEST PUSH1 0x1 PUSH1 0x1 PUSH1 0xA0 SHL SUB AND SUB PUSH2 0x1E00 JUMPI PUSH1 0x40 MLOAD PUSH3 0x461BCD PUSH1 0xE5 SHL DUP2 MSTORE PUSH1 0x4 ADD PUSH2 0x4C6 SWAP1 PUSH2 0x3E6B JUMP JUMPDEST PUSH2 0x1E10 PUSH1 0x40 DUP4 ADD PUSH1 0x20 DUP5 ADD PUSH2 0x3635 JUMP JUMPDEST PUSH1 0x1 PUSH1 0x1 PUSH1 0xA0 SHL SUB AND PUSH2 0x1E26 PUSH1 0x20 DUP5 ADD DUP5 PUSH2 0x3635 JUMP JUMPDEST PUSH1 0x1 PUSH1 0x1 PUSH1 0xA0 SHL SUB AND SUB PUSH2 0x1E4C JUMPI PUSH1 0x40 MLOAD PUSH3 0x461BCD PUSH1 0xE5 SHL DUP2 MSTORE PUSH1 0x4 ADD PUSH2 0x4C6 SWAP1 PUSH2 0x3EB8 JUMP JUMPDEST PUSH1 0x0 PUSH2 0x1E5E PUSH1 0xA0 DUP5 ADD PUSH1 0x80 DUP6 ADD PUSH2 0x3635 JUMP JUMPDEST PUSH1 0x1 PUSH1 0x1 PUSH1 0xA0 SHL SUB AND SUB PUSH2 0x1E84 JUMPI PUSH1 0x40 MLOAD PUSH3 0x461BCD PUSH1 0xE5 SHL DUP2 MSTORE PUSH1 0x4 ADD PUSH2 0x4C6 SWAP1 PUSH2 0x3EF2 JUMP JUMPDEST PUSH1 0x5 PUSH1 0x0 PUSH2 0x1E98 PUSH1 0xA0 DUP6 ADD PUSH1 0x80 DUP7 ADD PUSH2 0x3635 JUMP JUMPDEST PUSH1 0x1 PUSH1 0x1 PUSH1 0xA0 SHL SUB AND DUP2 MSTORE PUSH1 0x20 DUP2 ADD SWAP2 SWAP1 SWAP2 MSTORE PUSH1 0x40 ADD PUSH1 0x0 KECCAK256 SLOAD PUSH1 0xFF AND PUSH2 0x1ED1 JUMPI PUSH1 0x40 MLOAD PUSH3 0x461BCD PUSH1 0xE5 SHL DUP2 MSTORE PUSH1 0x4 ADD PUSH2 0x4C6 SWAP1 PUSH2 0x3F2C JUMP JUMPDEST PUSH1 0x0 DUP3 PUSH1 0xA0 ADD CALLDATALOAD GT PUSH2 0x1EF5 JUMPI PUSH1 0x40 MLOAD PUSH3 0x461BCD PUSH1 0xE5 SHL DUP2 MSTORE PUSH1 0x4 ADD PUSH2 0x4C6 SWAP1 PUSH2 0x3F6E JUMP JUMPDEST TIMESTAMP DUP3 PUSH2 0x120 ADD CALLDATALOAD GT PUSH2 0x1F19 JUMPI PUSH1 0x40 MLOAD PUSH3 0x461BCD PUSH1 0xE5 SHL DUP2 MSTORE PUSH1 0x4 ADD PUSH2 0x4C6 SWAP1 PUSH2 0x3FAB JUMP JUMPDEST DUP2 PUSH2 0x120 ADD CALLDATALOAD DUP3 PUSH2 0x140 ADD CALLDATALOAD GT PUSH2 0x1F42 JUMPI PUSH1 0x40 MLOAD PUSH3 0x461BCD PUSH1 0xE5 SHL DUP2 MSTORE PUSH1 0x4 ADD PUSH2 0x4C6 SWAP1 PUSH2 0x3FED JUMP JUMPDEST PUSH1 0x0 PUSH2 0x1F52 PUSH2 0x100 DUP5 ADD DUP5 PUSH2 0x3FFD JUMP JUMPDEST PUSH2 0x1F5C SWAP1 DUP1 PUSH2 0x4021 JUMP JUMPDEST SWAP1 POP GT PUSH2 0x1F7B JUMPI PUSH1 0x40 MLOAD PUSH3 0x461BCD PUSH1 0xE5 SHL DUP2 MSTORE PUSH1 0x4 ADD PUSH2 0x4C6 SWAP1 PUSH2 0x409E JUMP JUMPDEST PUSH1 0x6 DUP1 SLOAD PUSH1 0x0 SWAP2 DUP3 PUSH2 0x1F8C DUP4 PUSH2 0x40AE JUMP JUMPDEST SWAP1 SWAP2 SSTORE POP PUSH1 0x0 DUP2 DUP2 MSTORE PUSH1 0x3 PUSH1 0x20 SWAP1 DUP2 MSTORE PUSH1 0x40 SWAP1 SWAP2 KECCAK256 DUP3 DUP2 SSTORE SWAP2 SWAP3 POP PUSH2 0x1FB3 SWAP1 DUP6 ADD DUP6 PUSH2 0x3635 JUMP JUMPDEST PUSH1 0x1 DUP3 ADD DUP1 SLOAD PUSH1 0x1 PUSH1 0x1 PUSH1 0xA0 SHL SUB NOT AND PUSH1 0x1 PUSH1 0x1 PUSH1 0xA0 SHL SUB SWAP3 SWAP1 SWAP3 AND SWAP2 SWAP1 SWAP2 OR SWAP1 SSTORE PUSH2 0x1FE5 PUSH1 0x40 DUP6 ADD PUSH1 0x20 DUP7 ADD PUSH2 0x3635 JUMP JUMPDEST PUSH1 0x2 DUP3 ADD DUP1 SLOAD PUSH1 0x1 PUSH1 0x1 PUSH1 0xA0 SHL SUB NOT AND PUSH1 0x1 PUSH1 0x1 PUSH1 0xA0 SHL SUB SWAP3 SWAP1 SWAP3 AND SWAP2 SWAP1 SWAP2 OR SWAP1 SSTORE PUSH2 0x2017 PUSH1 0x60 DUP6 ADD PUSH1 0x40 DUP7 ADD PUSH2 0x3635 JUMP JUMPDEST PUSH1 0x3 DUP3 ADD DUP1 SLOAD PUSH1 0x1 PUSH1 0x1 PUSH1 0xA0 SHL SUB NOT AND PUSH1 0x1 PUSH1 0x1 PUSH1 0xA0 SHL SUB SWAP3 SWAP1 SWAP3 AND SWAP2 SWAP1 SWAP2 OR SWAP1 SSTORE PUSH2 0x2049 PUSH1 0x80 DUP6 ADD PUSH1 0x60 DUP7 ADD PUSH2 0x3635 JUMP JUMPDEST PUSH1 0x4 DUP3 ADD DUP1 SLOAD PUSH1 0x1 PUSH1 0x1 PUSH1 0xA0 SHL SUB NOT AND PUSH1 0x1 PUSH1 0x1 PUSH1 0xA0 SHL SUB SWAP3 SWAP1 SWAP3 AND SWAP2 SWAP1 SWAP2 OR SWAP1 SSTORE PUSH2 0x207B PUSH1 0xA0 DUP6 ADD PUSH1 0x80 DUP7 ADD PUSH2 0x3635 JUMP JUMPDEST PUSH1 0x5 DUP3 ADD DUP1 SLOAD PUSH1 0x1 PUSH1 0x1 PUSH1 0xA0 SHL SUB NOT AND PUSH1 0x1 PUSH1 0x1 PUSH1 0xA0 SHL SUB SWAP3 SWAP1 SWAP3 AND SWAP2 SWAP1 SWAP2 OR SWAP1 SSTORE PUSH1 0xA0 DUP5 ADD CALLDATALOAD PUSH1 0x6 DUP3 ADD SSTORE PUSH1 0xC0 DUP5 ADD CALLDATALOAD PUSH1 0x7 DUP3 ADD SSTORE PUSH1 0xE0 DUP5 ADD CALLDATALOAD PUSH1 0x8 DUP3 ADD SSTORE PUSH1 0x9 DUP2 ADD DUP1 SLOAD PUSH1 0xFF NOT AND SWAP1 SSTORE PUSH2 0x20D5 PUSH2 0x100 DUP6 ADD DUP6 PUSH2 0x3FFD JUMP JUMPDEST PUSH1 0xA DUP3 ADD PUSH2 0x20E3 DUP3 DUP3 PUSH2 0x41AE JUMP JUMPDEST POP POP TIMESTAMP PUSH1 0xF DUP3 ADD SSTORE PUSH2 0x120 DUP5 ADD CALLDATALOAD PUSH1 0x10 DUP3 ADD SSTORE PUSH2 0x140 DUP5 ADD CALLDATALOAD PUSH1 0x11 DUP3 ADD SSTORE PUSH2 0x2111 PUSH1 0x40 DUP6 ADD PUSH1 0x20 DUP7 ADD PUSH2 0x3635 JUMP JUMPDEST PUSH1 0x1 PUSH1 0x1 PUSH1 0xA0 SHL SUB AND PUSH2 0x2127 PUSH1 0x20 DUP7 ADD DUP7 PUSH2 0x3635 JUMP JUMPDEST PUSH1 0x1 PUSH1 0x1 PUSH1 0xA0 SHL SUB AND DUP4 PUSH32 0x9405AD0A6208539879349284D71265479B1623846F70303DA1F9890D6E8C10A7 DUP8 PUSH1 0xA0 ADD CALLDATALOAD PUSH1 0x40 MLOAD PUSH2 0x2164 SWAP2 SWAP1 PUSH2 0x319D JUMP JUMPDEST PUSH1 0x40 MLOAD DUP1 SWAP2 SUB SWAP1 LOG4 POP SWAP1 POP PUSH2 0x2179 PUSH1 0x1 PUSH1 0x0 SSTORE JUMP JUMPDEST SWAP2 SWAP1 POP JUMP JUMPDEST PUSH2 0x2186 PUSH2 0x28E1 JUMP JUMPDEST PUSH2 0x218E PUSH2 0x290A JUMP JUMPDEST DUP1 PUSH1 0x6 SLOAD DUP2 LT PUSH2 0x21B3 JUMPI DUP1 PUSH1 0x40 MLOAD PUSH4 0xF6CEBA3 PUSH1 0xE2 SHL DUP2 MSTORE PUSH1 0x4 ADD PUSH2 0x4C6 SWAP2 SWAP1 PUSH2 0x319D JUMP JUMPDEST DUP2 PUSH1 0x2 DUP1 PUSH1 0x0 DUP4 DUP2 MSTORE PUSH1 0x3 PUSH1 0x20 MSTORE PUSH1 0x40 SWAP1 KECCAK256 PUSH1 0x9 ADD SLOAD PUSH1 0xFF AND PUSH1 0x6 DUP2 GT ISZERO PUSH2 0x21DD JUMPI PUSH2 0x21DD PUSH2 0x3293 JUMP JUMPDEST EQ PUSH2 0x2218 JUMPI PUSH1 0x0 DUP3 DUP2 MSTORE PUSH1 0x3 PUSH1 0x20 MSTORE PUSH1 0x40 SWAP1 DUP2 SWAP1 KECCAK256 PUSH1 0x9 ADD SLOAD SWAP1 MLOAD PUSH4 0x350B7A7F PUSH1 0xE2 SHL DUP2 MSTORE PUSH2 0x4C6 SWAP2 DUP5 SWAP2 PUSH1 0xFF SWAP1 SWAP2 AND SWAP1 DUP5 SWAP1 PUSH1 0x4 ADD PUSH2 0x37FD JUMP JUMPDEST PUSH1 0x0 DUP5 DUP2 MSTORE PUSH1 0x3 PUSH1 0x20 MSTORE PUSH1 0x40 DUP2 KECCAK256 PUSH1 0x1 DUP2 ADD SLOAD SWAP1 SWAP2 SWAP1 PUSH1 0x1 PUSH1 0x1 PUSH1 0xA0 SHL SUB AND CALLER SUB PUSH2 0x2279 JUMPI PUSH1 0x12 DUP3 ADD SLOAD PUSH1 0xFF AND ISZERO PUSH2 0x2262 JUMPI PUSH1 0x40 MLOAD PUSH3 0x461BCD PUSH1 0xE5 SHL DUP2 MSTORE PUSH1 0x4 ADD PUSH2 0x4C6 SWAP1 PUSH2 0x36FC JUMP JUMPDEST POP PUSH1 0x12 DUP2 ADD DUP1 SLOAD PUSH1 0xFF NOT AND PUSH1 0x1 OR SWAP1 SSTORE PUSH1 0x0 PUSH2 0x2326 JUMP JUMPDEST PUSH1 0x2 DUP3 ADD SLOAD PUSH1 0x1 PUSH1 0x1 PUSH1 0xA0 SHL SUB AND CALLER SUB PUSH2 0x22D0 JUMPI PUSH1 0x12 DUP3 ADD SLOAD PUSH2 0x100 SWAP1 DIV PUSH1 0xFF AND ISZERO PUSH2 0x22B7 JUMPI PUSH1 0x40 MLOAD PUSH3 0x461BCD PUSH1 0xE5 SHL DUP2 MSTORE PUSH1 0x4 ADD PUSH2 0x4C6 SWAP1 PUSH2 0x3738 JUMP JUMPDEST POP PUSH1 0x12 DUP2 ADD DUP1 SLOAD PUSH2 0xFF00 NOT AND PUSH2 0x100 OR SWAP1 SSTORE PUSH1 0x1 PUSH2 0x2326 JUMP JUMPDEST PUSH1 0x3 DUP3 ADD SLOAD PUSH1 0x1 PUSH1 0x1 PUSH1 0xA0 SHL SUB AND CALLER SUB PUSH2 0xAAA JUMPI PUSH1 0x12 DUP3 ADD SLOAD PUSH3 0x10000 SWAP1 DIV PUSH1 0xFF AND ISZERO PUSH2 0x230F JUMPI PUSH1 0x40 MLOAD PUSH3 0x461BCD PUSH1 0xE5 SHL DUP2 MSTORE PUSH1 0x4 ADD PUSH2 0x4C6 SWAP1 PUSH2 0x3773 JUMP JUMPDEST POP PUSH1 0x12 DUP2 ADD DUP1 SLOAD PUSH3 0xFF0000 NOT AND PUSH3 0x10000 OR SWAP1 SSTORE PUSH1 0x2 JUMPDEST CALLER PUSH1 0x1 PUSH1 0x1 PUSH1 0xA0 SHL SUB AND DUP7 PUSH1 0x0 DUP1 MLOAD PUSH1 0x20 PUSH2 0x452D DUP4 CODECOPY DUP2 MLOAD SWAP2 MSTORE DUP4 PUSH1 0x40 MLOAD PUSH2 0x234E SWAP2 SWAP1 PUSH2 0x37EF JUMP JUMPDEST PUSH1 0x40 MLOAD DUP1 SWAP2 SUB SWAP1 LOG3 POP POP POP POP POP PUSH2 0xDA1 PUSH1 0x1 PUSH1 0x0 SSTORE JUMP JUMPDEST PUSH1 0x0 DUP1 MLOAD PUSH1 0x20 PUSH2 0x450D DUP4 CODECOPY DUP2 MLOAD SWAP2 MSTORE PUSH2 0x237D DUP2 PUSH2 0x28D7 JUMP JUMPDEST PUSH2 0xCE9 PUSH1 0x1 PUSH1 0x1 PUSH1 0xA0 SHL SUB DUP5 AND CALLER DUP5 PUSH2 0x2BCD JUMP JUMPDEST PUSH2 0x239A DUP3 PUSH2 0xAF7 JUMP JUMPDEST PUSH2 0x23A3 DUP2 PUSH2 0x28D7 JUMP JUMPDEST PUSH2 0xCE9 DUP4 DUP4 PUSH2 0x2AC2 JUMP JUMPDEST PUSH2 0x23B5 PUSH2 0x28E1 JUMP JUMPDEST PUSH2 0x23BD PUSH2 0x290A JUMP JUMPDEST DUP1 PUSH1 0x6 SLOAD DUP2 LT PUSH2 0x23E2 JUMPI DUP1 PUSH1 0x40 MLOAD PUSH4 0xF6CEBA3 PUSH1 0xE2 SHL DUP2 MSTORE PUSH1 0x4 ADD PUSH2 0x4C6 SWAP2 SWAP1 PUSH2 0x319D JUMP JUMPDEST DUP2 PUSH1 0x0 DUP1 PUSH1 0x0 DUP4 DUP2 MSTORE PUSH1 0x3 PUSH1 0x20 MSTORE PUSH1 0x40 SWAP1 KECCAK256 PUSH1 0x9 ADD SLOAD PUSH1 0xFF AND PUSH1 0x6 DUP2 GT ISZERO PUSH2 0x240C JUMPI PUSH2 0x240C PUSH2 0x3293 JUMP JUMPDEST EQ PUSH2 0x2447 JUMPI PUSH1 0x0 DUP3 DUP2 MSTORE PUSH1 0x3 PUSH1 0x20 MSTORE PUSH1 0x40 SWAP1 DUP2 SWAP1 KECCAK256 PUSH1 0x9 ADD SLOAD SWAP1 MLOAD PUSH4 0x350B7A7F PUSH1 0xE2 SHL DUP2 MSTORE PUSH2 0x4C6 SWAP2 DUP5 SWAP2 PUSH1 0xFF SWAP1 SWAP2 AND SWAP1 DUP5 SWAP1 PUSH1 0x4 ADD PUSH2 0x37FD JUMP JUMPDEST PUSH1 0x0 DUP5 DUP2 MSTORE PUSH1 0x3 PUSH1 0x20 DUP2 DUP2 MSTORE PUSH1 0x40 DUP1 DUP5 KECCAK256 DUP2 MLOAD PUSH2 0x240 DUP2 ADD DUP4 MSTORE DUP2 SLOAD DUP2 MSTORE PUSH1 0x1 DUP3 ADD SLOAD PUSH1 0x1 PUSH1 0x1 PUSH1 0xA0 SHL SUB SWAP1 DUP2 AND SWAP5 DUP3 ADD SWAP5 SWAP1 SWAP5 MSTORE PUSH1 0x2 DUP3 ADD SLOAD DUP5 AND SWAP3 DUP2 ADD SWAP3 SWAP1 SWAP3 MSTORE SWAP3 DUP4 ADD SLOAD DUP3 AND PUSH1 0x60 DUP3 ADD MSTORE PUSH1 0x4 DUP4 ADD SLOAD DUP3 AND PUSH1 0x80 DUP3 ADD MSTORE PUSH1 0x5 DUP4 ADD SLOAD SWAP1 SWAP2 AND PUSH1 0xA0 DUP3 ADD MSTORE PUSH1 0x6 DUP1 DUP4 ADD SLOAD PUSH1 0xC0 DUP4 ADD MSTORE PUSH1 0x7 DUP4 ADD SLOAD PUSH1 0xE0 DUP4 ADD MSTORE PUSH1 0x8 DUP4 ADD SLOAD PUSH2 0x100 DUP4 ADD MSTORE PUSH1 0x9 DUP4 ADD SLOAD DUP9 SWAP5 SWAP4 SWAP2 PUSH2 0x120 DUP5 ADD SWAP2 PUSH1 0xFF AND SWAP1 DUP2 GT ISZERO PUSH2 0x24F0 JUMPI PUSH2 0x24F0 PUSH2 0x3293 JUMP JUMPDEST PUSH1 0x6 DUP2 GT ISZERO PUSH2 0x2501 JUMPI PUSH2 0x2501 PUSH2 0x3293 JUMP JUMPDEST DUP2 MSTORE PUSH1 0x20 ADD PUSH1 0xA DUP3 ADD PUSH1 0x40 MLOAD DUP1 PUSH1 0xA0 ADD PUSH1 0x40 MSTORE SWAP1 DUP2 PUSH1 0x0 DUP3 ADD DUP1 SLOAD PUSH2 0x2525 SWAP1 PUSH2 0x3678 JUMP JUMPDEST DUP1 PUSH1 0x1F ADD PUSH1 0x20 DUP1 SWAP2 DIV MUL PUSH1 0x20 ADD PUSH1 0x40 MLOAD SWAP1 DUP2 ADD PUSH1 0x40 MSTORE DUP1 SWAP3 SWAP2 SWAP1 DUP2 DUP2 MSTORE PUSH1 0x20 ADD DUP3 DUP1 SLOAD PUSH2 0x2551 SWAP1 PUSH2 0x3678 JUMP JUMPDEST DUP1 ISZERO PUSH2 0x259E JUMPI DUP1 PUSH1 0x1F LT PUSH2 0x2573 JUMPI PUSH2 0x100 DUP1 DUP4 SLOAD DIV MUL DUP4 MSTORE SWAP2 PUSH1 0x20 ADD SWAP2 PUSH2 0x259E JUMP JUMPDEST DUP3 ADD SWAP2 SWAP1 PUSH1 0x0 MSTORE PUSH1 0x20 PUSH1 0x0 KECCAK256 SWAP1 JUMPDEST DUP2 SLOAD DUP2 MSTORE SWAP1 PUSH1 0x1 ADD SWAP1 PUSH1 0x20 ADD DUP1 DUP4 GT PUSH2 0x2581 JUMPI DUP3 SWAP1 SUB PUSH1 0x1F AND DUP3 ADD SWAP2 JUMPDEST POP POP POP POP POP DUP2 MSTORE PUSH1 0x20 ADD PUSH1 0x1 DUP3 ADD DUP1 SLOAD PUSH2 0x25B7 SWAP1 PUSH2 0x3678 JUMP JUMPDEST DUP1 PUSH1 0x1F ADD PUSH1 0x20 DUP1 SWAP2 DIV MUL PUSH1 0x20 ADD PUSH1 0x40 MLOAD SWAP1 DUP2 ADD PUSH1 0x40 MSTORE DUP1 SWAP3 SWAP2 SWAP1 DUP2 DUP2 MSTORE PUSH1 0x20 ADD DUP3 DUP1 SLOAD PUSH2 0x25E3 SWAP1 PUSH2 0x3678 JUMP JUMPDEST DUP1 ISZERO PUSH2 0x2630 JUMPI DUP1 PUSH1 0x1F LT PUSH2 0x2605 JUMPI PUSH2 0x100 DUP1 DUP4 SLOAD DIV MUL DUP4 MSTORE SWAP2 PUSH1 0x20 ADD SWAP2 PUSH2 0x2630 JUMP JUMPDEST DUP3 ADD SWAP2 SWAP1 PUSH1 0x0 MSTORE PUSH1 0x20 PUSH1 0x0 KECCAK256 SWAP1 JUMPDEST DUP2 SLOAD DUP2 MSTORE SWAP1 PUSH1 0x1 ADD SWAP1 PUSH1 0x20 ADD DUP1 DUP4 GT PUSH2 0x2613 JUMPI DUP3 SWAP1 SUB PUSH1 0x1F AND DUP3 ADD SWAP2 JUMPDEST POP POP POP POP POP DUP2 MSTORE PUSH1 0x20 ADD PUSH1 0x2 DUP3 ADD SLOAD DUP2 MSTORE PUSH1 0x20 ADD PUSH1 0x3 DUP3 ADD DUP1 SLOAD PUSH2 0x2653 SWAP1 PUSH2 0x3678 JUMP JUMPDEST DUP1 PUSH1 0x1F ADD PUSH1 0x20 DUP1 SWAP2 DIV MUL PUSH1 0x20 ADD PUSH1 0x40 MLOAD SWAP1 DUP2 ADD PUSH1 0x40 MSTORE DUP1 SWAP3 SWAP2 SWAP1 DUP2 DUP2 MSTORE PUSH1 0x20 ADD DUP3 DUP1 SLOAD PUSH2 0x267F SWAP1 PUSH2 0x3678 JUMP JUMPDEST DUP1 ISZERO PUSH2 0x26CC JUMPI DUP1 PUSH1 0x1F LT PUSH2 0x26A1 JUMPI PUSH2 0x100 DUP1 DUP4 SLOAD DIV MUL DUP4 MSTORE SWAP2 PUSH1 0x20 ADD SWAP2 PUSH2 0x26CC JUMP JUMPDEST DUP3 ADD SWAP2 SWAP1 PUSH1 0x0 MSTORE PUSH1 0x20 PUSH1 0x0 KECCAK256 SWAP1 JUMPDEST DUP2 SLOAD DUP2 MSTORE SWAP1 PUSH1 0x1 ADD SWAP1 PUSH1 0x20 ADD DUP1 DUP4 GT PUSH2 0x26AF JUMPI DUP3 SWAP1 SUB PUSH1 0x1F AND DUP3 ADD SWAP2 JUMPDEST POP POP POP SWAP2 DUP4 MSTORE POP POP PUSH1 0x4 SWAP2 SWAP1 SWAP2 ADD SLOAD PUSH1 0xFF SWAP1 DUP2 AND ISZERO ISZERO PUSH1 0x20 SWAP3 DUP4 ADD MSTORE SWAP2 DUP4 MSTORE PUSH1 0xF DUP5 ADD SLOAD SWAP1 DUP4 ADD MSTORE PUSH1 0x10 DUP4 ADD SLOAD PUSH1 0x40 DUP4 ADD MSTORE PUSH1 0x11 DUP4 ADD SLOAD PUSH1 0x60 DUP4 ADD MSTORE PUSH1 0x12 DUP4 ADD SLOAD DUP1 DUP3 AND ISZERO ISZERO PUSH1 0x80 DUP5 ADD MSTORE PUSH2 0x100 DUP2 DIV DUP3 AND ISZERO ISZERO PUSH1 0xA0 DUP5 ADD MSTORE PUSH3 0x10000 SWAP1 DIV AND ISZERO ISZERO PUSH1 0xC0 DUP3 ADD MSTORE PUSH1 0x13 DUP3 ADD DUP1 SLOAD PUSH1 0xE0 SWAP1 SWAP3 ADD SWAP2 PUSH2 0x2748 SWAP1 PUSH2 0x3678 JUMP JUMPDEST DUP1 PUSH1 0x1F ADD PUSH1 0x20 DUP1 SWAP2 DIV MUL PUSH1 0x20 ADD PUSH1 0x40 MLOAD SWAP1 DUP2 ADD PUSH1 0x40 MSTORE DUP1 SWAP3 SWAP2 SWAP1 DUP2 DUP2 MSTORE PUSH1 0x20 ADD DUP3 DUP1 SLOAD PUSH2 0x2774 SWAP1 PUSH2 0x3678 JUMP JUMPDEST DUP1 ISZERO PUSH2 0x27C1 JUMPI DUP1 PUSH1 0x1F LT PUSH2 0x2796 JUMPI PUSH2 0x100 DUP1 DUP4 SLOAD DIV MUL DUP4 MSTORE SWAP2 PUSH1 0x20 ADD SWAP2 PUSH2 0x27C1 JUMP JUMPDEST DUP3 ADD SWAP2 SWAP1 PUSH1 0x0 MSTORE PUSH1 0x20 PUSH1 0x0 KECCAK256 SWAP1 JUMPDEST DUP2 SLOAD DUP2 MSTORE SWAP1 PUSH1 0x1 ADD SWAP1 PUSH1 0x20 ADD DUP1 DUP4 GT PUSH2 0x27A4 JUMPI DUP3 SWAP1 SUB PUSH1 0x1F AND DUP3 ADD SWAP2 JUMPDEST POP POP POP POP POP DUP2 MSTORE POP POP SWAP1 POP DUP1 PUSH1 0x20 ADD MLOAD PUSH1 0x1 PUSH1 0x1 PUSH1 0xA0 SHL SUB AND CALLER PUSH1 0x1 PUSH1 0x1 PUSH1 0xA0 SHL SUB AND EQ DUP1 PUSH2 0x2805 JUMPI POP DUP1 PUSH1 0x40 ADD MLOAD PUSH1 0x1 PUSH1 0x1 PUSH1 0xA0 SHL SUB AND CALLER PUSH1 0x1 PUSH1 0x1 PUSH1 0xA0 SHL SUB AND EQ JUMPDEST DUP1 PUSH2 0x2825 JUMPI POP DUP1 PUSH1 0x60 ADD MLOAD PUSH1 0x1 PUSH1 0x1 PUSH1 0xA0 SHL SUB AND CALLER PUSH1 0x1 PUSH1 0x1 PUSH1 0xA0 SHL SUB AND EQ JUMPDEST DUP1 PUSH2 0x2845 JUMPI POP DUP1 PUSH1 0x80 ADD MLOAD PUSH1 0x1 PUSH1 0x1 PUSH1 0xA0 SHL SUB AND CALLER PUSH1 0x1 PUSH1 0x1 PUSH1 0xA0 SHL SUB AND EQ JUMPDEST DUP1 PUSH2 0x2863 JUMPI POP PUSH2 0x2863 PUSH1 0x0 DUP1 MLOAD PUSH1 0x20 PUSH2 0x450D DUP4 CODECOPY DUP2 MLOAD SWAP2 MSTORE CALLER PUSH2 0x1D56 JUMP JUMPDEST PUSH2 0x2882 JUMPI CALLER PUSH1 0x40 MLOAD PUSH4 0x37B13C29 PUSH1 0xE0 SHL DUP2 MSTORE PUSH1 0x4 ADD PUSH2 0x4C6 SWAP2 SWAP1 PUSH2 0x3CAF JUMP JUMPDEST PUSH1 0x0 DUP7 DUP2 MSTORE PUSH1 0x3 PUSH1 0x20 MSTORE PUSH1 0x40 DUP1 DUP3 KECCAK256 PUSH1 0x9 ADD DUP1 SLOAD PUSH1 0xFF NOT AND PUSH1 0x6 OR SWAP1 SSTORE MLOAD CALLER SWAP2 DUP9 SWAP2 PUSH32 0x6F44C80719CB2F74BDBD68B7AF10147ACB9B52E2675AD02F9C87F09859959938 SWAP2 SWAP1 LOG3 POP POP POP POP POP PUSH2 0xDA1 PUSH1 0x1 PUSH1 0x0 SSTORE JUMP JUMPDEST PUSH2 0xDA1 DUP2 CALLER PUSH2 0x2C27 JUMP JUMPDEST PUSH1 0x2 PUSH1 0x0 SLOAD SUB PUSH2 0x2903 JUMPI PUSH1 0x40 MLOAD PUSH3 0x461BCD PUSH1 0xE5 SHL DUP2 MSTORE PUSH1 0x4 ADD PUSH2 0x4C6 SWAP1 PUSH2 0x41EA JUMP JUMPDEST PUSH1 0x2 PUSH1 0x0 SSTORE JUMP JUMPDEST PUSH1 0x1 SLOAD PUSH1 0xFF AND ISZERO PUSH2 0x292D JUMPI PUSH1 0x40 MLOAD PUSH3 0x461BCD PUSH1 0xE5 SHL DUP2 MSTORE PUSH1 0x4 ADD PUSH2 0x4C6 SWAP1 PUSH2 0x421F JUMP JUMPDEST JUMP JUMPDEST PUSH1 0x0 DUP2 DUP2 MSTORE PUSH1 0x3 PUSH1 0x20 MSTORE PUSH1 0x40 SWAP1 KECCAK256 PUSH1 0x1 PUSH1 0x9 DUP3 ADD SLOAD PUSH1 0xFF AND PUSH1 0x6 DUP2 GT ISZERO PUSH2 0x2958 JUMPI PUSH2 0x2958 PUSH2 0x3293 JUMP JUMPDEST EQ DUP1 PUSH2 0x297C JUMPI POP PUSH1 0x4 PUSH1 0x9 DUP3 ADD SLOAD PUSH1 0xFF AND PUSH1 0x6 DUP2 GT ISZERO PUSH2 0x297A JUMPI PUSH2 0x297A PUSH2 0x3293 JUMP JUMPDEST EQ JUMPDEST DUP1 PUSH2 0x299F JUMPI POP PUSH1 0x2 PUSH1 0x9 DUP3 ADD SLOAD PUSH1 0xFF AND PUSH1 0x6 DUP2 GT ISZERO PUSH2 0x299D JUMPI PUSH2 0x299D PUSH2 0x3293 JUMP JUMPDEST EQ JUMPDEST PUSH2 0x29BB JUMPI PUSH1 0x40 MLOAD PUSH3 0x461BCD PUSH1 0xE5 SHL DUP2 MSTORE PUSH1 0x4 ADD PUSH2 0x4C6 SWAP1 PUSH2 0x4261 JUMP JUMPDEST PUSH1 0x9 DUP2 ADD DUP1 SLOAD PUSH1 0xFF NOT AND PUSH1 0x5 SWAP1 DUP2 OR SWAP1 SWAP2 SSTORE PUSH1 0x1 DUP3 ADD SLOAD PUSH1 0x6 DUP4 ADD SLOAD SWAP2 DUP4 ADD SLOAD PUSH2 0x29F5 SWAP3 PUSH1 0x1 PUSH1 0x1 PUSH1 0xA0 SHL SUB SWAP2 DUP3 AND SWAP3 SWAP2 SWAP1 SWAP2 AND SWAP1 PUSH2 0x2BCD JUMP JUMPDEST PUSH1 0x1 DUP2 ADD SLOAD PUSH1 0x6 DUP3 ADD SLOAD PUSH1 0x40 MLOAD PUSH1 0x1 PUSH1 0x1 PUSH1 0xA0 SHL SUB SWAP1 SWAP3 AND SWAP2 DUP5 SWAP2 PUSH32 0x80B577B4FC190AB86D963549E29F496AFD079C5D81A2480D61217D4B5060A28C SWAP2 PUSH2 0xAEB SWAP2 SWAP1 PUSH2 0x319D JUMP JUMPDEST PUSH2 0x2A46 DUP3 DUP3 PUSH2 0x1D56 JUMP JUMPDEST PUSH2 0xD20 JUMPI PUSH1 0x0 DUP3 DUP2 MSTORE PUSH1 0x2 PUSH1 0x20 SWAP1 DUP2 MSTORE PUSH1 0x40 DUP1 DUP4 KECCAK256 PUSH1 0x1 PUSH1 0x1 PUSH1 0xA0 SHL SUB DUP6 AND DUP5 MSTORE SWAP1 SWAP2 MSTORE SWAP1 KECCAK256 DUP1 SLOAD PUSH1 0xFF NOT AND PUSH1 0x1 OR SWAP1 SSTORE PUSH2 0x2A7E CALLER SWAP1 JUMP JUMPDEST PUSH1 0x1 PUSH1 0x1 PUSH1 0xA0 SHL SUB AND DUP2 PUSH1 0x1 PUSH1 0x1 PUSH1 0xA0 SHL SUB AND DUP4 PUSH32 0x2F8788117E7EFF1D82E926EC794901D17C78024A50270940304540A733656F0D PUSH1 0x40 MLOAD PUSH1 0x40 MLOAD DUP1 SWAP2 SUB SWAP1 LOG4 POP POP JUMP JUMPDEST PUSH2 0x2ACC DUP3 DUP3 PUSH2 0x1D56 JUMP JUMPDEST ISZERO PUSH2 0xD20 JUMPI PUSH1 0x0 DUP3 DUP2 MSTORE PUSH1 0x2 PUSH1 0x20 SWAP1 DUP2 MSTORE PUSH1 0x40 DUP1 DUP4 KECCAK256 PUSH1 0x1 PUSH1 0x1 PUSH1 0xA0 SHL SUB DUP6 AND DUP1 DUP6 MSTORE SWAP3 MSTORE DUP1 DUP4 KECCAK256 DUP1 SLOAD PUSH1 0xFF NOT AND SWAP1 SSTORE MLOAD CALLER SWAP3 DUP6 SWAP2 PUSH32 0xF6391F5C32D9C69D2A47EA670B442974B53935D1EDC7FD64EB21E047A839171B SWAP2 SWAP1 LOG4 POP POP JUMP JUMPDEST PUSH2 0xCC7 DUP5 PUSH4 0x23B872DD PUSH1 0xE0 SHL DUP6 DUP6 DUP6 PUSH1 0x40 MLOAD PUSH1 0x24 ADD PUSH2 0x2B4A SWAP4 SWAP3 SWAP2 SWAP1 PUSH2 0x4271 JUMP JUMPDEST PUSH1 0x40 DUP1 MLOAD PUSH1 0x1F NOT DUP2 DUP5 SUB ADD DUP2 MSTORE SWAP2 SWAP1 MSTORE PUSH1 0x20 DUP2 ADD DUP1 MLOAD PUSH1 0x1 PUSH1 0x1 PUSH1 0xE0 SHL SUB AND PUSH1 0x1 PUSH1 0x1 PUSH1 0xE0 SHL SUB NOT SWAP1 SWAP4 AND SWAP3 SWAP1 SWAP3 OR SWAP1 SWAP2 MSTORE PUSH2 0x2C80 JUMP JUMPDEST PUSH2 0x2B89 PUSH2 0x2D12 JUMP JUMPDEST PUSH1 0x1 DUP1 SLOAD PUSH1 0xFF NOT AND SWAP1 SSTORE PUSH32 0x5DB9EE0A495BF2E6FF9C91A7834C1BA4FDD244A5E8AA4E537BD38AEAE4B073AA CALLER JUMPDEST PUSH1 0x40 MLOAD PUSH2 0x2BC3 SWAP2 SWAP1 PUSH2 0x3654 JUMP JUMPDEST PUSH1 0x40 MLOAD DUP1 SWAP2 SUB SWAP1 LOG1 JUMP JUMPDEST PUSH2 0xCE9 DUP4 PUSH4 0xA9059CBB PUSH1 0xE0 SHL DUP5 DUP5 PUSH1 0x40 MLOAD PUSH1 0x24 ADD PUSH2 0x2B4A SWAP3 SWAP2 SWAP1 PUSH2 0x4299 JUMP JUMPDEST PUSH2 0x2BF4 PUSH2 0x290A JUMP JUMPDEST PUSH1 0x1 DUP1 SLOAD PUSH1 0xFF NOT AND DUP2 OR SWAP1 SSTORE PUSH32 0x62E78CEA01BEE320CD4E420270B5EA74000D11B0C9F74754EBDBFC544B05A258 CALLER PUSH2 0x2BB6 JUMP JUMPDEST PUSH2 0x2C31 DUP3 DUP3 PUSH2 0x1D56 JUMP JUMPDEST PUSH2 0xD20 JUMPI PUSH2 0x2C3E DUP2 PUSH2 0x2D34 JUMP JUMPDEST PUSH2 0x2C49 DUP4 PUSH1 0x20 PUSH2 0x2D46 JUMP JUMPDEST PUSH1 0x40 MLOAD PUSH1 0x20 ADD PUSH2 0x2C5A SWAP3 SWAP2 SWAP1 PUSH2 0x42D6 JUMP JUMPDEST PUSH1 0x40 DUP1 MLOAD PUSH1 0x1F NOT DUP2 DUP5 SUB ADD DUP2 MSTORE SWAP1 DUP3 SWAP1 MSTORE PUSH3 0x461BCD PUSH1 0xE5 SHL DUP3 MSTORE PUSH2 0x4C6 SWAP2 PUSH1 0x4 ADD PUSH2 0x4326 JUMP JUMPDEST PUSH1 0x0 PUSH2 0x2CD5 DUP3 PUSH1 0x40 MLOAD DUP1 PUSH1 0x40 ADD PUSH1 0x40 MSTORE DUP1 PUSH1 0x20 DUP2 MSTORE PUSH1 0x20 ADD PUSH32 0x5361666545524332303A206C6F772D6C6576656C2063616C6C206661696C6564 DUP2 MSTORE POP DUP6 PUSH1 0x1 PUSH1 0x1 PUSH1 0xA0 SHL SUB AND PUSH2 0x2EB8 SWAP1 SWAP3 SWAP2 SWAP1 PUSH4 0xFFFFFFFF AND JUMP JUMPDEST SWAP1 POP DUP1 MLOAD PUSH1 0x0 EQ DUP1 PUSH2 0x2CF6 JUMPI POP DUP1 DUP1 PUSH1 0x20 ADD SWAP1 MLOAD DUP2 ADD SWAP1 PUSH2 0x2CF6 SWAP2 SWAP1 PUSH2 0x4342 JUMP JUMPDEST PUSH2 0xCE9 JUMPI PUSH1 0x40 MLOAD PUSH3 0x461BCD PUSH1 0xE5 SHL DUP2 MSTORE PUSH1 0x4 ADD PUSH2 0x4C6 SWAP1 PUSH2 0x43A6 JUMP JUMPDEST PUSH1 0x1 SLOAD PUSH1 0xFF AND PUSH2 0x292D JUMPI PUSH1 0x40 MLOAD PUSH3 0x461BCD PUSH1 0xE5 SHL DUP2 MSTORE PUSH1 0x4 ADD PUSH2 0x4C6 SWAP1 PUSH2 0x43DF JUMP JUMPDEST PUSH1 0x60 PUSH2 0x499 PUSH1 0x1 PUSH1 0x1 PUSH1 0xA0 SHL SUB DUP4 AND PUSH1 0x14 JUMPDEST PUSH1 0x60 PUSH1 0x0 PUSH2 0x2D55 DUP4 PUSH1 0x2 PUSH2 0x3C34 JUMP JUMPDEST PUSH2 0x2D60 SWAP1 PUSH1 0x2 PUSH2 0x43EF JUMP JUMPDEST PUSH1 0x1 PUSH1 0x1 PUSH1 0x40 SHL SUB DUP2 GT ISZERO PUSH2 0x2D77 JUMPI PUSH2 0x2D77 PUSH2 0x3873 JUMP JUMPDEST PUSH1 0x40 MLOAD SWAP1 DUP1 DUP3 MSTORE DUP1 PUSH1 0x1F ADD PUSH1 0x1F NOT AND PUSH1 0x20 ADD DUP3 ADD PUSH1 0x40 MSTORE DUP1 ISZERO PUSH2 0x2DA1 JUMPI PUSH1 0x20 DUP3 ADD DUP2 DUP1 CALLDATASIZE DUP4 CALLDATACOPY ADD SWAP1 POP JUMPDEST POP SWAP1 POP PUSH1 0x3 PUSH1 0xFC SHL DUP2 PUSH1 0x0 DUP2 MLOAD DUP2 LT PUSH2 0x2DBC JUMPI PUSH2 0x2DBC PUSH2 0x4402 JUMP JUMPDEST PUSH1 0x20 ADD ADD SWAP1 PUSH1 0x1 PUSH1 0x1 PUSH1 0xF8 SHL SUB NOT AND SWAP1 DUP2 PUSH1 0x0 BYTE SWAP1 MSTORE8 POP PUSH1 0xF PUSH1 0xFB SHL DUP2 PUSH1 0x1 DUP2 MLOAD DUP2 LT PUSH2 0x2DEB JUMPI PUSH2 0x2DEB PUSH2 0x4402 JUMP JUMPDEST PUSH1 0x20 ADD ADD SWAP1 PUSH1 0x1 PUSH1 0x1 PUSH1 0xF8 SHL SUB NOT AND SWAP1 DUP2 PUSH1 0x0 BYTE SWAP1 MSTORE8 POP PUSH1 0x0 PUSH2 0x2E0F DUP5 PUSH1 0x2 PUSH2 0x3C34 JUMP JUMPDEST PUSH2 0x2E1A SWAP1 PUSH1 0x1 PUSH2 0x43EF JUMP JUMPDEST SWAP1 POP JUMPDEST PUSH1 0x1 DUP2 GT ISZERO PUSH2 0x2E92 JUMPI PUSH16 0x181899199A1A9B1B9C1CB0B131B232B3 PUSH1 0x81 SHL DUP6 PUSH1 0xF AND PUSH1 0x10 DUP2 LT PUSH2 0x2E4E JUMPI PUSH2 0x2E4E PUSH2 0x4402 JUMP JUMPDEST BYTE PUSH1 0xF8 SHL DUP3 DUP3 DUP2 MLOAD DUP2 LT PUSH2 0x2E64 JUMPI PUSH2 0x2E64 PUSH2 0x4402 JUMP JUMPDEST PUSH1 0x20 ADD ADD SWAP1 PUSH1 0x1 PUSH1 0x1 PUSH1 0xF8 SHL SUB NOT AND SWAP1 DUP2 PUSH1 0x0 BYTE SWAP1 MSTORE8 POP PUSH1 0x4 SWAP5 SWAP1 SWAP5 SHR SWAP4 PUSH2 0x2E8B DUP2 PUSH2 0x4418 JUMP JUMPDEST SWAP1 POP PUSH2 0x2E1D JUMP JUMPDEST POP DUP4 ISZERO PUSH2 0x2EB1 JUMPI PUSH1 0x40 MLOAD PUSH3 0x461BCD PUSH1 0xE5 SHL DUP2 MSTORE PUSH1 0x4 ADD PUSH2 0x4C6 SWAP1 PUSH2 0x445F JUMP JUMPDEST SWAP4 SWAP3 POP POP POP JUMP JUMPDEST PUSH1 0x60 PUSH2 0x2EC7 DUP5 DUP5 PUSH1 0x0 DUP6 PUSH2 0x2ECF JUMP JUMPDEST SWAP5 SWAP4 POP POP POP POP JUMP JUMPDEST PUSH1 0x60 DUP3 SELFBALANCE LT ISZERO PUSH2 0x2EF1 JUMPI PUSH1 0x40 MLOAD PUSH3 0x461BCD PUSH1 0xE5 SHL DUP2 MSTORE PUSH1 0x4 ADD PUSH2 0x4C6 SWAP1 PUSH2 0x44B0 JUMP JUMPDEST PUSH1 0x0 DUP1 DUP7 PUSH1 0x1 PUSH1 0x1 PUSH1 0xA0 SHL SUB AND DUP6 DUP8 PUSH1 0x40 MLOAD PUSH2 0x2F0D SWAP2 SWAP1 PUSH2 0x44C0 JUMP JUMPDEST PUSH1 0x0 PUSH1 0x40 MLOAD DUP1 DUP4 SUB DUP2 DUP6 DUP8 GAS CALL SWAP3 POP POP POP RETURNDATASIZE DUP1 PUSH1 0x0 DUP2 EQ PUSH2 0x2F4A JUMPI PUSH1 0x40 MLOAD SWAP2 POP PUSH1 0x1F NOT PUSH1 0x3F RETURNDATASIZE ADD AND DUP3 ADD PUSH1 0x40 MSTORE RETURNDATASIZE DUP3 MSTORE RETURNDATASIZE PUSH1 0x0 PUSH1 0x20 DUP5 ADD RETURNDATACOPY PUSH2 0x2F4F JUMP JUMPDEST PUSH1 0x60 SWAP2 POP JUMPDEST POP SWAP2 POP SWAP2 POP PUSH2 0x2F60 DUP8 DUP4 DUP4 DUP8 PUSH2 0x2F6B JUMP JUMPDEST SWAP8 SWAP7 POP POP POP POP POP POP POP JUMP JUMPDEST PUSH1 0x60 DUP4 ISZERO PUSH2 0x2FAA JUMPI DUP3 MLOAD PUSH1 0x0 SUB PUSH2 0x2FA3 JUMPI PUSH1 0x1 PUSH1 0x1 PUSH1 0xA0 SHL SUB DUP6 AND EXTCODESIZE PUSH2 0x2FA3 JUMPI PUSH1 0x40 MLOAD PUSH3 0x461BCD PUSH1 0xE5 SHL DUP2 MSTORE PUSH1 0x4 ADD PUSH2 0x4C6 SWAP1 PUSH2 0x44FC JUMP JUMPDEST POP DUP2 PUSH2 0x2EC7 JUMP JUMPDEST PUSH2 0x2EC7 DUP4 DUP4 DUP2 MLOAD ISZERO PUSH2 0x2FBF JUMPI DUP2 MLOAD DUP1 DUP4 PUSH1 0x20 ADD REVERT JUMPDEST DUP1 PUSH1 0x40 MLOAD PUSH3 0x461BCD PUSH1 0xE5 SHL DUP2 MSTORE PUSH1 0x4 ADD PUSH2 0x4C6 SWAP2 SWAP1 PUSH2 0x4326 JUMP JUMPDEST PUSH1 0x40 DUP1 MLOAD PUSH2 0x240 DUP2 ADD DUP3 MSTORE PUSH1 0x0 DUP1 DUP3 MSTORE PUSH1 0x20 DUP3 ADD DUP2 SWAP1 MSTORE SWAP2 DUP2 ADD DUP3 SWAP1 MSTORE PUSH1 0x60 DUP2 ADD DUP3 SWAP1 MSTORE PUSH1 0x80 DUP2 ADD DUP3 SWAP1 MSTORE PUSH1 0xA0 DUP2 ADD DUP3 SWAP1 MSTORE PUSH1 0xC0 DUP2 ADD DUP3 SWAP1 MSTORE PUSH1 0xE0 DUP2 ADD DUP3 SWAP1 MSTORE PUSH2 0x100 DUP2 ADD DUP3 SWAP1 MSTORE SWAP1 PUSH2 0x120 DUP3 ADD SWAP1 DUP2 MSTORE PUSH1 0x20 ADD PUSH2 0x3061 PUSH1 0x40 MLOAD DUP1 PUSH1 0xA0 ADD PUSH1 0x40 MSTORE DUP1 PUSH1 0x60 DUP2 MSTORE PUSH1 0x20 ADD PUSH1 0x60 DUP2 MSTORE PUSH1 0x20 ADD PUSH1 0x0 DUP2 MSTORE PUSH1 0x20 ADD PUSH1 0x60 DUP2 MSTORE PUSH1 0x20 ADD PUSH1 0x0 ISZERO ISZERO DUP2 MSTORE POP SWAP1 JUMP JUMPDEST DUP2 MSTORE PUSH1 0x20 ADD PUSH1 0x0 DUP2 MSTORE PUSH1 0x20 ADD PUSH1 0x0 DUP2 MSTORE PUSH1 0x20 ADD PUSH1 0x0 DUP2 MSTORE PUSH1 0x20 ADD PUSH1 0x0 ISZERO ISZERO DUP2 MSTORE PUSH1 0x20 ADD PUSH1 0x0 ISZERO ISZERO DUP2 MSTORE PUSH1 0x20 ADD PUSH1 0x0 ISZERO ISZERO DUP2 MSTORE PUSH1 0x20 ADD PUSH1 0x60 DUP2 MSTORE POP SWAP1 JUMP JUMPDEST PUSH1 0x1 PUSH1 0x1 PUSH1 0xE0 SHL SUB NOT DUP2 AND JUMPDEST DUP2 EQ PUSH2 0xDA1 JUMPI PUSH1 0x0 DUP1 REVERT JUMPDEST DUP1 CALLDATALOAD PUSH2 0x499 DUP2 PUSH2 0x309E JUMP JUMPDEST PUSH1 0x0 PUSH1 0x20 DUP3 DUP5 SUB SLT ISZERO PUSH2 0x30D5 JUMPI PUSH2 0x30D5 PUSH1 0x0 DUP1 REVERT JUMPDEST PUSH2 0x2EB1 DUP4 DUP4 PUSH2 0x30B5 JUMP JUMPDEST DUP1 ISZERO ISZERO JUMPDEST DUP3 MSTORE POP POP JUMP JUMPDEST PUSH1 0x20 DUP2 ADD PUSH2 0x499 DUP3 DUP5 PUSH2 0x30DF JUMP JUMPDEST DUP1 PUSH2 0x30AA JUMP JUMPDEST DUP1 CALLDATALOAD PUSH2 0x499 DUP2 PUSH2 0x30F7 JUMP JUMPDEST PUSH1 0x0 PUSH1 0x20 DUP3 DUP5 SUB SLT ISZERO PUSH2 0x311D JUMPI PUSH2 0x311D PUSH1 0x0 DUP1 REVERT JUMPDEST PUSH2 0x2EB1 DUP4 DUP4 PUSH2 0x30FD JUMP JUMPDEST PUSH1 0x0 PUSH1 0x1 PUSH1 0x1 PUSH1 0xA0 SHL SUB DUP3 AND PUSH2 0x499 JUMP JUMPDEST PUSH2 0x30AA DUP2 PUSH2 0x3127 JUMP JUMPDEST DUP1 CALLDATALOAD PUSH2 0x499 DUP2 PUSH2 0x3138 JUMP JUMPDEST DUP1 ISZERO ISZERO PUSH2 0x30AA JUMP JUMPDEST DUP1 CALLDATALOAD PUSH2 0x499 DUP2 PUSH2 0x314C JUMP JUMPDEST PUSH1 0x0 DUP1 PUSH1 0x40 DUP4 DUP6 SUB SLT ISZERO PUSH2 0x3175 JUMPI PUSH2 0x3175 PUSH1 0x0 DUP1 REVERT JUMPDEST PUSH2 0x317F DUP5 DUP5 PUSH2 0x3141 JUMP JUMPDEST SWAP2 POP PUSH2 0x318E DUP5 PUSH1 0x20 DUP6 ADD PUSH2 0x3154 JUMP JUMPDEST SWAP1 POP SWAP3 POP SWAP3 SWAP1 POP JUMP JUMPDEST DUP1 PUSH2 0x30E3 JUMP JUMPDEST PUSH1 0x20 DUP2 ADD PUSH2 0x499 DUP3 DUP5 PUSH2 0x3197 JUMP JUMPDEST PUSH1 0x0 DUP1 DUP4 PUSH1 0x1F DUP5 ADD SLT PUSH2 0x31C0 JUMPI PUSH2 0x31C0 PUSH1 0x0 DUP1 REVERT JUMPDEST POP DUP2 CALLDATALOAD PUSH1 0x1 PUSH1 0x1 PUSH1 0x40 SHL SUB DUP2 GT ISZERO PUSH2 0x31DA JUMPI PUSH2 0x31DA PUSH1 0x0 DUP1 REVERT JUMPDEST PUSH1 0x20 DUP4 ADD SWAP2 POP DUP4 PUSH1 0x1 DUP3 MUL DUP4 ADD GT ISZERO PUSH2 0x31F5 JUMPI PUSH2 0x31F5 PUSH1 0x0 DUP1 REVERT JUMPDEST SWAP3 POP SWAP3 SWAP1 POP JUMP JUMPDEST PUSH1 0x0 DUP1 PUSH1 0x0 DUP1 PUSH1 0x60 DUP6 DUP8 SUB SLT ISZERO PUSH2 0x3215 JUMPI PUSH2 0x3215 PUSH1 0x0 DUP1 REVERT JUMPDEST PUSH2 0x321F DUP7 DUP7 PUSH2 0x30FD JUMP JUMPDEST SWAP4 POP PUSH2 0x322E DUP7 PUSH1 0x20 DUP8 ADD PUSH2 0x3154 JUMP JUMPDEST SWAP3 POP PUSH1 0x40 DUP6 ADD CALLDATALOAD PUSH1 0x1 PUSH1 0x1 PUSH1 0x40 SHL SUB DUP2 GT ISZERO PUSH2 0x324C JUMPI PUSH2 0x324C PUSH1 0x0 DUP1 REVERT JUMPDEST PUSH2 0x3258 DUP8 DUP3 DUP9 ADD PUSH2 0x31AB JUMP JUMPDEST SWAP6 SWAP9 SWAP5 SWAP8 POP SWAP6 POP POP POP POP JUMP JUMPDEST PUSH1 0x0 DUP1 PUSH1 0x40 DUP4 DUP6 SUB SLT ISZERO PUSH2 0x327A JUMPI PUSH2 0x327A PUSH1 0x0 DUP1 REVERT JUMPDEST PUSH2 0x3284 DUP5 DUP5 PUSH2 0x30FD JUMP JUMPDEST SWAP2 POP PUSH2 0x318E DUP5 PUSH1 0x20 DUP6 ADD PUSH2 0x3141 JUMP JUMPDEST PUSH4 0x4E487B71 PUSH1 0xE0 SHL PUSH1 0x0 MSTORE PUSH1 0x21 PUSH1 0x4 MSTORE PUSH1 0x24 PUSH1 0x0 REVERT JUMPDEST PUSH1 0x7 DUP2 LT PUSH2 0xDA1 JUMPI PUSH2 0xDA1 PUSH2 0x3293 JUMP JUMPDEST DUP1 PUSH2 0x2179 DUP2 PUSH2 0x32A9 JUMP JUMPDEST PUSH1 0x0 PUSH2 0x499 DUP3 PUSH2 0x32B9 JUMP JUMPDEST PUSH2 0x30E3 DUP2 PUSH2 0x32C3 JUMP JUMPDEST PUSH1 0x20 DUP2 ADD PUSH2 0x499 DUP3 DUP5 PUSH2 0x32CE JUMP JUMPDEST PUSH1 0x0 DUP1 PUSH1 0x0 PUSH1 0x40 DUP5 DUP7 SUB SLT ISZERO PUSH2 0x32FD JUMPI PUSH2 0x32FD PUSH1 0x0 DUP1 REVERT JUMPDEST PUSH2 0x3307 DUP6 DUP6 PUSH2 0x30FD JUMP JUMPDEST SWAP3 POP PUSH1 0x20 DUP5 ADD CALLDATALOAD PUSH1 0x1 PUSH1 0x1 PUSH1 0x40 SHL SUB DUP2 GT ISZERO PUSH2 0x3325 JUMPI PUSH2 0x3325 PUSH1 0x0 DUP1 REVERT JUMPDEST PUSH2 0x3331 DUP7 DUP3 DUP8 ADD PUSH2 0x31AB JUMP JUMPDEST SWAP3 POP SWAP3 POP POP SWAP3 POP SWAP3 POP SWAP3 JUMP JUMPDEST PUSH2 0x30E3 DUP2 PUSH2 0x3127 JUMP JUMPDEST PUSH1 0x0 JUMPDEST DUP4 DUP2 LT ISZERO PUSH2 0x3361 JUMPI DUP2 DUP2 ADD MLOAD DUP4 DUP3 ADD MSTORE PUSH1 0x20 ADD PUSH2 0x3349 JUMP JUMPDEST POP POP PUSH1 0x0 SWAP2 ADD MSTORE JUMP JUMPDEST PUSH1 0x1F ADD PUSH1 0x1F NOT AND SWAP1 JUMP JUMPDEST PUSH1 0x0 PUSH2 0x337E DUP3 MLOAD SWAP1 JUMP JUMPDEST DUP1 DUP5 MSTORE PUSH1 0x20 DUP5 ADD SWAP4 POP PUSH2 0x3395 DUP2 DUP6 PUSH1 0x20 DUP7 ADD PUSH2 0x3346 JUMP JUMPDEST PUSH2 0x339E DUP2 PUSH2 0x336A JUMP JUMPDEST SWAP1 SWAP4 ADD SWAP4 SWAP3 POP POP POP JUMP JUMPDEST DUP1 MLOAD PUSH1 0xA0 DUP1 DUP5 MSTORE PUSH1 0x0 SWAP2 SWAP1 DUP5 ADD SWAP1 PUSH2 0x33C0 DUP3 DUP3 PUSH2 0x3374 JUMP JUMPDEST SWAP2 POP POP PUSH1 0x20 DUP4 ADD MLOAD DUP5 DUP3 SUB PUSH1 0x20 DUP7 ADD MSTORE PUSH2 0x33DA DUP3 DUP3 PUSH2 0x3374 JUMP JUMPDEST SWAP2 POP POP PUSH1 0x40 DUP4 ADD MLOAD PUSH2 0x33EF PUSH1 0x40 DUP7 ADD DUP3 PUSH2 0x3197 JUMP JUMPDEST POP PUSH1 0x60 DUP4 ADD MLOAD DUP5 DUP3 SUB PUSH1 0x60 DUP7 ADD MSTORE PUSH2 0x3407 DUP3 DUP3 PUSH2 0x3374 JUMP JUMPDEST SWAP2 POP POP PUSH1 0x80 DUP4 ADD MLOAD PUSH2 0x341C PUSH1 0x80 DUP7 ADD DUP3 PUSH2 0x30DF JUMP JUMPDEST POP SWAP4 SWAP3 POP POP POP JUMP JUMPDEST DUP1 MLOAD PUSH1 0x0 SWAP1 PUSH2 0x240 DUP5 ADD SWAP1 PUSH2 0x3439 DUP6 DUP3 PUSH2 0x3197 JUMP JUMPDEST POP PUSH1 0x20 DUP4 ADD MLOAD PUSH2 0x344C PUSH1 0x20 DUP7 ADD DUP3 PUSH2 0x333D JUMP JUMPDEST POP PUSH1 0x40 DUP4 ADD MLOAD PUSH2 0x345F PUSH1 0x40 DUP7 ADD DUP3 PUSH2 0x333D JUMP JUMPDEST POP PUSH1 0x60 DUP4 ADD MLOAD PUSH2 0x3472 PUSH1 0x60 DUP7 ADD DUP3 PUSH2 0x333D JUMP JUMPDEST POP PUSH1 0x80 DUP4 ADD MLOAD PUSH2 0x3485 PUSH1 0x80 DUP7 ADD DUP3 PUSH2 0x333D JUMP JUMPDEST POP PUSH1 0xA0 DUP4 ADD MLOAD PUSH2 0x3498 PUSH1 0xA0 DUP7 ADD DUP3 PUSH2 0x333D JUMP JUMPDEST POP PUSH1 0xC0 DUP4 ADD MLOAD PUSH2 0x34AB PUSH1 0xC0 DUP7 ADD DUP3 PUSH2 0x3197 JUMP JUMPDEST POP PUSH1 0xE0 DUP4 ADD MLOAD PUSH2 0x34BE PUSH1 0xE0 DUP7 ADD DUP3 PUSH2 0x3197 JUMP JUMPDEST POP PUSH2 0x100 DUP4 ADD MLOAD PUSH2 0x34D3 PUSH2 0x100 DUP7 ADD DUP3 PUSH2 0x3197 JUMP JUMPDEST POP PUSH2 0x120 DUP4 ADD MLOAD PUSH2 0x34E8 PUSH2 0x120 DUP7 ADD DUP3 PUSH2 0x32CE JUMP JUMPDEST POP PUSH2 0x140 DUP4 ADD MLOAD DUP5 DUP3 SUB PUSH2 0x140 DUP7 ADD MSTORE PUSH2 0x3502 DUP3 DUP3 PUSH2 0x33A8 JUMP JUMPDEST SWAP2 POP POP PUSH2 0x160 DUP4 ADD MLOAD PUSH2 0x3519 PUSH2 0x160 DUP7 ADD DUP3 PUSH2 0x3197 JUMP JUMPDEST POP PUSH2 0x180 DUP4 ADD MLOAD PUSH2 0x352E PUSH2 0x180 DUP7 ADD DUP3 PUSH2 0x3197 JUMP JUMPDEST POP PUSH2 0x1A0 DUP4 ADD MLOAD PUSH2 0x3543 PUSH2 0x1A0 DUP7 ADD DUP3 PUSH2 0x3197 JUMP JUMPDEST POP PUSH2 0x1C0 DUP4 ADD MLOAD PUSH2 0x3558 PUSH2 0x1C0 DUP7 ADD DUP3 PUSH2 0x30DF JUMP JUMPDEST POP PUSH2 0x1E0 DUP4 ADD MLOAD PUSH2 0x356D PUSH2 0x1E0 DUP7 ADD DUP3 PUSH2 0x30DF JUMP JUMPDEST POP PUSH2 0x200 DUP4 ADD MLOAD PUSH2 0x3582 PUSH2 0x200 DUP7 ADD DUP3 PUSH2 0x30DF JUMP JUMPDEST POP PUSH2 0x220 DUP4 ADD MLOAD DUP5 DUP3 SUB PUSH2 0x220 DUP7 ADD MSTORE PUSH2 0x359C DUP3 DUP3 PUSH2 0x3374 JUMP JUMPDEST SWAP6 SWAP5 POP POP POP POP POP JUMP JUMPDEST PUSH1 0x20 DUP1 DUP3 MSTORE DUP2 ADD PUSH2 0x2EB1 DUP2 DUP5 PUSH2 0x3424 JUMP JUMPDEST PUSH1 0x0 PUSH2 0x160 DUP3 DUP5 SUB SLT ISZERO PUSH2 0x8D5 JUMPI PUSH2 0x8D5 PUSH1 0x0 DUP1 REVERT JUMPDEST PUSH1 0x0 PUSH1 0x20 DUP3 DUP5 SUB SLT ISZERO PUSH2 0x35E1 JUMPI PUSH2 0x35E1 PUSH1 0x0 DUP1 REVERT JUMPDEST DUP2 CALLDATALOAD PUSH1 0x1 PUSH1 0x1 PUSH1 0x40 SHL SUB DUP2 GT ISZERO PUSH2 0x35FA JUMPI PUSH2 0x35FA PUSH1 0x0 DUP1 REVERT JUMPDEST PUSH2 0x2EC7 DUP5 DUP3 DUP6 ADD PUSH2 0x35B6 JUMP JUMPDEST PUSH1 0x0 DUP1 PUSH1 0x40 DUP4 DUP6 SUB SLT ISZERO PUSH2 0x361C JUMPI PUSH2 0x361C PUSH1 0x0 DUP1 REVERT JUMPDEST PUSH2 0x3626 DUP5 DUP5 PUSH2 0x3141 JUMP JUMPDEST SWAP2 POP PUSH2 0x318E DUP5 PUSH1 0x20 DUP6 ADD PUSH2 0x30FD JUMP JUMPDEST PUSH1 0x0 PUSH1 0x20 DUP3 DUP5 SUB SLT ISZERO PUSH2 0x364A JUMPI PUSH2 0x364A PUSH1 0x0 DUP1 REVERT JUMPDEST PUSH2 0x2EB1 DUP4 DUP4 PUSH2 0x3141 JUMP JUMPDEST PUSH1 0x20 DUP2 ADD PUSH2 0x499 DUP3 DUP5 PUSH2 0x333D JUMP JUMPDEST PUSH4 0x4E487B71 PUSH1 0xE0 SHL PUSH1 0x0 MSTORE PUSH1 0x22 PUSH1 0x4 MSTORE PUSH1 0x24 PUSH1 0x0 REVERT JUMPDEST PUSH1 0x2 DUP2 DIV PUSH1 0x1 DUP3 AND DUP1 PUSH2 0x368C JUMPI PUSH1 0x7F DUP3 AND SWAP2 POP JUMPDEST PUSH1 0x20 DUP3 LT DUP2 SUB PUSH2 0x8D5 JUMPI PUSH2 0x8D5 PUSH2 0x3662 JUMP JUMPDEST PUSH1 0xC DUP2 MSTORE PUSH1 0x20 DUP2 ADD PUSH12 0x8CCACA40E8DEDE40D0D2CED PUSH1 0xA3 SHL DUP2 MSTORE SWAP1 POP JUMPDEST PUSH1 0x20 ADD SWAP1 JUMP JUMPDEST PUSH1 0x20 DUP1 DUP3 MSTORE DUP2 ADD PUSH2 0x499 DUP2 PUSH2 0x369E JUMP JUMPDEST PUSH1 0x16 DUP2 MSTORE PUSH1 0x20 DUP2 ADD PUSH22 0x109D5E595C88185B1C9958591E48185C1C1C9BDD9959 PUSH1 0x52 SHL DUP2 MSTORE SWAP1 POP PUSH2 0x36BB JUMP JUMPDEST PUSH1 0x20 DUP1 DUP3 MSTORE DUP2 ADD PUSH2 0x499 DUP2 PUSH2 0x36D1 JUMP JUMPDEST PUSH1 0x17 DUP2 MSTORE PUSH1 0x20 DUP2 ADD PUSH23 0x14D95B1B195C88185B1C9958591E48185C1C1C9BDD9959 PUSH1 0x4A SHL DUP2 MSTORE SWAP1 POP PUSH2 0x36BB JUMP JUMPDEST PUSH1 0x20 DUP1 DUP3 MSTORE DUP2 ADD PUSH2 0x499 DUP2 PUSH2 0x370C JUMP JUMPDEST PUSH1 0x16 DUP2 MSTORE PUSH1 0x20 DUP2 ADD PUSH22 0x1059D95B9D08185B1C9958591E48185C1C1C9BDD9959 PUSH1 0x52 SHL DUP2 MSTORE SWAP1 POP PUSH2 0x36BB JUMP JUMPDEST PUSH1 0x20 DUP1 DUP3 MSTORE DUP2 ADD PUSH2 0x499 DUP2 PUSH2 0x3748 JUMP JUMPDEST PUSH1 0x19 DUP2 MSTORE PUSH1 0x20 DUP2 ADD PUSH25 0x4E6F7420617574686F72697A656420746F20617070726F7665 PUSH1 0x38 SHL DUP2 MSTORE SWAP1 POP PUSH2 0x36BB JUMP JUMPDEST PUSH1 0x20 DUP1 DUP3 MSTORE DUP2 ADD PUSH2 0x499 DUP2 PUSH2 0x3783 JUMP JUMPDEST PUSH1 0x5 DUP2 LT PUSH2 0xDA1 JUMPI PUSH2 0xDA1 PUSH2 0x3293 JUMP JUMPDEST DUP1 PUSH2 0x2179 DUP2 PUSH2 0x37C1 JUMP JUMPDEST PUSH1 0x0 PUSH2 0x499 DUP3 PUSH2 0x37D1 JUMP JUMPDEST PUSH2 0x30E3 DUP2 PUSH2 0x37DB JUMP JUMPDEST PUSH1 0x20 DUP2 ADD PUSH2 0x499 DUP3 DUP5 PUSH2 0x37E6 JUMP JUMPDEST PUSH1 0x60 DUP2 ADD PUSH2 0x380B DUP3 DUP7 PUSH2 0x3197 JUMP JUMPDEST PUSH2 0x3818 PUSH1 0x20 DUP4 ADD DUP6 PUSH2 0x32CE JUMP JUMPDEST PUSH2 0x2EC7 PUSH1 0x40 DUP4 ADD DUP5 PUSH2 0x32CE JUMP JUMPDEST PUSH1 0x21 DUP2 MSTORE PUSH1 0x20 DUP2 ADD PUSH32 0x4F6E6C792061726269746572206F722061646D696E2063616E207265736F6C76 DUP2 MSTORE PUSH1 0x65 PUSH1 0xF8 SHL PUSH1 0x20 DUP3 ADD MSTORE SWAP1 POP JUMPDEST PUSH1 0x40 ADD SWAP1 JUMP JUMPDEST PUSH1 0x20 DUP1 DUP3 MSTORE DUP2 ADD PUSH2 0x499 DUP2 PUSH2 0x3825 JUMP JUMPDEST PUSH4 0x4E487B71 PUSH1 0xE0 SHL PUSH1 0x0 MSTORE PUSH1 0x41 PUSH1 0x4 MSTORE PUSH1 0x24 PUSH1 0x0 REVERT JUMPDEST PUSH1 0x0 PUSH2 0x499 PUSH2 0x3895 DUP4 DUP2 JUMP JUMPDEST SWAP1 JUMP JUMPDEST PUSH2 0x38A1 DUP4 PUSH2 0x3889 JUMP JUMPDEST DUP2 SLOAD PUSH1 0x0 NOT PUSH1 0x8 SWAP5 SWAP1 SWAP5 MUL SWAP4 DUP5 SHL NOT AND SWAP3 SHL SWAP2 SWAP1 SWAP2 OR SWAP1 SSTORE POP JUMP JUMPDEST PUSH1 0x0 PUSH2 0xCE9 DUP2 DUP5 DUP5 PUSH2 0x3898 JUMP JUMPDEST DUP2 DUP2 LT ISZERO PUSH2 0xD20 JUMPI PUSH2 0x38DC PUSH1 0x0 DUP3 PUSH2 0x38BC JUMP JUMPDEST PUSH1 0x1 ADD PUSH2 0x38C9 JUMP JUMPDEST PUSH1 0x1F DUP3 GT ISZERO PUSH2 0xCE9 JUMPI PUSH1 0x0 DUP2 DUP2 MSTORE PUSH1 0x20 SWAP1 KECCAK256 PUSH1 0x20 PUSH1 0x1F DUP6 ADD DIV DUP2 ADD PUSH1 0x20 DUP6 LT ISZERO PUSH2 0x390B JUMPI POP DUP1 JUMPDEST PUSH2 0x391D PUSH1 0x20 PUSH1 0x1F DUP7 ADD DIV DUP4 ADD DUP3 PUSH2 0x38C9 JUMP JUMPDEST POP POP POP POP POP JUMP JUMPDEST PUSH1 0x0 NOT PUSH1 0x8 SWAP3 SWAP1 SWAP3 MUL SWAP2 SWAP1 SWAP2 SHR NOT AND SWAP1 JUMP JUMPDEST PUSH2 0x3940 DUP3 DUP3 PUSH2 0x3924 JUMP JUMPDEST PUSH1 0x2 SWAP1 SWAP3 MUL SWAP1 SWAP2 OR SWAP2 SWAP1 POP JUMP JUMPDEST DUP3 PUSH1 0x1 PUSH1 0x1 PUSH1 0x40 SHL SUB DUP2 GT ISZERO PUSH2 0x3965 JUMPI PUSH2 0x3965 PUSH2 0x3873 JUMP JUMPDEST PUSH2 0x396F DUP3 SLOAD PUSH2 0x3678 JUMP JUMPDEST PUSH2 0x397A DUP3 DUP3 DUP6 PUSH2 0x38E4 JUMP JUMPDEST POP PUSH1 0x0 PUSH1 0x1F DUP3 GT PUSH1 0x1 DUP2 EQ PUSH2 0x39A9 JUMPI PUSH1 0x0 DUP4 ISZERO PUSH2 0x3997 JUMPI POP DUP5 DUP3 ADD CALLDATALOAD JUMPDEST PUSH2 0x39A1 DUP5 DUP3 PUSH2 0x3936 JUMP JUMPDEST DUP6 SSTORE POP PUSH2 0x3A02 JUMP JUMPDEST PUSH1 0x0 DUP5 DUP2 MSTORE PUSH1 0x20 SWAP1 KECCAK256 PUSH1 0x1F NOT DUP5 AND SWAP1 DUP4 JUMPDEST DUP3 DUP2 LT ISZERO PUSH2 0x39DA JUMPI DUP8 DUP6 ADD CALLDATALOAD DUP3 SSTORE PUSH1 0x20 SWAP5 DUP6 ADD SWAP5 PUSH1 0x1 SWAP1 SWAP3 ADD SWAP2 ADD PUSH2 0x39BA JUMP JUMPDEST POP DUP5 DUP3 LT ISZERO PUSH2 0x39F6 JUMPI PUSH2 0x39F3 PUSH1 0x1F DUP7 AND DUP6 DUP10 ADD CALLDATALOAD PUSH2 0x3924 JUMP JUMPDEST DUP2 SSTORE JUMPDEST POP POP PUSH1 0x1 PUSH1 0x2 DUP5 MUL ADD DUP5 SSTORE JUMPDEST POP POP POP POP POP POP JUMP JUMPDEST DUP3 DUP2 DUP4 CALLDATACOPY POP PUSH1 0x0 SWAP2 ADD MSTORE JUMP JUMPDEST DUP2 DUP4 MSTORE PUSH1 0x20 DUP4 ADD SWAP3 POP PUSH2 0x3A2A DUP3 DUP5 DUP4 PUSH2 0x3A0A JUMP JUMPDEST POP PUSH1 0x0 PUSH2 0x3A36 DUP3 PUSH2 0x336A JUMP JUMPDEST SWAP1 SWAP3 ADD SWAP3 SWAP2 POP POP JUMP JUMPDEST PUSH1 0x20 DUP1 DUP3 MSTORE DUP2 ADD PUSH2 0x2EC7 DUP2 DUP5 DUP7 PUSH2 0x3A16 JUMP JUMPDEST PUSH1 0x2F DUP2 MSTORE PUSH1 0x20 DUP2 ADD PUSH32 0x416363657373436F6E74726F6C3A2063616E206F6E6C792072656E6F756E6365 DUP2 MSTORE PUSH15 0x103937B632B9903337B91039B2B633 PUSH1 0x89 SHL PUSH1 0x20 DUP3 ADD MSTORE SWAP1 POP PUSH2 0x385D JUMP JUMPDEST PUSH1 0x20 DUP1 DUP3 MSTORE DUP2 ADD PUSH2 0x499 DUP2 PUSH2 0x3A51 JUMP JUMPDEST PUSH1 0x15 DUP2 MSTORE PUSH1 0x20 DUP2 ADD PUSH21 0x13DB9B1E4818591B5A5B8818D85B881C99599D5B99 PUSH1 0x5A SHL DUP2 MSTORE SWAP1 POP PUSH2 0x36BB JUMP JUMPDEST PUSH1 0x20 DUP1 DUP3 MSTORE DUP2 ADD PUSH2 0x499 DUP2 PUSH2 0x3AAB JUMP JUMPDEST PUSH1 0x16 DUP2 MSTORE PUSH1 0x20 DUP2 ADD PUSH22 0x13DB9B1E48189D5E595C8818D85B8819195C1BDCDA5D PUSH1 0x52 SHL DUP2 MSTORE SWAP1 POP PUSH2 0x36BB JUMP JUMPDEST PUSH1 0x20 DUP1 DUP3 MSTORE DUP2 ADD PUSH2 0x499 DUP2 PUSH2 0x3AE5 JUMP JUMPDEST PUSH1 0x17 DUP2 MSTORE PUSH1 0x20 DUP2 ADD PUSH23 0x11195C1BDCDA5D08191958591B1A5B99481C185CDCD959 PUSH1 0x4A SHL DUP2 MSTORE SWAP1 POP PUSH2 0x36BB JUMP JUMPDEST PUSH1 0x20 DUP1 DUP3 MSTORE DUP2 ADD PUSH2 0x499 DUP2 PUSH2 0x3B20 JUMP JUMPDEST PUSH1 0x1E DUP2 MSTORE PUSH1 0x20 DUP2 ADD PUSH32 0x4F6E6C79206167656E74206F722061646D696E2063616E207665726966790000 DUP2 MSTORE SWAP1 POP PUSH2 0x36BB JUMP JUMPDEST PUSH1 0x20 DUP1 DUP3 MSTORE DUP2 ADD PUSH2 0x499 DUP2 PUSH2 0x3B5C JUMP JUMPDEST PUSH1 0x1C DUP2 MSTORE PUSH1 0x20 DUP2 ADD PUSH28 0x15995C9A599A58D85D1A5BDB88191958591B1A5B99481C185CDCD959 PUSH1 0x22 SHL DUP2 MSTORE SWAP1 POP PUSH2 0x36BB JUMP JUMPDEST PUSH1 0x20 DUP1 DUP3 MSTORE DUP2 ADD PUSH2 0x499 DUP2 PUSH2 0x3B9E JUMP JUMPDEST PUSH1 0x1A DUP2 MSTORE PUSH1 0x20 DUP2 ADD PUSH26 0x14995B19585CD94818DBDB991A5D1A5BDB9CC81B9BDD081B595D PUSH1 0x32 SHL DUP2 MSTORE SWAP1 POP PUSH2 0x36BB JUMP JUMPDEST PUSH1 0x20 DUP1 DUP3 MSTORE DUP2 ADD PUSH2 0x499 DUP2 PUSH2 0x3BDF JUMP JUMPDEST PUSH4 0x4E487B71 PUSH1 0xE0 SHL PUSH1 0x0 MSTORE PUSH1 0x11 PUSH1 0x4 MSTORE PUSH1 0x24 PUSH1 0x0 REVERT JUMPDEST DUP2 DUP2 MUL DUP2 ISZERO DUP3 DUP3 DIV DUP5 EQ OR PUSH2 0x499 JUMPI PUSH2 0x499 PUSH2 0x3C1E JUMP JUMPDEST PUSH4 0x4E487B71 PUSH1 0xE0 SHL PUSH1 0x0 MSTORE PUSH1 0x12 PUSH1 0x4 MSTORE PUSH1 0x24 PUSH1 0x0 REVERT JUMPDEST PUSH1 0x0 DUP3 PUSH2 0x3C70 JUMPI PUSH2 0x3C70 PUSH2 0x3C4B JUMP JUMPDEST POP DIV SWAP1 JUMP JUMPDEST DUP2 DUP2 SUB DUP2 DUP2 GT ISZERO PUSH2 0x499 JUMPI PUSH2 0x499 PUSH2 0x3C1E JUMP JUMPDEST PUSH1 0x12 DUP2 MSTORE PUSH1 0x20 DUP2 ADD PUSH18 0x195CD8DC9BDDC81C185C9D1A58DA5C185B9D PUSH1 0x72 SHL DUP2 MSTORE SWAP1 POP PUSH2 0x36BB JUMP JUMPDEST PUSH1 0x40 DUP2 ADD PUSH2 0x3CBD DUP3 DUP5 PUSH2 0x333D JUMP JUMPDEST DUP2 DUP2 SUB PUSH1 0x20 DUP4 ADD MSTORE PUSH2 0x2EB1 DUP2 PUSH2 0x3C88 JUMP JUMPDEST PUSH1 0x1F DUP2 MSTORE PUSH1 0x20 DUP2 ADD PUSH32 0x43616E6E6F74206469737075746520696E2063757272656E7420737461746500 DUP2 MSTORE SWAP1 POP PUSH2 0x36BB JUMP JUMPDEST PUSH1 0x20 DUP1 DUP3 MSTORE DUP2 ADD PUSH2 0x499 DUP2 PUSH2 0x3CCE JUMP JUMPDEST PUSH1 0x17 DUP2 MSTORE PUSH1 0x20 DUP2 ADD PUSH23 0x111A5CDC1D5D19481C99585CDBDB881C995C5D5A5C9959 PUSH1 0x4A SHL DUP2 MSTORE SWAP1 POP PUSH2 0x36BB JUMP JUMPDEST PUSH1 0x20 DUP1 DUP3 MSTORE DUP2 ADD PUSH2 0x499 DUP2 PUSH2 0x3D10 JUMP JUMPDEST DUP2 MLOAD PUSH1 0x1 PUSH1 0x1 PUSH1 0x40 SHL SUB DUP2 GT ISZERO PUSH2 0x3D65 JUMPI PUSH2 0x3D65 PUSH2 0x3873 JUMP JUMPDEST PUSH2 0x3D6F DUP3 SLOAD PUSH2 0x3678 JUMP JUMPDEST PUSH2 0x3D7A DUP3 DUP3 DUP6 PUSH2 0x38E4 JUMP JUMPDEST POP PUSH1 0x20 PUSH1 0x1F DUP3 GT PUSH1 0x1 DUP2 EQ PUSH2 0x3DA9 JUMPI PUSH1 0x0 DUP4 ISZERO PUSH2 0x3D97 JUMPI POP DUP5 DUP3 ADD MLOAD JUMPDEST PUSH2 0x3DA1 DUP5 DUP3 PUSH2 0x3936 JUMP JUMPDEST DUP6 SSTORE POP PUSH2 0x391D JUMP JUMPDEST PUSH1 0x0 DUP5 DUP2 MSTORE PUSH1 0x20 DUP2 KECCAK256 PUSH1 0x1F NOT DUP6 AND SWAP2 JUMPDEST DUP3 DUP2 LT ISZERO PUSH2 0x3DD9 JUMPI DUP8 DUP6 ADD MLOAD DUP3 SSTORE PUSH1 0x20 SWAP5 DUP6 ADD SWAP5 PUSH1 0x1 SWAP1 SWAP3 ADD SWAP2 ADD PUSH2 0x3DB9 JUMP JUMPDEST POP DUP5 DUP3 LT ISZERO PUSH2 0x3DF7 JUMPI DUP4 DUP8 ADD MLOAD PUSH2 0x3DF3 PUSH1 0x1F DUP8 AND DUP3 PUSH2 0x3924 JUMP JUMPDEST DUP3 SSTORE POP JUMPDEST POP POP POP POP PUSH1 0x2 MUL PUSH1 0x1 ADD SWAP1 SSTORE POP JUMP JUMPDEST PUSH1 0x15 DUP2 MSTORE PUSH1 0x20 DUP2 ADD PUSH21 0x496E76616C69642062757965722061646472657373 PUSH1 0x58 SHL DUP2 MSTORE SWAP1 POP PUSH2 0x36BB JUMP JUMPDEST PUSH1 0x20 DUP1 DUP3 MSTORE DUP2 ADD PUSH2 0x499 DUP2 PUSH2 0x3E06 JUMP JUMPDEST PUSH1 0x16 DUP2 MSTORE PUSH1 0x20 DUP2 ADD PUSH22 0x496E76616C69642073656C6C65722061646472657373 PUSH1 0x50 SHL DUP2 MSTORE SWAP1 POP PUSH2 0x36BB JUMP JUMPDEST PUSH1 0x20 DUP1 DUP3 MSTORE DUP2 ADD PUSH2 0x499 DUP2 PUSH2 0x3E40 JUMP JUMPDEST PUSH1 0x22 DUP2 MSTORE PUSH1 0x20 DUP2 ADD PUSH32 0x427579657220616E642073656C6C6572206D7573742062652064696666657265 DUP2 MSTORE PUSH2 0x1B9D PUSH1 0xF2 SHL PUSH1 0x20 DUP3 ADD MSTORE SWAP1 POP PUSH2 0x385D JUMP JUMPDEST PUSH1 0x20 DUP1 DUP3 MSTORE DUP2 ADD PUSH2 0x499 DUP2 PUSH2 0x3E7B JUMP JUMPDEST PUSH1 0x15 DUP2 MSTORE PUSH1 0x20 DUP2 ADD PUSH21 0x496E76616C696420746F6B656E2061646472657373 PUSH1 0x58 SHL DUP2 MSTORE SWAP1 POP PUSH2 0x36BB JUMP JUMPDEST PUSH1 0x20 DUP1 DUP3 MSTORE DUP2 ADD PUSH2 0x499 DUP2 PUSH2 0x3EC8 JUMP JUMPDEST PUSH1 0x15 DUP2 MSTORE PUSH1 0x20 DUP2 ADD PUSH21 0x151BDAD95B881B9BDD081DDA1A5D195B1A5CDD1959 PUSH1 0x5A SHL DUP2 MSTORE SWAP1 POP PUSH2 0x36BB JUMP JUMPDEST PUSH1 0x20 DUP1 DUP3 MSTORE DUP2 ADD PUSH2 0x499 DUP2 PUSH2 0x3F02 JUMP JUMPDEST PUSH1 0x1F DUP2 MSTORE PUSH1 0x20 DUP2 ADD PUSH32 0x4465706F73697420616D6F756E74206D75737420626520706F73697469766500 DUP2 MSTORE SWAP1 POP PUSH2 0x36BB JUMP JUMPDEST PUSH1 0x20 DUP1 DUP3 MSTORE DUP2 ADD PUSH2 0x499 DUP2 PUSH2 0x3F3C JUMP JUMPDEST PUSH1 0x18 DUP2 MSTORE PUSH1 0x20 DUP2 ADD PUSH24 0x496E76616C6964206465706F73697420646561646C696E65 PUSH1 0x40 SHL DUP2 MSTORE SWAP1 POP PUSH2 0x36BB JUMP JUMPDEST PUSH1 0x20 DUP1 DUP3 MSTORE DUP2 ADD PUSH2 0x499 DUP2 PUSH2 0x3F7E JUMP JUMPDEST PUSH1 0x1D DUP2 MSTORE PUSH1 0x20 DUP2 ADD PUSH32 0x496E76616C696420766572696669636174696F6E20646561646C696E65000000 DUP2 MSTORE SWAP1 POP PUSH2 0x36BB JUMP JUMPDEST PUSH1 0x20 DUP1 DUP3 MSTORE DUP2 ADD PUSH2 0x499 DUP2 PUSH2 0x3FBB JUMP JUMPDEST PUSH1 0x0 DUP3 CALLDATALOAD PUSH1 0x9E NOT CALLDATASIZE DUP5 SWAP1 SUB ADD DUP2 SLT PUSH2 0x4017 JUMPI PUSH2 0x4017 PUSH1 0x0 DUP1 REVERT JUMPDEST SWAP2 SWAP1 SWAP2 ADD SWAP3 SWAP2 POP POP JUMP JUMPDEST PUSH1 0x0 DUP1 DUP4 CALLDATALOAD PUSH1 0x1E NOT CALLDATASIZE DUP6 SWAP1 SUB ADD DUP2 SLT PUSH2 0x403C JUMPI PUSH2 0x403C PUSH1 0x0 DUP1 REVERT JUMPDEST DUP4 ADD SWAP2 POP POP DUP1 CALLDATALOAD PUSH1 0x1 PUSH1 0x1 PUSH1 0x40 SHL SUB DUP2 GT ISZERO PUSH2 0x405A JUMPI PUSH2 0x405A PUSH1 0x0 DUP1 REVERT JUMPDEST PUSH1 0x20 DUP3 ADD SWAP2 POP PUSH1 0x1 DUP2 MUL CALLDATASIZE SUB DUP3 SGT ISZERO PUSH2 0x31F5 JUMPI PUSH2 0x31F5 PUSH1 0x0 DUP1 REVERT JUMPDEST PUSH1 0x14 DUP2 MSTORE PUSH1 0x20 DUP2 ADD PUSH20 0x141C9BDC195C9D1E481251081C995C5D5A5C9959 PUSH1 0x62 SHL DUP2 MSTORE SWAP1 POP PUSH2 0x36BB JUMP JUMPDEST PUSH1 0x20 DUP1 DUP3 MSTORE DUP2 ADD PUSH2 0x499 DUP2 PUSH2 0x4075 JUMP JUMPDEST PUSH1 0x0 PUSH1 0x1 DUP3 ADD PUSH2 0x40C0 JUMPI PUSH2 0x40C0 PUSH2 0x3C1E JUMP JUMPDEST POP PUSH1 0x1 ADD SWAP1 JUMP JUMPDEST PUSH2 0xCE9 DUP4 DUP4 DUP4 PUSH2 0x394D JUMP JUMPDEST PUSH1 0x0 DUP2 CALLDATALOAD PUSH2 0x499 DUP2 PUSH2 0x30F7 JUMP JUMPDEST PUSH2 0x40E8 DUP3 PUSH2 0x3889 JUMP JUMPDEST DUP1 JUMPDEST DUP3 SSTORE POP POP POP JUMP JUMPDEST PUSH1 0x0 DUP2 CALLDATALOAD PUSH2 0x499 DUP2 PUSH2 0x314C JUMP JUMPDEST PUSH1 0x0 DUP2 ISZERO ISZERO PUSH2 0x499 JUMP JUMPDEST PUSH2 0x4111 DUP3 PUSH2 0x40FE JUMP JUMPDEST DUP2 SLOAD PUSH1 0xFF NOT AND PUSH1 0xFF DUP3 AND OR PUSH2 0x40EA JUMP JUMPDEST PUSH2 0x412B DUP3 DUP1 PUSH2 0x4021 JUMP JUMPDEST PUSH2 0x4136 DUP2 DUP4 DUP6 PUSH2 0x40C7 JUMP JUMPDEST POP POP PUSH2 0x4145 PUSH1 0x20 DUP4 ADD DUP4 PUSH2 0x4021 JUMP JUMPDEST PUSH2 0x4153 DUP2 DUP4 PUSH1 0x1 DUP7 ADD PUSH2 0x40C7 JUMP JUMPDEST POP POP PUSH1 0x40 DUP3 ADD DUP1 PUSH2 0x4163 DUP3 PUSH2 0x40D2 JUMP JUMPDEST SWAP1 POP PUSH2 0x4172 DUP2 PUSH1 0x2 DUP6 ADD PUSH2 0x40DF JUMP JUMPDEST POP POP PUSH2 0x4181 PUSH1 0x60 DUP4 ADD DUP4 PUSH2 0x4021 JUMP JUMPDEST PUSH2 0x418F DUP2 DUP4 PUSH1 0x3 DUP7 ADD PUSH2 0x40C7 JUMP JUMPDEST POP POP PUSH1 0x80 DUP3 ADD DUP1 PUSH2 0x419F DUP3 PUSH2 0x40F1 JUMP JUMPDEST SWAP1 POP PUSH2 0xCC7 DUP2 PUSH1 0x4 DUP6 ADD PUSH2 0x4108 JUMP JUMPDEST PUSH2 0xD20 DUP3 DUP3 PUSH2 0x4121 JUMP JUMPDEST PUSH1 0x1F DUP2 MSTORE PUSH1 0x20 DUP2 ADD PUSH32 0x5265656E7472616E637947756172643A207265656E7472616E742063616C6C00 DUP2 MSTORE SWAP1 POP PUSH2 0x36BB JUMP JUMPDEST PUSH1 0x20 DUP1 DUP3 MSTORE DUP2 ADD PUSH2 0x499 DUP2 PUSH2 0x41B8 JUMP JUMPDEST PUSH1 0x10 DUP2 MSTORE PUSH1 0x20 DUP2 ADD PUSH16 0x14185D5CD8589B194E881C185D5CD959 PUSH1 0x82 SHL DUP2 MSTORE SWAP1 POP PUSH2 0x36BB JUMP JUMPDEST PUSH1 0x20 DUP1 DUP3 MSTORE DUP2 ADD PUSH2 0x499 DUP2 PUSH2 0x41FA JUMP JUMPDEST PUSH1 0x1E DUP2 MSTORE PUSH1 0x20 DUP2 ADD PUSH32 0x43616E6E6F7420726566756E6420696E2063757272656E742073746174650000 DUP2 MSTORE SWAP1 POP PUSH2 0x36BB JUMP JUMPDEST PUSH1 0x20 DUP1 DUP3 MSTORE DUP2 ADD PUSH2 0x499 DUP2 PUSH2 0x422F JUMP JUMPDEST PUSH1 0x60 DUP2 ADD PUSH2 0x427F DUP3 DUP7 PUSH2 0x333D JUMP JUMPDEST PUSH2 0x428C PUSH1 0x20 DUP4 ADD DUP6 PUSH2 0x333D JUMP JUMPDEST PUSH2 0x2EC7 PUSH1 0x40 DUP4 ADD DUP5 PUSH2 0x3197 JUMP JUMPDEST PUSH1 0x40 DUP2 ADD PUSH2 0x42A7 DUP3 DUP6 PUSH2 0x333D JUMP JUMPDEST PUSH2 0x2EB1 PUSH1 0x20 DUP4 ADD DUP5 PUSH2 0x3197 JUMP JUMPDEST PUSH1 0x0 PUSH2 0x42BE DUP3 MLOAD SWAP1 JUMP JUMPDEST PUSH2 0x42CC DUP2 DUP6 PUSH1 0x20 DUP7 ADD PUSH2 0x3346 JUMP JUMPDEST SWAP3 SWAP1 SWAP3 ADD SWAP3 SWAP2 POP POP JUMP JUMPDEST PUSH23 0x20B1B1B2B9B9A1B7B73A3937B61D1030B1B1B7BAB73A1 PUSH1 0x4D SHL DUP2 MSTORE PUSH1 0x17 ADD PUSH2 0x4300 DUP2 DUP5 PUSH2 0x42B4 JUMP JUMPDEST PUSH17 0x1034B99036B4B9B9B4B733903937B6329 PUSH1 0x7D SHL DUP2 MSTORE PUSH1 0x11 ADD SWAP1 POP PUSH2 0x2EB1 DUP2 DUP4 PUSH2 0x42B4 JUMP JUMPDEST PUSH1 0x20 DUP1 DUP3 MSTORE DUP2 ADD PUSH2 0x2EB1 DUP2 DUP5 PUSH2 0x3374 JUMP JUMPDEST DUP1 MLOAD PUSH2 0x499 DUP2 PUSH2 0x314C JUMP JUMPDEST PUSH1 0x0 PUSH1 0x20 DUP3 DUP5 SUB SLT ISZERO PUSH2 0x4357 JUMPI PUSH2 0x4357 PUSH1 0x0 DUP1 REVERT JUMPDEST PUSH2 0x2EB1 DUP4 DUP4 PUSH2 0x4337 JUMP JUMPDEST PUSH1 0x2A DUP2 MSTORE PUSH1 0x20 DUP2 ADD PUSH32 0x5361666545524332303A204552433230206F7065726174696F6E20646964206E DUP2 MSTORE PUSH10 0x1BDD081CDD58D8D95959 PUSH1 0xB2 SHL PUSH1 0x20 DUP3 ADD MSTORE SWAP1 POP PUSH2 0x385D JUMP JUMPDEST PUSH1 0x20 DUP1 DUP3 MSTORE DUP2 ADD PUSH2 0x499 DUP2 PUSH2 0x4361 JUMP JUMPDEST PUSH1 0x14 DUP2 MSTORE PUSH1 0x20 DUP2 ADD PUSH20 0x14185D5CD8589B194E881B9BDD081C185D5CD959 PUSH1 0x62 SHL DUP2 MSTORE SWAP1 POP PUSH2 0x36BB JUMP JUMPDEST PUSH1 0x20 DUP1 DUP3 MSTORE DUP2 ADD PUSH2 0x499 DUP2 PUSH2 0x43B6 JUMP JUMPDEST DUP1 DUP3 ADD DUP1 DUP3 GT ISZERO PUSH2 0x499 JUMPI PUSH2 0x499 PUSH2 0x3C1E JUMP JUMPDEST PUSH4 0x4E487B71 PUSH1 0xE0 SHL PUSH1 0x0 MSTORE PUSH1 0x32 PUSH1 0x4 MSTORE PUSH1 0x24 PUSH1 0x0 REVERT JUMPDEST PUSH1 0x0 DUP2 PUSH2 0x4427 JUMPI PUSH2 0x4427 PUSH2 0x3C1E JUMP JUMPDEST POP PUSH1 0x0 NOT ADD SWAP1 JUMP JUMPDEST PUSH1 0x20 DUP1 DUP3 MSTORE PUSH32 0x537472696E67733A20686578206C656E67746820696E73756666696369656E74 SWAP2 ADD SWAP1 DUP2 MSTORE PUSH2 0x36BB JUMP JUMPDEST PUSH1 0x20 DUP1 DUP3 MSTORE DUP2 ADD PUSH2 0x499 DUP2 PUSH2 0x442F JUMP JUMPDEST PUSH1 0x26 DUP2 MSTORE PUSH1 0x20 DUP2 ADD PUSH32 0x416464726573733A20696E73756666696369656E742062616C616E636520666F DUP2 MSTORE PUSH6 0x1C8818D85B1B PUSH1 0xD2 SHL PUSH1 0x20 DUP3 ADD MSTORE SWAP1 POP PUSH2 0x385D JUMP JUMPDEST PUSH1 0x20 DUP1 DUP3 MSTORE DUP2 ADD PUSH2 0x499 DUP2 PUSH2 0x446F JUMP JUMPDEST PUSH2 0x499 DUP2 DUP4 PUSH2 0x42B4 JUMP JUMPDEST PUSH1 0x1D DUP2 MSTORE PUSH1 0x20 DUP2 ADD PUSH32 0x416464726573733A2063616C6C20746F206E6F6E2D636F6E7472616374000000 DUP2 MSTORE SWAP1 POP PUSH2 0x36BB JUMP JUMPDEST PUSH1 0x20 DUP1 DUP3 MSTORE DUP2 ADD PUSH2 0x499 DUP2 PUSH2 0x44CA JUMP INVALID LOG4 SWAP9 SMOD KECCAK256 0x5C 0xE4 0xD3 SSTORE MULMOD 0x2E CREATE2 0xA8 LOG1 DUP16 JUMP 0xE8 SWAP2 EXTCODECOPY DELEGATECALL LOG2 ADD 0xFB 0xE2 DUP8 DUP3 JUMPDEST MULMOD JUMP SWAP4 0xC2 OR PUSH22 0x8C76BB4D0D0276699B16A2E9464B50CAD045B0200B9B 0xC6 ORIGIN 0xAE GASPRICE 0x5D JUMPI SMOD PUSH32 0xA264A2646970667358221220221023DD9ED9887B097C33D625C1C60B0B1E4F59 DUP6 CODESIZE 0xAF DUP10 SWAP13 SWAP14 MUL DUP7 CALLDATASIZE 0x22 SWAP5 NOT PUSH5 0x736F6C6343 STOP ADDMOD AND STOP CALLER 0xEF DUP2 0xA9 SWAP5 EXTCODESIZE SWAP7 0xC8 0xDF 0x4E CALLCODE NUMBER BLOCKHASH SHR SWAP12 CREATE2 ISZERO SWAP2 CHAINID AND PUSH3 0x113568 SWAP9 0xB5 0x2D CODESIZE KECCAK256 DUP7 AND DUP14 SWAP3 LOG2 PUSH5 0x6970667358 0x22 SLT KECCAK256 0xAB 0xED PUSH15 0x4C5429D224E27F7BD4580C3B540628 0xBB PUSH15 0xFB473355B7354FDE5CD5EA5164736F PUSH13 0x63430008160033000000000000 "},"methodIdentifiers":{"MAX_PLATFORM_FEE()":"3998a681","createEscrow(string,address,address,address,address,address,uint256,uint256,string)":"4f9b369f","createEscrowWithStruct((address,address,address,address,address,uint256,uint256,uint256,(string,string,uint256,string,bool),uint256,uint256))":"87b30266","getDefaultAgent()":"603c50d5","getDefaultArbiter()":"7953eec9","getEscrowContract(uint256)":"4bad78db","getEscrowCount()":"16b15135","getPlatformFee()":"6ea8bc10","isTokenWhitelisted(address)":"b5af090f","owner()":"8da5cb5b","platformWallet()":"fa2af9da","removeTokenFromWhitelist(address)":"306275be","renounceOwnership()":"715018a6","setDefaultAgent(address)":"2eb73a88","setDefaultArbiter(address)":"bbdf7243","setPlatformFee(uint256)":"12e8e2c3","setTokenWhitelist(address,bool)":"c9bcc97e","transferOwnership(address)":"f2fde38b","whitelistToken(address,bool)":"0ffb1d8b","whitelistedTokens(address)":"daf9c210"}},"storageLayout":{"storage":[{"astId":1680,"contract":"contracts/core/EscrowFactory.sol:EscrowFactory","label":"_owner","offset":0,"slot":"0","type":"t_address"},{"astId":1904,"contract":"contracts/core/EscrowFactory.sol:EscrowFactory","label":"_status","offset":0,"slot":"1","type":"t_uint256"},{"astId":4058,"contract":"contracts/core/EscrowFactory.sol:EscrowFactory","label":"escrowContracts","offset":0,"slot":"2","type":"t_mapping(t_uint256,t_address)"},{"astId":4062,"contract":"contracts/core/EscrowFactory.sol:EscrowFactory","label":"whitelistedTokens","offset":0,"slot":"3","type":"t_mapping(t_address,t_bool)"},{"astId":4064,"contract":"contracts/core/EscrowFactory.sol:EscrowFactory","label":"defaultAgent","offset":0,"slot":"4","type":"t_address"},{"astId":4066,"contract":"contracts/core/EscrowFactory.sol:EscrowFactory","label":"defaultArbiter","offset":0,"slot":"5","type":"t_address"},{"astId":4070,"contract":"contracts/core/EscrowFactory.sol:EscrowFactory","label":"platformFee","offset":0,"slot":"6","type":"t_uint256"},{"astId":4072,"contract":"contracts/core/EscrowFactory.sol:EscrowFactory","label":"escrowCounter","offset":0,"slot":"7","type":"t_uint256"}],"types":{"t_address":{"encoding":"inplace","label":"address","numberOfBytes":"20"},"t_bool":{"encoding":"inplace","label":"bool","numberOfBytes":"1"},"t_mapping(t_address,t_bool)":{"encoding":"mapping","key":"t_address","label":"mapping(address => bool)","numberOfBytes":"32","value":"t_bool"},"t_mapping(t_uint256,t_address)":{"encoding":"mapping","key":"t_uint256","label":"mapping(uint256 => address)","numberOfBytes":"32","value":"t_address"},"t_uint256":{"encoding":"inplace","label":"uint256","numberOfBytes":"32"}}}}}}