{
  "_format": "hh-sol-artifact-1",
  "contractName": "PropertyEscrow",
  "sourceName": "contracts/PropertyEscrow.sol",
  "abi": [
    {
      "inputs": [],
      "stateMutability": "nonpayable",
      "type": "constructor"
    },
    {
      "inputs": [],
      "name": "AccessControlBadConfirmation",
      "type": "error"
    },
    {
      "inputs": [
        {
          "internalType": "address",
          "name": "account",
          "type": "address"
        },
        {
          "internalType": "bytes32",
          "name": "neededRole",
          "type": "bytes32"
        }
      ],
      "name": "AccessControlUnauthorizedAccount",
      "type": "error"
    },
    {
      "inputs": [],
      "name": "EnforcedPause",
      "type": "error"
    },
    {
      "inputs": [],
      "name": "ExpectedPause",
      "type": "error"
    },
    {
      "inputs": [],
      "name": "ReentrancyGuardReentrantCall",
      "type": "error"
    },
    {
      "anonymous": false,
      "inputs": [
        {
          "indexed": true,
          "internalType": "uint256",
          "name": "transactionId",
          "type": "uint256"
        },
        {
          "indexed": true,
          "internalType": "address",
          "name": "admin",
          "type": "address"
        },
        {
          "indexed": false,
          "internalType": "string",
          "name": "action",
          "type": "string"
        }
      ],
      "name": "AdminOverride",
      "type": "event"
    },
    {
      "anonymous": false,
      "inputs": [
        {
          "indexed": true,
          "internalType": "uint256",
          "name": "transactionId",
          "type": "uint256"
        },
        {
          "indexed": true,
          "internalType": "address",
          "name": "approver",
          "type": "address"
        },
        {
          "indexed": false,
          "internalType": "string",
          "name": "role",
          "type": "string"
        }
      ],
      "name": "ApprovalGiven",
      "type": "event"
    },
    {
      "anonymous": false,
      "inputs": [
        {
          "indexed": true,
          "internalType": "uint256",
          "name": "transactionId",
          "type": "uint256"
        },
        {
          "indexed": true,
          "internalType": "address",
          "name": "raiser",
          "type": "address"
        }
      ],
      "name": "DisputeRaised",
      "type": "event"
    },
    {
      "anonymous": false,
      "inputs": [
        {
          "indexed": true,
          "internalType": "uint256",
          "name": "transactionId",
          "type": "uint256"
        },
        {
          "indexed": false,
          "internalType": "string",
          "name": "reason",
          "type": "string"
        }
      ],
      "name": "EscrowCancelled",
      "type": "event"
    },
    {
      "anonymous": false,
      "inputs": [
        {
          "indexed": true,
          "internalType": "uint256",
          "name": "transactionId",
          "type": "uint256"
        },
        {
          "indexed": false,
          "internalType": "uint256",
          "name": "amount",
          "type": "uint256"
        }
      ],
      "name": "EscrowCompleted",
      "type": "event"
    },
    {
      "anonymous": false,
      "inputs": [
        {
          "indexed": true,
          "internalType": "uint256",
          "name": "transactionId",
          "type": "uint256"
        },
        {
          "indexed": true,
          "internalType": "uint256",
          "name": "propertyId",
          "type": "uint256"
        },
        {
          "indexed": true,
          "internalType": "address",
          "name": "buyer",
          "type": "address"
        },
        {
          "indexed": false,
          "internalType": "address",
          "name": "seller",
          "type": "address"
        }
      ],
      "name": "EscrowCreated",
      "type": "event"
    },
    {
      "anonymous": false,
      "inputs": [
        {
          "indexed": true,
          "internalType": "uint256",
          "name": "transactionId",
          "type": "uint256"
        },
        {
          "indexed": false,
          "internalType": "uint256",
          "name": "amount",
          "type": "uint256"
        }
      ],
      "name": "FundsDeposited",
      "type": "event"
    },
    {
      "anonymous": false,
      "inputs": [
        {
          "indexed": false,
          "internalType": "address",
          "name": "account",
          "type": "address"
        }
      ],
      "name": "Paused",
      "type": "event"
    },
    {
      "anonymous": false,
      "inputs": [
        {
          "indexed": true,
          "internalType": "uint256",
          "name": "propertyId",
          "type": "uint256"
        },
        {
          "indexed": true,
          "internalType": "address",
          "name": "seller",
          "type": "address"
        },
        {
          "indexed": false,
          "internalType": "uint256",
          "name": "price",
          "type": "uint256"
        }
      ],
      "name": "PropertyListed",
      "type": "event"
    },
    {
      "anonymous": false,
      "inputs": [
        {
          "indexed": true,
          "internalType": "bytes32",
          "name": "role",
          "type": "bytes32"
        },
        {
          "indexed": true,
          "internalType": "bytes32",
          "name": "previousAdminRole",
          "type": "bytes32"
        },
        {
          "indexed": true,
          "internalType": "bytes32",
          "name": "newAdminRole",
          "type": "bytes32"
        }
      ],
      "name": "RoleAdminChanged",
      "type": "event"
    },
    {
      "anonymous": false,
      "inputs": [
        {
          "indexed": true,
          "internalType": "bytes32",
          "name": "role",
          "type": "bytes32"
        },
        {
          "indexed": true,
          "internalType": "address",
          "name": "account",
          "type": "address"
        },
        {
          "indexed": true,
          "internalType": "address",
          "name": "sender",
          "type": "address"
        }
      ],
      "name": "RoleGranted",
      "type": "event"
    },
    {
      "anonymous": false,
      "inputs": [
        {
          "indexed": true,
          "internalType": "bytes32",
          "name": "role",
          "type": "bytes32"
        },
        {
          "indexed": true,
          "internalType": "address",
          "name": "account",
          "type": "address"
        },
        {
          "indexed": true,
          "internalType": "address",
          "name": "sender",
          "type": "address"
        }
      ],
      "name": "RoleRevoked",
      "type": "event"
    },
    {
      "anonymous": false,
      "inputs": [
        {
          "indexed": false,
          "internalType": "address",
          "name": "account",
          "type": "address"
        }
      ],
      "name": "Unpaused",
      "type": "event"
    },
    {
      "inputs": [],
      "name": "ADMIN_ROLE",
      "outputs": [
        {
          "internalType": "bytes32",
          "name": "",
          "type": "bytes32"
        }
      ],
      "stateMutability": "view",
      "type": "function"
    },
    {
      "inputs": [],
      "name": "AGENT_ROLE",
      "outputs": [
        {
          "internalType": "bytes32",
          "name": "",
          "type": "bytes32"
        }
      ],
      "stateMutability": "view",
      "type": "function"
    },
    {
      "inputs": [],
      "name": "DEFAULT_ADMIN_ROLE",
      "outputs": [
        {
          "internalType": "bytes32",
          "name": "",
          "type": "bytes32"
        }
      ],
      "stateMutability": "view",
      "type": "function"
    },
    {
      "inputs": [
        {
          "internalType": "uint256",
          "name": "_transactionId",
          "type": "uint256"
        },
        {
          "internalType": "string",
          "name": "_action",
          "type": "string"
        },
        {
          "internalType": "bool",
          "name": "_complete",
          "type": "bool"
        }
      ],
      "name": "adminOverride",
      "outputs": [],
      "stateMutability": "nonpayable",
      "type": "function"
    },
    {
      "inputs": [
        {
          "internalType": "uint256",
          "name": "_transactionId",
          "type": "uint256"
        },
        {
          "internalType": "string",
          "name": "_reason",
          "type": "string"
        }
      ],
      "name": "cancelEscrow",
      "outputs": [],
      "stateMutability": "nonpayable",
      "type": "function"
    },
    {
      "inputs": [
        {
          "internalType": "uint256",
          "name": "_propertyId",
          "type": "uint256"
        },
        {
          "internalType": "address",
          "name": "_agent",
          "type": "address"
        },
        {
          "internalType": "uint256",
          "name": "_inspectionPeriodDays",
          "type": "uint256"
        },
        {
          "internalType": "uint256",
          "name": "_closingDateTimestamp",
          "type": "uint256"
        },
        {
          "internalType": "string",
          "name": "_terms",
          "type": "string"
        }
      ],
      "name": "createEscrow",
      "outputs": [
        {
          "internalType": "uint256",
          "name": "",
          "type": "uint256"
        }
      ],
      "stateMutability": "payable",
      "type": "function"
    },
    {
      "inputs": [
        {
          "internalType": "uint256",
          "name": "_transactionId",
          "type": "uint256"
        }
      ],
      "name": "depositRemainingFunds",
      "outputs": [],
      "stateMutability": "payable",
      "type": "function"
    },
    {
      "inputs": [
        {
          "internalType": "uint256",
          "name": "",
          "type": "uint256"
        }
      ],
      "name": "escrowTransactions",
      "outputs": [
        {
          "internalType": "uint256",
          "name": "id",
          "type": "uint256"
        },
        {
          "internalType": "uint256",
          "name": "propertyId",
          "type": "uint256"
        },
        {
          "internalType": "address",
          "name": "buyer",
          "type": "address"
        },
        {
          "internalType": "address",
          "name": "seller",
          "type": "address"
        },
        {
          "internalType": "address",
          "name": "agent",
          "type": "address"
        },
        {
          "internalType": "uint256",
          "name": "purchasePrice",
          "type": "uint256"
        },
        {
          "internalType": "uint256",
          "name": "earnestMoney",
          "type": "uint256"
        },
        {
          "internalType": "uint256",
          "name": "inspectionPeriodEnd",
          "type": "uint256"
        },
        {
          "internalType": "uint256",
          "name": "closingDate",
          "type": "uint256"
        },
        {
          "internalType": "enum PropertyEscrow.EscrowStatus",
          "name": "status",
          "type": "uint8"
        },
        {
          "internalType": "bool",
          "name": "buyerApproval",
          "type": "bool"
        },
        {
          "internalType": "bool",
          "name": "sellerApproval",
          "type": "bool"
        },
        {
          "internalType": "bool",
          "name": "agentApproval",
          "type": "bool"
        },
        {
          "internalType": "bool",
          "name": "adminOverride",
          "type": "bool"
        },
        {
          "internalType": "string",
          "name": "terms",
          "type": "string"
        },
        {
          "internalType": "uint256",
          "name": "createdAt",
          "type": "uint256"
        }
      ],
      "stateMutability": "view",
      "type": "function"
    },
    {
      "inputs": [],
      "name": "getContractBalance",
      "outputs": [
        {
          "internalType": "uint256",
          "name": "",
          "type": "uint256"
        }
      ],
      "stateMutability": "view",
      "type": "function"
    },
    {
      "inputs": [
        {
          "internalType": "uint256",
          "name": "_transactionId",
          "type": "uint256"
        }
      ],
      "name": "getEscrowTransaction",
      "outputs": [
        {
          "components": [
            {
              "internalType": "uint256",
              "name": "id",
              "type": "uint256"
            },
            {
              "internalType": "uint256",
              "name": "propertyId",
              "type": "uint256"
            },
            {
              "internalType": "address",
              "name": "buyer",
              "type": "address"
            },
            {
              "internalType": "address",
              "name": "seller",
              "type": "address"
            },
            {
              "internalType": "address",
              "name": "agent",
              "type": "address"
            },
            {
              "internalType": "uint256",
              "name": "purchasePrice",
              "type": "uint256"
            },
            {
              "internalType": "uint256",
              "name": "earnestMoney",
              "type": "uint256"
            },
            {
              "internalType": "uint256",
              "name": "inspectionPeriodEnd",
              "type": "uint256"
            },
            {
              "internalType": "uint256",
              "name": "closingDate",
              "type": "uint256"
            },
            {
              "internalType": "enum PropertyEscrow.EscrowStatus",
              "name": "status",
              "type": "uint8"
            },
            {
              "internalType": "bool",
              "name": "buyerApproval",
              "type": "bool"
            },
            {
              "internalType": "bool",
              "name": "sellerApproval",
              "type": "bool"
            },
            {
              "internalType": "bool",
              "name": "agentApproval",
              "type": "bool"
            },
            {
              "internalType": "bool",
              "name": "adminOverride",
              "type": "bool"
            },
            {
              "internalType": "string",
              "name": "terms",
              "type": "string"
            },
            {
              "internalType": "uint256",
              "name": "createdAt",
              "type": "uint256"
            }
          ],
          "internalType": "struct PropertyEscrow.EscrowTransaction",
          "name": "",
          "type": "tuple"
        }
      ],
      "stateMutability": "view",
      "type": "function"
    },
    {
      "inputs": [
        {
          "internalType": "uint256",
          "name": "_propertyId",
          "type": "uint256"
        }
      ],
      "name": "getProperty",
      "outputs": [
        {
          "components": [
            {
              "internalType": "uint256",
              "name": "id",
              "type": "uint256"
            },
            {
              "internalType": "string",
              "name": "propertyAddress",
              "type": "string"
            },
            {
              "internalType": "string",
              "name": "description",
              "type": "string"
            },
            {
              "internalType": "uint256",
              "name": "price",
              "type": "uint256"
            },
            {
              "internalType": "address",
              "name": "seller",
              "type": "address"
            },
            {
              "internalType": "bool",
              "name": "isActive",
              "type": "bool"
            },
            {
              "internalType": "string",
              "name": "metadataURI",
              "type": "string"
            }
          ],
          "internalType": "struct PropertyEscrow.Property",
          "name": "",
          "type": "tuple"
        }
      ],
      "stateMutability": "view",
      "type": "function"
    },
    {
      "inputs": [
        {
          "internalType": "bytes32",
          "name": "role",
          "type": "bytes32"
        }
      ],
      "name": "getRoleAdmin",
      "outputs": [
        {
          "internalType": "bytes32",
          "name": "",
          "type": "bytes32"
        }
      ],
      "stateMutability": "view",
      "type": "function"
    },
    {
      "inputs": [
        {
          "internalType": "address",
          "name": "_user",
          "type": "address"
        }
      ],
      "name": "getUserTransactions",
      "outputs": [
        {
          "internalType": "uint256[]",
          "name": "",
          "type": "uint256[]"
        }
      ],
      "stateMutability": "view",
      "type": "function"
    },
    {
      "inputs": [
        {
          "internalType": "uint256",
          "name": "_transactionId",
          "type": "uint256"
        }
      ],
      "name": "giveAgentApproval",
      "outputs": [],
      "stateMutability": "nonpayable",
      "type": "function"
    },
    {
      "inputs": [
        {
          "internalType": "uint256",
          "name": "_transactionId",
          "type": "uint256"
        }
      ],
      "name": "giveBuyerApproval",
      "outputs": [],
      "stateMutability": "nonpayable",
      "type": "function"
    },
    {
      "inputs": [
        {
          "internalType": "uint256",
          "name": "_transactionId",
          "type": "uint256"
        }
      ],
      "name": "giveSellerApproval",
      "outputs": [],
      "stateMutability": "nonpayable",
      "type": "function"
    },
    {
      "inputs": [
        {
          "internalType": "address",
          "name": "_agent",
          "type": "address"
        }
      ],
      "name": "grantAgentRole",
      "outputs": [],
      "stateMutability": "nonpayable",
      "type": "function"
    },
    {
      "inputs": [
        {
          "internalType": "bytes32",
          "name": "role",
          "type": "bytes32"
        },
        {
          "internalType": "address",
          "name": "account",
          "type": "address"
        }
      ],
      "name": "grantRole",
      "outputs": [],
      "stateMutability": "nonpayable",
      "type": "function"
    },
    {
      "inputs": [
        {
          "internalType": "bytes32",
          "name": "role",
          "type": "bytes32"
        },
        {
          "internalType": "address",
          "name": "account",
          "type": "address"
        }
      ],
      "name": "hasRole",
      "outputs": [
        {
          "internalType": "bool",
          "name": "",
          "type": "bool"
        }
      ],
      "stateMutability": "view",
      "type": "function"
    },
    {
      "inputs": [
        {
          "internalType": "string",
          "name": "_propertyAddress",
          "type": "string"
        },
        {
          "internalType": "string",
          "name": "_description",
          "type": "string"
        },
        {
          "internalType": "uint256",
          "name": "_price",
          "type": "uint256"
        },
        {
          "internalType": "string",
          "name": "_metadataURI",
          "type": "string"
        }
      ],
      "name": "listProperty",
      "outputs": [
        {
          "internalType": "uint256",
          "name": "",
          "type": "uint256"
        }
      ],
      "stateMutability": "nonpayable",
      "type": "function"
    },
    {
      "inputs": [],
      "name": "nextPropertyId",
      "outputs": [
        {
          "internalType": "uint256",
          "name": "",
          "type": "uint256"
        }
      ],
      "stateMutability": "view",
      "type": "function"
    },
    {
      "inputs": [],
      "name": "nextTransactionId",
      "outputs": [
        {
          "internalType": "uint256",
          "name": "",
          "type": "uint256"
        }
      ],
      "stateMutability": "view",
      "type": "function"
    },
    {
      "inputs": [],
      "name": "pause",
      "outputs": [],
      "stateMutability": "nonpayable",
      "type": "function"
    },
    {
      "inputs": [],
      "name": "paused",
      "outputs": [
        {
          "internalType": "bool",
          "name": "",
          "type": "bool"
        }
      ],
      "stateMutability": "view",
      "type": "function"
    },
    {
      "inputs": [
        {
          "internalType": "uint256",
          "name": "",
          "type": "uint256"
        }
      ],
      "name": "properties",
      "outputs": [
        {
          "internalType": "uint256",
          "name": "id",
          "type": "uint256"
        },
        {
          "internalType": "string",
          "name": "propertyAddress",
          "type": "string"
        },
        {
          "internalType": "string",
          "name": "description",
          "type": "string"
        },
        {
          "internalType": "uint256",
          "name": "price",
          "type": "uint256"
        },
        {
          "internalType": "address",
          "name": "seller",
          "type": "address"
        },
        {
          "internalType": "bool",
          "name": "isActive",
          "type": "bool"
        },
        {
          "internalType": "string",
          "name": "metadataURI",
          "type": "string"
        }
      ],
      "stateMutability": "view",
      "type": "function"
    },
    {
      "inputs": [
        {
          "internalType": "uint256",
          "name": "_transactionId",
          "type": "uint256"
        }
      ],
      "name": "raiseDispute",
      "outputs": [],
      "stateMutability": "nonpayable",
      "type": "function"
    },
    {
      "inputs": [
        {
          "internalType": "bytes32",
          "name": "role",
          "type": "bytes32"
        },
        {
          "internalType": "address",
          "name": "callerConfirmation",
          "type": "address"
        }
      ],
      "name": "renounceRole",
      "outputs": [],
      "stateMutability": "nonpayable",
      "type": "function"
    },
    {
      "inputs": [
        {
          "internalType": "address",
          "name": "_agent",
          "type": "address"
        }
      ],
      "name": "revokeAgentRole",
      "outputs": [],
      "stateMutability": "nonpayable",
      "type": "function"
    },
    {
      "inputs": [
        {
          "internalType": "bytes32",
          "name": "role",
          "type": "bytes32"
        },
        {
          "internalType": "address",
          "name": "account",
          "type": "address"
        }
      ],
      "name": "revokeRole",
      "outputs": [],
      "stateMutability": "nonpayable",
      "type": "function"
    },
    {
      "inputs": [
        {
          "internalType": "bytes4",
          "name": "interfaceId",
          "type": "bytes4"
        }
      ],
      "name": "supportsInterface",
      "outputs": [
        {
          "internalType": "bool",
          "name": "",
          "type": "bool"
        }
      ],
      "stateMutability": "view",
      "type": "function"
    },
    {
      "inputs": [],
      "name": "unpause",
      "outputs": [],
      "stateMutability": "nonpayable",
      "type": "function"
    },
    {
      "inputs": [
        {
          "internalType": "address",
          "name": "",
          "type": "address"
        },
        {
          "internalType": "uint256",
          "name": "",
          "type": "uint256"
        }
      ],
      "name": "userTransactions",
      "outputs": [
        {
          "internalType": "uint256",
          "name": "",
          "type": "uint256"
        }
      ],
      "stateMutability": "view",
      "type": "function"
    }
  ],
  "bytecode": "0x60806040523461003a5760018055600160065560016007556100203361003f565b5061002a336100bb565b5060405161294990816101548239f35b600080fd5b6001600160a01b0381166000908152600080516020612add833981519152602052604090205460ff166100b5576001600160a01b03166000818152600080516020612add83398151915260205260408120805460ff19166001179055339190600080516020612a9d8339815191528180a4600190565b50600090565b6001600160a01b0381166000908152600080516020612abd833981519152602052604090205460ff166100b5576001600160a01b03166000818152600080516020612abd83398151915260205260408120805460ff191660011790553391907fa49807205ce4d355092ef5a8a18f56e8913cf4a201fbe287825b095693c2177590600080516020612a9d8339815191529080a460019056fe608080604052600436101561001357600080fd5b60003560e01c90816301ffc9a714611fda5750806322459e1814611fb157806322bdc4c214611eae578063248a9ca314611e79578063290a419c14611d7d5780632f2ff15d14611d3d57806332665ffb14611bfb57806336568abe14611bb557806339500f3414611b975780633f4ba83a14611b0d5780634418244e146119955780635c975abb146119725780636ad68bcc146117655780636f9fb98a1461174957806373e9e7261461164957806375b238fc1461160e5780638148acf91461101f578063819cefe214610b345780638456cb5914610aa757806391d1485414610a5a578063a217fddf14610a3e578063a5c1674e1461089c578063a936956d14610621578063b842ec44146105c8578063cf1e37ad146104ac578063d2af2bcb14610471578063d547741f14610431578063d7ca38f314610413578063e430431314610387578063ef925399146102cd578063f7b10808146102175763f97573131461017f57600080fd5b346102125760203660031901126102125761021061019b612043565b3360009081526000805160206128b483398151915260205260409020546101c49060ff166122b8565b6000805160206128d483398151915260009081526020527fe298cb3514b0702cec56ac2053c1ecb2187cfdc8a325f22a672bc5027eadc9e35461020b9061242c565b61242c565b612467565b005b600080fd5b34610212576020366003190112610212576004356000526003602052604060002080546102c9610249600184016121bd565b92610256600282016121bd565b60ff60038301549261029d6102726005600484015493016121bd565b9361028f604051998a998a5260e060208b015260e08a0190612059565b9088820360408a0152612059565b93606087015260018060a01b038116608087015260a01c16151560a085015283820360c0850152612059565b0390f35b34610212576020366003190112610212576001600160a01b036102ee612043565b16600052600560205260406000206040518060208354918281520190819360005260206000209060005b818110610371575050508161032e9103826120d1565b6040519182916020830190602084525180915260408301919060005b818110610358575050500390f35b825184528594506020938401939092019160010161034a565b8254845260209093019260019283019201610318565b34610212576020366003190112610212576102106103a3612043565b3360009081526000805160206128b483398151915260205260409020546103cc9060ff166122b8565b6000805160206128d483398151915260009081526020527fe298cb3514b0702cec56ac2053c1ecb2187cfdc8a325f22a672bc5027eadc9e35461040e9061242c565b612590565b34610212576000366003190112610212576020600754604051908152f35b346102125760403660031901126102125761021060043561045061202d565b9061046c61020682600052600060205260016040600020015490565b612626565b34610212576040366003190112610212576024356001600160401b038111610212576104a46102109136906004016120f2565b6004356126ca565b34610212576020366003190112610212576004356000526004602052602060406000208054906105bd60018201549160ff60018060a01b0360028301541660018060a01b0360038401541660018060a01b036004850154166005850154600686015490600787015492600888015494600989015496600b61052f600a8c016121bd565b9a01549b6040519e8f9e8f908152015260408d015260608c015260808b015260a08a015260c089015260e08801526101008701526105736101208701838316612148565b818160081c161515610140870152818160101c161515610160870152818160181c16151561018087015260201c1615156101a08501526102006101c0850152610200840190612059565b906101e08301520390f35b34610212576040366003190112610212576105e1612043565b6001600160a01b03166000908152600560205260409020805460243591908210156102125760209161061291612155565b90549060031b1c604051908152f35b346102125760203660031901126102125760006101e0604051610643816120b5565b8281528260208201528260408201528260608201528260808201528260a08201528260c08201528260e08201528261010082015282610120820152826101408201528261016082015282610180820152826101a082015260606101c0820152015260043560005260046020526040600020604051906106c1826120b5565b805482526001810154602083015260028101546001600160a01b0390811660408401526003820154811660608401526004820154166080830152600581015460a0830152600681015460c083015260078082015460e084015260088201546101008401526009820154919060ff83169081101561088657600b9260ff91610120860152818160081c161515610140860152818160101c161515610160860152818160181c16151561018086015260201c1615156101a0840152610786600a82016121bd565b6101c084015201546101e0820152604051809160208252805160208301526020810151604083015260018060a01b03604082015116606083015260018060a01b03606082015116608083015260018060a01b0360808201511660a083015260a081015160c083015260c081015160e083015260e0810151610100830152610100810151610120830152610823610120820151610140840190612148565b6101408101511515610160830152610160810151151561018083015261018081015115156101a08301526101a081015115156101c08301526101e06108796101c083015161020083860152610220850190612059565b9101516102008301520390f35b634e487b7160e01b600052602160045260246000fd5b3461021257602036600319011261021257600435806000526004602052604060002060018060a01b0360028201541633148015610a28575b156109d4576009019060ff82541691600783101561088657600483146109835760056000931461093257805460ff1916600617905533907f84a477df8a28a4276ca6dee4458a06c3015f30c477d9c949ede4e13ff8a552b48380a380f35b60405162461bcd60e51b8152602060048201526024808201527f43616e6e6f7420646973707574652063616e63656c6c6564207472616e7361636044820152633a34b7b760e11b6064820152608490fd5b60405162461bcd60e51b8152602060048201526024808201527f43616e6e6f74206469737075746520636f6d706c65746564207472616e7361636044820152633a34b7b760e11b6064820152608490fd5b60405162461bcd60e51b815260206004820152602660248201527f4f6e6c79206275796572206f722073656c6c65722063616e207261697365206460448201526569737075746560d01b6064820152608490fd5b5060038101546001600160a01b031633146108d4565b3461021257600036600319011261021257602060405160008152f35b3461021257604036600319011261021257610a7361202d565b600435600052600060205260406000209060018060a01b0316600052602052602060ff604060002054166040519015158152f35b34610212576000366003190112610212573360009081526000805160206128b48339815191526020526040902054610ae19060ff166122b8565b60025460ff8116610b235760019060ff1916176002557f62e78cea01bee320cd4e420270b5ea74000d11b0c9f74754ebdbfc544b05a2586020604051338152a1005b63d93c066560e01b60005260046000fd5b34610212576080366003190112610212576004356001600160401b03811161021257610b649036906004016120f2565b6024356001600160401b03811161021257610b839036906004016120f2565b90604435906064356001600160401b03811161021257610ba79036906004016120f2565b918015610fda5760065491610bbb836122fd565b60065560405190610bcb8261209a565b83825260208201908152604082019586526060820190838252608083019133835260a08401916001835260c085019788528660005260036020526040600020945185556001850190518051906001600160401b038211610e43578190610c318454612183565b601f8111610f87575b50602090601f8311600114610f2257600092610f17575b50508160011b916000199060031b1c19161790555b6002840197519788516001600160401b038111610e4357610c878254612183565b601f8111610ecf575b506020601f8211600114610e64578190600598999a9b600092610e59575b50508160011b916000199060031b1c19161790555b5160038401559051600483018054925160ff60a01b90151560a01b166001600160a01b039092166001600160a81b03199093169290921717905593518051909491909101906001600160401b038111610e4357610d208254612183565b601f8111610dfb575b50806020958690601f8311600114610d9757600092610d8c575b50508160011b916000199060031b1c19161790555b604051908152817f23fb658c1698b92f5fe511a079c17ecf7965cbc3f1b873328c67e2c3c0820f1f843393a3604051908152f35b015190508680610d43565b60008581528281209350601f198516905b818110610de45750908460019594939210610dcb575b505050811b019055610d58565b015160001960f88460031b161c19169055868080610dbe565b929389600181928786015181550195019301610da8565b826000526020600020601f830160051c81019160208410610e39575b601f0160051c01905b818110610e2d5750610d29565b60008155600101610e20565b9091508190610e17565b634e487b7160e01b600052604160045260246000fd5b015190508b80610cae565b601f1982169a83600052816000209b60005b818110610eb75750916005999a9b9c91846001959410610e9e575b505050811b019055610cc3565b015160001960f88460031b161c191690558b8080610e91565b838301518e556001909d019c60209384019301610e76565b826000526020600020601f830160051c81019160208410610f0d575b601f0160051c01905b818110610f015750610c90565b60008155600101610ef4565b9091508190610eeb565b015190508b80610c51565b60008581528281209350601f198516905b818110610f6f5750908460019594939210610f56575b505050811b019055610c66565b015160001960f88460031b161c191690558b8080610f49565b92936020600181928786015181550195019301610f33565b909150836000526020600020601f840160051c81019160208510610fd0575b90601f859493920160051c01905b818110610fc15750610c3a565b60008155849350600101610fb4565b9091508190610fa6565b60405162461bcd60e51b815260206004820152601c60248201527f5072696365206d7573742062652067726561746572207468616e2030000000006044820152606490fd5b60a03660031901126102125761103361202d565b6044356084356001600160401b038111610212576110559036906004016120f2565b916004356000526003602052604060002090600482015460ff8160a01c16156115d0576001600160a01b03163314611592576003820160648154043410611531576001600160a01b03821660009081526000805160206128f4833981519152602052604090205460ff16156114ec57600754936110d1856122fd565b60075560018060a01b03600485015416915490620151808102908082046201518014901517156114d6574201958642116114d6578591604051978894611116866120b5565b8486526004356020870152604086019133835260608701918252608087019360018060a01b038916855260a0880190815260c088019034825260e089019283526064356101008a015260016101208a015260006101408a0152610160890195600087526101808a0194600086526101a08b0196600088526101c08c01998a526101e08c019a428c526000526004602052602060406000209c8d81519055015160018d015560018060a01b0390511660028c019060018060a01b03166001600160601b0360a01b82541617905560018060a01b0390511660038b019060018060a01b03166001600160601b0360a01b82541617905560018060a01b0390511660048a019060018060a01b03166001600160601b0360a01b8254161790555160058901555160068801555160078701556101008a0151600887015560098601926101208b01519a60078c1015610886578454610140919091015191519251935164ffffffffff1990911660ff909c169b909b1790151560081b61ff00161790151560101b62ff0000161790151560181b63ff000000161797151560201b64ff0000000016979097179096559451805160009691600a840191906001600160401b0382116114c2576112e58354612183565b601f811161147d575b50918895939188959360209a508a90601f831160011461140c579282600b9360409896938b98966113829c92611401575b50508160011b916000199060031b1c19161790555b519101553382526005885261134b8484842061230c565b60048601546001600160a01b031682526005885282822061136d90859061230c565b6001600160a01b03168152600587522061230c565b6004908101805460ff60a01b1981169091556040516001600160a01b0390911681523391359083907fb0fa44dfa3cb5c65027b74c1ad128e8c4a851946eacdcf83e8223870c139ce70908690a4807f26679fa1f3868c950e9362f1106cf73f3318de0280e0411a3c68e4b463eadd4f83604051348152a2604051908152f35b015190508e8061131f565b8389528189209190601f1984168a5b81811061146357509360409896936113829b98969360019383600b981061144a575b505050811b019055611334565b015160001960f88460031b161c191690558e808061143d565b8284015185558d9a50600190940193928e01928e0161141b565b838a5260208a20601f840160051c810191602085106114b8575b601f0160051c01905b8181106114ad57506112ee565b8a81556001016114a0565b9091508190611497565b634e487b7160e01b89526041600452602489fd5b634e487b7160e01b600052601160045260246000fd5b60405162461bcd60e51b815260206004820152601a60248201527f4167656e74206d7573742068617665204147454e545f524f4c450000000000006044820152606490fd5b60405162461bcd60e51b815260206004820152603360248201527f4561726e657374206d6f6e6579206d757374206265206174206c65617374203160448201527225206f6620707572636861736520707269636560681b6064820152608490fd5b60405162461bcd60e51b815260206004820152601660248201527529b2b63632b91031b0b73737ba10313290313abcb2b960511b6044820152606490fd5b60405162461bcd60e51b815260206004820152601660248201527550726f7065727479206973206e6f742061637469766560501b6044820152606490fd5b346102125760003660031901126102125760206040517fa49807205ce4d355092ef5a8a18f56e8913cf4a201fbe287825b095693c217758152f35b3461021257602036600319011261021257600435806000526004602052604060002060018060a01b0360038201541633036116f8576009019081549160ff8316600781101561088657610210936116a66003620100009314612261565b62ff0000191617905560405160208152600660208201526529a2a62622a960d11b6040820152817f1da098cda2e6fa8baaa20056510a8f9710462455a291092312a1d28faf42c8b260603393a3612346565b60405162461bcd60e51b8152602060048201526024808201527f4f6e6c792073656c6c65722063616e20676976652073656c6c657220617070726044820152631bdd985b60e21b6064820152608490fd5b3461021257600036600319011261021257602047604051908152f35b34610212576060366003190112610212576004356024356001600160401b038111610212576117989036906004016120f2565b906044358015158103610212573360009081526000805160206128b483398151915260205260409020546117ce9060ff166122b8565b6000828152600460205260409020600901805464ff0000000019166401000000001790551561192c576117ff6126a8565b80600052600460205260406000206009810160ff8154166007811015610886576003036118db57600460ff19825416179055600080808060058501548095600360018060a01b03910154168282156118d2575bf1156118c6577ff487d4e13e32569d69ec2608b5b1530450d715b84e0c81d0077b5b7e766db1d160208392604051908152a2600180555b7f37166809cf3c520b18ee44ce1f482033accdc007ea0863e428a3b83e4d2ad9f060405160208152806118c133956020830190612059565b0390a3005b6040513d6000823e3d90fd5b506108fc611852565b60405162461bcd60e51b8152602060048201526024808201527f5472616e73616374696f6e206e6f7420726561647920666f7220636f6d706c656044820152633a34b7b760e11b6064820152608490fd5b61196d60405161193d6040826120d1565b601b81527f41646d696e206f766572726964652063616e63656c6c6174696f6e00000000006020820152826126ca565b611889565b3461021257600036600319011261021257602060ff600254166040519015158152f35b6020366003190112610212576004356119ac6126a8565b600081815260046020526040902060028101546001600160a01b03163303611ab957600981019060ff825416600781101561088657600103611a74576006600582015491015481039081116114d6573403611a3c57600360ff198254161790557f26679fa1f3868c950e9362f1106cf73f3318de0280e0411a3c68e4b463eadd4f6020604051348152a260018055005b60405162461bcd60e51b815260206004820152601060248201526f125b98dbdc9c9958dd08185b5bdd5b9d60821b6044820152606490fd5b60405162461bcd60e51b815260206004820152601a60248201527f496e76616c69642073746174757320666f72206465706f7369740000000000006044820152606490fd5b60405162461bcd60e51b815260206004820152602660248201527f4f6e6c792062757965722063616e206465706f7369742072656d61696e696e676044820152652066756e647360d01b6064820152608490fd5b34610212576000366003190112610212573360009081526000805160206128b48339815191526020526040902054611b479060ff166122b8565b60025460ff811615611b865760ff19166002557f5db9ee0a495bf2e6ff9c91a7834c1ba4fdd244a5e8aa4e537bd38aeae4b073aa6020604051338152a1005b638dfc202b60e01b60005260046000fd5b34610212576000366003190112610212576020600654604051908152f35b3461021257604036600319011261021257611bce61202d565b336001600160a01b03821603611bea5761021090600435612626565b63334bd91960e11b60005260046000fd5b3461021257602036600319011261021257606060c0604051611c1c8161209a565b6000815282602082015282604082015260008382015260006080820152600060a0820152015260043560005260036020526040600020604051611c5e8161209a565b815481526102c9611c71600184016121bd565b9260208301938452611c85600282016121bd565b6040840190815260038201549160608501928352600481015490611d0d611ccc6005608089019360018060a01b038616855260ff60a08b019660a01c1615158652016121bd565b9360c08801948552611cfa604051998a9960208b525160208b01525160e060408b01526101008a0190612059565b9051888203601f190160608a0152612059565b93516080870152516001600160a01b031660a086015251151560c085015251838203601f190160e0850152612059565b3461021257604036600319011261021257610210600435611d5c61202d565b90611d7861020682600052600060205260016040600020015490565b612505565b3461021257602036600319011261021257600435806000526004602052604060002060018060a01b036002820154163303611e29576009019081549160ff831660078110156108865761021093611dd960036101009314612261565b61ff001916179055604051602081526005602082015264212aaca2a960d91b6040820152817f1da098cda2e6fa8baaa20056510a8f9710462455a291092312a1d28faf42c8b260603393a3612346565b60405162461bcd60e51b815260206004820152602260248201527f4f6e6c792062757965722063616e206769766520627579657220617070726f76604482015261185b60f21b6064820152608490fd5b34610212576020366003190112610212576020611ea6600435600052600060205260016040600020015490565b604051908152f35b3461021257602036600319011261021257600435806000526004602052604060002060018060a01b036004820154163303611f5e576009019081549160ff831660078110156108865761021093611f0c600363010000009314612261565b63ff00000019161790556040516020815260056020820152641051d1539560da1b6040820152817f1da098cda2e6fa8baaa20056510a8f9710462455a291092312a1d28faf42c8b260603393a3612346565b60405162461bcd60e51b815260206004820152602560248201527f4f6e6c792061737369676e6564206167656e742063616e2067697665206170706044820152641c9bdd985b60da1b6064820152608490fd5b346102125760003660031901126102125760206040516000805160206128d48339815191528152f35b34610212576020366003190112610212576004359063ffffffff60e01b821680920361021257602091637965db0b60e01b811490811561201c575b5015158152f35b6301ffc9a760e01b14905083612015565b602435906001600160a01b038216820361021257565b600435906001600160a01b038216820361021257565b919082519283825260005b848110612085575050826000602080949584010152601f8019910116010190565b80602080928401015182828601015201612064565b60e081019081106001600160401b03821117610e4357604052565b61020081019081106001600160401b03821117610e4357604052565b90601f801991011681019081106001600160401b03821117610e4357604052565b81601f82011215610212578035906001600160401b038211610e435760405192612126601f8401601f1916602001856120d1565b8284526020838301011161021257816000926020809301838601378301015290565b9060078210156108865752565b805482101561216d5760005260206000200190600090565b634e487b7160e01b600052603260045260246000fd5b90600182811c921680156121b3575b602083101461219d57565b634e487b7160e01b600052602260045260246000fd5b91607f1691612192565b90604051918260008254926121d184612183565b808452936001811690811561223f57506001146121f8575b506121f6925003836120d1565b565b90506000929192526020600020906000915b8183106122235750509060206121f692820101386121e9565b602091935080600191548385890101520191019091849261220a565b9050602092506121f694915060ff191682840152151560051b820101386121e9565b1561226857565b60405162461bcd60e51b815260206004820152602260248201527f5472616e73616374696f6e206e6f7420726561647920666f7220617070726f76604482015261185b60f21b6064820152608490fd5b156122bf57565b60405162461bcd60e51b815260206004820152601660248201527521b0b63632b91034b9903737ba1030b71030b236b4b760511b6044820152606490fd5b60001981146114d65760010190565b805468010000000000000000811015610e435761232e91600182018155612155565b819291549060031b91821b91600019901b1916179055565b80600052600460205260096040600020015460ff8160081c16908161241d575b8161240f575b506123745750565b61237c6126a8565b80600052600460205260406000206009810160ff8154166007811015610886576003036118db57600460ff19825416179055600080808060058501548095600360018060a01b0391015416828215612406575bf1156118c65760207ff487d4e13e32569d69ec2608b5b1530450d715b84e0c81d0077b5b7e766db1d191604051908152a260018055565b506108fc6123cf565b60ff915060181c163861236c565b905060ff8160101c1690612366565b60008181526020818152604080832033845290915290205460ff161561244f5750565b63e2517d3f60e01b6000523360045260245260446000fd5b6001600160a01b03811660009081526000805160206128f4833981519152602052604090205460ff166124ff576001600160a01b031660008181526000805160206128f483398151915260205260408120805460ff191660011790553391906000805160206128d4833981519152907f2f8788117e7eff1d82e926ec794901d17c78024a50270940304540a733656f0d9080a4600190565b50600090565b6000818152602081815260408083206001600160a01b038616845290915290205460ff16612589576000818152602081815260408083206001600160a01b0395909516808452949091528120805460ff19166001179055339291907f2f8788117e7eff1d82e926ec794901d17c78024a50270940304540a733656f0d9080a4600190565b5050600090565b6001600160a01b03811660009081526000805160206128f4833981519152602052604090205460ff16156124ff576001600160a01b031660008181526000805160206128f483398151915260205260408120805460ff191690553391906000805160206128d4833981519152907ff6391f5c32d9c69d2a47ea670b442974b53935d1edc7fd64eb21e047a839171b9080a4600190565b6000818152602081815260408083206001600160a01b038616845290915290205460ff1615612589576000818152602081815260408083206001600160a01b0395909516808452949091528120805460ff19169055339291907ff6391f5c32d9c69d2a47ea670b442974b53935d1edc7fd64eb21e047a839171b9080a4600190565b6002600154146126b9576002600155565b633ee5aeb560e01b60005260046000fd5b9081600052600460205260406000206002810160018060a01b038154163314801561289d575b8015612887575b8015612861575b1561281c576009820160ff8154166007811015610886576004146127cb57805460ff191660051790554790811590811561279a575b5050507fdf5af23a8bfbd700e381c19607d03504d7a5ba1876c669cccd37feace1f5adaa91600161279592015460005260036020526004604060002001600160a01b60ff60a01b19825416179055604051918291602083526020830190612059565b0390a2565b600080938193829360018060a01b039054169083906127c2575bf1156118c657388080612733565b506108fc6127b4565b60405162461bcd60e51b815260206004820152602360248201527f43616e6e6f742063616e63656c20636f6d706c65746564207472616e7361637460448201526234b7b760e91b6064820152608490fd5b60405162461bcd60e51b815260206004820152601860248201527f4e6f7420617574686f72697a656420746f2063616e63656c00000000000000006044820152606490fd5b503360009081526000805160206128b4833981519152602052604090205460ff166126fe565b5060048201546001600160a01b031633146126f7565b5060038201546001600160a01b031633146126f056fe7d7ffb7a348e1c6a02869081a26547b49160dd3df72d1d75a570eb9b698292eccab5a0bfe0b79d2c4b1c2e02599fa044d115b7511f9659307cb4276950967709e298cb3514b0702cec56ac2053c1ecb2187cfdc8a325f22a672bc5027eadc9e2a26469706673582212206c22ef5363d55f58cd0bb233ea63e56b60a14fcc67694f4d0946707c3b8ac48e64736f6c634300081c00332f8788117e7eff1d82e926ec794901d17c78024a50270940304540a733656f0d7d7ffb7a348e1c6a02869081a26547b49160dd3df72d1d75a570eb9b698292ecad3228b676f7d3cd4284a5443f17f1962b36e491b30a40b2405849e597ba5fb5",
  "linkReferences": {},
  "deployedLinkReferences": {}
}