{
  "_format": "hh-sol-artifact-1",
  "contractName": "EscrowFactoryUpgradeableSimple",
  "sourceName": "contracts/upgradeable/EscrowFactoryUpgradeableSimple.sol",
  "abi": [
    {
      "inputs": [],
      "stateMutability": "nonpayable",
      "type": "constructor"
    },
    {
      "anonymous": false,
      "inputs": [
        {
          "indexed": false,
          "internalType": "address",
          "name": "previousAdmin",
          "type": "address"
        },
        {
          "indexed": false,
          "internalType": "address",
          "name": "newAdmin",
          "type": "address"
        }
      ],
      "name": "AdminChanged",
      "type": "event"
    },
    {
      "anonymous": false,
      "inputs": [
        {
          "indexed": true,
          "internalType": "address",
          "name": "beacon",
          "type": "address"
        }
      ],
      "name": "BeaconUpgraded",
      "type": "event"
    },
    {
      "anonymous": false,
      "inputs": [
        {
          "indexed": true,
          "internalType": "address",
          "name": "escrow",
          "type": "address"
        },
        {
          "indexed": true,
          "internalType": "address",
          "name": "buyer",
          "type": "address"
        },
        {
          "indexed": true,
          "internalType": "address",
          "name": "seller",
          "type": "address"
        }
      ],
      "name": "EscrowCreated",
      "type": "event"
    },
    {
      "anonymous": false,
      "inputs": [
        {
          "indexed": false,
          "internalType": "uint8",
          "name": "version",
          "type": "uint8"
        }
      ],
      "name": "Initialized",
      "type": "event"
    },
    {
      "anonymous": false,
      "inputs": [
        {
          "indexed": true,
          "internalType": "address",
          "name": "previousOwner",
          "type": "address"
        },
        {
          "indexed": true,
          "internalType": "address",
          "name": "newOwner",
          "type": "address"
        }
      ],
      "name": "OwnershipTransferred",
      "type": "event"
    },
    {
      "anonymous": false,
      "inputs": [
        {
          "indexed": true,
          "internalType": "address",
          "name": "token",
          "type": "address"
        },
        {
          "indexed": false,
          "internalType": "bool",
          "name": "status",
          "type": "bool"
        }
      ],
      "name": "TokenWhitelisted",
      "type": "event"
    },
    {
      "anonymous": false,
      "inputs": [
        {
          "indexed": true,
          "internalType": "address",
          "name": "implementation",
          "type": "address"
        }
      ],
      "name": "Upgraded",
      "type": "event"
    },
    {
      "inputs": [
        {
          "internalType": "address",
          "name": "buyer",
          "type": "address"
        },
        {
          "internalType": "address",
          "name": "seller",
          "type": "address"
        },
        {
          "internalType": "address",
          "name": "",
          "type": "address"
        },
        {
          "internalType": "address",
          "name": "",
          "type": "address"
        },
        {
          "internalType": "address",
          "name": "tokenAddress",
          "type": "address"
        },
        {
          "internalType": "uint256",
          "name": "",
          "type": "uint256"
        },
        {
          "internalType": "uint256",
          "name": "",
          "type": "uint256"
        },
        {
          "internalType": "string",
          "name": "",
          "type": "string"
        }
      ],
      "name": "createEscrow",
      "outputs": [
        {
          "internalType": "address",
          "name": "",
          "type": "address"
        }
      ],
      "stateMutability": "nonpayable",
      "type": "function"
    },
    {
      "inputs": [
        {
          "internalType": "uint256",
          "name": "",
          "type": "uint256"
        }
      ],
      "name": "escrows",
      "outputs": [
        {
          "internalType": "address",
          "name": "",
          "type": "address"
        }
      ],
      "stateMutability": "view",
      "type": "function"
    },
    {
      "inputs": [],
      "name": "getEscrowCount",
      "outputs": [
        {
          "internalType": "uint256",
          "name": "",
          "type": "uint256"
        }
      ],
      "stateMutability": "view",
      "type": "function"
    },
    {
      "inputs": [
        {
          "internalType": "address",
          "name": "_platformWallet",
          "type": "address"
        },
        {
          "internalType": "uint256",
          "name": "_platformFee",
          "type": "uint256"
        }
      ],
      "name": "initialize",
      "outputs": [],
      "stateMutability": "nonpayable",
      "type": "function"
    },
    {
      "inputs": [],
      "name": "owner",
      "outputs": [
        {
          "internalType": "address",
          "name": "",
          "type": "address"
        }
      ],
      "stateMutability": "view",
      "type": "function"
    },
    {
      "inputs": [],
      "name": "platformFee",
      "outputs": [
        {
          "internalType": "uint256",
          "name": "",
          "type": "uint256"
        }
      ],
      "stateMutability": "view",
      "type": "function"
    },
    {
      "inputs": [],
      "name": "platformWallet",
      "outputs": [
        {
          "internalType": "address",
          "name": "",
          "type": "address"
        }
      ],
      "stateMutability": "view",
      "type": "function"
    },
    {
      "inputs": [],
      "name": "proxiableUUID",
      "outputs": [
        {
          "internalType": "bytes32",
          "name": "",
          "type": "bytes32"
        }
      ],
      "stateMutability": "view",
      "type": "function"
    },
    {
      "inputs": [],
      "name": "renounceOwnership",
      "outputs": [],
      "stateMutability": "nonpayable",
      "type": "function"
    },
    {
      "inputs": [
        {
          "internalType": "address",
          "name": "token",
          "type": "address"
        },
        {
          "internalType": "bool",
          "name": "status",
          "type": "bool"
        }
      ],
      "name": "setTokenWhitelist",
      "outputs": [],
      "stateMutability": "nonpayable",
      "type": "function"
    },
    {
      "inputs": [
        {
          "internalType": "address",
          "name": "newOwner",
          "type": "address"
        }
      ],
      "name": "transferOwnership",
      "outputs": [],
      "stateMutability": "nonpayable",
      "type": "function"
    },
    {
      "inputs": [
        {
          "internalType": "address",
          "name": "newImplementation",
          "type": "address"
        }
      ],
      "name": "upgradeTo",
      "outputs": [],
      "stateMutability": "nonpayable",
      "type": "function"
    },
    {
      "inputs": [
        {
          "internalType": "address",
          "name": "newImplementation",
          "type": "address"
        },
        {
          "internalType": "bytes",
          "name": "data",
          "type": "bytes"
        }
      ],
      "name": "upgradeToAndCall",
      "outputs": [],
      "stateMutability": "payable",
      "type": "function"
    },
    {
      "inputs": [
        {
          "internalType": "address",
          "name": "",
          "type": "address"
        }
      ],
      "name": "whitelistedTokens",
      "outputs": [
        {
          "internalType": "bool",
          "name": "",
          "type": "bool"
        }
      ],
      "stateMutability": "view",
      "type": "function"
    }
  ],
  "bytecode": "0x60a0604052306080523480156200001557600080fd5b506200002062000026565b62000115565b600054610100900460ff16156200005a5760405162461bcd60e51b81526004016200005190620000b3565b60405180910390fd5b60005460ff90811614620000b1576000805460ff191660ff9081179091556040517f7f26b83ff96e1f2b6a682f133852f6798a09c465da95921460cefb384740249891620000a89162000105565b60405180910390a15b565b60208082528101620000ff81602781527f496e697469616c697a61626c653a20636f6e747261637420697320696e697469602082015266616c697a696e6760c81b604082015260600190565b92915050565b60ff8216815260208101620000ff565b608051615def6200014d6000396000818161040b0152818161044e015281816104df0152818161052201526105a70152615def6000f3fe608060405260043610620000bc5760003560e01c8063012f52ee14620000c157806316b1513514620000fe57806326232a2e146200011f5780632b2be63d14620001375780633659cfe6146200015c5780634f1ef286146200018357806352d1902d146200019a578063715018a614620001b25780638da5cb5b14620001ca578063c9bcc97e14620001e2578063cd6dc6871462000207578063daf9c210146200022c578063f2fde38b146200026f578063fa2af9da1462000294575b600080fd5b348015620000ce57600080fd5b50620000e6620000e036600462000c72565b620002b6565b604051620000f5919062000cb8565b60405180910390f35b3480156200010b57600080fd5b5060cc545b604051620000f5919062000ccf565b3480156200012c57600080fd5b506200011060ca5481565b3480156200014457600080fd5b50620000e66200015636600462000e0b565b620002e1565b3480156200016957600080fd5b50620001816200017b36600462000edd565b62000401565b005b620001816200019436600462000f00565b620004d5565b348015620001a757600080fd5b50620001106200059a565b348015620001bf57600080fd5b5062000181620005fb565b348015620001d757600080fd5b50620000e662000613565b348015620001ef57600080fd5b50620001816200020136600462000f72565b62000622565b3480156200021457600080fd5b50620001816200022636600462000fb0565b6200068e565b3480156200023957600080fd5b50620002606200024b36600462000edd565b60cb6020526000908152604090205460ff1681565b604051620000f5919062000fee565b3480156200027c57600080fd5b50620001816200028e36600462000edd565b6200079e565b348015620002a157600080fd5b5060c954620000e6906001600160a01b031681565b60cc8181548110620002c757600080fd5b6000918252602090912001546001600160a01b0316905081565b6001600160a01b038416600090815260cb602052604081205460ff16620003255760405162461bcd60e51b81526004016200031c906200102a565b60405180910390fd5b60c95460ca546040516000926001600160a01b03169190620003479062000c49565b620003549291906200103c565b604051809103906000f08015801562000371573d6000803e3d6000fd5b5060cc805460018101825560009182527f47197230e1e4b29fc0bd84d7d78966c0925452aff72a2a121538b102457e9ebe0180546001600160a01b0319166001600160a01b038481169182179092556040519394508c821693918e169290917f4743c0c2884de4f19f280dbd2cc93bc24491cdf876ed107046fe8194183c09e99190a49998505050505050505050565b6001600160a01b037f00000000000000000000000000000000000000000000000000000000000000001630036200044c5760405162461bcd60e51b81526004016200031c9062001093565b7f00000000000000000000000000000000000000000000000000000000000000006001600160a01b031662000480620007dc565b6001600160a01b031614620004a95760405162461bcd60e51b81526004016200031c90620010dc565b620004b481620007f9565b60408051600080825260208201909252620004d2918391906200082c565b50565b6001600160a01b037f0000000000000000000000000000000000000000000000000000000000000000163003620005205760405162461bcd60e51b81526004016200031c9062001093565b7f00000000000000000000000000000000000000000000000000000000000000006001600160a01b031662000554620007dc565b6001600160a01b0316146200057d5760405162461bcd60e51b81526004016200031c90620010dc565b6200058882620007f9565b62000596828260016200082c565b5050565b6000306001600160a01b037f00000000000000000000000000000000000000000000000000000000000000001614620005e75760405162461bcd60e51b81526004016200031c9062001142565b5060008051602062005d7383398151915290565b620006056200091d565b62000611600062000951565b565b6033546001600160a01b031690565b6200062c6200091d565b6001600160a01b038216600081815260cb602052604090819020805460ff1916841515179055517fef81a9943b96c8df4ef243401c9bf5159146166211356898b52d382086168d92906200068290849062000fee565b60405180910390a25050565b600054610100900460ff1615808015620006af5750600054600160ff909116105b80620006d45750620006c130620009a3565b158015620006d4575060005460ff166001145b620006f35760405162461bcd60e51b81526004016200031c906200119e565b6000805460ff19166001179055801562000717576000805461ff0019166101001790555b62000721620009b2565b6200072b620009e6565b60c980546001600160a01b0319166001600160a01b03851617905560ca829055801562000799576000805461ff00191690556040517f7f26b83ff96e1f2b6a682f133852f6798a09c465da95921460cefb3847402498906200079090600190620011c7565b60405180910390a15b505050565b620007a86200091d565b6001600160a01b038116620007d15760405162461bcd60e51b81526004016200031c9062001219565b620004d28162000951565b60008051602062005d73833981519152546001600160a01b031690565b620008036200091d565b6001600160a01b038116620004d25760405162461bcd60e51b81526004016200031c906200125e565b7f4910fdfa16fed3260ed0e7147f7cc6da11a60208b5b9406d12a635614ffd91435460ff16156200086257620007998362000a10565b826001600160a01b03166352d1902d6040518163ffffffff1660e01b8152600401602060405180830381865afa925050508015620008bf575060408051601f3d908101601f19168201909252620008bc918101906200127d565b60015b620008de5760405162461bcd60e51b81526004016200031c90620012ea565b60008051602062005d7383398151915281146200090f5760405162461bcd60e51b81526004016200031c9062001341565b506200079983838362000a6a565b336200092862000613565b6001600160a01b031614620006115760405162461bcd60e51b81526004016200031c9062001384565b603380546001600160a01b038381166001600160a01b0319831681179093556040519116919082907f8be0079c531659141344cd1fd0a4f28419497f9722a3daafe3b4186f6b6457e090600090a35050565b6001600160a01b03163b151590565b600054610100900460ff16620009dc5760405162461bcd60e51b81526004016200031c90620013dd565b6200061162000a9b565b600054610100900460ff16620006115760405162461bcd60e51b81526004016200031c90620013dd565b62000a1b81620009a3565b62000a3a5760405162461bcd60e51b81526004016200031c9062001438565b60008051602062005d7383398151915280546001600160a01b0319166001600160a01b0392909216919091179055565b62000a758362000ad0565b60008251118062000a835750805b15620007995762000a95838362000b12565b50505050565b600054610100900460ff1662000ac55760405162461bcd60e51b81526004016200031c90620013dd565b620006113362000951565b62000adb8162000a10565b6040516001600160a01b038216907fbc7cd75a20ee27fd9adebab32041f755214dbc6bffa90cc0225b39da2e5c2d3b90600090a250565b606062000b3a838360405180606001604052806027815260200162005d936027913962000b43565b90505b92915050565b6060600080856001600160a01b03168560405162000b62919062001495565b600060405180830381855af49150503d806000811462000b9f576040519150601f19603f3d011682016040523d82523d6000602084013e62000ba4565b606091505b509150915062000bb78683838762000bc3565b925050505b9392505050565b6060831562000c0857825160000362000c005762000be185620009a3565b62000c005760405162461bcd60e51b81526004016200031c90620014d4565b508162000c14565b62000c14838362000c1c565b949350505050565b81511562000c2d5781518083602001fd5b8060405162461bcd60e51b81526004016200031c91906200151f565b614820806200153383390190565b805b8114620004d257600080fd5b803562000b3d8162000c57565b60006020828403121562000c895762000c89600080fd5b62000b3a838362000c65565b60006001600160a01b03821662000b3d565b62000cb28162000c95565b82525050565b6020810162000b3d828462000ca7565b8062000cb2565b6020810162000b3d828462000cc8565b62000c598162000c95565b803562000b3d8162000cdf565b601f01601f191690565b634e487b7160e01b600052604160045260246000fd5b62000d228262000cf7565b81016001600160401b038111828210171562000d425762000d4262000d01565b6040525050565b600062000d5560405190565b905062000d63828262000d17565b919050565b60006001600160401b0382111562000d845762000d8462000d01565b62000d8f8262000cf7565b60200192915050565b82818337506000910152565b600062000dbb62000db58462000d68565b62000d49565b905082815283838301111562000dd45762000dd4600080fd5b62000bbc83602083018462000d98565b600082601f83011262000dfa5762000dfa600080fd5b62000b3a8383356020850162000da4565b600080600080600080600080610100898b03121562000e2d5762000e2d600080fd5b62000e398a8a62000cea565b975062000e4a8a60208b0162000cea565b965062000e5b8a60408b0162000cea565b955062000e6c8a60608b0162000cea565b945062000e7d8a60808b0162000cea565b935062000e8e8a60a08b0162000c65565b925062000e9f8a60c08b0162000c65565b915060e08901356001600160401b0381111562000ebf5762000ebf600080fd5b62000ecd8b828c0162000de4565b9150509295985092959890939650565b60006020828403121562000ef45762000ef4600080fd5b62000b3a838362000cea565b6000806040838503121562000f185762000f18600080fd5b62000f24848462000cea565b915060208301356001600160401b0381111562000f445762000f44600080fd5b62000f528582860162000de4565b9150509250929050565b80151562000c59565b803562000b3d8162000f5c565b6000806040838503121562000f8a5762000f8a600080fd5b62000f96848462000cea565b915062000fa7846020850162000f65565b90509250929050565b6000806040838503121562000fc85762000fc8600080fd5b62000fd4848462000cea565b915062000fa7846020850162000c65565b80151562000cb2565b6020810162000b3d828462000fe5565b601581526020810174151bdad95b881b9bdd081dda1a5d195b1a5cdd1959605a1b815290505b60200190565b6020808252810162000b3d8162000ffe565b604081016200104c828562000ca7565b62000bbc602083018462000cc8565b602c81526020810160008051602062005d5383398151915281526b19195b1959d85d1958d85b1b60a21b602082015290505b60400190565b6020808252810162000b3d816200105b565b602c81526020810160008051602062005d5383398151915281526b6163746976652070726f787960a01b602082015290506200108d565b6020808252810162000b3d81620010a5565b60388152602081017f555550535570677261646561626c653a206d757374206e6f742062652063616c8152771b1959081d1a1c9bdd59da0819195b1959d85d1958d85b1b60421b602082015290506200108d565b6020808252810162000b3d81620010ee565b602e8152602081017f496e697469616c697a61626c653a20636f6e747261637420697320616c72656181526d191e481a5b9a5d1a585b1a5e995960921b602082015290506200108d565b6020808252810162000b3d8162001154565b600060ff821662000b3d565b62000cb281620011b0565b6020810162000b3d8284620011bc565b60268152602081017f4f776e61626c653a206e6577206f776e657220697320746865207a65726f206181526564647265737360d01b602082015290506200108d565b6020808252810162000b3d81620011d7565b601e8152602081017f496e76616c696420696d706c656d656e746174696f6e206164647265737300008152905062001024565b6020808252810162000b3d816200122b565b805162000b3d8162000c57565b600060208284031215620012945762001294600080fd5b62000b3a838362001270565b602e8152602081017f45524331393637557067726164653a206e657720696d706c656d656e7461746981526d6f6e206973206e6f74205555505360901b602082015290506200108d565b6020808252810162000b3d81620012a0565b60298152602081017f45524331393637557067726164653a20756e737570706f727465642070726f788152681a58589b195555525160ba1b602082015290506200108d565b6020808252810162000b3d81620012fc565b60208082527f4f776e61626c653a2063616c6c6572206973206e6f7420746865206f776e6572910190815262001024565b6020808252810162000b3d8162001353565b602b8152602081017f496e697469616c697a61626c653a20636f6e7472616374206973206e6f74206981526a6e697469616c697a696e6760a81b602082015290506200108d565b6020808252810162000b3d8162001396565b602d8152602081017f455243313936373a206e657720696d706c656d656e746174696f6e206973206e81526c1bdd08184818dbdb9d1c9858dd609a1b602082015290506200108d565b6020808252810162000b3d81620013ef565b60005b83811015620014675781810151838201526020016200144d565b50506000910152565b60006200147b825190565b6200148b8185602086016200144a565b9290920192915050565b62000b3d818362001470565b601d8152602081017f416464726573733a2063616c6c20746f206e6f6e2d636f6e74726163740000008152905062001024565b6020808252810162000b3d81620014a1565b6000620014f1825190565b8084526020840193506200150a8185602086016200144a565b620015158162000cf7565b9093019392505050565b6020808252810162000b3a8184620014e656fe60806040523480156200001157600080fd5b506040516200482038038062004820833981016040819052620000349162000208565b60016000819055805460ff191690556001600160a01b0382166200007657604051630b0f5aa160e11b81526004016200006d9062000246565b60405180910390fd5b6101f4811115620000a257806101f46040516373ab893560e11b81526004016200006d92919062000273565b600880546001600160a01b0319166001600160a01b0384161790556007819055620000cf60003362000103565b620000fb7fa49807205ce4d355092ef5a8a18f56e8913cf4a201fbe287825b095693c217753362000103565b50506200028e565b6200010f82826200018e565b6200018a5760008281526002602090815260408083206001600160a01b03851684529091529020805460ff19166001179055620001493390565b6001600160a01b0316816001600160a01b0316837f2f8788117e7eff1d82e926ec794901d17c78024a50270940304540a733656f0d60405160405180910390a45b5050565b60008281526002602090815260408083206001600160a01b038516845290915290205460ff165b92915050565b60006001600160a01b038216620001b5565b620001d881620001bb565b8114620001e457600080fd5b50565b8051620001b581620001cd565b80620001d8565b8051620001b581620001f4565b60008060408385031215620002205762000220600080fd5b6200022c8484620001e7565b91506200023d8460208501620001fb565b90509250929050565b60208082528101620001b581600e81526d1c1b185d199bdc9b55d85b1b195d60921b602082015260400190565b828152604081016200028760208301849052565b9392505050565b614582806200029e6000396000f3fe608060405234801561001057600080fd5b50600436106101a15760003560e01c806301ffc9a7146101a657806308b88af1146101cf5780630ffb1d8b146101e257806312e8e2c3146101f75780631e31a6dd1461020a57806322459e1814610212578063248a9ca3146102465780632840662d146102595780632f2ff15d1461026c57806336568abe1461027f57806339292763146102925780633998a681146102a55780633a49995b146102ae5780633b76594d146102ce5780633f4ba83a146102e15780633f4dbda2146102e957806346b6cfd3146102f15780634d104adf146103045780634d68282f1461032b5780635aef573c1461033e5780635c975abb1461035157806375b238fc1461035c5780637d19e596146103715780638456cb591461039157806391d14854146103995780639d5e0551146103ac578063a217fddf146103bf578063b138821e146103c7578063b49b0cb3146103da578063cdd78cfc146103ed578063d547741f146103f6578063daf9c21014610409578063e01824361461042c578063e1f1c4a71461043f578063fa2af9da14610448575b600080fd5b6101b96101b43660046130c0565b610468565b6040516101c691906130e9565b60405180910390f35b6101b96101dd366004613108565b61049f565b6101f56101f036600461315f565b6108db565b005b6101f5610205366004613108565b61091f565b6101f561095f565b6102397fcab5a0bfe0b79d2c4b1c2e02599fa044d115b7511f9659307cb427695096770981565b6040516101c6919061319d565b610239610254366004613108565b610af7565b6101f56102673660046131fc565b610b0c565b6101f561027a366004613264565b610ccd565b6101f561028d366004613264565b610cee565b6101f56102a0366004613108565b610d24565b6102396101f481565b6102c16102bc366004613108565b610da4565b6040516101c691906132d7565b6101f56102dc366004613108565b610de5565b6101f5610f5c565b600654610239565b6101f56102ff366004613108565b610f7c565b6102397fbb08418a67729a078f87bbc8d02a770929bb68f5bfdf134ae2ead6ed38e2f4ae81565b6101f5610339366004613108565b6110ef565b6101f561034c3660046132e5565b6112fe565b60015460ff166101b9565b61023960008051602061450d83398151915281565b61038461037f366004613108565b611981565b6040516101c691906135a5565b6101f5611d36565b6101b96103a7366004613264565b611d56565b6102396103ba3660046135cc565b611d81565b610239600081565b6101f56103d5366004613108565b61217e565b6101f56103e8366004613606565b612365565b61023960075481565b6101f5610404366004613264565b612391565b6101b9610417366004613635565b60056020526000908152604090205460ff1681565b6101f561043a366004613108565b6123ad565b61023961271081565b60085461045b906001600160a01b031681565b6040516101c69190613654565b60006001600160e01b03198216637965db0b60e01b148061049957506301ffc9a760e01b6001600160e01b03198316145b92915050565b60008160065481106104cf5780604051630f6ceba360e21b81526004016104c6919061319d565b60405180910390fd5b60008381526003602081815260408084208151610240810183528154815260018201546001600160a01b039081169482019490945260028201548416928101929092529283015482166060820152600483015482166080820152600583015490911660a082015260068083015460c0830152600783015460e08301526008830154610100830152600983015491929161012084019160ff9091169081111561057957610579613293565b600681111561058a5761058a613293565b8152602001600a82016040518060a00160405290816000820180546105ae90613678565b80601f01602080910402602001604051908101604052809291908181526020018280546105da90613678565b80156106275780601f106105fc57610100808354040283529160200191610627565b820191906000526020600020905b81548152906001019060200180831161060a57829003601f168201915b5050505050815260200160018201805461064090613678565b80601f016020809104026020016040519081016040528092919081815260200182805461066c90613678565b80156106b95780601f1061068e576101008083540402835291602001916106b9565b820191906000526020600020905b81548152906001019060200180831161069c57829003601f168201915b50505050508152602001600282015481526020016003820180546106dc90613678565b80601f016020809104026020016040519081016040528092919081815260200182805461070890613678565b80156107555780601f1061072a57610100808354040283529160200191610755565b820191906000526020600020905b81548152906001019060200180831161073857829003601f168201915b50505091835250506004919091015460ff9081161515602092830152918352600f84015490830152601083015460408301526011830154606083015260128301548082161515608084015261010081048216151560a084015262010000900416151560c082015260138201805460e0909201916107d190613678565b80601f01602080910402602001604051908101604052809291908181526020018280546107fd90613678565b801561084a5780601f1061081f5761010080835404028352916020019161084a565b820191906000526020600020905b81548152906001019060200180831161082d57829003601f168201915b50505050508152505090506002600681111561086857610868613293565b816101200151600681111561087f5761087f613293565b1480156108925750806101400151608001515b80156108a05750806101c001515b80156108ae5750806101e001515b80156108d1575060608101516001600160a01b031615806108d157508061020001515b9250505b50919050565b60008051602061450d8339815191526108f3816128d7565b506001600160a01b03919091166000908152600560205260409020805460ff1916911515919091179055565b60008051602061450d833981519152610937816128d7565b6101f48211156109595760405162461bcd60e51b81526004016104c6906136c1565b50600755565b600080805260036020527f3617319a054d772f909f7c479a2cebe5066e836a939412e32403c99029b92f00547f3617319a054d772f909f7c479a2cebe5066e836a939412e32403c99029b92eff91906001600160a01b031633036109f957601282015460ff16156109e25760405162461bcd60e51b81526004016104c6906136fc565b5060128101805460ff191660011790556000610ac2565b60028201546001600160a01b03163303610a50576012820154610100900460ff1615610a375760405162461bcd60e51b81526004016104c690613738565b5060128101805461ff0019166101001790556001610ac2565b60038201546001600160a01b03163303610aaa57601282015462010000900460ff1615610a8f5760405162461bcd60e51b81526004016104c690613773565b5060128101805462ff00001916620100001790556002610ac2565b60405162461bcd60e51b81526004016104c6906137b1565b336001600160a01b0316600060008051602061452d83398151915283604051610aeb91906137ef565b60405180910390a35050565b60009081526002602052604090206001015490565b610b146128e1565b610b1c61290a565b836006548110610b415780604051630f6ceba360e21b81526004016104c6919061319d565b8460048060008381526003602052604090206009015460ff166006811115610b6b57610b6b613293565b14610ba6576000828152600360205260409081902060090154905163350b7a7f60e21b81526104c691849160ff9091169084906004016137fd565b600087815260036020526040902060048101546001600160a01b0316331480610be25750610be260008051602061450d83398151915233611d56565b610bfe5760405162461bcd60e51b81526004016104c690613863565b600088815260046020819052604090912060038101805433610100026001600160a81b0319909116176001179055908101610c3a87898361394d565b508715610c4f57610c4a8961292f565b610c74565b60098201805460ff191660021790556012820180546201010162ffffff199091161790555b336001600160a01b0316897f7b71d2e00379bd165b2750d54298da2414376699827edca2bce2a096c491d2e98989604051610cb0929190613a3f565b60405180910390a35050505050610cc76001600055565b50505050565b610cd682610af7565b610cdf816128d7565b610ce98383612a3c565b505050565b6001600160a01b0381163314610d165760405162461bcd60e51b81526004016104c690613a9b565b610d208282612ac2565b5050565b610d2c6128e1565b610d3461290a565b806006548110610d595780604051630f6ceba360e21b81526004016104c6919061319d565b610d7160008051602061450d83398151915233611d56565b610d8d5760405162461bcd60e51b81526004016104c690613ad5565b610d968261292f565b50610da16001600055565b50565b6000816006548110610dcb5780604051630f6ceba360e21b81526004016104c6919061319d565b505060009081526003602052604090206009015460ff1690565b610ded6128e1565b610df561290a565b806006548110610e1a5780604051630f6ceba360e21b81526004016104c6919061319d565b8160008060008381526003602052604090206009015460ff166006811115610e4457610e44613293565b14610e7f576000828152600360205260409081902060090154905163350b7a7f60e21b81526104c691849160ff9091169084906004016137fd565b600084815260036020526040902060018101546001600160a01b03163314610eb95760405162461bcd60e51b81526004016104c690613b10565b8060100154421115610edd5760405162461bcd60e51b81526004016104c690613b4c565b60068101546005820154610f00916001600160a01b039091169033903090612b29565b60098101805460ff191660011790556006810154604051339187917fe030e47e27825a2ad1b19e4cf2e70bfbfb3124af275c7727a82b114ba7b29a8591610f469161319d565b60405180910390a350505050610da16001600055565b60008051602061450d833981519152610f74816128d7565b610da1612b81565b610f846128e1565b610f8c61290a565b806006548110610fb15780604051630f6ceba360e21b81526004016104c6919061319d565b8160018060008381526003602052604090206009015460ff166006811115610fdb57610fdb613293565b14611016576000828152600360205260409081902060090154905163350b7a7f60e21b81526104c691849160ff9091169084906004016137fd565b6000848152600360208190526040909120908101546001600160a01b0316331480611054575061105460008051602061450d83398151915233611d56565b6110705760405162461bcd60e51b81526004016104c690613b8e565b80601101544211156110945760405162461bcd60e51b81526004016104c690613bcf565b60098101805460ff19908116600217909155600e820180549091166001179055604051339086907f0229702661bd522f80cf22e71a80e376c2ac20ea2ecd8e680f1a8e8285738a1c90600090a350505050610da16001600055565b6110f76128e1565b6110ff61290a565b8060065481106111245780604051630f6ceba360e21b81526004016104c6919061319d565b8160028060008381526003602052604090206009015460ff16600681111561114e5761114e613293565b14611189576000828152600360205260409081902060090154905163350b7a7f60e21b81526104c691849160ff9091169084906004016137fd565b6111928461049f565b6111ae5760405162461bcd60e51b81526004016104c690613c0e565b600084815260036020526040812060088101546006820154919291612710916111d691613c34565b6111e09190613c61565b90506000826007015490506000818385600601546111fe9190613c75565b6112089190613c75565b60098501805460ff1916600317905560058501549091506001600160a01b0316831561124857600854611248906001600160a01b03838116911686612bcd565b600083118015611264575060038501546001600160a01b031615155b15611285576003850154611285906001600160a01b03838116911685612bcd565b60028501546112a1906001600160a01b03838116911684612bcd565b60028501546040516001600160a01b03909116908a907f6e3c6096795c8298a218b2cfb8bde42726ff7c9a3d27b4d3ba41ab7f74feb5fb906112e490869061319d565b60405180910390a35050505050505050610da16001600055565b6113066128e1565b61130e61290a565b8260065481106113335780604051630f6ceba360e21b81526004016104c6919061319d565b60008481526003602081815260408084208151610240810183528154815260018201546001600160a01b039081169482019490945260028201548416928101929092529283015482166060820152600483015482166080820152600583015490911660a082015260068083015460c0830152600783015460e0830152600883015461010083015260098301548894939161012084019160ff16908111156113dc576113dc613293565b60068111156113ed576113ed613293565b8152602001600a82016040518060a001604052908160008201805461141190613678565b80601f016020809104026020016040519081016040528092919081815260200182805461143d90613678565b801561148a5780601f1061145f5761010080835404028352916020019161148a565b820191906000526020600020905b81548152906001019060200180831161146d57829003601f168201915b505050505081526020016001820180546114a390613678565b80601f01602080910402602001604051908101604052809291908181526020018280546114cf90613678565b801561151c5780601f106114f15761010080835404028352916020019161151c565b820191906000526020600020905b8154815290600101906020018083116114ff57829003601f168201915b505050505081526020016002820154815260200160038201805461153f90613678565b80601f016020809104026020016040519081016040528092919081815260200182805461156b90613678565b80156115b85780601f1061158d576101008083540402835291602001916115b8565b820191906000526020600020905b81548152906001019060200180831161159b57829003601f168201915b50505091835250506004919091015460ff9081161515602092830152918352600f84015490830152601083015460408301526011830154606083015260128301548082161515608084015261010081048216151560a084015262010000900416151560c082015260138201805460e09092019161163490613678565b80601f016020809104026020016040519081016040528092919081815260200182805461166090613678565b80156116ad5780601f10611682576101008083540402835291602001916116ad565b820191906000526020600020905b81548152906001019060200180831161169057829003601f168201915b505050505081525050905080602001516001600160a01b0316336001600160a01b031614806116f1575080604001516001600160a01b0316336001600160a01b0316145b80611711575080606001516001600160a01b0316336001600160a01b0316145b80611731575080608001516001600160a01b0316336001600160a01b0316145b8061174f575061174f60008051602061450d83398151915233611d56565b61176e57336040516337b13c2960e01b81526004016104c69190613caf565b60008681526003602052604090206001600982015460ff16600681111561179757611797613293565b14806117bb57506002600982015460ff1660068111156117b9576117b9613293565b145b6117d75760405162461bcd60e51b81526004016104c690613d00565b846117f45760405162461bcd60e51b81526004016104c690613d3c565b60098101805460ff191660041790556013810161181286888361394d565b506040518060c00160405280336001600160a01b0316815260200187878080601f0160208091040260200160405190810160405280939291908181526020018383808284376000920182905250938552505042602080850191909152604080850184905260608501849052805180830182528481526080909501949094528b83526004815292909120835181546001600160a01b0319166001600160a01b03909116178155918301516001830191506118cb9082613d4c565b5060408201516002820155606082015160038201805460808501516001600160a01b031661010002610100600160a81b0319931515939093166001600160a81b03199091161791909117905560a0820151600482019061192b9082613d4c565b50905050336001600160a01b0316877f1b84372106d77c6daea0dda35bbc0229d10a83f58ec899092884925193682341888860405161196b929190613a3f565b60405180910390a350505050610ce96001600055565b611989612fd9565b8160065481106119ae5780604051630f6ceba360e21b81526004016104c6919061319d565b6000838152600360208181526040928390208351610240810185528154815260018201546001600160a01b03908116938201939093526002820154831694810194909452918201548116606084015260048201548116608084015260058201541660a083015260068082015460c0840152600782015460e08401526008820154610100840152600982015461012084019160ff90911690811115611a5457611a54613293565b6006811115611a6557611a65613293565b8152602001600a82016040518060a0016040529081600082018054611a8990613678565b80601f0160208091040260200160405190810160405280929190818152602001828054611ab590613678565b8015611b025780601f10611ad757610100808354040283529160200191611b02565b820191906000526020600020905b815481529060010190602001808311611ae557829003601f168201915b50505050508152602001600182018054611b1b90613678565b80601f0160208091040260200160405190810160405280929190818152602001828054611b4790613678565b8015611b945780601f10611b6957610100808354040283529160200191611b94565b820191906000526020600020905b815481529060010190602001808311611b7757829003601f168201915b5050505050815260200160028201548152602001600382018054611bb790613678565b80601f0160208091040260200160405190810160405280929190818152602001828054611be390613678565b8015611c305780601f10611c0557610100808354040283529160200191611c30565b820191906000526020600020905b815481529060010190602001808311611c1357829003601f168201915b50505091835250506004919091015460ff9081161515602092830152918352600f84015490830152601083015460408301526011830154606083015260128301548082161515608084015261010081048216151560a084015262010000900416151560c082015260138201805460e090920191611cac90613678565b80601f0160208091040260200160405190810160405280929190818152602001828054611cd890613678565b8015611d255780601f10611cfa57610100808354040283529160200191611d25565b820191906000526020600020905b815481529060010190602001808311611d0857829003601f168201915b505050505081525050915050919050565b60008051602061450d833981519152611d4e816128d7565b610da1612bec565b60009182526002602090815260408084206001600160a01b0393909316845291905290205460ff1690565b6000611d8b6128e1565b611d9361290a565b6000611da26020840184613635565b6001600160a01b031603611dc85760405162461bcd60e51b81526004016104c690613e30565b6000611dda6040840160208501613635565b6001600160a01b031603611e005760405162461bcd60e51b81526004016104c690613e6b565b611e106040830160208401613635565b6001600160a01b0316611e266020840184613635565b6001600160a01b031603611e4c5760405162461bcd60e51b81526004016104c690613eb8565b6000611e5e60a0840160808501613635565b6001600160a01b031603611e845760405162461bcd60e51b81526004016104c690613ef2565b60056000611e9860a0850160808601613635565b6001600160a01b0316815260208101919091526040016000205460ff16611ed15760405162461bcd60e51b81526004016104c690613f2c565b60008260a0013511611ef55760405162461bcd60e51b81526004016104c690613f6e565b4282610120013511611f195760405162461bcd60e51b81526004016104c690613fab565b81610120013582610140013511611f425760405162461bcd60e51b81526004016104c690613fed565b6000611f52610100840184613ffd565b611f5c9080614021565b905011611f7b5760405162461bcd60e51b81526004016104c69061409e565b6006805460009182611f8c836140ae565b909155506000818152600360209081526040909120828155919250611fb390850185613635565b6001820180546001600160a01b0319166001600160a01b0392909216919091179055611fe56040850160208601613635565b6002820180546001600160a01b0319166001600160a01b03929092169190911790556120176060850160408601613635565b6003820180546001600160a01b0319166001600160a01b03929092169190911790556120496080850160608601613635565b6004820180546001600160a01b0319166001600160a01b039290921691909117905561207b60a0850160808601613635565b6005820180546001600160a01b0319166001600160a01b039290921691909117905560a0840135600682015560c0840135600782015560e0840135600882015560098101805460ff191690556120d5610100850185613ffd565b600a82016120e382826141ae565b505042600f820155610120840135601082015561014084013560118201556121116040850160208601613635565b6001600160a01b03166121276020860186613635565b6001600160a01b0316837f9405ad0a6208539879349284d71265479b1623846f70303da1f9890d6e8c10a78760a00135604051612164919061319d565b60405180910390a45090506121796001600055565b919050565b6121866128e1565b61218e61290a565b8060065481106121b35780604051630f6ceba360e21b81526004016104c6919061319d565b8160028060008381526003602052604090206009015460ff1660068111156121dd576121dd613293565b14612218576000828152600360205260409081902060090154905163350b7a7f60e21b81526104c691849160ff9091169084906004016137fd565b600084815260036020526040812060018101549091906001600160a01b0316330361227957601282015460ff16156122625760405162461bcd60e51b81526004016104c6906136fc565b5060128101805460ff191660011790556000612326565b60028201546001600160a01b031633036122d0576012820154610100900460ff16156122b75760405162461bcd60e51b81526004016104c690613738565b5060128101805461ff0019166101001790556001612326565b60038201546001600160a01b03163303610aaa57601282015462010000900460ff161561230f5760405162461bcd60e51b81526004016104c690613773565b5060128101805462ff000019166201000017905560025b336001600160a01b03168660008051602061452d8339815191528360405161234e91906137ef565b60405180910390a35050505050610da16001600055565b60008051602061450d83398151915261237d816128d7565b610ce96001600160a01b0384163384612bcd565b61239a82610af7565b6123a3816128d7565b610ce98383612ac2565b6123b56128e1565b6123bd61290a565b8060065481106123e25780604051630f6ceba360e21b81526004016104c6919061319d565b8160008060008381526003602052604090206009015460ff16600681111561240c5761240c613293565b14612447576000828152600360205260409081902060090154905163350b7a7f60e21b81526104c691849160ff9091169084906004016137fd565b60008481526003602081815260408084208151610240810183528154815260018201546001600160a01b039081169482019490945260028201548416928101929092529283015482166060820152600483015482166080820152600583015490911660a082015260068083015460c0830152600783015460e0830152600883015461010083015260098301548894939161012084019160ff16908111156124f0576124f0613293565b600681111561250157612501613293565b8152602001600a82016040518060a001604052908160008201805461252590613678565b80601f016020809104026020016040519081016040528092919081815260200182805461255190613678565b801561259e5780601f106125735761010080835404028352916020019161259e565b820191906000526020600020905b81548152906001019060200180831161258157829003601f168201915b505050505081526020016001820180546125b790613678565b80601f01602080910402602001604051908101604052809291908181526020018280546125e390613678565b80156126305780601f1061260557610100808354040283529160200191612630565b820191906000526020600020905b81548152906001019060200180831161261357829003601f168201915b505050505081526020016002820154815260200160038201805461265390613678565b80601f016020809104026020016040519081016040528092919081815260200182805461267f90613678565b80156126cc5780601f106126a1576101008083540402835291602001916126cc565b820191906000526020600020905b8154815290600101906020018083116126af57829003601f168201915b50505091835250506004919091015460ff9081161515602092830152918352600f84015490830152601083015460408301526011830154606083015260128301548082161515608084015261010081048216151560a084015262010000900416151560c082015260138201805460e09092019161274890613678565b80601f016020809104026020016040519081016040528092919081815260200182805461277490613678565b80156127c15780601f10612796576101008083540402835291602001916127c1565b820191906000526020600020905b8154815290600101906020018083116127a457829003601f168201915b505050505081525050905080602001516001600160a01b0316336001600160a01b03161480612805575080604001516001600160a01b0316336001600160a01b0316145b80612825575080606001516001600160a01b0316336001600160a01b0316145b80612845575080608001516001600160a01b0316336001600160a01b0316145b80612863575061286360008051602061450d83398151915233611d56565b61288257336040516337b13c2960e01b81526004016104c69190613caf565b600086815260036020526040808220600901805460ff1916600617905551339188917f6f44c80719cb2f74bdbd68b7af10147acb9b52e2675ad02f9c87f098599599389190a35050505050610da16001600055565b610da18133612c27565b6002600054036129035760405162461bcd60e51b81526004016104c6906141ea565b6002600055565b60015460ff161561292d5760405162461bcd60e51b81526004016104c69061421f565b565b60008181526003602052604090206001600982015460ff16600681111561295857612958613293565b148061297c57506004600982015460ff16600681111561297a5761297a613293565b145b8061299f57506002600982015460ff16600681111561299d5761299d613293565b145b6129bb5760405162461bcd60e51b81526004016104c690614261565b60098101805460ff1916600590811790915560018201546006830154918301546129f5926001600160a01b03918216929190911690612bcd565b600181015460068201546040516001600160a01b039092169184917f80b577b4fc190ab86d963549e29f496afd079c5d81a2480d61217d4b5060a28c91610aeb919061319d565b612a468282611d56565b610d205760008281526002602090815260408083206001600160a01b03851684529091529020805460ff19166001179055612a7e3390565b6001600160a01b0316816001600160a01b0316837f2f8788117e7eff1d82e926ec794901d17c78024a50270940304540a733656f0d60405160405180910390a45050565b612acc8282611d56565b15610d205760008281526002602090815260408083206001600160a01b0385168085529252808320805460ff1916905551339285917ff6391f5c32d9c69d2a47ea670b442974b53935d1edc7fd64eb21e047a839171b9190a45050565b610cc7846323b872dd60e01b858585604051602401612b4a93929190614271565b60408051601f198184030181529190526020810180516001600160e01b03166001600160e01b031990931692909217909152612c80565b612b89612d12565b6001805460ff191690557f5db9ee0a495bf2e6ff9c91a7834c1ba4fdd244a5e8aa4e537bd38aeae4b073aa335b604051612bc39190613654565b60405180910390a1565b610ce98363a9059cbb60e01b8484604051602401612b4a929190614299565b612bf461290a565b6001805460ff1916811790557f62e78cea01bee320cd4e420270b5ea74000d11b0c9f74754ebdbfc544b05a25833612bb6565b612c318282611d56565b610d2057612c3e81612d34565b612c49836020612d46565b604051602001612c5a9291906142d6565b60408051601f198184030181529082905262461bcd60e51b82526104c691600401614326565b6000612cd5826040518060400160405280602081526020017f5361666545524332303a206c6f772d6c6576656c2063616c6c206661696c6564815250856001600160a01b0316612eb89092919063ffffffff16565b9050805160001480612cf6575080806020019051810190612cf69190614342565b610ce95760405162461bcd60e51b81526004016104c6906143a6565b60015460ff1661292d5760405162461bcd60e51b81526004016104c6906143df565b60606104996001600160a01b03831660145b60606000612d55836002613c34565b612d609060026143ef565b6001600160401b03811115612d7757612d77613873565b6040519080825280601f01601f191660200182016040528015612da1576020820181803683370190505b509050600360fc1b81600081518110612dbc57612dbc614402565b60200101906001600160f81b031916908160001a905350600f60fb1b81600181518110612deb57612deb614402565b60200101906001600160f81b031916908160001a9053506000612e0f846002613c34565b612e1a9060016143ef565b90505b6001811115612e92576f181899199a1a9b1b9c1cb0b131b232b360811b85600f1660108110612e4e57612e4e614402565b1a60f81b828281518110612e6457612e64614402565b60200101906001600160f81b031916908160001a90535060049490941c93612e8b81614418565b9050612e1d565b508315612eb15760405162461bcd60e51b81526004016104c69061445f565b9392505050565b6060612ec78484600085612ecf565b949350505050565b606082471015612ef15760405162461bcd60e51b81526004016104c6906144b0565b600080866001600160a01b03168587604051612f0d91906144c0565b60006040518083038185875af1925050503d8060008114612f4a576040519150601f19603f3d011682016040523d82523d6000602084013e612f4f565b606091505b5091509150612f6087838387612f6b565b979650505050505050565b60608315612faa578251600003612fa3576001600160a01b0385163b612fa35760405162461bcd60e51b81526004016104c6906144fc565b5081612ec7565b612ec78383815115612fbf5781518083602001fd5b8060405162461bcd60e51b81526004016104c69190614326565b6040805161024081018252600080825260208201819052918101829052606081018290526080810182905260a0810182905260c0810182905260e0810182905261010081018290529061012082019081526020016130616040518060a00160405280606081526020016060815260200160008152602001606081526020016000151581525090565b8152602001600081526020016000815260200160008152602001600015158152602001600015158152602001600015158152602001606081525090565b6001600160e01b031981165b8114610da157600080fd5b80356104998161309e565b6000602082840312156130d5576130d5600080fd5b612eb183836130b5565b8015155b82525050565b6020810161049982846130df565b806130aa565b8035610499816130f7565b60006020828403121561311d5761311d600080fd5b612eb183836130fd565b60006001600160a01b038216610499565b6130aa81613127565b803561049981613138565b8015156130aa565b80356104998161314c565b6000806040838503121561317557613175600080fd5b61317f8484613141565b915061318e8460208501613154565b90509250929050565b806130e3565b602081016104998284613197565b60008083601f8401126131c0576131c0600080fd5b5081356001600160401b038111156131da576131da600080fd5b6020830191508360018202830111156131f5576131f5600080fd5b9250929050565b6000806000806060858703121561321557613215600080fd5b61321f86866130fd565b935061322e8660208701613154565b925060408501356001600160401b0381111561324c5761324c600080fd5b613258878288016131ab565b95989497509550505050565b6000806040838503121561327a5761327a600080fd5b61328484846130fd565b915061318e8460208501613141565b634e487b7160e01b600052602160045260246000fd5b60078110610da157610da1613293565b80612179816132a9565b6000610499826132b9565b6130e3816132c3565b6020810161049982846132ce565b6000806000604084860312156132fd576132fd600080fd5b61330785856130fd565b925060208401356001600160401b0381111561332557613325600080fd5b613331868287016131ab565b92509250509250925092565b6130e381613127565b60005b83811015613361578181015183820152602001613349565b50506000910152565b601f01601f191690565b600061337e825190565b808452602084019350613395818560208601613346565b61339e8161336a565b9093019392505050565b805160a0808452600091908401906133c08282613374565b915050602083015184820360208601526133da8282613374565b91505060408301516133ef6040860182613197565b50606083015184820360608601526134078282613374565b915050608083015161341c60808601826130df565b509392505050565b80516000906102408401906134398582613197565b50602083015161344c602086018261333d565b50604083015161345f604086018261333d565b506060830151613472606086018261333d565b506080830151613485608086018261333d565b5060a083015161349860a086018261333d565b5060c08301516134ab60c0860182613197565b5060e08301516134be60e0860182613197565b506101008301516134d3610100860182613197565b506101208301516134e86101208601826132ce565b5061014083015184820361014086015261350282826133a8565b915050610160830151613519610160860182613197565b5061018083015161352e610180860182613197565b506101a08301516135436101a0860182613197565b506101c08301516135586101c08601826130df565b506101e083015161356d6101e08601826130df565b506102008301516135826102008601826130df565b5061022083015184820361022086015261359c8282613374565b95945050505050565b60208082528101612eb18184613424565b600061016082840312156108d5576108d5600080fd5b6000602082840312156135e1576135e1600080fd5b81356001600160401b038111156135fa576135fa600080fd5b612ec7848285016135b6565b6000806040838503121561361c5761361c600080fd5b6136268484613141565b915061318e84602085016130fd565b60006020828403121561364a5761364a600080fd5b612eb18383613141565b60208101610499828461333d565b634e487b7160e01b600052602260045260246000fd5b60028104600182168061368c57607f821691505b6020821081036108d5576108d5613662565b600c8152602081016b08ccaca40e8dede40d0d2ced60a31b815290505b60200190565b602080825281016104998161369e565b601681526020810175109d5e595c88185b1c9958591e48185c1c1c9bdd995960521b815290506136bb565b60208082528101610499816136d1565b60178152602081017614d95b1b195c88185b1c9958591e48185c1c1c9bdd9959604a1b815290506136bb565b602080825281016104998161370c565b6016815260208101751059d95b9d08185b1c9958591e48185c1c1c9bdd995960521b815290506136bb565b6020808252810161049981613748565b6019815260208101784e6f7420617574686f72697a656420746f20617070726f766560381b815290506136bb565b6020808252810161049981613783565b60058110610da157610da1613293565b80612179816137c1565b6000610499826137d1565b6130e3816137db565b6020810161049982846137e6565b6060810161380b8286613197565b61381860208301856132ce565b612ec760408301846132ce565b60218152602081017f4f6e6c792061726269746572206f722061646d696e2063616e207265736f6c768152606560f81b602082015290505b60400190565b6020808252810161049981613825565b634e487b7160e01b600052604160045260246000fd5b60006104996138958381565b90565b6138a183613889565b815460001960089490940293841b1916921b91909117905550565b6000610ce9818484613898565b81811015610d20576138dc6000826138bc565b6001016138c9565b601f821115610ce9576000818152602090206020601f8501048101602085101561390b5750805b61391d6020601f8601048301826138c9565b5050505050565b6000196008929092029190911c191690565b6139408282613924565b6002909202909117919050565b826001600160401b0381111561396557613965613873565b61396f8254613678565b61397a8282856138e4565b506000601f8211600181146139a957600083156139975750848201355b6139a18482613936565b855550613a02565b600084815260209020601f19841690835b828110156139da57878501358255602094850194600190920191016139ba565b50848210156139f6576139f3601f861685890135613924565b81555b50506001600284020184555b505050505050565b82818337506000910152565b818352602083019250613a2a828483613a0a565b506000613a368261336a565b90920192915050565b60208082528101612ec7818486613a16565b602f8152602081017f416363657373436f6e74726f6c3a2063616e206f6e6c792072656e6f756e636581526e103937b632b9903337b91039b2b63360891b6020820152905061385d565b6020808252810161049981613a51565b60158152602081017413db9b1e4818591b5a5b8818d85b881c99599d5b99605a1b815290506136bb565b6020808252810161049981613aab565b60168152602081017513db9b1e48189d5e595c8818d85b8819195c1bdcda5d60521b815290506136bb565b6020808252810161049981613ae5565b60178152602081017611195c1bdcda5d08191958591b1a5b99481c185cdcd959604a1b815290506136bb565b6020808252810161049981613b20565b601e8152602081017f4f6e6c79206167656e74206f722061646d696e2063616e207665726966790000815290506136bb565b6020808252810161049981613b5c565b601c8152602081017b15995c9a599a58d85d1a5bdb88191958591b1a5b99481c185cdcd95960221b815290506136bb565b6020808252810161049981613b9e565b601a8152602081017914995b19585cd94818dbdb991a5d1a5bdb9cc81b9bdd081b595d60321b815290506136bb565b6020808252810161049981613bdf565b634e487b7160e01b600052601160045260246000fd5b818102811582820484141761049957610499613c1e565b634e487b7160e01b600052601260045260246000fd5b600082613c7057613c70613c4b565b500490565b8181038181111561049957610499613c1e565b601281526020810171195cd8dc9bddc81c185c9d1a58da5c185b9d60721b815290506136bb565b60408101613cbd828461333d565b8181036020830152612eb181613c88565b601f8152602081017f43616e6e6f74206469737075746520696e2063757272656e7420737461746500815290506136bb565b6020808252810161049981613cce565b601781526020810176111a5cdc1d5d19481c99585cdbdb881c995c5d5a5c9959604a1b815290506136bb565b6020808252810161049981613d10565b81516001600160401b03811115613d6557613d65613873565b613d6f8254613678565b613d7a8282856138e4565b506020601f821160018114613da95760008315613d975750848201515b613da18482613936565b85555061391d565b600084815260208120601f198516915b82811015613dd95787850151825560209485019460019092019101613db9565b5084821015613df75783870151613df3601f871682613924565b8255505b50505050600202600101905550565b601581526020810174496e76616c6964206275796572206164647265737360581b815290506136bb565b6020808252810161049981613e06565b601681526020810175496e76616c69642073656c6c6572206164647265737360501b815290506136bb565b6020808252810161049981613e40565b60228152602081017f427579657220616e642073656c6c6572206d75737420626520646966666572658152611b9d60f21b6020820152905061385d565b6020808252810161049981613e7b565b601581526020810174496e76616c696420746f6b656e206164647265737360581b815290506136bb565b6020808252810161049981613ec8565b601581526020810174151bdad95b881b9bdd081dda1a5d195b1a5cdd1959605a1b815290506136bb565b6020808252810161049981613f02565b601f8152602081017f4465706f73697420616d6f756e74206d75737420626520706f73697469766500815290506136bb565b6020808252810161049981613f3c565b601881526020810177496e76616c6964206465706f73697420646561646c696e6560401b815290506136bb565b6020808252810161049981613f7e565b601d8152602081017f496e76616c696420766572696669636174696f6e20646561646c696e65000000815290506136bb565b6020808252810161049981613fbb565b60008235609e193684900301811261401757614017600080fd5b9190910192915050565b6000808335601e193685900301811261403c5761403c600080fd5b830191505080356001600160401b0381111561405a5761405a600080fd5b6020820191506001810236038213156131f5576131f5600080fd5b601481526020810173141c9bdc195c9d1e481251081c995c5d5a5c995960621b815290506136bb565b6020808252810161049981614075565b6000600182016140c0576140c0613c1e565b5060010190565b610ce983838361394d565b60008135610499816130f7565b6140e882613889565b805b8255505050565b600081356104998161314c565b6000811515610499565b614111826140fe565b815460ff191660ff8216176140ea565b61412b8280614021565b6141368183856140c7565b50506141456020830183614021565b6141538183600186016140c7565b50506040820180614163826140d2565b905061417281600285016140df565b50506141816060830183614021565b61418f8183600386016140c7565b5050608082018061419f826140f1565b9050610cc78160048501614108565b610d208282614121565b601f8152602081017f5265656e7472616e637947756172643a207265656e7472616e742063616c6c00815290506136bb565b60208082528101610499816141b8565b60108152602081016f14185d5cd8589b194e881c185d5cd95960821b815290506136bb565b60208082528101610499816141fa565b601e8152602081017f43616e6e6f7420726566756e6420696e2063757272656e742073746174650000815290506136bb565b602080825281016104998161422f565b6060810161427f828661333d565b61428c602083018561333d565b612ec76040830184613197565b604081016142a7828561333d565b612eb16020830184613197565b60006142be825190565b6142cc818560208601613346565b9290920192915050565b76020b1b1b2b9b9a1b7b73a3937b61d1030b1b1b7bab73a1604d1b815260170161430081846142b4565b7001034b99036b4b9b9b4b733903937b6329607d1b81526011019050612eb181836142b4565b60208082528101612eb18184613374565b80516104998161314c565b60006020828403121561435757614357600080fd5b612eb18383614337565b602a8152602081017f5361666545524332303a204552433230206f7065726174696f6e20646964206e8152691bdd081cdd58d8d9595960b21b6020820152905061385d565b6020808252810161049981614361565b60148152602081017314185d5cd8589b194e881b9bdd081c185d5cd95960621b815290506136bb565b60208082528101610499816143b6565b8082018082111561049957610499613c1e565b634e487b7160e01b600052603260045260246000fd5b60008161442757614427613c1e565b506000190190565b60208082527f537472696e67733a20686578206c656e67746820696e73756666696369656e7491019081526136bb565b602080825281016104998161442f565b60268152602081017f416464726573733a20696e73756666696369656e742062616c616e636520666f8152651c8818d85b1b60d21b6020820152905061385d565b602080825281016104998161446f565b61049981836142b4565b601d8152602081017f416464726573733a2063616c6c20746f206e6f6e2d636f6e7472616374000000815290506136bb565b60208082528101610499816144ca56fea49807205ce4d355092ef5a8a18f56e8913cf4a201fbe287825b095693c217758c76bb4d0d0276699b16a2e9464b50cad045b0200b9bc632ae3a5d57077fa264a2646970667358221220221023dd9ed9887b097c33d625c1c60b0b1e4f598538af899c9d02863622941964736f6c6343000816003346756e6374696f6e206d7573742062652063616c6c6564207468726f75676820360894a13ba1a3210667c828492db98dca3e2076cc3735a920a3ca505d382bbc416464726573733a206c6f772d6c6576656c2064656c65676174652063616c6c206661696c6564a264697066735822122041cb4f96a6f50e7f2e56375c14ea05b5942b27f81f38a7e0c158eb4800d3f6ad64736f6c63430008160033",
  "linkReferences": {},
  "deployedLinkReferences": {}
}